{
	"contracts/MoonPay.sol": {
		"LimitedToken": {
			"abi": [
				{
					"inputs": [
						{
							"internalType": "string",
							"name": "name",
							"type": "string"
						},
						{
							"internalType": "string",
							"name": "symbol",
							"type": "string"
						},
						{
							"internalType": "uint256",
							"name": "totalSupply",
							"type": "uint256"
						},
						{
							"internalType": "address",
							"name": "admin",
							"type": "address"
						},
						{
							"internalType": "contract IFactory",
							"name": "factory",
							"type": "address"
						},
						{
							"internalType": "address[]",
							"name": "limitedTokens",
							"type": "address[]"
						}
					],
					"stateMutability": "nonpayable",
					"type": "constructor"
				},
				{
					"anonymous": false,
					"inputs": [
						{
							"indexed": true,
							"internalType": "address",
							"name": "owner",
							"type": "address"
						},
						{
							"indexed": true,
							"internalType": "address",
							"name": "spender",
							"type": "address"
						},
						{
							"indexed": false,
							"internalType": "uint256",
							"name": "value",
							"type": "uint256"
						}
					],
					"name": "Approval",
					"type": "event"
				},
				{
					"anonymous": false,
					"inputs": [
						{
							"indexed": true,
							"internalType": "address",
							"name": "previousOwner",
							"type": "address"
						},
						{
							"indexed": true,
							"internalType": "address",
							"name": "newOwner",
							"type": "address"
						}
					],
					"name": "OwnershipTransferred",
					"type": "event"
				},
				{
					"anonymous": false,
					"inputs": [
						{
							"indexed": true,
							"internalType": "address",
							"name": "from",
							"type": "address"
						},
						{
							"indexed": true,
							"internalType": "address",
							"name": "to",
							"type": "address"
						},
						{
							"indexed": false,
							"internalType": "uint256",
							"name": "value",
							"type": "uint256"
						}
					],
					"name": "Transfer",
					"type": "event"
				},
				{
					"anonymous": false,
					"inputs": [
						{
							"indexed": false,
							"internalType": "address",
							"name": "account",
							"type": "address"
						},
						{
							"indexed": false,
							"internalType": "bool",
							"name": "isLimited",
							"type": "bool"
						}
					],
					"name": "TransferLimitedSet",
					"type": "event"
				},
				{
					"inputs": [
						{
							"internalType": "address",
							"name": "owner",
							"type": "address"
						},
						{
							"internalType": "address",
							"name": "spender",
							"type": "address"
						}
					],
					"name": "allowance",
					"outputs": [
						{
							"internalType": "uint256",
							"name": "",
							"type": "uint256"
						}
					],
					"stateMutability": "view",
					"type": "function"
				},
				{
					"inputs": [
						{
							"internalType": "address",
							"name": "spender",
							"type": "address"
						},
						{
							"internalType": "uint256",
							"name": "amount",
							"type": "uint256"
						}
					],
					"name": "approve",
					"outputs": [
						{
							"internalType": "bool",
							"name": "",
							"type": "bool"
						}
					],
					"stateMutability": "nonpayable",
					"type": "function"
				},
				{
					"inputs": [
						{
							"internalType": "address",
							"name": "account",
							"type": "address"
						}
					],
					"name": "balanceOf",
					"outputs": [
						{
							"internalType": "uint256",
							"name": "",
							"type": "uint256"
						}
					],
					"stateMutability": "view",
					"type": "function"
				},
				{
					"inputs": [],
					"name": "decimals",
					"outputs": [
						{
							"internalType": "uint8",
							"name": "",
							"type": "uint8"
						}
					],
					"stateMutability": "pure",
					"type": "function"
				},
				{
					"inputs": [
						{
							"internalType": "address",
							"name": "spender",
							"type": "address"
						},
						{
							"internalType": "uint256",
							"name": "subtractedValue",
							"type": "uint256"
						}
					],
					"name": "decreaseAllowance",
					"outputs": [
						{
							"internalType": "bool",
							"name": "",
							"type": "bool"
						}
					],
					"stateMutability": "nonpayable",
					"type": "function"
				},
				{
					"inputs": [
						{
							"internalType": "address",
							"name": "spender",
							"type": "address"
						},
						{
							"internalType": "uint256",
							"name": "addedValue",
							"type": "uint256"
						}
					],
					"name": "increaseAllowance",
					"outputs": [
						{
							"internalType": "bool",
							"name": "",
							"type": "bool"
						}
					],
					"stateMutability": "nonpayable",
					"type": "function"
				},
				{
					"inputs": [
						{
							"internalType": "address",
							"name": "",
							"type": "address"
						}
					],
					"name": "isAmmPair",
					"outputs": [
						{
							"internalType": "bool",
							"name": "",
							"type": "bool"
						}
					],
					"stateMutability": "view",
					"type": "function"
				},
				{
					"inputs": [
						{
							"internalType": "address",
							"name": "",
							"type": "address"
						}
					],
					"name": "isTransferLimited",
					"outputs": [
						{
							"internalType": "bool",
							"name": "",
							"type": "bool"
						}
					],
					"stateMutability": "view",
					"type": "function"
				},
				{
					"inputs": [
						{
							"internalType": "address",
							"name": "to",
							"type": "address"
						},
						{
							"internalType": "uint256",
							"name": "amount",
							"type": "uint256"
						}
					],
					"name": "mint",
					"outputs": [],
					"stateMutability": "nonpayable",
					"type": "function"
				},
				{
					"inputs": [],
					"name": "name",
					"outputs": [
						{
							"internalType": "string",
							"name": "",
							"type": "string"
						}
					],
					"stateMutability": "view",
					"type": "function"
				},
				{
					"inputs": [],
					"name": "owner",
					"outputs": [
						{
							"internalType": "address",
							"name": "",
							"type": "address"
						}
					],
					"stateMutability": "view",
					"type": "function"
				},
				{
					"inputs": [],
					"name": "renounceOwnership",
					"outputs": [],
					"stateMutability": "nonpayable",
					"type": "function"
				},
				{
					"inputs": [
						{
							"internalType": "address",
							"name": "account",
							"type": "address"
						},
						{
							"internalType": "bool",
							"name": "isPair",
							"type": "bool"
						}
					],
					"name": "setAmmPair",
					"outputs": [],
					"stateMutability": "nonpayable",
					"type": "function"
				},
				{
					"inputs": [
						{
							"internalType": "address",
							"name": "account",
							"type": "address"
						},
						{
							"internalType": "bool",
							"name": "isLimited",
							"type": "bool"
						}
					],
					"name": "setTransferLimited",
					"outputs": [],
					"stateMutability": "nonpayable",
					"type": "function"
				},
				{
					"inputs": [],
					"name": "symbol",
					"outputs": [
						{
							"internalType": "string",
							"name": "",
							"type": "string"
						}
					],
					"stateMutability": "view",
					"type": "function"
				},
				{
					"inputs": [],
					"name": "totalSupply",
					"outputs": [
						{
							"internalType": "uint256",
							"name": "",
							"type": "uint256"
						}
					],
					"stateMutability": "view",
					"type": "function"
				},
				{
					"inputs": [
						{
							"internalType": "address",
							"name": "to",
							"type": "address"
						},
						{
							"internalType": "uint256",
							"name": "amount",
							"type": "uint256"
						}
					],
					"name": "transfer",
					"outputs": [
						{
							"internalType": "bool",
							"name": "",
							"type": "bool"
						}
					],
					"stateMutability": "nonpayable",
					"type": "function"
				},
				{
					"inputs": [
						{
							"internalType": "address",
							"name": "from",
							"type": "address"
						},
						{
							"internalType": "address",
							"name": "to",
							"type": "address"
						},
						{
							"internalType": "uint256",
							"name": "amount",
							"type": "uint256"
						}
					],
					"name": "transferFrom",
					"outputs": [
						{
							"internalType": "bool",
							"name": "",
							"type": "bool"
						}
					],
					"stateMutability": "nonpayable",
					"type": "function"
				},
				{
					"inputs": [],
					"name": "transferLimitedAccounts",
					"outputs": [
						{
							"internalType": "address[]",
							"name": "",
							"type": "address[]"
						}
					],
					"stateMutability": "view",
					"type": "function"
				},
				{
					"inputs": [
						{
							"internalType": "address",
							"name": "newOwner",
							"type": "address"
						}
					],
					"name": "transferOwnership",
					"outputs": [],
					"stateMutability": "nonpayable",
					"type": "function"
				}
			],
			"devdoc": {
				"kind": "dev",
				"methods": {
					"allowance(address,address)": {
						"details": "See {IERC20-allowance}."
					},
					"approve(address,uint256)": {
						"details": "See {IERC20-approve}. NOTE: If `amount` is the maximum `uint256`, the allowance is not updated on `transferFrom`. This is semantically equivalent to an infinite approval. Requirements: - `spender` cannot be the zero address."
					},
					"balanceOf(address)": {
						"details": "See {IERC20-balanceOf}."
					},
					"decimals()": {
						"details": "Returns the number of decimals used to get its user representation. For example, if `decimals` equals `2`, a balance of `505` tokens should be displayed to a user as `5.05` (`505 / 10 ** 2`). Tokens usually opt for a value of 18, imitating the relationship between Ether and Wei. This is the value {ERC20} uses, unless this function is overridden; NOTE: This information is only used for _display_ purposes: it in no way affects any of the arithmetic of the contract, including {IERC20-balanceOf} and {IERC20-transfer}."
					},
					"decreaseAllowance(address,uint256)": {
						"details": "Atomically decreases the allowance granted to `spender` by the caller. This is an alternative to {approve} that can be used as a mitigation for problems described in {IERC20-approve}. Emits an {Approval} event indicating the updated allowance. Requirements: - `spender` cannot be the zero address. - `spender` must have allowance for the caller of at least `subtractedValue`."
					},
					"increaseAllowance(address,uint256)": {
						"details": "Atomically increases the allowance granted to `spender` by the caller. This is an alternative to {approve} that can be used as a mitigation for problems described in {IERC20-approve}. Emits an {Approval} event indicating the updated allowance. Requirements: - `spender` cannot be the zero address."
					},
					"name()": {
						"details": "Returns the name of the token."
					},
					"owner()": {
						"details": "Returns the address of the current owner."
					},
					"renounceOwnership()": {
						"details": "Leaves the contract without owner. It will not be possible to call `onlyOwner` functions anymore. Can only be called by the current owner. NOTE: Renouncing ownership will leave the contract without an owner, thereby removing any functionality that is only available to the owner."
					},
					"symbol()": {
						"details": "Returns the symbol of the token, usually a shorter version of the name."
					},
					"totalSupply()": {
						"details": "See {IERC20-totalSupply}."
					},
					"transfer(address,uint256)": {
						"details": "See {IERC20-transfer}. Requirements: - `to` cannot be the zero address. - the caller must have a balance of at least `amount`."
					},
					"transferFrom(address,address,uint256)": {
						"details": "See {IERC20-transferFrom}. Emits an {Approval} event indicating the updated allowance. This is not required by the EIP. See the note at the beginning of {ERC20}. NOTE: Does not update the allowance if the current allowance is the maximum `uint256`. Requirements: - `from` and `to` cannot be the zero address. - `from` must have a balance of at least `amount`. - the caller must have allowance for ``from``'s tokens of at least `amount`."
					},
					"transferOwnership(address)": {
						"details": "Transfers ownership of the contract to a new account (`newOwner`). Can only be called by the current owner."
					}
				},
				"version": 1
			},
			"evm": {
				"assembly": "    /* \"contracts/MoonPay.sol\":208:2689  contract LimitedToken is ERC20, Ownable {... */\n  mstore(0x40, 0x80)\n    /* \"contracts/MoonPay.sol\":498:1004  constructor(... */\n  callvalue\n  dup1\n  iszero\n  tag_1\n  jumpi\n  0x00\n  dup1\n  revert\ntag_1:\n  pop\n  mload(0x40)\n  sub(codesize, bytecodeSize)\n  dup1\n  bytecodeSize\n  dup4\n  codecopy\n  dup2\n  dup2\n  add\n  0x40\n  mstore\n  dup2\n  add\n  swap1\n  tag_2\n  swap2\n  swap1\n  tag_3\n  jump\t// in\ntag_2:\n    /* \"contracts/MoonPay.sol\":698:702  name */\n  dup6\n    /* \"contracts/MoonPay.sol\":704:710  symbol */\n  dup6\n    /* \"@openzeppelin/contracts/token/ERC20/ERC20.sol\":2052:2057  name_ */\n  dup2\n    /* \"@openzeppelin/contracts/token/ERC20/ERC20.sol\":2044:2049  _name */\n  0x03\n    /* \"@openzeppelin/contracts/token/ERC20/ERC20.sol\":2044:2057  _name = name_ */\n  swap1\n  dup2\n  tag_8\n  swap2\n  swap1\n  tag_9\n  jump\t// in\ntag_8:\n  pop\n    /* \"@openzeppelin/contracts/token/ERC20/ERC20.sol\":2077:2084  symbol_ */\n  dup1\n    /* \"@openzeppelin/contracts/token/ERC20/ERC20.sol\":2067:2074  _symbol */\n  0x04\n    /* \"@openzeppelin/contracts/token/ERC20/ERC20.sol\":2067:2084  _symbol = symbol_ */\n  swap1\n  dup2\n  tag_10\n  swap2\n  swap1\n  tag_9\n  jump\t// in\ntag_10:\n  pop\n    /* \"@openzeppelin/contracts/token/ERC20/ERC20.sol\":1978:2091  constructor(string memory name_, string memory symbol_) {... */\n  pop\n  pop\n    /* \"@openzeppelin/contracts/access/Ownable.sol\":936:968  _transferOwnership(_msgSender()) */\n  tag_12\n    /* \"@openzeppelin/contracts/access/Ownable.sol\":955:967  _msgSender() */\n  tag_13\n    /* \"@openzeppelin/contracts/access/Ownable.sol\":955:965  _msgSender */\n  shl(0x20, tag_14)\n    /* \"@openzeppelin/contracts/access/Ownable.sol\":955:967  _msgSender() */\n  0x20\n  shr\n  jump\t// in\ntag_13:\n    /* \"@openzeppelin/contracts/access/Ownable.sol\":936:954  _transferOwnership */\n  shl(0x20, tag_15)\n    /* \"@openzeppelin/contracts/access/Ownable.sol\":936:968  _transferOwnership(_msgSender()) */\n  0x20\n  shr\n  jump\t// in\ntag_12:\n    /* \"contracts/MoonPay.sol\":732:774  _mint(admin, totalSupply * 10**decimals()) */\n  tag_17\n    /* \"contracts/MoonPay.sol\":738:743  admin */\n  dup4\n    /* \"contracts/MoonPay.sol\":763:773  decimals() */\n  tag_18\n    /* \"contracts/MoonPay.sol\":763:771  decimals */\n  shl(0x20, tag_19)\n    /* \"contracts/MoonPay.sol\":763:773  decimals() */\n  0x20\n  shr\n  jump\t// in\ntag_18:\n    /* \"contracts/MoonPay.sol\":759:761  10 */\n  0x0a\n    /* \"contracts/MoonPay.sol\":759:773  10**decimals() */\n  tag_20\n  swap2\n  swap1\n  tag_21\n  jump\t// in\ntag_20:\n    /* \"contracts/MoonPay.sol\":745:756  totalSupply */\n  dup7\n    /* \"contracts/MoonPay.sol\":745:773  totalSupply * 10**decimals() */\n  tag_22\n  swap2\n  swap1\n  tag_23\n  jump\t// in\ntag_22:\n    /* \"contracts/MoonPay.sol\":732:737  _mint */\n  shl(0x20, tag_24)\n    /* \"contracts/MoonPay.sol\":732:774  _mint(admin, totalSupply * 10**decimals()) */\n  0x20\n  shr\n  jump\t// in\ntag_17:\n    /* \"contracts/MoonPay.sol\":790:799  uint256 i */\n  0x00\n    /* \"contracts/MoonPay.sol\":785:963  for (uint256 i = 0; i < limitedTokens.length; i++) {... */\ntag_25:\n    /* \"contracts/MoonPay.sol\":809:822  limitedTokens */\n  dup2\n    /* \"contracts/MoonPay.sol\":809:829  limitedTokens.length */\n  mload\n    /* \"contracts/MoonPay.sol\":805:806  i */\n  dup2\n    /* \"contracts/MoonPay.sol\":805:829  i < limitedTokens.length */\n  lt\n    /* \"contracts/MoonPay.sol\":785:963  for (uint256 i = 0; i < limitedTokens.length; i++) {... */\n  iszero\n  tag_26\n  jumpi\n    /* \"contracts/MoonPay.sol\":850:862  address pair */\n  0x00\n    /* \"contracts/MoonPay.sol\":865:872  factory */\n  dup4\n    /* \"contracts/MoonPay.sol\":865:883  factory.createPair */\n  0xffffffffffffffffffffffffffffffffffffffff\n  and\n  0xc9c65396\n    /* \"contracts/MoonPay.sol\":892:896  this */\n  address\n    /* \"contracts/MoonPay.sol\":899:912  limitedTokens */\n  dup6\n    /* \"contracts/MoonPay.sol\":913:914  i */\n  dup6\n    /* \"contracts/MoonPay.sol\":899:915  limitedTokens[i] */\n  dup2\n  mload\n  dup2\n  lt\n  tag_28\n  jumpi\n  tag_29\n  tag_30\n  jump\t// in\ntag_29:\ntag_28:\n  0x20\n  mul\n  0x20\n  add\n  add\n  mload\n    /* \"contracts/MoonPay.sol\":865:916  factory.createPair(address(this), limitedTokens[i]) */\n  mload(0x40)\n  dup4\n  0xffffffff\n  and\n  0xe0\n  shl\n  dup2\n  mstore\n  0x04\n  add\n  tag_31\n  swap3\n  swap2\n  swap1\n  tag_32\n  jump\t// in\ntag_31:\n  0x20\n  mload(0x40)\n  dup1\n  dup4\n  sub\n  dup2\n  0x00\n  dup8\n  gas\n  call\n  iszero\n  dup1\n  iszero\n  tag_34\n  jumpi\n  returndatasize\n  0x00\n  dup1\n  returndatacopy\n  revert(0x00, returndatasize)\ntag_34:\n  pop\n  pop\n  pop\n  pop\n  mload(0x40)\n  returndatasize\n  not(0x1f)\n  0x1f\n  dup3\n  add\n  and\n  dup3\n  add\n  dup1\n  0x40\n  mstore\n  pop\n  dup2\n  add\n  swap1\n  tag_35\n  swap2\n  swap1\n  tag_36\n  jump\t// in\ntag_35:\n    /* \"contracts/MoonPay.sol\":850:916  address pair = factory.createPair(address(this), limitedTokens[i]) */\n  swap1\n  pop\n    /* \"contracts/MoonPay.sol\":930:952  setAmmPair(pair, true) */\n  tag_37\n    /* \"contracts/MoonPay.sol\":941:945  pair */\n  dup2\n    /* \"contracts/MoonPay.sol\":947:951  true */\n  0x01\n    /* \"contracts/MoonPay.sol\":930:940  setAmmPair */\n  shl(0x20, tag_38)\n    /* \"contracts/MoonPay.sol\":930:952  setAmmPair(pair, true) */\n  0x20\n  shr\n  jump\t// in\ntag_37:\n    /* \"contracts/MoonPay.sol\":836:963  {... */\n  pop\n    /* \"contracts/MoonPay.sol\":831:834  i++ */\n  dup1\n  dup1\n  tag_39\n  swap1\n  tag_40\n  jump\t// in\ntag_39:\n  swap2\n  pop\n  pop\n    /* \"contracts/MoonPay.sol\":785:963  for (uint256 i = 0; i < limitedTokens.length; i++) {... */\n  jump(tag_25)\ntag_26:\n  pop\n    /* \"contracts/MoonPay.sol\":973:997  transferOwnership(admin) */\n  tag_41\n    /* \"contracts/MoonPay.sol\":991:996  admin */\n  dup4\n    /* \"contracts/MoonPay.sol\":973:990  transferOwnership */\n  shl(0x20, tag_42)\n    /* \"contracts/MoonPay.sol\":973:997  transferOwnership(admin) */\n  0x20\n  shr\n  jump\t// in\ntag_41:\n    /* \"contracts/MoonPay.sol\":498:1004  constructor(... */\n  pop\n  pop\n  pop\n  pop\n  pop\n  pop\n    /* \"contracts/MoonPay.sol\":208:2689  contract LimitedToken is ERC20, Ownable {... */\n  jump(tag_43)\n    /* \"@openzeppelin/contracts/utils/Context.sol\":640:736  function _msgSender() internal view virtual returns (address) {... */\ntag_14:\n    /* \"@openzeppelin/contracts/utils/Context.sol\":693:700  address */\n  0x00\n    /* \"@openzeppelin/contracts/utils/Context.sol\":719:729  msg.sender */\n  caller\n    /* \"@openzeppelin/contracts/utils/Context.sol\":712:729  return msg.sender */\n  swap1\n  pop\n    /* \"@openzeppelin/contracts/utils/Context.sol\":640:736  function _msgSender() internal view virtual returns (address) {... */\n  swap1\n  jump\t// out\n    /* \"@openzeppelin/contracts/access/Ownable.sol\":2433:2620  function _transferOwnership(address newOwner) internal virtual {... */\ntag_15:\n    /* \"@openzeppelin/contracts/access/Ownable.sol\":2506:2522  address oldOwner */\n  0x00\n    /* \"@openzeppelin/contracts/access/Ownable.sol\":2525:2531  _owner */\n  0x05\n  0x00\n  swap1\n  sload\n  swap1\n  0x0100\n  exp\n  swap1\n  div\n  0xffffffffffffffffffffffffffffffffffffffff\n  and\n    /* \"@openzeppelin/contracts/access/Ownable.sol\":2506:2531  address oldOwner = _owner */\n  swap1\n  pop\n    /* \"@openzeppelin/contracts/access/Ownable.sol\":2550:2558  newOwner */\n  dup2\n    /* \"@openzeppelin/contracts/access/Ownable.sol\":2541:2547  _owner */\n  0x05\n  0x00\n    /* \"@openzeppelin/contracts/access/Ownable.sol\":2541:2558  _owner = newOwner */\n  0x0100\n  exp\n  dup2\n  sload\n  dup2\n  0xffffffffffffffffffffffffffffffffffffffff\n  mul\n  not\n  and\n  swap1\n  dup4\n  0xffffffffffffffffffffffffffffffffffffffff\n  and\n  mul\n  or\n  swap1\n  sstore\n  pop\n    /* \"@openzeppelin/contracts/access/Ownable.sol\":2604:2612  newOwner */\n  dup2\n    /* \"@openzeppelin/contracts/access/Ownable.sol\":2573:2613  OwnershipTransferred(oldOwner, newOwner) */\n  0xffffffffffffffffffffffffffffffffffffffff\n  and\n    /* \"@openzeppelin/contracts/access/Ownable.sol\":2594:2602  oldOwner */\n  dup2\n    /* \"@openzeppelin/contracts/access/Ownable.sol\":2573:2613  OwnershipTransferred(oldOwner, newOwner) */\n  0xffffffffffffffffffffffffffffffffffffffff\n  and\n  0x8be0079c531659141344cd1fd0a4f28419497f9722a3daafe3b4186f6b6457e0\n  mload(0x40)\n  mload(0x40)\n  dup1\n  swap2\n  sub\n  swap1\n  log3\n    /* \"@openzeppelin/contracts/access/Ownable.sol\":2496:2620  {... */\n  pop\n    /* \"@openzeppelin/contracts/access/Ownable.sol\":2433:2620  function _transferOwnership(address newOwner) internal virtual {... */\n  pop\n  jump\t// out\n    /* \"contracts/MoonPay.sol\":2051:2133  function decimals() public pure override returns (uint8) {... */\ntag_19:\n    /* \"contracts/MoonPay.sol\":2101:2106  uint8 */\n  0x00\n    /* \"contracts/MoonPay.sol\":2125:2126  9 */\n  0x09\n    /* \"contracts/MoonPay.sol\":2118:2126  return 9 */\n  swap1\n  pop\n    /* \"contracts/MoonPay.sol\":2051:2133  function decimals() public pure override returns (uint8) {... */\n  swap1\n  jump\t// out\n    /* \"@openzeppelin/contracts/token/ERC20/ERC20.sol\":8402:8791  function _mint(address account, uint256 amount) internal virtual {... */\ntag_24:\n    /* \"@openzeppelin/contracts/token/ERC20/ERC20.sol\":8504:8505  0 */\n  0x00\n    /* \"@openzeppelin/contracts/token/ERC20/ERC20.sol\":8485:8506  account != address(0) */\n  0xffffffffffffffffffffffffffffffffffffffff\n  and\n    /* \"@openzeppelin/contracts/token/ERC20/ERC20.sol\":8485:8492  account */\n  dup3\n    /* \"@openzeppelin/contracts/token/ERC20/ERC20.sol\":8485:8506  account != address(0) */\n  0xffffffffffffffffffffffffffffffffffffffff\n  and\n  sub\n    /* \"@openzeppelin/contracts/token/ERC20/ERC20.sol\":8477:8542  require(account != address(0), \"ERC20: mint to the zero address\") */\n  tag_48\n  jumpi\n  mload(0x40)\n  0x08c379a000000000000000000000000000000000000000000000000000000000\n  dup2\n  mstore\n  0x04\n  add\n  tag_49\n  swap1\n  tag_50\n  jump\t// in\ntag_49:\n  mload(0x40)\n  dup1\n  swap2\n  sub\n  swap1\n  revert\ntag_48:\n    /* \"@openzeppelin/contracts/token/ERC20/ERC20.sol\":8553:8602  _beforeTokenTransfer(address(0), account, amount) */\n  tag_51\n    /* \"@openzeppelin/contracts/token/ERC20/ERC20.sol\":8582:8583  0 */\n  0x00\n    /* \"@openzeppelin/contracts/token/ERC20/ERC20.sol\":8586:8593  account */\n  dup4\n    /* \"@openzeppelin/contracts/token/ERC20/ERC20.sol\":8595:8601  amount */\n  dup4\n    /* \"@openzeppelin/contracts/token/ERC20/ERC20.sol\":8553:8573  _beforeTokenTransfer */\n  shl(0x20, tag_52)\n    /* \"@openzeppelin/contracts/token/ERC20/ERC20.sol\":8553:8602  _beforeTokenTransfer(address(0), account, amount) */\n  0x20\n  shr\n  jump\t// in\ntag_51:\n    /* \"@openzeppelin/contracts/token/ERC20/ERC20.sol\":8629:8635  amount */\n  dup1\n    /* \"@openzeppelin/contracts/token/ERC20/ERC20.sol\":8613:8625  _totalSupply */\n  0x02\n  0x00\n    /* \"@openzeppelin/contracts/token/ERC20/ERC20.sol\":8613:8635  _totalSupply += amount */\n  dup3\n  dup3\n  sload\n  tag_53\n  swap2\n  swap1\n  tag_54\n  jump\t// in\ntag_53:\n  swap3\n  pop\n  pop\n  dup2\n  swap1\n  sstore\n  pop\n    /* \"@openzeppelin/contracts/token/ERC20/ERC20.sol\":8667:8673  amount */\n  dup1\n    /* \"@openzeppelin/contracts/token/ERC20/ERC20.sol\":8645:8654  _balances */\n  0x00\n    /* \"@openzeppelin/contracts/token/ERC20/ERC20.sol\":8645:8663  _balances[account] */\n  dup1\n    /* \"@openzeppelin/contracts/token/ERC20/ERC20.sol\":8655:8662  account */\n  dup5\n    /* \"@openzeppelin/contracts/token/ERC20/ERC20.sol\":8645:8663  _balances[account] */\n  0xffffffffffffffffffffffffffffffffffffffff\n  and\n  0xffffffffffffffffffffffffffffffffffffffff\n  and\n  dup2\n  mstore\n  0x20\n  add\n  swap1\n  dup2\n  mstore\n  0x20\n  add\n  0x00\n  keccak256\n  0x00\n    /* \"@openzeppelin/contracts/token/ERC20/ERC20.sol\":8645:8673  _balances[account] += amount */\n  dup3\n  dup3\n  sload\n  tag_55\n  swap2\n  swap1\n  tag_54\n  jump\t// in\ntag_55:\n  swap3\n  pop\n  pop\n  dup2\n  swap1\n  sstore\n  pop\n    /* \"@openzeppelin/contracts/token/ERC20/ERC20.sol\":8709:8716  account */\n  dup2\n    /* \"@openzeppelin/contracts/token/ERC20/ERC20.sol\":8688:8725  Transfer(address(0), account, amount) */\n  0xffffffffffffffffffffffffffffffffffffffff\n  and\n    /* \"@openzeppelin/contracts/token/ERC20/ERC20.sol\":8705:8706  0 */\n  0x00\n    /* \"@openzeppelin/contracts/token/ERC20/ERC20.sol\":8688:8725  Transfer(address(0), account, amount) */\n  0xffffffffffffffffffffffffffffffffffffffff\n  and\n  0xddf252ad1be2c89b69c2b068fc378daa952ba7f163c4a11628f55a4df523b3ef\n    /* \"@openzeppelin/contracts/token/ERC20/ERC20.sol\":8718:8724  amount */\n  dup4\n    /* \"@openzeppelin/contracts/token/ERC20/ERC20.sol\":8688:8725  Transfer(address(0), account, amount) */\n  mload(0x40)\n  tag_56\n  swap2\n  swap1\n  tag_57\n  jump\t// in\ntag_56:\n  mload(0x40)\n  dup1\n  swap2\n  sub\n  swap1\n  log3\n    /* \"@openzeppelin/contracts/token/ERC20/ERC20.sol\":8736:8784  _afterTokenTransfer(address(0), account, amount) */\n  tag_58\n    /* \"@openzeppelin/contracts/token/ERC20/ERC20.sol\":8764:8765  0 */\n  0x00\n    /* \"@openzeppelin/contracts/token/ERC20/ERC20.sol\":8768:8775  account */\n  dup4\n    /* \"@openzeppelin/contracts/token/ERC20/ERC20.sol\":8777:8783  amount */\n  dup4\n    /* \"@openzeppelin/contracts/token/ERC20/ERC20.sol\":8736:8755  _afterTokenTransfer */\n  shl(0x20, tag_59)\n    /* \"@openzeppelin/contracts/token/ERC20/ERC20.sol\":8736:8784  _afterTokenTransfer(address(0), account, amount) */\n  0x20\n  shr\n  jump\t// in\ntag_58:\n    /* \"@openzeppelin/contracts/token/ERC20/ERC20.sol\":8402:8791  function _mint(address account, uint256 amount) internal virtual {... */\n  pop\n  pop\n  jump\t// out\n    /* \"contracts/MoonPay.sol\":1921:2032  function setAmmPair(address account, bool isPair) public onlyOwner {... */\ntag_38:\n    /* \"@openzeppelin/contracts/access/Ownable.sol\":1094:1107  _checkOwner() */\n  tag_61\n    /* \"@openzeppelin/contracts/access/Ownable.sol\":1094:1105  _checkOwner */\n  shl(0x20, tag_62)\n    /* \"@openzeppelin/contracts/access/Ownable.sol\":1094:1107  _checkOwner() */\n  0x20\n  shr\n  jump\t// in\ntag_61:\n    /* \"contracts/MoonPay.sol\":2019:2025  isPair */\n  dup1\n    /* \"contracts/MoonPay.sol\":1998:2007  isAmmPair */\n  0x07\n    /* \"contracts/MoonPay.sol\":1998:2016  isAmmPair[account] */\n  0x00\n    /* \"contracts/MoonPay.sol\":2008:2015  account */\n  dup5\n    /* \"contracts/MoonPay.sol\":1998:2016  isAmmPair[account] */\n  0xffffffffffffffffffffffffffffffffffffffff\n  and\n  0xffffffffffffffffffffffffffffffffffffffff\n  and\n  dup2\n  mstore\n  0x20\n  add\n  swap1\n  dup2\n  mstore\n  0x20\n  add\n  0x00\n  keccak256\n  0x00\n    /* \"contracts/MoonPay.sol\":1998:2025  isAmmPair[account] = isPair */\n  0x0100\n  exp\n  dup2\n  sload\n  dup2\n  0xff\n  mul\n  not\n  and\n  swap1\n  dup4\n  iszero\n  iszero\n  mul\n  or\n  swap1\n  sstore\n  pop\n    /* \"contracts/MoonPay.sol\":1921:2032  function setAmmPair(address account, bool isPair) public onlyOwner {... */\n  pop\n  pop\n  jump\t// out\n    /* \"@openzeppelin/contracts/access/Ownable.sol\":2081:2279  function transferOwnership(address newOwner) public virtual onlyOwner {... */\ntag_42:\n    /* \"@openzeppelin/contracts/access/Ownable.sol\":1094:1107  _checkOwner() */\n  tag_65\n    /* \"@openzeppelin/contracts/access/Ownable.sol\":1094:1105  _checkOwner */\n  shl(0x20, tag_62)\n    /* \"@openzeppelin/contracts/access/Ownable.sol\":1094:1107  _checkOwner() */\n  0x20\n  shr\n  jump\t// in\ntag_65:\n    /* \"@openzeppelin/contracts/access/Ownable.sol\":2189:2190  0 */\n  0x00\n    /* \"@openzeppelin/contracts/access/Ownable.sol\":2169:2191  newOwner != address(0) */\n  0xffffffffffffffffffffffffffffffffffffffff\n  and\n    /* \"@openzeppelin/contracts/access/Ownable.sol\":2169:2177  newOwner */\n  dup2\n    /* \"@openzeppelin/contracts/access/Ownable.sol\":2169:2191  newOwner != address(0) */\n  0xffffffffffffffffffffffffffffffffffffffff\n  and\n  sub\n    /* \"@openzeppelin/contracts/access/Ownable.sol\":2161:2234  require(newOwner != address(0), \"Ownable: new owner is the zero address\") */\n  tag_67\n  jumpi\n  mload(0x40)\n  0x08c379a000000000000000000000000000000000000000000000000000000000\n  dup2\n  mstore\n  0x04\n  add\n  tag_68\n  swap1\n  tag_69\n  jump\t// in\ntag_68:\n  mload(0x40)\n  dup1\n  swap2\n  sub\n  swap1\n  revert\ntag_67:\n    /* \"@openzeppelin/contracts/access/Ownable.sol\":2244:2272  _transferOwnership(newOwner) */\n  tag_70\n    /* \"@openzeppelin/contracts/access/Ownable.sol\":2263:2271  newOwner */\n  dup2\n    /* \"@openzeppelin/contracts/access/Ownable.sol\":2244:2262  _transferOwnership */\n  shl(0x20, tag_15)\n    /* \"@openzeppelin/contracts/access/Ownable.sol\":2244:2272  _transferOwnership(newOwner) */\n  0x20\n  shr\n  jump\t// in\ntag_70:\n    /* \"@openzeppelin/contracts/access/Ownable.sol\":2081:2279  function transferOwnership(address newOwner) public virtual onlyOwner {... */\n  pop\n  jump\t// out\n    /* \"@openzeppelin/contracts/token/ERC20/ERC20.sol\":11786:11907  function _beforeTokenTransfer(... */\ntag_52:\n  pop\n  pop\n  pop\n  jump\t// out\n    /* \"@openzeppelin/contracts/token/ERC20/ERC20.sol\":12495:12615  function _afterTokenTransfer(... */\ntag_59:\n  pop\n  pop\n  pop\n  jump\t// out\n    /* \"@openzeppelin/contracts/access/Ownable.sol\":1359:1489  function _checkOwner() internal view virtual {... */\ntag_62:\n    /* \"@openzeppelin/contracts/access/Ownable.sol\":1433:1445  _msgSender() */\n  tag_74\n    /* \"@openzeppelin/contracts/access/Ownable.sol\":1433:1443  _msgSender */\n  shl(0x20, tag_14)\n    /* \"@openzeppelin/contracts/access/Ownable.sol\":1433:1445  _msgSender() */\n  0x20\n  shr\n  jump\t// in\ntag_74:\n    /* \"@openzeppelin/contracts/access/Ownable.sol\":1422:1445  owner() == _msgSender() */\n  0xffffffffffffffffffffffffffffffffffffffff\n  and\n    /* \"@openzeppelin/contracts/access/Ownable.sol\":1422:1429  owner() */\n  tag_75\n    /* \"@openzeppelin/contracts/access/Ownable.sol\":1422:1427  owner */\n  shl(0x20, tag_76)\n    /* \"@openzeppelin/contracts/access/Ownable.sol\":1422:1429  owner() */\n  0x20\n  shr\n  jump\t// in\ntag_75:\n    /* \"@openzeppelin/contracts/access/Ownable.sol\":1422:1445  owner() == _msgSender() */\n  0xffffffffffffffffffffffffffffffffffffffff\n  and\n  eq\n    /* \"@openzeppelin/contracts/access/Ownable.sol\":1414:1482  require(owner() == _msgSender(), \"Ownable: caller is not the owner\") */\n  tag_77\n  jumpi\n  mload(0x40)\n  0x08c379a000000000000000000000000000000000000000000000000000000000\n  dup2\n  mstore\n  0x04\n  add\n  tag_78\n  swap1\n  tag_79\n  jump\t// in\ntag_78:\n  mload(0x40)\n  dup1\n  swap2\n  sub\n  swap1\n  revert\ntag_77:\n    /* \"@openzeppelin/contracts/access/Ownable.sol\":1359:1489  function _checkOwner() internal view virtual {... */\n  jump\t// out\n    /* \"@openzeppelin/contracts/access/Ownable.sol\":1201:1286  function owner() public view virtual returns (address) {... */\ntag_76:\n    /* \"@openzeppelin/contracts/access/Ownable.sol\":1247:1254  address */\n  0x00\n    /* \"@openzeppelin/contracts/access/Ownable.sol\":1273:1279  _owner */\n  0x05\n  0x00\n  swap1\n  sload\n  swap1\n  0x0100\n  exp\n  swap1\n  div\n  0xffffffffffffffffffffffffffffffffffffffff\n  and\n    /* \"@openzeppelin/contracts/access/Ownable.sol\":1266:1279  return _owner */\n  swap1\n  pop\n    /* \"@openzeppelin/contracts/access/Ownable.sol\":1201:1286  function owner() public view virtual returns (address) {... */\n  swap1\n  jump\t// out\n    /* \"#utility.yul\":7:82   */\ntag_81:\n    /* \"#utility.yul\":40:46   */\n  0x00\n    /* \"#utility.yul\":73:75   */\n  0x40\n    /* \"#utility.yul\":67:76   */\n  mload\n    /* \"#utility.yul\":57:76   */\n  swap1\n  pop\n    /* \"#utility.yul\":7:82   */\n  swap1\n  jump\t// out\n    /* \"#utility.yul\":88:205   */\ntag_82:\n    /* \"#utility.yul\":197:198   */\n  0x00\n    /* \"#utility.yul\":194:195   */\n  dup1\n    /* \"#utility.yul\":187:199   */\n  revert\n    /* \"#utility.yul\":211:328   */\ntag_83:\n    /* \"#utility.yul\":320:321   */\n  0x00\n    /* \"#utility.yul\":317:318   */\n  dup1\n    /* \"#utility.yul\":310:322   */\n  revert\n    /* \"#utility.yul\":334:451   */\ntag_84:\n    /* \"#utility.yul\":443:444   */\n  0x00\n    /* \"#utility.yul\":440:441   */\n  dup1\n    /* \"#utility.yul\":433:445   */\n  revert\n    /* \"#utility.yul\":457:574   */\ntag_85:\n    /* \"#utility.yul\":566:567   */\n  0x00\n    /* \"#utility.yul\":563:564   */\n  dup1\n    /* \"#utility.yul\":556:568   */\n  revert\n    /* \"#utility.yul\":580:682   */\ntag_86:\n    /* \"#utility.yul\":621:627   */\n  0x00\n    /* \"#utility.yul\":672:674   */\n  0x1f\n    /* \"#utility.yul\":668:675   */\n  not\n    /* \"#utility.yul\":663:665   */\n  0x1f\n    /* \"#utility.yul\":656:661   */\n  dup4\n    /* \"#utility.yul\":652:666   */\n  add\n    /* \"#utility.yul\":648:676   */\n  and\n    /* \"#utility.yul\":638:676   */\n  swap1\n  pop\n    /* \"#utility.yul\":580:682   */\n  swap2\n  swap1\n  pop\n  jump\t// out\n    /* \"#utility.yul\":688:868   */\ntag_87:\n    /* \"#utility.yul\":736:813   */\n  0x4e487b7100000000000000000000000000000000000000000000000000000000\n    /* \"#utility.yul\":733:734   */\n  0x00\n    /* \"#utility.yul\":726:814   */\n  mstore\n    /* \"#utility.yul\":833:837   */\n  0x41\n    /* \"#utility.yul\":830:831   */\n  0x04\n    /* \"#utility.yul\":823:838   */\n  mstore\n    /* \"#utility.yul\":857:861   */\n  0x24\n    /* \"#utility.yul\":854:855   */\n  0x00\n    /* \"#utility.yul\":847:862   */\n  revert\n    /* \"#utility.yul\":874:1155   */\ntag_88:\n    /* \"#utility.yul\":957:984   */\n  tag_149\n    /* \"#utility.yul\":979:983   */\n  dup3\n    /* \"#utility.yul\":957:984   */\n  tag_86\n  jump\t// in\ntag_149:\n    /* \"#utility.yul\":949:955   */\n  dup2\n    /* \"#utility.yul\":945:985   */\n  add\n    /* \"#utility.yul\":1087:1093   */\n  dup2\n    /* \"#utility.yul\":1075:1085   */\n  dup2\n    /* \"#utility.yul\":1072:1094   */\n  lt\n    /* \"#utility.yul\":1051:1069   */\n  0xffffffffffffffff\n    /* \"#utility.yul\":1039:1049   */\n  dup3\n    /* \"#utility.yul\":1036:1070   */\n  gt\n    /* \"#utility.yul\":1033:1095   */\n  or\n    /* \"#utility.yul\":1030:1118   */\n  iszero\n  tag_150\n  jumpi\n    /* \"#utility.yul\":1098:1116   */\n  tag_151\n  tag_87\n  jump\t// in\ntag_151:\n    /* \"#utility.yul\":1030:1118   */\ntag_150:\n    /* \"#utility.yul\":1138:1148   */\n  dup1\n    /* \"#utility.yul\":1134:1136   */\n  0x40\n    /* \"#utility.yul\":1127:1149   */\n  mstore\n    /* \"#utility.yul\":917:1155   */\n  pop\n    /* \"#utility.yul\":874:1155   */\n  pop\n  pop\n  jump\t// out\n    /* \"#utility.yul\":1161:1290   */\ntag_89:\n    /* \"#utility.yul\":1195:1201   */\n  0x00\n    /* \"#utility.yul\":1222:1242   */\n  tag_153\n  tag_81\n  jump\t// in\ntag_153:\n    /* \"#utility.yul\":1212:1242   */\n  swap1\n  pop\n    /* \"#utility.yul\":1251:1284   */\n  tag_154\n    /* \"#utility.yul\":1279:1283   */\n  dup3\n    /* \"#utility.yul\":1271:1277   */\n  dup3\n    /* \"#utility.yul\":1251:1284   */\n  tag_88\n  jump\t// in\ntag_154:\n    /* \"#utility.yul\":1161:1290   */\n  swap2\n  swap1\n  pop\n  jump\t// out\n    /* \"#utility.yul\":1296:1604   */\ntag_90:\n    /* \"#utility.yul\":1358:1362   */\n  0x00\n    /* \"#utility.yul\":1448:1466   */\n  0xffffffffffffffff\n    /* \"#utility.yul\":1440:1446   */\n  dup3\n    /* \"#utility.yul\":1437:1467   */\n  gt\n    /* \"#utility.yul\":1434:1490   */\n  iszero\n  tag_156\n  jumpi\n    /* \"#utility.yul\":1470:1488   */\n  tag_157\n  tag_87\n  jump\t// in\ntag_157:\n    /* \"#utility.yul\":1434:1490   */\ntag_156:\n    /* \"#utility.yul\":1508:1537   */\n  tag_158\n    /* \"#utility.yul\":1530:1536   */\n  dup3\n    /* \"#utility.yul\":1508:1537   */\n  tag_86\n  jump\t// in\ntag_158:\n    /* \"#utility.yul\":1500:1537   */\n  swap1\n  pop\n    /* \"#utility.yul\":1592:1596   */\n  0x20\n    /* \"#utility.yul\":1586:1590   */\n  dup2\n    /* \"#utility.yul\":1582:1597   */\n  add\n    /* \"#utility.yul\":1574:1597   */\n  swap1\n  pop\n    /* \"#utility.yul\":1296:1604   */\n  swap2\n  swap1\n  pop\n  jump\t// out\n    /* \"#utility.yul\":1610:1917   */\ntag_91:\n    /* \"#utility.yul\":1678:1679   */\n  0x00\n    /* \"#utility.yul\":1688:1801   */\ntag_160:\n    /* \"#utility.yul\":1702:1708   */\n  dup4\n    /* \"#utility.yul\":1699:1700   */\n  dup2\n    /* \"#utility.yul\":1696:1709   */\n  lt\n    /* \"#utility.yul\":1688:1801   */\n  iszero\n  tag_162\n  jumpi\n    /* \"#utility.yul\":1787:1788   */\n  dup1\n    /* \"#utility.yul\":1782:1785   */\n  dup3\n    /* \"#utility.yul\":1778:1789   */\n  add\n    /* \"#utility.yul\":1772:1790   */\n  mload\n    /* \"#utility.yul\":1768:1769   */\n  dup2\n    /* \"#utility.yul\":1763:1766   */\n  dup5\n    /* \"#utility.yul\":1759:1770   */\n  add\n    /* \"#utility.yul\":1752:1791   */\n  mstore\n    /* \"#utility.yul\":1724:1726   */\n  0x20\n    /* \"#utility.yul\":1721:1722   */\n  dup2\n    /* \"#utility.yul\":1717:1727   */\n  add\n    /* \"#utility.yul\":1712:1727   */\n  swap1\n  pop\n    /* \"#utility.yul\":1688:1801   */\n  jump(tag_160)\ntag_162:\n    /* \"#utility.yul\":1819:1825   */\n  dup4\n    /* \"#utility.yul\":1816:1817   */\n  dup2\n    /* \"#utility.yul\":1813:1826   */\n  gt\n    /* \"#utility.yul\":1810:1911   */\n  iszero\n  tag_163\n  jumpi\n    /* \"#utility.yul\":1899:1900   */\n  0x00\n    /* \"#utility.yul\":1890:1896   */\n  dup5\n    /* \"#utility.yul\":1885:1888   */\n  dup5\n    /* \"#utility.yul\":1881:1897   */\n  add\n    /* \"#utility.yul\":1874:1901   */\n  mstore\n    /* \"#utility.yul\":1810:1911   */\ntag_163:\n    /* \"#utility.yul\":1659:1917   */\n  pop\n    /* \"#utility.yul\":1610:1917   */\n  pop\n  pop\n  pop\n  jump\t// out\n    /* \"#utility.yul\":1923:2344   */\ntag_92:\n    /* \"#utility.yul\":2012:2017   */\n  0x00\n    /* \"#utility.yul\":2037:2103   */\n  tag_165\n    /* \"#utility.yul\":2053:2102   */\n  tag_166\n    /* \"#utility.yul\":2095:2101   */\n  dup5\n    /* \"#utility.yul\":2053:2102   */\n  tag_90\n  jump\t// in\ntag_166:\n    /* \"#utility.yul\":2037:2103   */\n  tag_89\n  jump\t// in\ntag_165:\n    /* \"#utility.yul\":2028:2103   */\n  swap1\n  pop\n    /* \"#utility.yul\":2126:2132   */\n  dup3\n    /* \"#utility.yul\":2119:2124   */\n  dup2\n    /* \"#utility.yul\":2112:2133   */\n  mstore\n    /* \"#utility.yul\":2164:2168   */\n  0x20\n    /* \"#utility.yul\":2157:2162   */\n  dup2\n    /* \"#utility.yul\":2153:2169   */\n  add\n    /* \"#utility.yul\":2202:2205   */\n  dup5\n    /* \"#utility.yul\":2193:2199   */\n  dup5\n    /* \"#utility.yul\":2188:2191   */\n  dup5\n    /* \"#utility.yul\":2184:2200   */\n  add\n    /* \"#utility.yul\":2181:2206   */\n  gt\n    /* \"#utility.yul\":2178:2290   */\n  iszero\n  tag_167\n  jumpi\n    /* \"#utility.yul\":2209:2288   */\n  tag_168\n  tag_85\n  jump\t// in\ntag_168:\n    /* \"#utility.yul\":2178:2290   */\ntag_167:\n    /* \"#utility.yul\":2299:2338   */\n  tag_169\n    /* \"#utility.yul\":2331:2337   */\n  dup5\n    /* \"#utility.yul\":2326:2329   */\n  dup3\n    /* \"#utility.yul\":2321:2324   */\n  dup6\n    /* \"#utility.yul\":2299:2338   */\n  tag_91\n  jump\t// in\ntag_169:\n    /* \"#utility.yul\":2018:2344   */\n  pop\n    /* \"#utility.yul\":1923:2344   */\n  swap4\n  swap3\n  pop\n  pop\n  pop\n  jump\t// out\n    /* \"#utility.yul\":2364:2719   */\ntag_93:\n    /* \"#utility.yul\":2431:2436   */\n  0x00\n    /* \"#utility.yul\":2480:2483   */\n  dup3\n    /* \"#utility.yul\":2473:2477   */\n  0x1f\n    /* \"#utility.yul\":2465:2471   */\n  dup4\n    /* \"#utility.yul\":2461:2478   */\n  add\n    /* \"#utility.yul\":2457:2484   */\n  slt\n    /* \"#utility.yul\":2447:2569   */\n  tag_171\n  jumpi\n    /* \"#utility.yul\":2488:2567   */\n  tag_172\n  tag_84\n  jump\t// in\ntag_172:\n    /* \"#utility.yul\":2447:2569   */\ntag_171:\n    /* \"#utility.yul\":2598:2604   */\n  dup2\n    /* \"#utility.yul\":2592:2605   */\n  mload\n    /* \"#utility.yul\":2623:2713   */\n  tag_173\n    /* \"#utility.yul\":2709:2712   */\n  dup5\n    /* \"#utility.yul\":2701:2707   */\n  dup3\n    /* \"#utility.yul\":2694:2698   */\n  0x20\n    /* \"#utility.yul\":2686:2692   */\n  dup7\n    /* \"#utility.yul\":2682:2699   */\n  add\n    /* \"#utility.yul\":2623:2713   */\n  tag_92\n  jump\t// in\ntag_173:\n    /* \"#utility.yul\":2614:2713   */\n  swap2\n  pop\n    /* \"#utility.yul\":2437:2719   */\n  pop\n    /* \"#utility.yul\":2364:2719   */\n  swap3\n  swap2\n  pop\n  pop\n  jump\t// out\n    /* \"#utility.yul\":2725:2802   */\ntag_94:\n    /* \"#utility.yul\":2762:2769   */\n  0x00\n    /* \"#utility.yul\":2791:2796   */\n  dup2\n    /* \"#utility.yul\":2780:2796   */\n  swap1\n  pop\n    /* \"#utility.yul\":2725:2802   */\n  swap2\n  swap1\n  pop\n  jump\t// out\n    /* \"#utility.yul\":2808:2930   */\ntag_95:\n    /* \"#utility.yul\":2881:2905   */\n  tag_176\n    /* \"#utility.yul\":2899:2904   */\n  dup2\n    /* \"#utility.yul\":2881:2905   */\n  tag_94\n  jump\t// in\ntag_176:\n    /* \"#utility.yul\":2874:2879   */\n  dup2\n    /* \"#utility.yul\":2871:2906   */\n  eq\n    /* \"#utility.yul\":2861:2924   */\n  tag_177\n  jumpi\n    /* \"#utility.yul\":2920:2921   */\n  0x00\n    /* \"#utility.yul\":2917:2918   */\n  dup1\n    /* \"#utility.yul\":2910:2922   */\n  revert\n    /* \"#utility.yul\":2861:2924   */\ntag_177:\n    /* \"#utility.yul\":2808:2930   */\n  pop\n  jump\t// out\n    /* \"#utility.yul\":2936:3079   */\ntag_96:\n    /* \"#utility.yul\":2993:2998   */\n  0x00\n    /* \"#utility.yul\":3024:3030   */\n  dup2\n    /* \"#utility.yul\":3018:3031   */\n  mload\n    /* \"#utility.yul\":3009:3031   */\n  swap1\n  pop\n    /* \"#utility.yul\":3040:3073   */\n  tag_179\n    /* \"#utility.yul\":3067:3072   */\n  dup2\n    /* \"#utility.yul\":3040:3073   */\n  tag_95\n  jump\t// in\ntag_179:\n    /* \"#utility.yul\":2936:3079   */\n  swap3\n  swap2\n  pop\n  pop\n  jump\t// out\n    /* \"#utility.yul\":3085:3211   */\ntag_97:\n    /* \"#utility.yul\":3122:3129   */\n  0x00\n    /* \"#utility.yul\":3162:3204   */\n  0xffffffffffffffffffffffffffffffffffffffff\n    /* \"#utility.yul\":3155:3160   */\n  dup3\n    /* \"#utility.yul\":3151:3205   */\n  and\n    /* \"#utility.yul\":3140:3205   */\n  swap1\n  pop\n    /* \"#utility.yul\":3085:3211   */\n  swap2\n  swap1\n  pop\n  jump\t// out\n    /* \"#utility.yul\":3217:3313   */\ntag_98:\n    /* \"#utility.yul\":3254:3261   */\n  0x00\n    /* \"#utility.yul\":3283:3307   */\n  tag_182\n    /* \"#utility.yul\":3301:3306   */\n  dup3\n    /* \"#utility.yul\":3283:3307   */\n  tag_97\n  jump\t// in\ntag_182:\n    /* \"#utility.yul\":3272:3307   */\n  swap1\n  pop\n    /* \"#utility.yul\":3217:3313   */\n  swap2\n  swap1\n  pop\n  jump\t// out\n    /* \"#utility.yul\":3319:3441   */\ntag_99:\n    /* \"#utility.yul\":3392:3416   */\n  tag_184\n    /* \"#utility.yul\":3410:3415   */\n  dup2\n    /* \"#utility.yul\":3392:3416   */\n  tag_98\n  jump\t// in\ntag_184:\n    /* \"#utility.yul\":3385:3390   */\n  dup2\n    /* \"#utility.yul\":3382:3417   */\n  eq\n    /* \"#utility.yul\":3372:3435   */\n  tag_185\n  jumpi\n    /* \"#utility.yul\":3431:3432   */\n  0x00\n    /* \"#utility.yul\":3428:3429   */\n  dup1\n    /* \"#utility.yul\":3421:3433   */\n  revert\n    /* \"#utility.yul\":3372:3435   */\ntag_185:\n    /* \"#utility.yul\":3319:3441   */\n  pop\n  jump\t// out\n    /* \"#utility.yul\":3447:3590   */\ntag_100:\n    /* \"#utility.yul\":3504:3509   */\n  0x00\n    /* \"#utility.yul\":3535:3541   */\n  dup2\n    /* \"#utility.yul\":3529:3542   */\n  mload\n    /* \"#utility.yul\":3520:3542   */\n  swap1\n  pop\n    /* \"#utility.yul\":3551:3584   */\n  tag_187\n    /* \"#utility.yul\":3578:3583   */\n  dup2\n    /* \"#utility.yul\":3551:3584   */\n  tag_99\n  jump\t// in\ntag_187:\n    /* \"#utility.yul\":3447:3590   */\n  swap3\n  swap2\n  pop\n  pop\n  jump\t// out\n    /* \"#utility.yul\":3596:3709   */\ntag_101:\n    /* \"#utility.yul\":3650:3657   */\n  0x00\n    /* \"#utility.yul\":3679:3703   */\n  tag_189\n    /* \"#utility.yul\":3697:3702   */\n  dup3\n    /* \"#utility.yul\":3679:3703   */\n  tag_98\n  jump\t// in\ntag_189:\n    /* \"#utility.yul\":3668:3703   */\n  swap1\n  pop\n    /* \"#utility.yul\":3596:3709   */\n  swap2\n  swap1\n  pop\n  jump\t// out\n    /* \"#utility.yul\":3715:3871   */\ntag_102:\n    /* \"#utility.yul\":3805:3846   */\n  tag_191\n    /* \"#utility.yul\":3840:3845   */\n  dup2\n    /* \"#utility.yul\":3805:3846   */\n  tag_101\n  jump\t// in\ntag_191:\n    /* \"#utility.yul\":3798:3803   */\n  dup2\n    /* \"#utility.yul\":3795:3847   */\n  eq\n    /* \"#utility.yul\":3785:3865   */\n  tag_192\n  jumpi\n    /* \"#utility.yul\":3861:3862   */\n  0x00\n    /* \"#utility.yul\":3858:3859   */\n  dup1\n    /* \"#utility.yul\":3851:3863   */\n  revert\n    /* \"#utility.yul\":3785:3865   */\ntag_192:\n    /* \"#utility.yul\":3715:3871   */\n  pop\n  jump\t// out\n    /* \"#utility.yul\":3877:4054   */\ntag_103:\n    /* \"#utility.yul\":3951:3956   */\n  0x00\n    /* \"#utility.yul\":3982:3988   */\n  dup2\n    /* \"#utility.yul\":3976:3989   */\n  mload\n    /* \"#utility.yul\":3967:3989   */\n  swap1\n  pop\n    /* \"#utility.yul\":3998:4048   */\n  tag_194\n    /* \"#utility.yul\":4042:4047   */\n  dup2\n    /* \"#utility.yul\":3998:4048   */\n  tag_102\n  jump\t// in\ntag_194:\n    /* \"#utility.yul\":3877:4054   */\n  swap3\n  swap2\n  pop\n  pop\n  jump\t// out\n    /* \"#utility.yul\":4060:4371   */\ntag_104:\n    /* \"#utility.yul\":4137:4141   */\n  0x00\n    /* \"#utility.yul\":4227:4245   */\n  0xffffffffffffffff\n    /* \"#utility.yul\":4219:4225   */\n  dup3\n    /* \"#utility.yul\":4216:4246   */\n  gt\n    /* \"#utility.yul\":4213:4269   */\n  iszero\n  tag_196\n  jumpi\n    /* \"#utility.yul\":4249:4267   */\n  tag_197\n  tag_87\n  jump\t// in\ntag_197:\n    /* \"#utility.yul\":4213:4269   */\ntag_196:\n    /* \"#utility.yul\":4299:4303   */\n  0x20\n    /* \"#utility.yul\":4291:4297   */\n  dup3\n    /* \"#utility.yul\":4287:4304   */\n  mul\n    /* \"#utility.yul\":4279:4304   */\n  swap1\n  pop\n    /* \"#utility.yul\":4359:4363   */\n  0x20\n    /* \"#utility.yul\":4353:4357   */\n  dup2\n    /* \"#utility.yul\":4349:4364   */\n  add\n    /* \"#utility.yul\":4341:4364   */\n  swap1\n  pop\n    /* \"#utility.yul\":4060:4371   */\n  swap2\n  swap1\n  pop\n  jump\t// out\n    /* \"#utility.yul\":4377:4494   */\ntag_105:\n    /* \"#utility.yul\":4486:4487   */\n  0x00\n    /* \"#utility.yul\":4483:4484   */\n  dup1\n    /* \"#utility.yul\":4476:4488   */\n  revert\n    /* \"#utility.yul\":4517:5249   */\ntag_106:\n    /* \"#utility.yul\":4624:4629   */\n  0x00\n    /* \"#utility.yul\":4649:4730   */\n  tag_200\n    /* \"#utility.yul\":4665:4729   */\n  tag_201\n    /* \"#utility.yul\":4722:4728   */\n  dup5\n    /* \"#utility.yul\":4665:4729   */\n  tag_104\n  jump\t// in\ntag_201:\n    /* \"#utility.yul\":4649:4730   */\n  tag_89\n  jump\t// in\ntag_200:\n    /* \"#utility.yul\":4640:4730   */\n  swap1\n  pop\n    /* \"#utility.yul\":4750:4755   */\n  dup1\n    /* \"#utility.yul\":4779:4785   */\n  dup4\n    /* \"#utility.yul\":4772:4777   */\n  dup3\n    /* \"#utility.yul\":4765:4786   */\n  mstore\n    /* \"#utility.yul\":4813:4817   */\n  0x20\n    /* \"#utility.yul\":4806:4811   */\n  dup3\n    /* \"#utility.yul\":4802:4818   */\n  add\n    /* \"#utility.yul\":4795:4818   */\n  swap1\n  pop\n    /* \"#utility.yul\":4866:4870   */\n  0x20\n    /* \"#utility.yul\":4858:4864   */\n  dup5\n    /* \"#utility.yul\":4854:4871   */\n  mul\n    /* \"#utility.yul\":4846:4852   */\n  dup4\n    /* \"#utility.yul\":4842:4872   */\n  add\n    /* \"#utility.yul\":4895:4898   */\n  dup6\n    /* \"#utility.yul\":4887:4893   */\n  dup2\n    /* \"#utility.yul\":4884:4899   */\n  gt\n    /* \"#utility.yul\":4881:5003   */\n  iszero\n  tag_202\n  jumpi\n    /* \"#utility.yul\":4914:4993   */\n  tag_203\n  tag_105\n  jump\t// in\ntag_203:\n    /* \"#utility.yul\":4881:5003   */\ntag_202:\n    /* \"#utility.yul\":5029:5035   */\n  dup4\n    /* \"#utility.yul\":5012:5243   */\ntag_204:\n    /* \"#utility.yul\":5046:5052   */\n  dup2\n    /* \"#utility.yul\":5041:5044   */\n  dup2\n    /* \"#utility.yul\":5038:5053   */\n  lt\n    /* \"#utility.yul\":5012:5243   */\n  iszero\n  tag_206\n  jumpi\n    /* \"#utility.yul\":5121:5124   */\n  dup1\n    /* \"#utility.yul\":5150:5198   */\n  tag_207\n    /* \"#utility.yul\":5194:5197   */\n  dup9\n    /* \"#utility.yul\":5182:5192   */\n  dup3\n    /* \"#utility.yul\":5150:5198   */\n  tag_100\n  jump\t// in\ntag_207:\n    /* \"#utility.yul\":5145:5148   */\n  dup5\n    /* \"#utility.yul\":5138:5199   */\n  mstore\n    /* \"#utility.yul\":5228:5232   */\n  0x20\n    /* \"#utility.yul\":5223:5226   */\n  dup5\n    /* \"#utility.yul\":5219:5233   */\n  add\n    /* \"#utility.yul\":5212:5233   */\n  swap4\n  pop\n    /* \"#utility.yul\":5088:5243   */\n  pop\n    /* \"#utility.yul\":5072:5076   */\n  0x20\n    /* \"#utility.yul\":5067:5070   */\n  dup2\n    /* \"#utility.yul\":5063:5077   */\n  add\n    /* \"#utility.yul\":5056:5077   */\n  swap1\n  pop\n    /* \"#utility.yul\":5012:5243   */\n  jump(tag_204)\ntag_206:\n    /* \"#utility.yul\":5016:5037   */\n  pop\n    /* \"#utility.yul\":4630:5249   */\n  pop\n  pop\n    /* \"#utility.yul\":4517:5249   */\n  swap4\n  swap3\n  pop\n  pop\n  pop\n  jump\t// out\n    /* \"#utility.yul\":5272:5657   */\ntag_107:\n    /* \"#utility.yul\":5354:5359   */\n  0x00\n    /* \"#utility.yul\":5403:5406   */\n  dup3\n    /* \"#utility.yul\":5396:5400   */\n  0x1f\n    /* \"#utility.yul\":5388:5394   */\n  dup4\n    /* \"#utility.yul\":5384:5401   */\n  add\n    /* \"#utility.yul\":5380:5407   */\n  slt\n    /* \"#utility.yul\":5370:5492   */\n  tag_209\n  jumpi\n    /* \"#utility.yul\":5411:5490   */\n  tag_210\n  tag_84\n  jump\t// in\ntag_210:\n    /* \"#utility.yul\":5370:5492   */\ntag_209:\n    /* \"#utility.yul\":5521:5527   */\n  dup2\n    /* \"#utility.yul\":5515:5528   */\n  mload\n    /* \"#utility.yul\":5546:5651   */\n  tag_211\n    /* \"#utility.yul\":5647:5650   */\n  dup5\n    /* \"#utility.yul\":5639:5645   */\n  dup3\n    /* \"#utility.yul\":5632:5636   */\n  0x20\n    /* \"#utility.yul\":5624:5630   */\n  dup7\n    /* \"#utility.yul\":5620:5637   */\n  add\n    /* \"#utility.yul\":5546:5651   */\n  tag_106\n  jump\t// in\ntag_211:\n    /* \"#utility.yul\":5537:5651   */\n  swap2\n  pop\n    /* \"#utility.yul\":5360:5657   */\n  pop\n    /* \"#utility.yul\":5272:5657   */\n  swap3\n  swap2\n  pop\n  pop\n  jump\t// out\n    /* \"#utility.yul\":5663:7380   */\ntag_3:\n    /* \"#utility.yul\":5840:5846   */\n  0x00\n    /* \"#utility.yul\":5848:5854   */\n  dup1\n    /* \"#utility.yul\":5856:5862   */\n  0x00\n    /* \"#utility.yul\":5864:5870   */\n  dup1\n    /* \"#utility.yul\":5872:5878   */\n  0x00\n    /* \"#utility.yul\":5880:5886   */\n  dup1\n    /* \"#utility.yul\":5929:5932   */\n  0xc0\n    /* \"#utility.yul\":5917:5926   */\n  dup8\n    /* \"#utility.yul\":5908:5915   */\n  dup10\n    /* \"#utility.yul\":5904:5927   */\n  sub\n    /* \"#utility.yul\":5900:5933   */\n  slt\n    /* \"#utility.yul\":5897:6017   */\n  iszero\n  tag_213\n  jumpi\n    /* \"#utility.yul\":5936:6015   */\n  tag_214\n  tag_82\n  jump\t// in\ntag_214:\n    /* \"#utility.yul\":5897:6017   */\ntag_213:\n    /* \"#utility.yul\":6077:6078   */\n  0x00\n    /* \"#utility.yul\":6066:6075   */\n  dup8\n    /* \"#utility.yul\":6062:6079   */\n  add\n    /* \"#utility.yul\":6056:6080   */\n  mload\n    /* \"#utility.yul\":6107:6125   */\n  0xffffffffffffffff\n    /* \"#utility.yul\":6099:6105   */\n  dup2\n    /* \"#utility.yul\":6096:6126   */\n  gt\n    /* \"#utility.yul\":6093:6210   */\n  iszero\n  tag_215\n  jumpi\n    /* \"#utility.yul\":6129:6208   */\n  tag_216\n  tag_83\n  jump\t// in\ntag_216:\n    /* \"#utility.yul\":6093:6210   */\ntag_215:\n    /* \"#utility.yul\":6234:6308   */\n  tag_217\n    /* \"#utility.yul\":6300:6307   */\n  dup10\n    /* \"#utility.yul\":6291:6297   */\n  dup3\n    /* \"#utility.yul\":6280:6289   */\n  dup11\n    /* \"#utility.yul\":6276:6298   */\n  add\n    /* \"#utility.yul\":6234:6308   */\n  tag_93\n  jump\t// in\ntag_217:\n    /* \"#utility.yul\":6224:6308   */\n  swap7\n  pop\n    /* \"#utility.yul\":6027:6318   */\n  pop\n    /* \"#utility.yul\":6378:6380   */\n  0x20\n    /* \"#utility.yul\":6367:6376   */\n  dup8\n    /* \"#utility.yul\":6363:6381   */\n  add\n    /* \"#utility.yul\":6357:6382   */\n  mload\n    /* \"#utility.yul\":6409:6427   */\n  0xffffffffffffffff\n    /* \"#utility.yul\":6401:6407   */\n  dup2\n    /* \"#utility.yul\":6398:6428   */\n  gt\n    /* \"#utility.yul\":6395:6512   */\n  iszero\n  tag_218\n  jumpi\n    /* \"#utility.yul\":6431:6510   */\n  tag_219\n  tag_83\n  jump\t// in\ntag_219:\n    /* \"#utility.yul\":6395:6512   */\ntag_218:\n    /* \"#utility.yul\":6536:6610   */\n  tag_220\n    /* \"#utility.yul\":6602:6609   */\n  dup10\n    /* \"#utility.yul\":6593:6599   */\n  dup3\n    /* \"#utility.yul\":6582:6591   */\n  dup11\n    /* \"#utility.yul\":6578:6600   */\n  add\n    /* \"#utility.yul\":6536:6610   */\n  tag_93\n  jump\t// in\ntag_220:\n    /* \"#utility.yul\":6526:6610   */\n  swap6\n  pop\n    /* \"#utility.yul\":6328:6620   */\n  pop\n    /* \"#utility.yul\":6659:6661   */\n  0x40\n    /* \"#utility.yul\":6685:6749   */\n  tag_221\n    /* \"#utility.yul\":6741:6748   */\n  dup10\n    /* \"#utility.yul\":6732:6738   */\n  dup3\n    /* \"#utility.yul\":6721:6730   */\n  dup11\n    /* \"#utility.yul\":6717:6739   */\n  add\n    /* \"#utility.yul\":6685:6749   */\n  tag_96\n  jump\t// in\ntag_221:\n    /* \"#utility.yul\":6675:6749   */\n  swap5\n  pop\n    /* \"#utility.yul\":6630:6759   */\n  pop\n    /* \"#utility.yul\":6798:6800   */\n  0x60\n    /* \"#utility.yul\":6824:6888   */\n  tag_222\n    /* \"#utility.yul\":6880:6887   */\n  dup10\n    /* \"#utility.yul\":6871:6877   */\n  dup3\n    /* \"#utility.yul\":6860:6869   */\n  dup11\n    /* \"#utility.yul\":6856:6878   */\n  add\n    /* \"#utility.yul\":6824:6888   */\n  tag_100\n  jump\t// in\ntag_222:\n    /* \"#utility.yul\":6814:6888   */\n  swap4\n  pop\n    /* \"#utility.yul\":6769:6898   */\n  pop\n    /* \"#utility.yul\":6937:6940   */\n  0x80\n    /* \"#utility.yul\":6964:7045   */\n  tag_223\n    /* \"#utility.yul\":7037:7044   */\n  dup10\n    /* \"#utility.yul\":7028:7034   */\n  dup3\n    /* \"#utility.yul\":7017:7026   */\n  dup11\n    /* \"#utility.yul\":7013:7035   */\n  add\n    /* \"#utility.yul\":6964:7045   */\n  tag_103\n  jump\t// in\ntag_223:\n    /* \"#utility.yul\":6954:7045   */\n  swap3\n  pop\n    /* \"#utility.yul\":6908:7055   */\n  pop\n    /* \"#utility.yul\":7115:7118   */\n  0xa0\n    /* \"#utility.yul\":7104:7113   */\n  dup8\n    /* \"#utility.yul\":7100:7119   */\n  add\n    /* \"#utility.yul\":7094:7120   */\n  mload\n    /* \"#utility.yul\":7147:7165   */\n  0xffffffffffffffff\n    /* \"#utility.yul\":7139:7145   */\n  dup2\n    /* \"#utility.yul\":7136:7166   */\n  gt\n    /* \"#utility.yul\":7133:7250   */\n  iszero\n  tag_224\n  jumpi\n    /* \"#utility.yul\":7169:7248   */\n  tag_225\n  tag_83\n  jump\t// in\ntag_225:\n    /* \"#utility.yul\":7133:7250   */\ntag_224:\n    /* \"#utility.yul\":7274:7363   */\n  tag_226\n    /* \"#utility.yul\":7355:7362   */\n  dup10\n    /* \"#utility.yul\":7346:7352   */\n  dup3\n    /* \"#utility.yul\":7335:7344   */\n  dup11\n    /* \"#utility.yul\":7331:7353   */\n  add\n    /* \"#utility.yul\":7274:7363   */\n  tag_107\n  jump\t// in\ntag_226:\n    /* \"#utility.yul\":7264:7363   */\n  swap2\n  pop\n    /* \"#utility.yul\":7065:7373   */\n  pop\n    /* \"#utility.yul\":5663:7380   */\n  swap3\n  swap6\n  pop\n  swap3\n  swap6\n  pop\n  swap3\n  swap6\n  jump\t// out\n    /* \"#utility.yul\":7386:7485   */\ntag_108:\n    /* \"#utility.yul\":7438:7444   */\n  0x00\n    /* \"#utility.yul\":7472:7477   */\n  dup2\n    /* \"#utility.yul\":7466:7478   */\n  mload\n    /* \"#utility.yul\":7456:7478   */\n  swap1\n  pop\n    /* \"#utility.yul\":7386:7485   */\n  swap2\n  swap1\n  pop\n  jump\t// out\n    /* \"#utility.yul\":7491:7671   */\ntag_109:\n    /* \"#utility.yul\":7539:7616   */\n  0x4e487b7100000000000000000000000000000000000000000000000000000000\n    /* \"#utility.yul\":7536:7537   */\n  0x00\n    /* \"#utility.yul\":7529:7617   */\n  mstore\n    /* \"#utility.yul\":7636:7640   */\n  0x22\n    /* \"#utility.yul\":7633:7634   */\n  0x04\n    /* \"#utility.yul\":7626:7641   */\n  mstore\n    /* \"#utility.yul\":7660:7664   */\n  0x24\n    /* \"#utility.yul\":7657:7658   */\n  0x00\n    /* \"#utility.yul\":7650:7665   */\n  revert\n    /* \"#utility.yul\":7677:7997   */\ntag_110:\n    /* \"#utility.yul\":7721:7727   */\n  0x00\n    /* \"#utility.yul\":7758:7759   */\n  0x02\n    /* \"#utility.yul\":7752:7756   */\n  dup3\n    /* \"#utility.yul\":7748:7760   */\n  div\n    /* \"#utility.yul\":7738:7760   */\n  swap1\n  pop\n    /* \"#utility.yul\":7805:7806   */\n  0x01\n    /* \"#utility.yul\":7799:7803   */\n  dup3\n    /* \"#utility.yul\":7795:7807   */\n  and\n    /* \"#utility.yul\":7826:7844   */\n  dup1\n    /* \"#utility.yul\":7816:7897   */\n  tag_230\n  jumpi\n    /* \"#utility.yul\":7882:7886   */\n  0x7f\n    /* \"#utility.yul\":7874:7880   */\n  dup3\n    /* \"#utility.yul\":7870:7887   */\n  and\n    /* \"#utility.yul\":7860:7887   */\n  swap2\n  pop\n    /* \"#utility.yul\":7816:7897   */\ntag_230:\n    /* \"#utility.yul\":7944:7946   */\n  0x20\n    /* \"#utility.yul\":7936:7942   */\n  dup3\n    /* \"#utility.yul\":7933:7947   */\n  lt\n    /* \"#utility.yul\":7913:7931   */\n  dup2\n    /* \"#utility.yul\":7910:7948   */\n  sub\n    /* \"#utility.yul\":7907:7991   */\n  tag_231\n  jumpi\n    /* \"#utility.yul\":7963:7981   */\n  tag_232\n  tag_109\n  jump\t// in\ntag_232:\n    /* \"#utility.yul\":7907:7991   */\ntag_231:\n    /* \"#utility.yul\":7728:7997   */\n  pop\n    /* \"#utility.yul\":7677:7997   */\n  swap2\n  swap1\n  pop\n  jump\t// out\n    /* \"#utility.yul\":8003:8144   */\ntag_111:\n    /* \"#utility.yul\":8052:8056   */\n  0x00\n    /* \"#utility.yul\":8075:8078   */\n  dup2\n    /* \"#utility.yul\":8067:8078   */\n  swap1\n  pop\n    /* \"#utility.yul\":8098:8101   */\n  dup2\n    /* \"#utility.yul\":8095:8096   */\n  0x00\n    /* \"#utility.yul\":8088:8102   */\n  mstore\n    /* \"#utility.yul\":8132:8136   */\n  0x20\n    /* \"#utility.yul\":8129:8130   */\n  0x00\n    /* \"#utility.yul\":8119:8137   */\n  keccak256\n    /* \"#utility.yul\":8111:8137   */\n  swap1\n  pop\n    /* \"#utility.yul\":8003:8144   */\n  swap2\n  swap1\n  pop\n  jump\t// out\n    /* \"#utility.yul\":8150:8243   */\ntag_112:\n    /* \"#utility.yul\":8187:8193   */\n  0x00\n    /* \"#utility.yul\":8234:8236   */\n  0x20\n    /* \"#utility.yul\":8229:8231   */\n  0x1f\n    /* \"#utility.yul\":8222:8227   */\n  dup4\n    /* \"#utility.yul\":8218:8232   */\n  add\n    /* \"#utility.yul\":8214:8237   */\n  div\n    /* \"#utility.yul\":8204:8237   */\n  swap1\n  pop\n    /* \"#utility.yul\":8150:8243   */\n  swap2\n  swap1\n  pop\n  jump\t// out\n    /* \"#utility.yul\":8249:8356   */\ntag_113:\n    /* \"#utility.yul\":8293:8301   */\n  0x00\n    /* \"#utility.yul\":8343:8348   */\n  dup3\n    /* \"#utility.yul\":8337:8341   */\n  dup3\n    /* \"#utility.yul\":8333:8349   */\n  shl\n    /* \"#utility.yul\":8312:8349   */\n  swap1\n  pop\n    /* \"#utility.yul\":8249:8356   */\n  swap3\n  swap2\n  pop\n  pop\n  jump\t// out\n    /* \"#utility.yul\":8362:8755   */\ntag_114:\n    /* \"#utility.yul\":8431:8437   */\n  0x00\n    /* \"#utility.yul\":8481:8482   */\n  0x08\n    /* \"#utility.yul\":8469:8479   */\n  dup4\n    /* \"#utility.yul\":8465:8483   */\n  mul\n    /* \"#utility.yul\":8504:8601   */\n  tag_237\n    /* \"#utility.yul\":8534:8600   */\n  0xffffffffffffffffffffffffffffffffffffffffffffffffffffffffffffffff\n    /* \"#utility.yul\":8523:8532   */\n  dup3\n    /* \"#utility.yul\":8504:8601   */\n  tag_113\n  jump\t// in\ntag_237:\n    /* \"#utility.yul\":8622:8661   */\n  tag_238\n    /* \"#utility.yul\":8652:8660   */\n  dup7\n    /* \"#utility.yul\":8641:8650   */\n  dup4\n    /* \"#utility.yul\":8622:8661   */\n  tag_113\n  jump\t// in\ntag_238:\n    /* \"#utility.yul\":8610:8661   */\n  swap6\n  pop\n    /* \"#utility.yul\":8694:8698   */\n  dup1\n    /* \"#utility.yul\":8690:8699   */\n  not\n    /* \"#utility.yul\":8683:8688   */\n  dup5\n    /* \"#utility.yul\":8679:8700   */\n  and\n    /* \"#utility.yul\":8670:8700   */\n  swap4\n  pop\n    /* \"#utility.yul\":8743:8747   */\n  dup1\n    /* \"#utility.yul\":8733:8741   */\n  dup7\n    /* \"#utility.yul\":8729:8748   */\n  and\n    /* \"#utility.yul\":8722:8727   */\n  dup5\n    /* \"#utility.yul\":8719:8749   */\n  or\n    /* \"#utility.yul\":8709:8749   */\n  swap3\n  pop\n    /* \"#utility.yul\":8438:8755   */\n  pop\n  pop\n    /* \"#utility.yul\":8362:8755   */\n  swap4\n  swap3\n  pop\n  pop\n  pop\n  jump\t// out\n    /* \"#utility.yul\":8761:8821   */\ntag_115:\n    /* \"#utility.yul\":8789:8792   */\n  0x00\n    /* \"#utility.yul\":8810:8815   */\n  dup2\n    /* \"#utility.yul\":8803:8815   */\n  swap1\n  pop\n    /* \"#utility.yul\":8761:8821   */\n  swap2\n  swap1\n  pop\n  jump\t// out\n    /* \"#utility.yul\":8827:8969   */\ntag_116:\n    /* \"#utility.yul\":8877:8886   */\n  0x00\n    /* \"#utility.yul\":8910:8963   */\n  tag_241\n    /* \"#utility.yul\":8928:8962   */\n  tag_242\n    /* \"#utility.yul\":8937:8961   */\n  tag_243\n    /* \"#utility.yul\":8955:8960   */\n  dup5\n    /* \"#utility.yul\":8937:8961   */\n  tag_94\n  jump\t// in\ntag_243:\n    /* \"#utility.yul\":8928:8962   */\n  tag_115\n  jump\t// in\ntag_242:\n    /* \"#utility.yul\":8910:8963   */\n  tag_94\n  jump\t// in\ntag_241:\n    /* \"#utility.yul\":8897:8963   */\n  swap1\n  pop\n    /* \"#utility.yul\":8827:8969   */\n  swap2\n  swap1\n  pop\n  jump\t// out\n    /* \"#utility.yul\":8975:9050   */\ntag_117:\n    /* \"#utility.yul\":9018:9021   */\n  0x00\n    /* \"#utility.yul\":9039:9044   */\n  dup2\n    /* \"#utility.yul\":9032:9044   */\n  swap1\n  pop\n    /* \"#utility.yul\":8975:9050   */\n  swap2\n  swap1\n  pop\n  jump\t// out\n    /* \"#utility.yul\":9056:9325   */\ntag_118:\n    /* \"#utility.yul\":9166:9205   */\n  tag_246\n    /* \"#utility.yul\":9197:9204   */\n  dup4\n    /* \"#utility.yul\":9166:9205   */\n  tag_116\n  jump\t// in\ntag_246:\n    /* \"#utility.yul\":9227:9318   */\n  tag_247\n    /* \"#utility.yul\":9276:9317   */\n  tag_248\n    /* \"#utility.yul\":9300:9316   */\n  dup3\n    /* \"#utility.yul\":9276:9317   */\n  tag_117\n  jump\t// in\ntag_248:\n    /* \"#utility.yul\":9268:9274   */\n  dup5\n    /* \"#utility.yul\":9261:9265   */\n  dup5\n    /* \"#utility.yul\":9255:9266   */\n  sload\n    /* \"#utility.yul\":9227:9318   */\n  tag_114\n  jump\t// in\ntag_247:\n    /* \"#utility.yul\":9221:9225   */\n  dup3\n    /* \"#utility.yul\":9214:9319   */\n  sstore\n    /* \"#utility.yul\":9132:9325   */\n  pop\n    /* \"#utility.yul\":9056:9325   */\n  pop\n  pop\n  pop\n  jump\t// out\n    /* \"#utility.yul\":9331:9404   */\ntag_119:\n    /* \"#utility.yul\":9376:9379   */\n  0x00\n    /* \"#utility.yul\":9331:9404   */\n  swap1\n  jump\t// out\n    /* \"#utility.yul\":9410:9599   */\ntag_120:\n    /* \"#utility.yul\":9487:9519   */\n  tag_251\n  tag_119\n  jump\t// in\ntag_251:\n    /* \"#utility.yul\":9528:9593   */\n  tag_252\n    /* \"#utility.yul\":9586:9592   */\n  dup2\n    /* \"#utility.yul\":9578:9584   */\n  dup5\n    /* \"#utility.yul\":9572:9576   */\n  dup5\n    /* \"#utility.yul\":9528:9593   */\n  tag_118\n  jump\t// in\ntag_252:\n    /* \"#utility.yul\":9463:9599   */\n  pop\n    /* \"#utility.yul\":9410:9599   */\n  pop\n  pop\n  jump\t// out\n    /* \"#utility.yul\":9605:9791   */\ntag_121:\n    /* \"#utility.yul\":9665:9785   */\ntag_254:\n    /* \"#utility.yul\":9682:9685   */\n  dup2\n    /* \"#utility.yul\":9675:9680   */\n  dup2\n    /* \"#utility.yul\":9672:9686   */\n  lt\n    /* \"#utility.yul\":9665:9785   */\n  iszero\n  tag_256\n  jumpi\n    /* \"#utility.yul\":9736:9775   */\n  tag_257\n    /* \"#utility.yul\":9773:9774   */\n  0x00\n    /* \"#utility.yul\":9766:9771   */\n  dup3\n    /* \"#utility.yul\":9736:9775   */\n  tag_120\n  jump\t// in\ntag_257:\n    /* \"#utility.yul\":9709:9710   */\n  0x01\n    /* \"#utility.yul\":9702:9707   */\n  dup2\n    /* \"#utility.yul\":9698:9711   */\n  add\n    /* \"#utility.yul\":9689:9711   */\n  swap1\n  pop\n    /* \"#utility.yul\":9665:9785   */\n  jump(tag_254)\ntag_256:\n    /* \"#utility.yul\":9605:9791   */\n  pop\n  pop\n  jump\t// out\n    /* \"#utility.yul\":9797:10340   */\ntag_122:\n    /* \"#utility.yul\":9898:9900   */\n  0x1f\n    /* \"#utility.yul\":9893:9896   */\n  dup3\n    /* \"#utility.yul\":9890:9901   */\n  gt\n    /* \"#utility.yul\":9887:10333   */\n  iszero\n  tag_259\n  jumpi\n    /* \"#utility.yul\":9932:9970   */\n  tag_260\n    /* \"#utility.yul\":9964:9969   */\n  dup2\n    /* \"#utility.yul\":9932:9970   */\n  tag_111\n  jump\t// in\ntag_260:\n    /* \"#utility.yul\":10016:10045   */\n  tag_261\n    /* \"#utility.yul\":10034:10044   */\n  dup5\n    /* \"#utility.yul\":10016:10045   */\n  tag_112\n  jump\t// in\ntag_261:\n    /* \"#utility.yul\":10006:10014   */\n  dup2\n    /* \"#utility.yul\":10002:10046   */\n  add\n    /* \"#utility.yul\":10199:10201   */\n  0x20\n    /* \"#utility.yul\":10187:10197   */\n  dup6\n    /* \"#utility.yul\":10184:10202   */\n  lt\n    /* \"#utility.yul\":10181:10230   */\n  iszero\n  tag_262\n  jumpi\n    /* \"#utility.yul\":10220:10228   */\n  dup2\n    /* \"#utility.yul\":10205:10228   */\n  swap1\n  pop\n    /* \"#utility.yul\":10181:10230   */\ntag_262:\n    /* \"#utility.yul\":10243:10323   */\n  tag_263\n    /* \"#utility.yul\":10299:10321   */\n  tag_264\n    /* \"#utility.yul\":10317:10320   */\n  dup6\n    /* \"#utility.yul\":10299:10321   */\n  tag_112\n  jump\t// in\ntag_264:\n    /* \"#utility.yul\":10289:10297   */\n  dup4\n    /* \"#utility.yul\":10285:10322   */\n  add\n    /* \"#utility.yul\":10272:10283   */\n  dup3\n    /* \"#utility.yul\":10243:10323   */\n  tag_121\n  jump\t// in\ntag_263:\n    /* \"#utility.yul\":9902:10333   */\n  pop\n  pop\n    /* \"#utility.yul\":9887:10333   */\ntag_259:\n    /* \"#utility.yul\":9797:10340   */\n  pop\n  pop\n  pop\n  jump\t// out\n    /* \"#utility.yul\":10346:10463   */\ntag_123:\n    /* \"#utility.yul\":10400:10408   */\n  0x00\n    /* \"#utility.yul\":10450:10455   */\n  dup3\n    /* \"#utility.yul\":10444:10448   */\n  dup3\n    /* \"#utility.yul\":10440:10456   */\n  shr\n    /* \"#utility.yul\":10419:10456   */\n  swap1\n  pop\n    /* \"#utility.yul\":10346:10463   */\n  swap3\n  swap2\n  pop\n  pop\n  jump\t// out\n    /* \"#utility.yul\":10469:10638   */\ntag_124:\n    /* \"#utility.yul\":10513:10519   */\n  0x00\n    /* \"#utility.yul\":10546:10597   */\n  tag_267\n    /* \"#utility.yul\":10594:10595   */\n  0x00\n    /* \"#utility.yul\":10590:10596   */\n  not\n    /* \"#utility.yul\":10582:10587   */\n  dup5\n    /* \"#utility.yul\":10579:10580   */\n  0x08\n    /* \"#utility.yul\":10575:10588   */\n  mul\n    /* \"#utility.yul\":10546:10597   */\n  tag_123\n  jump\t// in\ntag_267:\n    /* \"#utility.yul\":10542:10598   */\n  not\n    /* \"#utility.yul\":10627:10631   */\n  dup1\n    /* \"#utility.yul\":10621:10625   */\n  dup4\n    /* \"#utility.yul\":10617:10632   */\n  and\n    /* \"#utility.yul\":10607:10632   */\n  swap2\n  pop\n    /* \"#utility.yul\":10520:10638   */\n  pop\n    /* \"#utility.yul\":10469:10638   */\n  swap3\n  swap2\n  pop\n  pop\n  jump\t// out\n    /* \"#utility.yul\":10643:10938   */\ntag_125:\n    /* \"#utility.yul\":10719:10723   */\n  0x00\n    /* \"#utility.yul\":10865:10894   */\n  tag_269\n    /* \"#utility.yul\":10890:10893   */\n  dup4\n    /* \"#utility.yul\":10884:10888   */\n  dup4\n    /* \"#utility.yul\":10865:10894   */\n  tag_124\n  jump\t// in\ntag_269:\n    /* \"#utility.yul\":10857:10894   */\n  swap2\n  pop\n    /* \"#utility.yul\":10927:10930   */\n  dup3\n    /* \"#utility.yul\":10924:10925   */\n  0x02\n    /* \"#utility.yul\":10920:10931   */\n  mul\n    /* \"#utility.yul\":10914:10918   */\n  dup3\n    /* \"#utility.yul\":10911:10932   */\n  or\n    /* \"#utility.yul\":10903:10932   */\n  swap1\n  pop\n    /* \"#utility.yul\":10643:10938   */\n  swap3\n  swap2\n  pop\n  pop\n  jump\t// out\n    /* \"#utility.yul\":10943:12338   */\ntag_9:\n    /* \"#utility.yul\":11060:11097   */\n  tag_271\n    /* \"#utility.yul\":11093:11096   */\n  dup3\n    /* \"#utility.yul\":11060:11097   */\n  tag_108\n  jump\t// in\ntag_271:\n    /* \"#utility.yul\":11162:11180   */\n  0xffffffffffffffff\n    /* \"#utility.yul\":11154:11160   */\n  dup2\n    /* \"#utility.yul\":11151:11181   */\n  gt\n    /* \"#utility.yul\":11148:11204   */\n  iszero\n  tag_272\n  jumpi\n    /* \"#utility.yul\":11184:11202   */\n  tag_273\n  tag_87\n  jump\t// in\ntag_273:\n    /* \"#utility.yul\":11148:11204   */\ntag_272:\n    /* \"#utility.yul\":11228:11266   */\n  tag_274\n    /* \"#utility.yul\":11260:11264   */\n  dup3\n    /* \"#utility.yul\":11254:11265   */\n  sload\n    /* \"#utility.yul\":11228:11266   */\n  tag_110\n  jump\t// in\ntag_274:\n    /* \"#utility.yul\":11313:11380   */\n  tag_275\n    /* \"#utility.yul\":11373:11379   */\n  dup3\n    /* \"#utility.yul\":11365:11371   */\n  dup3\n    /* \"#utility.yul\":11359:11363   */\n  dup6\n    /* \"#utility.yul\":11313:11380   */\n  tag_122\n  jump\t// in\ntag_275:\n    /* \"#utility.yul\":11407:11408   */\n  0x00\n    /* \"#utility.yul\":11431:11435   */\n  0x20\n    /* \"#utility.yul\":11418:11435   */\n  swap1\n  pop\n    /* \"#utility.yul\":11463:11465   */\n  0x1f\n    /* \"#utility.yul\":11455:11461   */\n  dup4\n    /* \"#utility.yul\":11452:11466   */\n  gt\n    /* \"#utility.yul\":11480:11481   */\n  0x01\n    /* \"#utility.yul\":11475:12093   */\n  dup2\n  eq\n  tag_277\n  jumpi\n    /* \"#utility.yul\":12137:12138   */\n  0x00\n    /* \"#utility.yul\":12154:12160   */\n  dup5\n    /* \"#utility.yul\":12151:12228   */\n  iszero\n  tag_278\n  jumpi\n    /* \"#utility.yul\":12203:12212   */\n  dup3\n    /* \"#utility.yul\":12198:12201   */\n  dup8\n    /* \"#utility.yul\":12194:12213   */\n  add\n    /* \"#utility.yul\":12188:12214   */\n  mload\n    /* \"#utility.yul\":12179:12214   */\n  swap1\n  pop\n    /* \"#utility.yul\":12151:12228   */\ntag_278:\n    /* \"#utility.yul\":12254:12321   */\n  tag_279\n    /* \"#utility.yul\":12314:12320   */\n  dup6\n    /* \"#utility.yul\":12307:12312   */\n  dup3\n    /* \"#utility.yul\":12254:12321   */\n  tag_125\n  jump\t// in\ntag_279:\n    /* \"#utility.yul\":12248:12252   */\n  dup7\n    /* \"#utility.yul\":12241:12322   */\n  sstore\n    /* \"#utility.yul\":12110:12332   */\n  pop\n    /* \"#utility.yul\":11445:12332   */\n  jump(tag_276)\n    /* \"#utility.yul\":11475:12093   */\ntag_277:\n    /* \"#utility.yul\":11527:11531   */\n  0x1f\n    /* \"#utility.yul\":11523:11532   */\n  not\n    /* \"#utility.yul\":11515:11521   */\n  dup5\n    /* \"#utility.yul\":11511:11533   */\n  and\n    /* \"#utility.yul\":11561:11598   */\n  tag_280\n    /* \"#utility.yul\":11593:11597   */\n  dup7\n    /* \"#utility.yul\":11561:11598   */\n  tag_111\n  jump\t// in\ntag_280:\n    /* \"#utility.yul\":11620:11621   */\n  0x00\n    /* \"#utility.yul\":11634:11842   */\ntag_281:\n    /* \"#utility.yul\":11648:11655   */\n  dup3\n    /* \"#utility.yul\":11645:11646   */\n  dup2\n    /* \"#utility.yul\":11642:11656   */\n  lt\n    /* \"#utility.yul\":11634:11842   */\n  iszero\n  tag_283\n  jumpi\n    /* \"#utility.yul\":11727:11736   */\n  dup5\n    /* \"#utility.yul\":11722:11725   */\n  dup10\n    /* \"#utility.yul\":11718:11737   */\n  add\n    /* \"#utility.yul\":11712:11738   */\n  mload\n    /* \"#utility.yul\":11704:11710   */\n  dup3\n    /* \"#utility.yul\":11697:11739   */\n  sstore\n    /* \"#utility.yul\":11778:11779   */\n  0x01\n    /* \"#utility.yul\":11770:11776   */\n  dup3\n    /* \"#utility.yul\":11766:11780   */\n  add\n    /* \"#utility.yul\":11756:11780   */\n  swap2\n  pop\n    /* \"#utility.yul\":11825:11827   */\n  0x20\n    /* \"#utility.yul\":11814:11823   */\n  dup6\n    /* \"#utility.yul\":11810:11828   */\n  add\n    /* \"#utility.yul\":11797:11828   */\n  swap5\n  pop\n    /* \"#utility.yul\":11671:11675   */\n  0x20\n    /* \"#utility.yul\":11668:11669   */\n  dup2\n    /* \"#utility.yul\":11664:11676   */\n  add\n    /* \"#utility.yul\":11659:11676   */\n  swap1\n  pop\n    /* \"#utility.yul\":11634:11842   */\n  jump(tag_281)\ntag_283:\n    /* \"#utility.yul\":11870:11876   */\n  dup7\n    /* \"#utility.yul\":11861:11868   */\n  dup4\n    /* \"#utility.yul\":11858:11877   */\n  lt\n    /* \"#utility.yul\":11855:12034   */\n  iszero\n  tag_284\n  jumpi\n    /* \"#utility.yul\":11928:11937   */\n  dup5\n    /* \"#utility.yul\":11923:11926   */\n  dup10\n    /* \"#utility.yul\":11919:11938   */\n  add\n    /* \"#utility.yul\":11913:11939   */\n  mload\n    /* \"#utility.yul\":11971:12019   */\n  tag_285\n    /* \"#utility.yul\":12013:12017   */\n  0x1f\n    /* \"#utility.yul\":12005:12011   */\n  dup10\n    /* \"#utility.yul\":12001:12018   */\n  and\n    /* \"#utility.yul\":11990:11999   */\n  dup3\n    /* \"#utility.yul\":11971:12019   */\n  tag_124\n  jump\t// in\ntag_285:\n    /* \"#utility.yul\":11963:11969   */\n  dup4\n    /* \"#utility.yul\":11956:12020   */\n  sstore\n    /* \"#utility.yul\":11878:12034   */\n  pop\n    /* \"#utility.yul\":11855:12034   */\ntag_284:\n    /* \"#utility.yul\":12080:12081   */\n  0x01\n    /* \"#utility.yul\":12076:12077   */\n  0x02\n    /* \"#utility.yul\":12068:12074   */\n  dup9\n    /* \"#utility.yul\":12064:12078   */\n  mul\n    /* \"#utility.yul\":12060:12082   */\n  add\n    /* \"#utility.yul\":12054:12058   */\n  dup9\n    /* \"#utility.yul\":12047:12083   */\n  sstore\n    /* \"#utility.yul\":11482:12093   */\n  pop\n  pop\n  pop\n    /* \"#utility.yul\":11445:12332   */\ntag_276:\n  pop\n    /* \"#utility.yul\":11035:12338   */\n  pop\n  pop\n  pop\n    /* \"#utility.yul\":10943:12338   */\n  pop\n  pop\n  jump\t// out\n    /* \"#utility.yul\":12344:12524   */\ntag_126:\n    /* \"#utility.yul\":12392:12469   */\n  0x4e487b7100000000000000000000000000000000000000000000000000000000\n    /* \"#utility.yul\":12389:12390   */\n  0x00\n    /* \"#utility.yul\":12382:12470   */\n  mstore\n    /* \"#utility.yul\":12489:12493   */\n  0x11\n    /* \"#utility.yul\":12486:12487   */\n  0x04\n    /* \"#utility.yul\":12479:12494   */\n  mstore\n    /* \"#utility.yul\":12513:12517   */\n  0x24\n    /* \"#utility.yul\":12510:12511   */\n  0x00\n    /* \"#utility.yul\":12503:12518   */\n  revert\n    /* \"#utility.yul\":12530:12632   */\ntag_127:\n    /* \"#utility.yul\":12572:12580   */\n  0x00\n    /* \"#utility.yul\":12619:12624   */\n  dup2\n    /* \"#utility.yul\":12616:12617   */\n  0x01\n    /* \"#utility.yul\":12612:12625   */\n  shr\n    /* \"#utility.yul\":12591:12625   */\n  swap1\n  pop\n    /* \"#utility.yul\":12530:12632   */\n  swap2\n  swap1\n  pop\n  jump\t// out\n    /* \"#utility.yul\":12638:13486   */\ntag_128:\n    /* \"#utility.yul\":12699:12704   */\n  0x00\n    /* \"#utility.yul\":12706:12710   */\n  dup1\n    /* \"#utility.yul\":12730:12736   */\n  dup3\n    /* \"#utility.yul\":12721:12736   */\n  swap2\n  pop\n    /* \"#utility.yul\":12754:12759   */\n  dup4\n    /* \"#utility.yul\":12745:12759   */\n  swap1\n  pop\n    /* \"#utility.yul\":12768:13480   */\ntag_289:\n    /* \"#utility.yul\":12789:12790   */\n  0x01\n    /* \"#utility.yul\":12779:12787   */\n  dup6\n    /* \"#utility.yul\":12776:12791   */\n  gt\n    /* \"#utility.yul\":12768:13480   */\n  iszero\n  tag_291\n  jumpi\n    /* \"#utility.yul\":12884:12888   */\n  dup1\n    /* \"#utility.yul\":12879:12882   */\n  dup7\n    /* \"#utility.yul\":12875:12889   */\n  div\n    /* \"#utility.yul\":12869:12873   */\n  dup2\n    /* \"#utility.yul\":12866:12890   */\n  gt\n    /* \"#utility.yul\":12863:12913   */\n  iszero\n  tag_292\n  jumpi\n    /* \"#utility.yul\":12893:12911   */\n  tag_293\n  tag_126\n  jump\t// in\ntag_293:\n    /* \"#utility.yul\":12863:12913   */\ntag_292:\n    /* \"#utility.yul\":12943:12944   */\n  0x01\n    /* \"#utility.yul\":12933:12941   */\n  dup6\n    /* \"#utility.yul\":12929:12945   */\n  and\n    /* \"#utility.yul\":12926:13377   */\n  iszero\n  tag_294\n  jumpi\n    /* \"#utility.yul\":13358:13362   */\n  dup1\n    /* \"#utility.yul\":13351:13356   */\n  dup3\n    /* \"#utility.yul\":13347:13363   */\n  mul\n    /* \"#utility.yul\":13338:13363   */\n  swap2\n  pop\n    /* \"#utility.yul\":12926:13377   */\ntag_294:\n    /* \"#utility.yul\":13408:13412   */\n  dup1\n    /* \"#utility.yul\":13402:13406   */\n  dup2\n    /* \"#utility.yul\":13398:13413   */\n  mul\n    /* \"#utility.yul\":13390:13413   */\n  swap1\n  pop\n    /* \"#utility.yul\":13438:13470   */\n  tag_295\n    /* \"#utility.yul\":13461:13469   */\n  dup6\n    /* \"#utility.yul\":13438:13470   */\n  tag_127\n  jump\t// in\ntag_295:\n    /* \"#utility.yul\":13426:13470   */\n  swap5\n  pop\n    /* \"#utility.yul\":12768:13480   */\n  jump(tag_289)\ntag_291:\n    /* \"#utility.yul\":12638:13486   */\n  swap5\n  pop\n  swap5\n  swap3\n  pop\n  pop\n  pop\n  jump\t// out\n    /* \"#utility.yul\":13492:14565   */\ntag_129:\n    /* \"#utility.yul\":13546:13551   */\n  0x00\n    /* \"#utility.yul\":13737:13745   */\n  dup3\n    /* \"#utility.yul\":13727:13767   */\n  tag_297\n  jumpi\n    /* \"#utility.yul\":13758:13759   */\n  0x01\n    /* \"#utility.yul\":13749:13759   */\n  swap1\n  pop\n    /* \"#utility.yul\":13760:13765   */\n  jump(tag_296)\n    /* \"#utility.yul\":13727:13767   */\ntag_297:\n    /* \"#utility.yul\":13786:13790   */\n  dup2\n    /* \"#utility.yul\":13776:13812   */\n  tag_298\n  jumpi\n    /* \"#utility.yul\":13803:13804   */\n  0x00\n    /* \"#utility.yul\":13794:13804   */\n  swap1\n  pop\n    /* \"#utility.yul\":13805:13810   */\n  jump(tag_296)\n    /* \"#utility.yul\":13776:13812   */\ntag_298:\n    /* \"#utility.yul\":13872:13876   */\n  dup2\n    /* \"#utility.yul\":13920:13921   */\n  0x01\n    /* \"#utility.yul\":13915:13942   */\n  dup2\n  eq\n  tag_300\n  jumpi\n    /* \"#utility.yul\":13956:13957   */\n  0x02\n    /* \"#utility.yul\":13951:14142   */\n  dup2\n  eq\n  tag_301\n  jumpi\n    /* \"#utility.yul\":13865:14142   */\n  jump(tag_299)\n    /* \"#utility.yul\":13915:13942   */\ntag_300:\n    /* \"#utility.yul\":13933:13934   */\n  0x01\n    /* \"#utility.yul\":13924:13934   */\n  swap2\n  pop\n    /* \"#utility.yul\":13935:13940   */\n  pop\n  jump(tag_296)\n    /* \"#utility.yul\":13951:14142   */\ntag_301:\n    /* \"#utility.yul\":13996:13999   */\n  0xff\n    /* \"#utility.yul\":13986:13994   */\n  dup5\n    /* \"#utility.yul\":13983:14000   */\n  gt\n    /* \"#utility.yul\":13980:14023   */\n  iszero\n  tag_302\n  jumpi\n    /* \"#utility.yul\":14003:14021   */\n  tag_303\n  tag_126\n  jump\t// in\ntag_303:\n    /* \"#utility.yul\":13980:14023   */\ntag_302:\n    /* \"#utility.yul\":14052:14060   */\n  dup4\n    /* \"#utility.yul\":14049:14050   */\n  0x02\n    /* \"#utility.yul\":14045:14061   */\n  exp\n    /* \"#utility.yul\":14036:14061   */\n  swap2\n  pop\n    /* \"#utility.yul\":14087:14090   */\n  dup5\n    /* \"#utility.yul\":14080:14085   */\n  dup3\n    /* \"#utility.yul\":14077:14091   */\n  gt\n    /* \"#utility.yul\":14074:14114   */\n  iszero\n  tag_304\n  jumpi\n    /* \"#utility.yul\":14094:14112   */\n  tag_305\n  tag_126\n  jump\t// in\ntag_305:\n    /* \"#utility.yul\":14074:14114   */\ntag_304:\n    /* \"#utility.yul\":14127:14132   */\n  pop\n  jump(tag_296)\n    /* \"#utility.yul\":13865:14142   */\ntag_299:\n  pop\n    /* \"#utility.yul\":14251:14253   */\n  0x20\n    /* \"#utility.yul\":14241:14249   */\n  dup4\n    /* \"#utility.yul\":14238:14254   */\n  lt\n    /* \"#utility.yul\":14232:14235   */\n  0x0133\n    /* \"#utility.yul\":14226:14230   */\n  dup4\n    /* \"#utility.yul\":14223:14236   */\n  lt\n    /* \"#utility.yul\":14219:14255   */\n  and\n    /* \"#utility.yul\":14201:14203   */\n  0x4e\n    /* \"#utility.yul\":14191:14199   */\n  dup5\n    /* \"#utility.yul\":14188:14204   */\n  lt\n    /* \"#utility.yul\":14183:14185   */\n  0x0b\n    /* \"#utility.yul\":14177:14181   */\n  dup5\n    /* \"#utility.yul\":14174:14186   */\n  lt\n    /* \"#utility.yul\":14170:14205   */\n  and\n    /* \"#utility.yul\":14154:14265   */\n  or\n    /* \"#utility.yul\":14151:14397   */\n  iszero\n  tag_306\n  jumpi\n    /* \"#utility.yul\":14307:14315   */\n  dup3\n    /* \"#utility.yul\":14301:14305   */\n  dup3\n    /* \"#utility.yul\":14297:14316   */\n  exp\n    /* \"#utility.yul\":14288:14316   */\n  swap1\n  pop\n    /* \"#utility.yul\":14342:14345   */\n  dup4\n    /* \"#utility.yul\":14335:14340   */\n  dup2\n    /* \"#utility.yul\":14332:14346   */\n  gt\n    /* \"#utility.yul\":14329:14369   */\n  iszero\n  tag_307\n  jumpi\n    /* \"#utility.yul\":14349:14367   */\n  tag_308\n  tag_126\n  jump\t// in\ntag_308:\n    /* \"#utility.yul\":14329:14369   */\ntag_307:\n    /* \"#utility.yul\":14382:14387   */\n  jump(tag_296)\n    /* \"#utility.yul\":14151:14397   */\ntag_306:\n    /* \"#utility.yul\":14422:14464   */\n  tag_309\n    /* \"#utility.yul\":14460:14463   */\n  dup5\n    /* \"#utility.yul\":14450:14458   */\n  dup5\n    /* \"#utility.yul\":14444:14448   */\n  dup5\n    /* \"#utility.yul\":14441:14442   */\n  0x01\n    /* \"#utility.yul\":14422:14464   */\n  tag_128\n  jump\t// in\ntag_309:\n    /* \"#utility.yul\":14407:14464   */\n  swap3\n  pop\n  swap1\n  pop\n    /* \"#utility.yul\":14496:14500   */\n  dup2\n    /* \"#utility.yul\":14491:14494   */\n  dup5\n    /* \"#utility.yul\":14487:14501   */\n  div\n    /* \"#utility.yul\":14480:14485   */\n  dup2\n    /* \"#utility.yul\":14477:14502   */\n  gt\n    /* \"#utility.yul\":14474:14525   */\n  iszero\n  tag_310\n  jumpi\n    /* \"#utility.yul\":14505:14523   */\n  tag_311\n  tag_126\n  jump\t// in\ntag_311:\n    /* \"#utility.yul\":14474:14525   */\ntag_310:\n    /* \"#utility.yul\":14554:14558   */\n  dup2\n    /* \"#utility.yul\":14547:14552   */\n  dup2\n    /* \"#utility.yul\":14543:14559   */\n  mul\n    /* \"#utility.yul\":14534:14559   */\n  swap1\n  pop\n    /* \"#utility.yul\":13492:14565   */\ntag_296:\n  swap4\n  swap3\n  pop\n  pop\n  pop\n  jump\t// out\n    /* \"#utility.yul\":14571:14657   */\ntag_130:\n    /* \"#utility.yul\":14606:14613   */\n  0x00\n    /* \"#utility.yul\":14646:14650   */\n  0xff\n    /* \"#utility.yul\":14639:14644   */\n  dup3\n    /* \"#utility.yul\":14635:14651   */\n  and\n    /* \"#utility.yul\":14624:14651   */\n  swap1\n  pop\n    /* \"#utility.yul\":14571:14657   */\n  swap2\n  swap1\n  pop\n  jump\t// out\n    /* \"#utility.yul\":14663:14944   */\ntag_21:\n    /* \"#utility.yul\":14721:14726   */\n  0x00\n    /* \"#utility.yul\":14745:14768   */\n  tag_314\n    /* \"#utility.yul\":14763:14767   */\n  dup3\n    /* \"#utility.yul\":14745:14768   */\n  tag_94\n  jump\t// in\ntag_314:\n    /* \"#utility.yul\":14737:14768   */\n  swap2\n  pop\n    /* \"#utility.yul\":14789:14814   */\n  tag_315\n    /* \"#utility.yul\":14805:14813   */\n  dup4\n    /* \"#utility.yul\":14789:14814   */\n  tag_130\n  jump\t// in\ntag_315:\n    /* \"#utility.yul\":14777:14814   */\n  swap3\n  pop\n    /* \"#utility.yul\":14833:14937   */\n  tag_316\n    /* \"#utility.yul\":14870:14936   */\n  0xffffffffffffffffffffffffffffffffffffffffffffffffffffffffffffffff\n    /* \"#utility.yul\":14860:14868   */\n  dup5\n    /* \"#utility.yul\":14854:14858   */\n  dup5\n    /* \"#utility.yul\":14833:14937   */\n  tag_129\n  jump\t// in\ntag_316:\n    /* \"#utility.yul\":14824:14937   */\n  swap1\n  pop\n    /* \"#utility.yul\":14663:14944   */\n  swap3\n  swap2\n  pop\n  pop\n  jump\t// out\n    /* \"#utility.yul\":14950:15298   */\ntag_23:\n    /* \"#utility.yul\":14990:14997   */\n  0x00\n    /* \"#utility.yul\":15013:15033   */\n  tag_318\n    /* \"#utility.yul\":15031:15032   */\n  dup3\n    /* \"#utility.yul\":15013:15033   */\n  tag_94\n  jump\t// in\ntag_318:\n    /* \"#utility.yul\":15008:15033   */\n  swap2\n  pop\n    /* \"#utility.yul\":15047:15067   */\n  tag_319\n    /* \"#utility.yul\":15065:15066   */\n  dup4\n    /* \"#utility.yul\":15047:15067   */\n  tag_94\n  jump\t// in\ntag_319:\n    /* \"#utility.yul\":15042:15067   */\n  swap3\n  pop\n    /* \"#utility.yul\":15235:15236   */\n  dup2\n    /* \"#utility.yul\":15167:15233   */\n  0xffffffffffffffffffffffffffffffffffffffffffffffffffffffffffffffff\n    /* \"#utility.yul\":15163:15237   */\n  div\n    /* \"#utility.yul\":15160:15161   */\n  dup4\n    /* \"#utility.yul\":15157:15238   */\n  gt\n    /* \"#utility.yul\":15152:15153   */\n  dup3\n    /* \"#utility.yul\":15145:15154   */\n  iszero\n    /* \"#utility.yul\":15138:15155   */\n  iszero\n    /* \"#utility.yul\":15134:15239   */\n  and\n    /* \"#utility.yul\":15131:15262   */\n  iszero\n  tag_320\n  jumpi\n    /* \"#utility.yul\":15242:15260   */\n  tag_321\n  tag_126\n  jump\t// in\ntag_321:\n    /* \"#utility.yul\":15131:15262   */\ntag_320:\n    /* \"#utility.yul\":15290:15291   */\n  dup3\n    /* \"#utility.yul\":15287:15288   */\n  dup3\n    /* \"#utility.yul\":15283:15292   */\n  mul\n    /* \"#utility.yul\":15272:15292   */\n  swap1\n  pop\n    /* \"#utility.yul\":14950:15298   */\n  swap3\n  swap2\n  pop\n  pop\n  jump\t// out\n    /* \"#utility.yul\":15304:15484   */\ntag_30:\n    /* \"#utility.yul\":15352:15429   */\n  0x4e487b7100000000000000000000000000000000000000000000000000000000\n    /* \"#utility.yul\":15349:15350   */\n  0x00\n    /* \"#utility.yul\":15342:15430   */\n  mstore\n    /* \"#utility.yul\":15449:15453   */\n  0x32\n    /* \"#utility.yul\":15446:15447   */\n  0x04\n    /* \"#utility.yul\":15439:15454   */\n  mstore\n    /* \"#utility.yul\":15473:15477   */\n  0x24\n    /* \"#utility.yul\":15470:15471   */\n  0x00\n    /* \"#utility.yul\":15463:15478   */\n  revert\n    /* \"#utility.yul\":15490:15608   */\ntag_131:\n    /* \"#utility.yul\":15577:15601   */\n  tag_324\n    /* \"#utility.yul\":15595:15600   */\n  dup2\n    /* \"#utility.yul\":15577:15601   */\n  tag_98\n  jump\t// in\ntag_324:\n    /* \"#utility.yul\":15572:15575   */\n  dup3\n    /* \"#utility.yul\":15565:15602   */\n  mstore\n    /* \"#utility.yul\":15490:15608   */\n  pop\n  pop\n  jump\t// out\n    /* \"#utility.yul\":15614:15946   */\ntag_32:\n    /* \"#utility.yul\":15735:15739   */\n  0x00\n    /* \"#utility.yul\":15773:15775   */\n  0x40\n    /* \"#utility.yul\":15762:15771   */\n  dup3\n    /* \"#utility.yul\":15758:15776   */\n  add\n    /* \"#utility.yul\":15750:15776   */\n  swap1\n  pop\n    /* \"#utility.yul\":15786:15857   */\n  tag_326\n    /* \"#utility.yul\":15854:15855   */\n  0x00\n    /* \"#utility.yul\":15843:15852   */\n  dup4\n    /* \"#utility.yul\":15839:15856   */\n  add\n    /* \"#utility.yul\":15830:15836   */\n  dup6\n    /* \"#utility.yul\":15786:15857   */\n  tag_131\n  jump\t// in\ntag_326:\n    /* \"#utility.yul\":15867:15939   */\n  tag_327\n    /* \"#utility.yul\":15935:15937   */\n  0x20\n    /* \"#utility.yul\":15924:15933   */\n  dup4\n    /* \"#utility.yul\":15920:15938   */\n  add\n    /* \"#utility.yul\":15911:15917   */\n  dup5\n    /* \"#utility.yul\":15867:15939   */\n  tag_131\n  jump\t// in\ntag_327:\n    /* \"#utility.yul\":15614:15946   */\n  swap4\n  swap3\n  pop\n  pop\n  pop\n  jump\t// out\n    /* \"#utility.yul\":15952:16303   */\ntag_36:\n    /* \"#utility.yul\":16022:16028   */\n  0x00\n    /* \"#utility.yul\":16071:16073   */\n  0x20\n    /* \"#utility.yul\":16059:16068   */\n  dup3\n    /* \"#utility.yul\":16050:16057   */\n  dup5\n    /* \"#utility.yul\":16046:16069   */\n  sub\n    /* \"#utility.yul\":16042:16074   */\n  slt\n    /* \"#utility.yul\":16039:16158   */\n  iszero\n  tag_329\n  jumpi\n    /* \"#utility.yul\":16077:16156   */\n  tag_330\n  tag_82\n  jump\t// in\ntag_330:\n    /* \"#utility.yul\":16039:16158   */\ntag_329:\n    /* \"#utility.yul\":16197:16198   */\n  0x00\n    /* \"#utility.yul\":16222:16286   */\n  tag_331\n    /* \"#utility.yul\":16278:16285   */\n  dup5\n    /* \"#utility.yul\":16269:16275   */\n  dup3\n    /* \"#utility.yul\":16258:16267   */\n  dup6\n    /* \"#utility.yul\":16254:16276   */\n  add\n    /* \"#utility.yul\":16222:16286   */\n  tag_100\n  jump\t// in\ntag_331:\n    /* \"#utility.yul\":16212:16286   */\n  swap2\n  pop\n    /* \"#utility.yul\":16168:16296   */\n  pop\n    /* \"#utility.yul\":15952:16303   */\n  swap3\n  swap2\n  pop\n  pop\n  jump\t// out\n    /* \"#utility.yul\":16309:16542   */\ntag_40:\n    /* \"#utility.yul\":16348:16351   */\n  0x00\n    /* \"#utility.yul\":16371:16395   */\n  tag_333\n    /* \"#utility.yul\":16389:16394   */\n  dup3\n    /* \"#utility.yul\":16371:16395   */\n  tag_94\n  jump\t// in\ntag_333:\n    /* \"#utility.yul\":16362:16395   */\n  swap2\n  pop\n    /* \"#utility.yul\":16417:16483   */\n  0xffffffffffffffffffffffffffffffffffffffffffffffffffffffffffffffff\n    /* \"#utility.yul\":16410:16415   */\n  dup3\n    /* \"#utility.yul\":16407:16484   */\n  sub\n    /* \"#utility.yul\":16404:16507   */\n  tag_334\n  jumpi\n    /* \"#utility.yul\":16487:16505   */\n  tag_335\n  tag_126\n  jump\t// in\ntag_335:\n    /* \"#utility.yul\":16404:16507   */\ntag_334:\n    /* \"#utility.yul\":16534:16535   */\n  0x01\n    /* \"#utility.yul\":16527:16532   */\n  dup3\n    /* \"#utility.yul\":16523:16536   */\n  add\n    /* \"#utility.yul\":16516:16536   */\n  swap1\n  pop\n    /* \"#utility.yul\":16309:16542   */\n  swap2\n  swap1\n  pop\n  jump\t// out\n    /* \"#utility.yul\":16548:16717   */\ntag_132:\n    /* \"#utility.yul\":16632:16643   */\n  0x00\n    /* \"#utility.yul\":16666:16672   */\n  dup3\n    /* \"#utility.yul\":16661:16664   */\n  dup3\n    /* \"#utility.yul\":16654:16673   */\n  mstore\n    /* \"#utility.yul\":16706:16710   */\n  0x20\n    /* \"#utility.yul\":16701:16704   */\n  dup3\n    /* \"#utility.yul\":16697:16711   */\n  add\n    /* \"#utility.yul\":16682:16711   */\n  swap1\n  pop\n    /* \"#utility.yul\":16548:16717   */\n  swap3\n  swap2\n  pop\n  pop\n  jump\t// out\n    /* \"#utility.yul\":16723:16904   */\ntag_133:\n    /* \"#utility.yul\":16863:16896   */\n  0x45524332303a206d696e7420746f20746865207a65726f206164647265737300\n    /* \"#utility.yul\":16859:16860   */\n  0x00\n    /* \"#utility.yul\":16851:16857   */\n  dup3\n    /* \"#utility.yul\":16847:16861   */\n  add\n    /* \"#utility.yul\":16840:16897   */\n  mstore\n    /* \"#utility.yul\":16723:16904   */\n  pop\n  jump\t// out\n    /* \"#utility.yul\":16910:17276   */\ntag_134:\n    /* \"#utility.yul\":17052:17055   */\n  0x00\n    /* \"#utility.yul\":17073:17140   */\n  tag_339\n    /* \"#utility.yul\":17137:17139   */\n  0x1f\n    /* \"#utility.yul\":17132:17135   */\n  dup4\n    /* \"#utility.yul\":17073:17140   */\n  tag_132\n  jump\t// in\ntag_339:\n    /* \"#utility.yul\":17066:17140   */\n  swap2\n  pop\n    /* \"#utility.yul\":17149:17242   */\n  tag_340\n    /* \"#utility.yul\":17238:17241   */\n  dup3\n    /* \"#utility.yul\":17149:17242   */\n  tag_133\n  jump\t// in\ntag_340:\n    /* \"#utility.yul\":17267:17269   */\n  0x20\n    /* \"#utility.yul\":17262:17265   */\n  dup3\n    /* \"#utility.yul\":17258:17270   */\n  add\n    /* \"#utility.yul\":17251:17270   */\n  swap1\n  pop\n    /* \"#utility.yul\":16910:17276   */\n  swap2\n  swap1\n  pop\n  jump\t// out\n    /* \"#utility.yul\":17282:17701   */\ntag_50:\n    /* \"#utility.yul\":17448:17452   */\n  0x00\n    /* \"#utility.yul\":17486:17488   */\n  0x20\n    /* \"#utility.yul\":17475:17484   */\n  dup3\n    /* \"#utility.yul\":17471:17489   */\n  add\n    /* \"#utility.yul\":17463:17489   */\n  swap1\n  pop\n    /* \"#utility.yul\":17535:17544   */\n  dup2\n    /* \"#utility.yul\":17529:17533   */\n  dup2\n    /* \"#utility.yul\":17525:17545   */\n  sub\n    /* \"#utility.yul\":17521:17522   */\n  0x00\n    /* \"#utility.yul\":17510:17519   */\n  dup4\n    /* \"#utility.yul\":17506:17523   */\n  add\n    /* \"#utility.yul\":17499:17546   */\n  mstore\n    /* \"#utility.yul\":17563:17694   */\n  tag_342\n    /* \"#utility.yul\":17689:17693   */\n  dup2\n    /* \"#utility.yul\":17563:17694   */\n  tag_134\n  jump\t// in\ntag_342:\n    /* \"#utility.yul\":17555:17694   */\n  swap1\n  pop\n    /* \"#utility.yul\":17282:17701   */\n  swap2\n  swap1\n  pop\n  jump\t// out\n    /* \"#utility.yul\":17707:18012   */\ntag_54:\n    /* \"#utility.yul\":17747:17750   */\n  0x00\n    /* \"#utility.yul\":17766:17786   */\n  tag_344\n    /* \"#utility.yul\":17784:17785   */\n  dup3\n    /* \"#utility.yul\":17766:17786   */\n  tag_94\n  jump\t// in\ntag_344:\n    /* \"#utility.yul\":17761:17786   */\n  swap2\n  pop\n    /* \"#utility.yul\":17800:17820   */\n  tag_345\n    /* \"#utility.yul\":17818:17819   */\n  dup4\n    /* \"#utility.yul\":17800:17820   */\n  tag_94\n  jump\t// in\ntag_345:\n    /* \"#utility.yul\":17795:17820   */\n  swap3\n  pop\n    /* \"#utility.yul\":17954:17955   */\n  dup3\n    /* \"#utility.yul\":17886:17952   */\n  0xffffffffffffffffffffffffffffffffffffffffffffffffffffffffffffffff\n    /* \"#utility.yul\":17882:17956   */\n  sub\n    /* \"#utility.yul\":17879:17880   */\n  dup3\n    /* \"#utility.yul\":17876:17957   */\n  gt\n    /* \"#utility.yul\":17873:17980   */\n  iszero\n  tag_346\n  jumpi\n    /* \"#utility.yul\":17960:17978   */\n  tag_347\n  tag_126\n  jump\t// in\ntag_347:\n    /* \"#utility.yul\":17873:17980   */\ntag_346:\n    /* \"#utility.yul\":18004:18005   */\n  dup3\n    /* \"#utility.yul\":18001:18002   */\n  dup3\n    /* \"#utility.yul\":17997:18006   */\n  add\n    /* \"#utility.yul\":17990:18006   */\n  swap1\n  pop\n    /* \"#utility.yul\":17707:18012   */\n  swap3\n  swap2\n  pop\n  pop\n  jump\t// out\n    /* \"#utility.yul\":18018:18136   */\ntag_135:\n    /* \"#utility.yul\":18105:18129   */\n  tag_349\n    /* \"#utility.yul\":18123:18128   */\n  dup2\n    /* \"#utility.yul\":18105:18129   */\n  tag_94\n  jump\t// in\ntag_349:\n    /* \"#utility.yul\":18100:18103   */\n  dup3\n    /* \"#utility.yul\":18093:18130   */\n  mstore\n    /* \"#utility.yul\":18018:18136   */\n  pop\n  pop\n  jump\t// out\n    /* \"#utility.yul\":18142:18364   */\ntag_57:\n    /* \"#utility.yul\":18235:18239   */\n  0x00\n    /* \"#utility.yul\":18273:18275   */\n  0x20\n    /* \"#utility.yul\":18262:18271   */\n  dup3\n    /* \"#utility.yul\":18258:18276   */\n  add\n    /* \"#utility.yul\":18250:18276   */\n  swap1\n  pop\n    /* \"#utility.yul\":18286:18357   */\n  tag_351\n    /* \"#utility.yul\":18354:18355   */\n  0x00\n    /* \"#utility.yul\":18343:18352   */\n  dup4\n    /* \"#utility.yul\":18339:18356   */\n  add\n    /* \"#utility.yul\":18330:18336   */\n  dup5\n    /* \"#utility.yul\":18286:18357   */\n  tag_135\n  jump\t// in\ntag_351:\n    /* \"#utility.yul\":18142:18364   */\n  swap3\n  swap2\n  pop\n  pop\n  jump\t// out\n    /* \"#utility.yul\":18370:18595   */\ntag_136:\n    /* \"#utility.yul\":18510:18544   */\n  0x4f776e61626c653a206e6577206f776e657220697320746865207a65726f2061\n    /* \"#utility.yul\":18506:18507   */\n  0x00\n    /* \"#utility.yul\":18498:18504   */\n  dup3\n    /* \"#utility.yul\":18494:18508   */\n  add\n    /* \"#utility.yul\":18487:18545   */\n  mstore\n    /* \"#utility.yul\":18579:18587   */\n  0x6464726573730000000000000000000000000000000000000000000000000000\n    /* \"#utility.yul\":18574:18576   */\n  0x20\n    /* \"#utility.yul\":18566:18572   */\n  dup3\n    /* \"#utility.yul\":18562:18577   */\n  add\n    /* \"#utility.yul\":18555:18588   */\n  mstore\n    /* \"#utility.yul\":18370:18595   */\n  pop\n  jump\t// out\n    /* \"#utility.yul\":18601:18967   */\ntag_137:\n    /* \"#utility.yul\":18743:18746   */\n  0x00\n    /* \"#utility.yul\":18764:18831   */\n  tag_354\n    /* \"#utility.yul\":18828:18830   */\n  0x26\n    /* \"#utility.yul\":18823:18826   */\n  dup4\n    /* \"#utility.yul\":18764:18831   */\n  tag_132\n  jump\t// in\ntag_354:\n    /* \"#utility.yul\":18757:18831   */\n  swap2\n  pop\n    /* \"#utility.yul\":18840:18933   */\n  tag_355\n    /* \"#utility.yul\":18929:18932   */\n  dup3\n    /* \"#utility.yul\":18840:18933   */\n  tag_136\n  jump\t// in\ntag_355:\n    /* \"#utility.yul\":18958:18960   */\n  0x40\n    /* \"#utility.yul\":18953:18956   */\n  dup3\n    /* \"#utility.yul\":18949:18961   */\n  add\n    /* \"#utility.yul\":18942:18961   */\n  swap1\n  pop\n    /* \"#utility.yul\":18601:18967   */\n  swap2\n  swap1\n  pop\n  jump\t// out\n    /* \"#utility.yul\":18973:19392   */\ntag_69:\n    /* \"#utility.yul\":19139:19143   */\n  0x00\n    /* \"#utility.yul\":19177:19179   */\n  0x20\n    /* \"#utility.yul\":19166:19175   */\n  dup3\n    /* \"#utility.yul\":19162:19180   */\n  add\n    /* \"#utility.yul\":19154:19180   */\n  swap1\n  pop\n    /* \"#utility.yul\":19226:19235   */\n  dup2\n    /* \"#utility.yul\":19220:19224   */\n  dup2\n    /* \"#utility.yul\":19216:19236   */\n  sub\n    /* \"#utility.yul\":19212:19213   */\n  0x00\n    /* \"#utility.yul\":19201:19210   */\n  dup4\n    /* \"#utility.yul\":19197:19214   */\n  add\n    /* \"#utility.yul\":19190:19237   */\n  mstore\n    /* \"#utility.yul\":19254:19385   */\n  tag_357\n    /* \"#utility.yul\":19380:19384   */\n  dup2\n    /* \"#utility.yul\":19254:19385   */\n  tag_137\n  jump\t// in\ntag_357:\n    /* \"#utility.yul\":19246:19385   */\n  swap1\n  pop\n    /* \"#utility.yul\":18973:19392   */\n  swap2\n  swap1\n  pop\n  jump\t// out\n    /* \"#utility.yul\":19398:19580   */\ntag_138:\n    /* \"#utility.yul\":19538:19572   */\n  0x4f776e61626c653a2063616c6c6572206973206e6f7420746865206f776e6572\n    /* \"#utility.yul\":19534:19535   */\n  0x00\n    /* \"#utility.yul\":19526:19532   */\n  dup3\n    /* \"#utility.yul\":19522:19536   */\n  add\n    /* \"#utility.yul\":19515:19573   */\n  mstore\n    /* \"#utility.yul\":19398:19580   */\n  pop\n  jump\t// out\n    /* \"#utility.yul\":19586:19952   */\ntag_139:\n    /* \"#utility.yul\":19728:19731   */\n  0x00\n    /* \"#utility.yul\":19749:19816   */\n  tag_360\n    /* \"#utility.yul\":19813:19815   */\n  0x20\n    /* \"#utility.yul\":19808:19811   */\n  dup4\n    /* \"#utility.yul\":19749:19816   */\n  tag_132\n  jump\t// in\ntag_360:\n    /* \"#utility.yul\":19742:19816   */\n  swap2\n  pop\n    /* \"#utility.yul\":19825:19918   */\n  tag_361\n    /* \"#utility.yul\":19914:19917   */\n  dup3\n    /* \"#utility.yul\":19825:19918   */\n  tag_138\n  jump\t// in\ntag_361:\n    /* \"#utility.yul\":19943:19945   */\n  0x20\n    /* \"#utility.yul\":19938:19941   */\n  dup3\n    /* \"#utility.yul\":19934:19946   */\n  add\n    /* \"#utility.yul\":19927:19946   */\n  swap1\n  pop\n    /* \"#utility.yul\":19586:19952   */\n  swap2\n  swap1\n  pop\n  jump\t// out\n    /* \"#utility.yul\":19958:20377   */\ntag_79:\n    /* \"#utility.yul\":20124:20128   */\n  0x00\n    /* \"#utility.yul\":20162:20164   */\n  0x20\n    /* \"#utility.yul\":20151:20160   */\n  dup3\n    /* \"#utility.yul\":20147:20165   */\n  add\n    /* \"#utility.yul\":20139:20165   */\n  swap1\n  pop\n    /* \"#utility.yul\":20211:20220   */\n  dup2\n    /* \"#utility.yul\":20205:20209   */\n  dup2\n    /* \"#utility.yul\":20201:20221   */\n  sub\n    /* \"#utility.yul\":20197:20198   */\n  0x00\n    /* \"#utility.yul\":20186:20195   */\n  dup4\n    /* \"#utility.yul\":20182:20199   */\n  add\n    /* \"#utility.yul\":20175:20222   */\n  mstore\n    /* \"#utility.yul\":20239:20370   */\n  tag_363\n    /* \"#utility.yul\":20365:20369   */\n  dup2\n    /* \"#utility.yul\":20239:20370   */\n  tag_139\n  jump\t// in\ntag_363:\n    /* \"#utility.yul\":20231:20370   */\n  swap1\n  pop\n    /* \"#utility.yul\":19958:20377   */\n  swap2\n  swap1\n  pop\n  jump\t// out\n    /* \"contracts/MoonPay.sol\":208:2689  contract LimitedToken is ERC20, Ownable {... */\ntag_43:\n  dataSize(sub_0)\n  dup1\n  dataOffset(sub_0)\n  0x00\n  codecopy\n  0x00\n  return\nstop\n\nsub_0: assembly {\n        /* \"contracts/MoonPay.sol\":208:2689  contract LimitedToken is ERC20, Ownable {... */\n      mstore(0x40, 0x80)\n      callvalue\n      dup1\n      iszero\n      tag_1\n      jumpi\n      0x00\n      dup1\n      revert\n    tag_1:\n      pop\n      jumpi(tag_2, lt(calldatasize, 0x04))\n      shr(0xe0, calldataload(0x00))\n      dup1\n      0x60019de8\n      gt\n      tag_23\n      jumpi\n      dup1\n      0x95d89b41\n      gt\n      tag_24\n      jumpi\n      dup1\n      0x95d89b41\n      eq\n      tag_18\n      jumpi\n      dup1\n      0xa457c2d7\n      eq\n      tag_19\n      jumpi\n      dup1\n      0xa9059cbb\n      eq\n      tag_20\n      jumpi\n      dup1\n      0xdd62ed3e\n      eq\n      tag_21\n      jumpi\n      dup1\n      0xf2fde38b\n      eq\n      tag_22\n      jumpi\n      jump(tag_2)\n    tag_24:\n      dup1\n      0x60019de8\n      eq\n      tag_13\n      jumpi\n      dup1\n      0x70a08231\n      eq\n      tag_14\n      jumpi\n      dup1\n      0x715018a6\n      eq\n      tag_15\n      jumpi\n      dup1\n      0x8da5cb5b\n      eq\n      tag_16\n      jumpi\n      dup1\n      0x9191a9c7\n      eq\n      tag_17\n      jumpi\n      jump(tag_2)\n    tag_23:\n      dup1\n      0x23b872dd\n      gt\n      tag_25\n      jumpi\n      dup1\n      0x23b872dd\n      eq\n      tag_8\n      jumpi\n      dup1\n      0x313ce567\n      eq\n      tag_9\n      jumpi\n      dup1\n      0x39509351\n      eq\n      tag_10\n      jumpi\n      dup1\n      0x40c10f19\n      eq\n      tag_11\n      jumpi\n      dup1\n      0x4b457327\n      eq\n      tag_12\n      jumpi\n      jump(tag_2)\n    tag_25:\n      dup1\n      0x06fdde03\n      eq\n      tag_3\n      jumpi\n      dup1\n      0x095ea7b3\n      eq\n      tag_4\n      jumpi\n      dup1\n      0x0a656923\n      eq\n      tag_5\n      jumpi\n      dup1\n      0x18160ddd\n      eq\n      tag_6\n      jumpi\n      dup1\n      0x19a5e426\n      eq\n      tag_7\n      jumpi\n    tag_2:\n      0x00\n      dup1\n      revert\n        /* \"@openzeppelin/contracts/token/ERC20/ERC20.sol\":2156:2254  function name() public view virtual override returns (string memory) {... */\n    tag_3:\n      tag_26\n      tag_27\n      jump\t// in\n    tag_26:\n      mload(0x40)\n      tag_28\n      swap2\n      swap1\n      tag_29\n      jump\t// in\n    tag_28:\n      mload(0x40)\n      dup1\n      swap2\n      sub\n      swap1\n      return\n        /* \"@openzeppelin/contracts/token/ERC20/ERC20.sol\":4433:4630  function approve(address spender, uint256 amount) public virtual override returns (bool) {... */\n    tag_4:\n      tag_30\n      0x04\n      dup1\n      calldatasize\n      sub\n      dup2\n      add\n      swap1\n      tag_31\n      swap2\n      swap1\n      tag_32\n      jump\t// in\n    tag_31:\n      tag_33\n      jump\t// in\n    tag_30:\n      mload(0x40)\n      tag_34\n      swap2\n      swap1\n      tag_35\n      jump\t// in\n    tag_34:\n      mload(0x40)\n      dup1\n      swap2\n      sub\n      swap1\n      return\n        /* \"contracts/MoonPay.sol\":1921:2032  function setAmmPair(address account, bool isPair) public onlyOwner {... */\n    tag_5:\n      tag_36\n      0x04\n      dup1\n      calldatasize\n      sub\n      dup2\n      add\n      swap1\n      tag_37\n      swap2\n      swap1\n      tag_38\n      jump\t// in\n    tag_37:\n      tag_39\n      jump\t// in\n    tag_36:\n      stop\n        /* \"@openzeppelin/contracts/token/ERC20/ERC20.sol\":3244:3350  function totalSupply() public view virtual override returns (uint256) {... */\n    tag_6:\n      tag_40\n      tag_41\n      jump\t// in\n    tag_40:\n      mload(0x40)\n      tag_42\n      swap2\n      swap1\n      tag_43\n      jump\t// in\n    tag_42:\n      mload(0x40)\n      dup1\n      swap2\n      sub\n      swap1\n      return\n        /* \"contracts/MoonPay.sol\":2139:2283  function transferLimitedAccounts()... */\n    tag_7:\n      tag_44\n      tag_45\n      jump\t// in\n    tag_44:\n      mload(0x40)\n      tag_46\n      swap2\n      swap1\n      tag_47\n      jump\t// in\n    tag_46:\n      mload(0x40)\n      dup1\n      swap2\n      sub\n      swap1\n      return\n        /* \"@openzeppelin/contracts/token/ERC20/ERC20.sol\":5192:5478  function transferFrom(... */\n    tag_8:\n      tag_48\n      0x04\n      dup1\n      calldatasize\n      sub\n      dup2\n      add\n      swap1\n      tag_49\n      swap2\n      swap1\n      tag_50\n      jump\t// in\n    tag_49:\n      tag_51\n      jump\t// in\n    tag_48:\n      mload(0x40)\n      tag_52\n      swap2\n      swap1\n      tag_35\n      jump\t// in\n    tag_52:\n      mload(0x40)\n      dup1\n      swap2\n      sub\n      swap1\n      return\n        /* \"contracts/MoonPay.sol\":2051:2133  function decimals() public pure override returns (uint8) {... */\n    tag_9:\n      tag_53\n      tag_54\n      jump\t// in\n    tag_53:\n      mload(0x40)\n      tag_55\n      swap2\n      swap1\n      tag_56\n      jump\t// in\n    tag_55:\n      mload(0x40)\n      dup1\n      swap2\n      sub\n      swap1\n      return\n        /* \"@openzeppelin/contracts/token/ERC20/ERC20.sol\":5873:6107  function increaseAllowance(address spender, uint256 addedValue) public virtual returns (bool) {... */\n    tag_10:\n      tag_57\n      0x04\n      dup1\n      calldatasize\n      sub\n      dup2\n      add\n      swap1\n      tag_58\n      swap2\n      swap1\n      tag_32\n      jump\t// in\n    tag_58:\n      tag_59\n      jump\t// in\n    tag_57:\n      mload(0x40)\n      tag_60\n      swap2\n      swap1\n      tag_35\n      jump\t// in\n    tag_60:\n      mload(0x40)\n      dup1\n      swap2\n      sub\n      swap1\n      return\n        /* \"contracts/MoonPay.sol\":1029:1124  function mint(address to, uint256 amount) external onlyOwner {... */\n    tag_11:\n      tag_61\n      0x04\n      dup1\n      calldatasize\n      sub\n      dup2\n      add\n      swap1\n      tag_62\n      swap2\n      swap1\n      tag_32\n      jump\t// in\n    tag_62:\n      tag_63\n      jump\t// in\n    tag_61:\n      stop\n        /* \"contracts/MoonPay.sol\":1130:1915  function setTransferLimited(address account, bool isLimited)... */\n    tag_12:\n      tag_64\n      0x04\n      dup1\n      calldatasize\n      sub\n      dup2\n      add\n      swap1\n      tag_65\n      swap2\n      swap1\n      tag_38\n      jump\t// in\n    tag_65:\n      tag_66\n      jump\t// in\n    tag_64:\n      stop\n        /* \"contracts/MoonPay.sol\":254:303  mapping(address => bool) public isTransferLimited */\n    tag_13:\n      tag_67\n      0x04\n      dup1\n      calldatasize\n      sub\n      dup2\n      add\n      swap1\n      tag_68\n      swap2\n      swap1\n      tag_69\n      jump\t// in\n    tag_68:\n      tag_70\n      jump\t// in\n    tag_67:\n      mload(0x40)\n      tag_71\n      swap2\n      swap1\n      tag_35\n      jump\t// in\n    tag_71:\n      mload(0x40)\n      dup1\n      swap2\n      sub\n      swap1\n      return\n        /* \"@openzeppelin/contracts/token/ERC20/ERC20.sol\":3408:3533  function balanceOf(address account) public view virtual override returns (uint256) {... */\n    tag_14:\n      tag_72\n      0x04\n      dup1\n      calldatasize\n      sub\n      dup2\n      add\n      swap1\n      tag_73\n      swap2\n      swap1\n      tag_69\n      jump\t// in\n    tag_73:\n      tag_74\n      jump\t// in\n    tag_72:\n      mload(0x40)\n      tag_75\n      swap2\n      swap1\n      tag_43\n      jump\t// in\n    tag_75:\n      mload(0x40)\n      dup1\n      swap2\n      sub\n      swap1\n      return\n        /* \"@openzeppelin/contracts/access/Ownable.sol\":1831:1932  function renounceOwnership() public virtual onlyOwner {... */\n    tag_15:\n      tag_76\n      tag_77\n      jump\t// in\n    tag_76:\n      stop\n        /* \"@openzeppelin/contracts/access/Ownable.sol\":1201:1286  function owner() public view virtual returns (address) {... */\n    tag_16:\n      tag_78\n      tag_79\n      jump\t// in\n    tag_78:\n      mload(0x40)\n      tag_80\n      swap2\n      swap1\n      tag_81\n      jump\t// in\n    tag_80:\n      mload(0x40)\n      dup1\n      swap2\n      sub\n      swap1\n      return\n        /* \"contracts/MoonPay.sol\":310:351  mapping(address => bool) public isAmmPair */\n    tag_17:\n      tag_82\n      0x04\n      dup1\n      calldatasize\n      sub\n      dup2\n      add\n      swap1\n      tag_83\n      swap2\n      swap1\n      tag_69\n      jump\t// in\n    tag_83:\n      tag_84\n      jump\t// in\n    tag_82:\n      mload(0x40)\n      tag_85\n      swap2\n      swap1\n      tag_35\n      jump\t// in\n    tag_85:\n      mload(0x40)\n      dup1\n      swap2\n      sub\n      swap1\n      return\n        /* \"@openzeppelin/contracts/token/ERC20/ERC20.sol\":2367:2469  function symbol() public view virtual override returns (string memory) {... */\n    tag_18:\n      tag_86\n      tag_87\n      jump\t// in\n    tag_86:\n      mload(0x40)\n      tag_88\n      swap2\n      swap1\n      tag_29\n      jump\t// in\n    tag_88:\n      mload(0x40)\n      dup1\n      swap2\n      sub\n      swap1\n      return\n        /* \"@openzeppelin/contracts/token/ERC20/ERC20.sol\":6594:7021  function decreaseAllowance(address spender, uint256 subtractedValue) public virtual returns (bool) {... */\n    tag_19:\n      tag_89\n      0x04\n      dup1\n      calldatasize\n      sub\n      dup2\n      add\n      swap1\n      tag_90\n      swap2\n      swap1\n      tag_32\n      jump\t// in\n    tag_90:\n      tag_91\n      jump\t// in\n    tag_89:\n      mload(0x40)\n      tag_92\n      swap2\n      swap1\n      tag_35\n      jump\t// in\n    tag_92:\n      mload(0x40)\n      dup1\n      swap2\n      sub\n      swap1\n      return\n        /* \"@openzeppelin/contracts/token/ERC20/ERC20.sol\":3729:3918  function transfer(address to, uint256 amount) public virtual override returns (bool) {... */\n    tag_20:\n      tag_93\n      0x04\n      dup1\n      calldatasize\n      sub\n      dup2\n      add\n      swap1\n      tag_94\n      swap2\n      swap1\n      tag_32\n      jump\t// in\n    tag_94:\n      tag_95\n      jump\t// in\n    tag_93:\n      mload(0x40)\n      tag_96\n      swap2\n      swap1\n      tag_35\n      jump\t// in\n    tag_96:\n      mload(0x40)\n      dup1\n      swap2\n      sub\n      swap1\n      return\n        /* \"@openzeppelin/contracts/token/ERC20/ERC20.sol\":3976:4125  function allowance(address owner, address spender) public view virtual override returns (uint256) {... */\n    tag_21:\n      tag_97\n      0x04\n      dup1\n      calldatasize\n      sub\n      dup2\n      add\n      swap1\n      tag_98\n      swap2\n      swap1\n      tag_99\n      jump\t// in\n    tag_98:\n      tag_100\n      jump\t// in\n    tag_97:\n      mload(0x40)\n      tag_101\n      swap2\n      swap1\n      tag_43\n      jump\t// in\n    tag_101:\n      mload(0x40)\n      dup1\n      swap2\n      sub\n      swap1\n      return\n        /* \"@openzeppelin/contracts/access/Ownable.sol\":2081:2279  function transferOwnership(address newOwner) public virtual onlyOwner {... */\n    tag_22:\n      tag_102\n      0x04\n      dup1\n      calldatasize\n      sub\n      dup2\n      add\n      swap1\n      tag_103\n      swap2\n      swap1\n      tag_69\n      jump\t// in\n    tag_103:\n      tag_104\n      jump\t// in\n    tag_102:\n      stop\n        /* \"@openzeppelin/contracts/token/ERC20/ERC20.sol\":2156:2254  function name() public view virtual override returns (string memory) {... */\n    tag_27:\n        /* \"@openzeppelin/contracts/token/ERC20/ERC20.sol\":2210:2223  string memory */\n      0x60\n        /* \"@openzeppelin/contracts/token/ERC20/ERC20.sol\":2242:2247  _name */\n      0x03\n        /* \"@openzeppelin/contracts/token/ERC20/ERC20.sol\":2235:2247  return _name */\n      dup1\n      sload\n      tag_106\n      swap1\n      tag_107\n      jump\t// in\n    tag_106:\n      dup1\n      0x1f\n      add\n      0x20\n      dup1\n      swap2\n      div\n      mul\n      0x20\n      add\n      mload(0x40)\n      swap1\n      dup2\n      add\n      0x40\n      mstore\n      dup1\n      swap3\n      swap2\n      swap1\n      dup2\n      dup2\n      mstore\n      0x20\n      add\n      dup3\n      dup1\n      sload\n      tag_108\n      swap1\n      tag_107\n      jump\t// in\n    tag_108:\n      dup1\n      iszero\n      tag_109\n      jumpi\n      dup1\n      0x1f\n      lt\n      tag_110\n      jumpi\n      0x0100\n      dup1\n      dup4\n      sload\n      div\n      mul\n      dup4\n      mstore\n      swap2\n      0x20\n      add\n      swap2\n      jump(tag_109)\n    tag_110:\n      dup3\n      add\n      swap2\n      swap1\n      0x00\n      mstore\n      keccak256(0x00, 0x20)\n      swap1\n    tag_111:\n      dup2\n      sload\n      dup2\n      mstore\n      swap1\n      0x01\n      add\n      swap1\n      0x20\n      add\n      dup1\n      dup4\n      gt\n      tag_111\n      jumpi\n      dup3\n      swap1\n      sub\n      0x1f\n      and\n      dup3\n      add\n      swap2\n    tag_109:\n      pop\n      pop\n      pop\n      pop\n      pop\n      swap1\n      pop\n        /* \"@openzeppelin/contracts/token/ERC20/ERC20.sol\":2156:2254  function name() public view virtual override returns (string memory) {... */\n      swap1\n      jump\t// out\n        /* \"@openzeppelin/contracts/token/ERC20/ERC20.sol\":4433:4630  function approve(address spender, uint256 amount) public virtual override returns (bool) {... */\n    tag_33:\n        /* \"@openzeppelin/contracts/token/ERC20/ERC20.sol\":4516:4520  bool */\n      0x00\n        /* \"@openzeppelin/contracts/token/ERC20/ERC20.sol\":4532:4545  address owner */\n      dup1\n        /* \"@openzeppelin/contracts/token/ERC20/ERC20.sol\":4548:4560  _msgSender() */\n      tag_113\n        /* \"@openzeppelin/contracts/token/ERC20/ERC20.sol\":4548:4558  _msgSender */\n      tag_114\n        /* \"@openzeppelin/contracts/token/ERC20/ERC20.sol\":4548:4560  _msgSender() */\n      jump\t// in\n    tag_113:\n        /* \"@openzeppelin/contracts/token/ERC20/ERC20.sol\":4532:4560  address owner = _msgSender() */\n      swap1\n      pop\n        /* \"@openzeppelin/contracts/token/ERC20/ERC20.sol\":4570:4602  _approve(owner, spender, amount) */\n      tag_115\n        /* \"@openzeppelin/contracts/token/ERC20/ERC20.sol\":4579:4584  owner */\n      dup2\n        /* \"@openzeppelin/contracts/token/ERC20/ERC20.sol\":4586:4593  spender */\n      dup6\n        /* \"@openzeppelin/contracts/token/ERC20/ERC20.sol\":4595:4601  amount */\n      dup6\n        /* \"@openzeppelin/contracts/token/ERC20/ERC20.sol\":4570:4578  _approve */\n      tag_116\n        /* \"@openzeppelin/contracts/token/ERC20/ERC20.sol\":4570:4602  _approve(owner, spender, amount) */\n      jump\t// in\n    tag_115:\n        /* \"@openzeppelin/contracts/token/ERC20/ERC20.sol\":4619:4623  true */\n      0x01\n        /* \"@openzeppelin/contracts/token/ERC20/ERC20.sol\":4612:4623  return true */\n      swap2\n      pop\n      pop\n        /* \"@openzeppelin/contracts/token/ERC20/ERC20.sol\":4433:4630  function approve(address spender, uint256 amount) public virtual override returns (bool) {... */\n      swap3\n      swap2\n      pop\n      pop\n      jump\t// out\n        /* \"contracts/MoonPay.sol\":1921:2032  function setAmmPair(address account, bool isPair) public onlyOwner {... */\n    tag_39:\n        /* \"@openzeppelin/contracts/access/Ownable.sol\":1094:1107  _checkOwner() */\n      tag_118\n        /* \"@openzeppelin/contracts/access/Ownable.sol\":1094:1105  _checkOwner */\n      tag_119\n        /* \"@openzeppelin/contracts/access/Ownable.sol\":1094:1107  _checkOwner() */\n      jump\t// in\n    tag_118:\n        /* \"contracts/MoonPay.sol\":2019:2025  isPair */\n      dup1\n        /* \"contracts/MoonPay.sol\":1998:2007  isAmmPair */\n      0x07\n        /* \"contracts/MoonPay.sol\":1998:2016  isAmmPair[account] */\n      0x00\n        /* \"contracts/MoonPay.sol\":2008:2015  account */\n      dup5\n        /* \"contracts/MoonPay.sol\":1998:2016  isAmmPair[account] */\n      0xffffffffffffffffffffffffffffffffffffffff\n      and\n      0xffffffffffffffffffffffffffffffffffffffff\n      and\n      dup2\n      mstore\n      0x20\n      add\n      swap1\n      dup2\n      mstore\n      0x20\n      add\n      0x00\n      keccak256\n      0x00\n        /* \"contracts/MoonPay.sol\":1998:2025  isAmmPair[account] = isPair */\n      0x0100\n      exp\n      dup2\n      sload\n      dup2\n      0xff\n      mul\n      not\n      and\n      swap1\n      dup4\n      iszero\n      iszero\n      mul\n      or\n      swap1\n      sstore\n      pop\n        /* \"contracts/MoonPay.sol\":1921:2032  function setAmmPair(address account, bool isPair) public onlyOwner {... */\n      pop\n      pop\n      jump\t// out\n        /* \"@openzeppelin/contracts/token/ERC20/ERC20.sol\":3244:3350  function totalSupply() public view virtual override returns (uint256) {... */\n    tag_41:\n        /* \"@openzeppelin/contracts/token/ERC20/ERC20.sol\":3305:3312  uint256 */\n      0x00\n        /* \"@openzeppelin/contracts/token/ERC20/ERC20.sol\":3331:3343  _totalSupply */\n      sload(0x02)\n        /* \"@openzeppelin/contracts/token/ERC20/ERC20.sol\":3324:3343  return _totalSupply */\n      swap1\n      pop\n        /* \"@openzeppelin/contracts/token/ERC20/ERC20.sol\":3244:3350  function totalSupply() public view virtual override returns (uint256) {... */\n      swap1\n      jump\t// out\n        /* \"contracts/MoonPay.sol\":2139:2283  function transferLimitedAccounts()... */\n    tag_45:\n        /* \"contracts/MoonPay.sol\":2221:2237  address[] memory */\n      0x60\n        /* \"contracts/MoonPay.sol\":2260:2276  _transferLimited */\n      0x08\n        /* \"contracts/MoonPay.sol\":2253:2276  return _transferLimited */\n      dup1\n      sload\n      dup1\n      0x20\n      mul\n      0x20\n      add\n      mload(0x40)\n      swap1\n      dup2\n      add\n      0x40\n      mstore\n      dup1\n      swap3\n      swap2\n      swap1\n      dup2\n      dup2\n      mstore\n      0x20\n      add\n      dup3\n      dup1\n      sload\n      dup1\n      iszero\n      tag_123\n      jumpi\n      0x20\n      mul\n      dup3\n      add\n      swap2\n      swap1\n      0x00\n      mstore\n      keccak256(0x00, 0x20)\n      swap1\n    tag_124:\n      dup2\n      0x00\n      swap1\n      sload\n      swap1\n      0x0100\n      exp\n      swap1\n      div\n      0xffffffffffffffffffffffffffffffffffffffff\n      and\n      0xffffffffffffffffffffffffffffffffffffffff\n      and\n      dup2\n      mstore\n      0x20\n      add\n      swap1\n      0x01\n      add\n      swap1\n      dup1\n      dup4\n      gt\n      tag_124\n      jumpi\n    tag_123:\n      pop\n      pop\n      pop\n      pop\n      pop\n      swap1\n      pop\n        /* \"contracts/MoonPay.sol\":2139:2283  function transferLimitedAccounts()... */\n      swap1\n      jump\t// out\n        /* \"@openzeppelin/contracts/token/ERC20/ERC20.sol\":5192:5478  function transferFrom(... */\n    tag_51:\n        /* \"@openzeppelin/contracts/token/ERC20/ERC20.sol\":5319:5323  bool */\n      0x00\n        /* \"@openzeppelin/contracts/token/ERC20/ERC20.sol\":5335:5350  address spender */\n      dup1\n        /* \"@openzeppelin/contracts/token/ERC20/ERC20.sol\":5353:5365  _msgSender() */\n      tag_126\n        /* \"@openzeppelin/contracts/token/ERC20/ERC20.sol\":5353:5363  _msgSender */\n      tag_114\n        /* \"@openzeppelin/contracts/token/ERC20/ERC20.sol\":5353:5365  _msgSender() */\n      jump\t// in\n    tag_126:\n        /* \"@openzeppelin/contracts/token/ERC20/ERC20.sol\":5335:5365  address spender = _msgSender() */\n      swap1\n      pop\n        /* \"@openzeppelin/contracts/token/ERC20/ERC20.sol\":5375:5413  _spendAllowance(from, spender, amount) */\n      tag_127\n        /* \"@openzeppelin/contracts/token/ERC20/ERC20.sol\":5391:5395  from */\n      dup6\n        /* \"@openzeppelin/contracts/token/ERC20/ERC20.sol\":5397:5404  spender */\n      dup3\n        /* \"@openzeppelin/contracts/token/ERC20/ERC20.sol\":5406:5412  amount */\n      dup6\n        /* \"@openzeppelin/contracts/token/ERC20/ERC20.sol\":5375:5390  _spendAllowance */\n      tag_128\n        /* \"@openzeppelin/contracts/token/ERC20/ERC20.sol\":5375:5413  _spendAllowance(from, spender, amount) */\n      jump\t// in\n    tag_127:\n        /* \"@openzeppelin/contracts/token/ERC20/ERC20.sol\":5423:5450  _transfer(from, to, amount) */\n      tag_129\n        /* \"@openzeppelin/contracts/token/ERC20/ERC20.sol\":5433:5437  from */\n      dup6\n        /* \"@openzeppelin/contracts/token/ERC20/ERC20.sol\":5439:5441  to */\n      dup6\n        /* \"@openzeppelin/contracts/token/ERC20/ERC20.sol\":5443:5449  amount */\n      dup6\n        /* \"@openzeppelin/contracts/token/ERC20/ERC20.sol\":5423:5432  _transfer */\n      tag_130\n        /* \"@openzeppelin/contracts/token/ERC20/ERC20.sol\":5423:5450  _transfer(from, to, amount) */\n      jump\t// in\n    tag_129:\n        /* \"@openzeppelin/contracts/token/ERC20/ERC20.sol\":5467:5471  true */\n      0x01\n        /* \"@openzeppelin/contracts/token/ERC20/ERC20.sol\":5460:5471  return true */\n      swap2\n      pop\n      pop\n        /* \"@openzeppelin/contracts/token/ERC20/ERC20.sol\":5192:5478  function transferFrom(... */\n      swap4\n      swap3\n      pop\n      pop\n      pop\n      jump\t// out\n        /* \"contracts/MoonPay.sol\":2051:2133  function decimals() public pure override returns (uint8) {... */\n    tag_54:\n        /* \"contracts/MoonPay.sol\":2101:2106  uint8 */\n      0x00\n        /* \"contracts/MoonPay.sol\":2125:2126  9 */\n      0x09\n        /* \"contracts/MoonPay.sol\":2118:2126  return 9 */\n      swap1\n      pop\n        /* \"contracts/MoonPay.sol\":2051:2133  function decimals() public pure override returns (uint8) {... */\n      swap1\n      jump\t// out\n        /* \"@openzeppelin/contracts/token/ERC20/ERC20.sol\":5873:6107  function increaseAllowance(address spender, uint256 addedValue) public virtual returns (bool) {... */\n    tag_59:\n        /* \"@openzeppelin/contracts/token/ERC20/ERC20.sol\":5961:5965  bool */\n      0x00\n        /* \"@openzeppelin/contracts/token/ERC20/ERC20.sol\":5977:5990  address owner */\n      dup1\n        /* \"@openzeppelin/contracts/token/ERC20/ERC20.sol\":5993:6005  _msgSender() */\n      tag_133\n        /* \"@openzeppelin/contracts/token/ERC20/ERC20.sol\":5993:6003  _msgSender */\n      tag_114\n        /* \"@openzeppelin/contracts/token/ERC20/ERC20.sol\":5993:6005  _msgSender() */\n      jump\t// in\n    tag_133:\n        /* \"@openzeppelin/contracts/token/ERC20/ERC20.sol\":5977:6005  address owner = _msgSender() */\n      swap1\n      pop\n        /* \"@openzeppelin/contracts/token/ERC20/ERC20.sol\":6015:6079  _approve(owner, spender, allowance(owner, spender) + addedValue) */\n      tag_134\n        /* \"@openzeppelin/contracts/token/ERC20/ERC20.sol\":6024:6029  owner */\n      dup2\n        /* \"@openzeppelin/contracts/token/ERC20/ERC20.sol\":6031:6038  spender */\n      dup6\n        /* \"@openzeppelin/contracts/token/ERC20/ERC20.sol\":6068:6078  addedValue */\n      dup6\n        /* \"@openzeppelin/contracts/token/ERC20/ERC20.sol\":6040:6065  allowance(owner, spender) */\n      tag_135\n        /* \"@openzeppelin/contracts/token/ERC20/ERC20.sol\":6050:6055  owner */\n      dup6\n        /* \"@openzeppelin/contracts/token/ERC20/ERC20.sol\":6057:6064  spender */\n      dup10\n        /* \"@openzeppelin/contracts/token/ERC20/ERC20.sol\":6040:6049  allowance */\n      tag_100\n        /* \"@openzeppelin/contracts/token/ERC20/ERC20.sol\":6040:6065  allowance(owner, spender) */\n      jump\t// in\n    tag_135:\n        /* \"@openzeppelin/contracts/token/ERC20/ERC20.sol\":6040:6078  allowance(owner, spender) + addedValue */\n      tag_136\n      swap2\n      swap1\n      tag_137\n      jump\t// in\n    tag_136:\n        /* \"@openzeppelin/contracts/token/ERC20/ERC20.sol\":6015:6023  _approve */\n      tag_116\n        /* \"@openzeppelin/contracts/token/ERC20/ERC20.sol\":6015:6079  _approve(owner, spender, allowance(owner, spender) + addedValue) */\n      jump\t// in\n    tag_134:\n        /* \"@openzeppelin/contracts/token/ERC20/ERC20.sol\":6096:6100  true */\n      0x01\n        /* \"@openzeppelin/contracts/token/ERC20/ERC20.sol\":6089:6100  return true */\n      swap2\n      pop\n      pop\n        /* \"@openzeppelin/contracts/token/ERC20/ERC20.sol\":5873:6107  function increaseAllowance(address spender, uint256 addedValue) public virtual returns (bool) {... */\n      swap3\n      swap2\n      pop\n      pop\n      jump\t// out\n        /* \"contracts/MoonPay.sol\":1029:1124  function mint(address to, uint256 amount) external onlyOwner {... */\n    tag_63:\n        /* \"@openzeppelin/contracts/access/Ownable.sol\":1094:1107  _checkOwner() */\n      tag_139\n        /* \"@openzeppelin/contracts/access/Ownable.sol\":1094:1105  _checkOwner */\n      tag_119\n        /* \"@openzeppelin/contracts/access/Ownable.sol\":1094:1107  _checkOwner() */\n      jump\t// in\n    tag_139:\n        /* \"contracts/MoonPay.sol\":1100:1117  _mint(to, amount) */\n      tag_141\n        /* \"contracts/MoonPay.sol\":1106:1108  to */\n      dup3\n        /* \"contracts/MoonPay.sol\":1110:1116  amount */\n      dup3\n        /* \"contracts/MoonPay.sol\":1100:1105  _mint */\n      tag_142\n        /* \"contracts/MoonPay.sol\":1100:1117  _mint(to, amount) */\n      jump\t// in\n    tag_141:\n        /* \"contracts/MoonPay.sol\":1029:1124  function mint(address to, uint256 amount) external onlyOwner {... */\n      pop\n      pop\n      jump\t// out\n        /* \"contracts/MoonPay.sol\":1130:1915  function setTransferLimited(address account, bool isLimited)... */\n    tag_66:\n        /* \"@openzeppelin/contracts/access/Ownable.sol\":1094:1107  _checkOwner() */\n      tag_144\n        /* \"@openzeppelin/contracts/access/Ownable.sol\":1094:1105  _checkOwner */\n      tag_119\n        /* \"@openzeppelin/contracts/access/Ownable.sol\":1094:1107  _checkOwner() */\n      jump\t// in\n    tag_144:\n        /* \"contracts/MoonPay.sol\":1274:1291  isTransferLimited */\n      0x06\n        /* \"contracts/MoonPay.sol\":1274:1300  isTransferLimited[account] */\n      0x00\n        /* \"contracts/MoonPay.sol\":1292:1299  account */\n      dup4\n        /* \"contracts/MoonPay.sol\":1274:1300  isTransferLimited[account] */\n      0xffffffffffffffffffffffffffffffffffffffff\n      and\n      0xffffffffffffffffffffffffffffffffffffffff\n      and\n      dup2\n      mstore\n      0x20\n      add\n      swap1\n      dup2\n      mstore\n      0x20\n      add\n      0x00\n      keccak256\n      0x00\n      swap1\n      sload\n      swap1\n      0x0100\n      exp\n      swap1\n      div\n      0xff\n      and\n        /* \"contracts/MoonPay.sol\":1261:1300  isLimited != isTransferLimited[account] */\n      iszero\n      iszero\n        /* \"contracts/MoonPay.sol\":1261:1270  isLimited */\n      dup2\n        /* \"contracts/MoonPay.sol\":1261:1300  isLimited != isTransferLimited[account] */\n      iszero\n      iszero\n      sub\n        /* \"contracts/MoonPay.sol\":1240:1347  require(... */\n      tag_146\n      jumpi\n      mload(0x40)\n      0x08c379a000000000000000000000000000000000000000000000000000000000\n      dup2\n      mstore\n      0x04\n      add\n      tag_147\n      swap1\n      tag_148\n      jump\t// in\n    tag_147:\n      mload(0x40)\n      dup1\n      swap2\n      sub\n      swap1\n      revert\n    tag_146:\n        /* \"contracts/MoonPay.sol\":1387:1396  isLimited */\n      dup1\n        /* \"contracts/MoonPay.sol\":1358:1375  isTransferLimited */\n      0x06\n        /* \"contracts/MoonPay.sol\":1358:1384  isTransferLimited[account] */\n      0x00\n        /* \"contracts/MoonPay.sol\":1376:1383  account */\n      dup5\n        /* \"contracts/MoonPay.sol\":1358:1384  isTransferLimited[account] */\n      0xffffffffffffffffffffffffffffffffffffffff\n      and\n      0xffffffffffffffffffffffffffffffffffffffff\n      and\n      dup2\n      mstore\n      0x20\n      add\n      swap1\n      dup2\n      mstore\n      0x20\n      add\n      0x00\n      keccak256\n      0x00\n        /* \"contracts/MoonPay.sol\":1358:1396  isTransferLimited[account] = isLimited */\n      0x0100\n      exp\n      dup2\n      sload\n      dup2\n      0xff\n      mul\n      not\n      and\n      swap1\n      dup4\n      iszero\n      iszero\n      mul\n      or\n      swap1\n      sstore\n      pop\n        /* \"contracts/MoonPay.sol\":1412:1450  TransferLimitedSet(account, isLimited) */\n      0x3f271ef70917891187a24965dfc33e941e3961c77b6bb27f3846239975c32b7c\n        /* \"contracts/MoonPay.sol\":1431:1438  account */\n      dup3\n        /* \"contracts/MoonPay.sol\":1440:1449  isLimited */\n      dup3\n        /* \"contracts/MoonPay.sol\":1412:1450  TransferLimitedSet(account, isLimited) */\n      mload(0x40)\n      tag_149\n      swap3\n      swap2\n      swap1\n      tag_150\n      jump\t// in\n    tag_149:\n      mload(0x40)\n      dup1\n      swap2\n      sub\n      swap1\n      log1\n        /* \"contracts/MoonPay.sol\":1465:1474  isLimited */\n      dup1\n        /* \"contracts/MoonPay.sol\":1461:1909  if (isLimited) {... */\n      iszero\n      tag_151\n      jumpi\n        /* \"contracts/MoonPay.sol\":1490:1506  _transferLimited */\n      0x08\n        /* \"contracts/MoonPay.sol\":1512:1519  account */\n      dup3\n        /* \"contracts/MoonPay.sol\":1490:1520  _transferLimited.push(account) */\n      swap1\n      dup1\n      0x01\n      dup2\n      sload\n      add\n      dup1\n      dup3\n      sstore\n      dup1\n      swap2\n      pop\n      pop\n      0x01\n      swap1\n      sub\n      swap1\n      0x00\n      mstore\n      keccak256(0x00, 0x20)\n      add\n      0x00\n      swap1\n      swap2\n      swap1\n      swap2\n      swap1\n      swap2\n      0x0100\n      exp\n      dup2\n      sload\n      dup2\n      0xffffffffffffffffffffffffffffffffffffffff\n      mul\n      not\n      and\n      swap1\n      dup4\n      0xffffffffffffffffffffffffffffffffffffffff\n      and\n      mul\n      or\n      swap1\n      sstore\n      pop\n        /* \"contracts/MoonPay.sol\":1461:1909  if (isLimited) {... */\n      jump(tag_153)\n    tag_151:\n        /* \"contracts/MoonPay.sol\":1556:1565  uint256 i */\n      0x00\n        /* \"contracts/MoonPay.sol\":1551:1899  for (uint256 i = 0; i < _transferLimited.length; i++) {... */\n    tag_154:\n        /* \"contracts/MoonPay.sol\":1575:1591  _transferLimited */\n      0x08\n        /* \"contracts/MoonPay.sol\":1575:1598  _transferLimited.length */\n      dup1\n      sload\n      swap1\n      pop\n        /* \"contracts/MoonPay.sol\":1571:1572  i */\n      dup2\n        /* \"contracts/MoonPay.sol\":1571:1598  i < _transferLimited.length */\n      lt\n        /* \"contracts/MoonPay.sol\":1551:1899  for (uint256 i = 0; i < _transferLimited.length; i++) {... */\n      iszero\n      tag_155\n      jumpi\n        /* \"contracts/MoonPay.sol\":1650:1657  account */\n      dup3\n        /* \"contracts/MoonPay.sol\":1627:1657  _transferLimited[i] == account */\n      0xffffffffffffffffffffffffffffffffffffffff\n      and\n        /* \"contracts/MoonPay.sol\":1627:1643  _transferLimited */\n      0x08\n        /* \"contracts/MoonPay.sol\":1644:1645  i */\n      dup3\n        /* \"contracts/MoonPay.sol\":1627:1646  _transferLimited[i] */\n      dup2\n      sload\n      dup2\n      lt\n      tag_157\n      jumpi\n      tag_158\n      tag_159\n      jump\t// in\n    tag_158:\n    tag_157:\n      swap1\n      0x00\n      mstore\n      keccak256(0x00, 0x20)\n      add\n      0x00\n      swap1\n      sload\n      swap1\n      0x0100\n      exp\n      swap1\n      div\n      0xffffffffffffffffffffffffffffffffffffffff\n      and\n        /* \"contracts/MoonPay.sol\":1627:1657  _transferLimited[i] == account */\n      0xffffffffffffffffffffffffffffffffffffffff\n      and\n      sub\n        /* \"contracts/MoonPay.sol\":1623:1885  if (_transferLimited[i] == account) {... */\n      tag_161\n      jumpi\n        /* \"contracts/MoonPay.sol\":1703:1719  _transferLimited */\n      0x08\n        /* \"contracts/MoonPay.sol\":1771:1772  1 */\n      0x01\n        /* \"contracts/MoonPay.sol\":1745:1761  _transferLimited */\n      0x08\n        /* \"contracts/MoonPay.sol\":1745:1768  _transferLimited.length */\n      dup1\n      sload\n      swap1\n      pop\n        /* \"contracts/MoonPay.sol\":1745:1772  _transferLimited.length - 1 */\n      tag_162\n      swap2\n      swap1\n      tag_163\n      jump\t// in\n    tag_162:\n        /* \"contracts/MoonPay.sol\":1703:1794  _transferLimited[... */\n      dup2\n      sload\n      dup2\n      lt\n      tag_164\n      jumpi\n      tag_165\n      tag_159\n      jump\t// in\n    tag_165:\n    tag_164:\n      swap1\n      0x00\n      mstore\n      keccak256(0x00, 0x20)\n      add\n      0x00\n      swap1\n      sload\n      swap1\n      0x0100\n      exp\n      swap1\n      div\n      0xffffffffffffffffffffffffffffffffffffffff\n      and\n        /* \"contracts/MoonPay.sol\":1681:1697  _transferLimited */\n      0x08\n        /* \"contracts/MoonPay.sol\":1698:1699  i */\n      dup3\n        /* \"contracts/MoonPay.sol\":1681:1700  _transferLimited[i] */\n      dup2\n      sload\n      dup2\n      lt\n      tag_167\n      jumpi\n      tag_168\n      tag_159\n      jump\t// in\n    tag_168:\n    tag_167:\n      swap1\n      0x00\n      mstore\n      keccak256(0x00, 0x20)\n      add\n      0x00\n        /* \"contracts/MoonPay.sol\":1681:1794  _transferLimited[i] = _transferLimited[... */\n      0x0100\n      exp\n      dup2\n      sload\n      dup2\n      0xffffffffffffffffffffffffffffffffffffffff\n      mul\n      not\n      and\n      swap1\n      dup4\n      0xffffffffffffffffffffffffffffffffffffffff\n      and\n      mul\n      or\n      swap1\n      sstore\n      pop\n        /* \"contracts/MoonPay.sol\":1816:1832  _transferLimited */\n      0x08\n        /* \"contracts/MoonPay.sol\":1816:1838  _transferLimited.pop() */\n      dup1\n      sload\n      dup1\n      tag_170\n      jumpi\n      tag_171\n      tag_172\n      jump\t// in\n    tag_171:\n    tag_170:\n      0x01\n      swap1\n      sub\n      dup2\n      dup2\n      swap1\n      0x00\n      mstore\n      keccak256(0x00, 0x20)\n      add\n      exp(0x0100, 0x00)\n      dup2\n      sload\n      swap1\n      0xffffffffffffffffffffffffffffffffffffffff\n      mul\n      not\n      and\n      swap1\n      sstore\n      swap1\n      sstore\n        /* \"contracts/MoonPay.sol\":1860:1867  return; */\n      pop\n      jump(tag_145)\n        /* \"contracts/MoonPay.sol\":1623:1885  if (_transferLimited[i] == account) {... */\n    tag_161:\n        /* \"contracts/MoonPay.sol\":1600:1603  i++ */\n      dup1\n      dup1\n      tag_174\n      swap1\n      tag_175\n      jump\t// in\n    tag_174:\n      swap2\n      pop\n      pop\n        /* \"contracts/MoonPay.sol\":1551:1899  for (uint256 i = 0; i < _transferLimited.length; i++) {... */\n      jump(tag_154)\n    tag_155:\n      pop\n        /* \"contracts/MoonPay.sol\":1461:1909  if (isLimited) {... */\n    tag_153:\n        /* \"@openzeppelin/contracts/access/Ownable.sol\":1117:1118  _ */\n    tag_145:\n        /* \"contracts/MoonPay.sol\":1130:1915  function setTransferLimited(address account, bool isLimited)... */\n      pop\n      pop\n      jump\t// out\n        /* \"contracts/MoonPay.sol\":254:303  mapping(address => bool) public isTransferLimited */\n    tag_70:\n      mstore(0x20, 0x06)\n      dup1\n      0x00\n      mstore\n      keccak256(0x00, 0x40)\n      0x00\n      swap2\n      pop\n      sload\n      swap1\n      0x0100\n      exp\n      swap1\n      div\n      0xff\n      and\n      dup2\n      jump\t// out\n        /* \"@openzeppelin/contracts/token/ERC20/ERC20.sol\":3408:3533  function balanceOf(address account) public view virtual override returns (uint256) {... */\n    tag_74:\n        /* \"@openzeppelin/contracts/token/ERC20/ERC20.sol\":3482:3489  uint256 */\n      0x00\n        /* \"@openzeppelin/contracts/token/ERC20/ERC20.sol\":3508:3517  _balances */\n      dup1\n        /* \"@openzeppelin/contracts/token/ERC20/ERC20.sol\":3508:3526  _balances[account] */\n      0x00\n        /* \"@openzeppelin/contracts/token/ERC20/ERC20.sol\":3518:3525  account */\n      dup4\n        /* \"@openzeppelin/contracts/token/ERC20/ERC20.sol\":3508:3526  _balances[account] */\n      0xffffffffffffffffffffffffffffffffffffffff\n      and\n      0xffffffffffffffffffffffffffffffffffffffff\n      and\n      dup2\n      mstore\n      0x20\n      add\n      swap1\n      dup2\n      mstore\n      0x20\n      add\n      0x00\n      keccak256\n      sload\n        /* \"@openzeppelin/contracts/token/ERC20/ERC20.sol\":3501:3526  return _balances[account] */\n      swap1\n      pop\n        /* \"@openzeppelin/contracts/token/ERC20/ERC20.sol\":3408:3533  function balanceOf(address account) public view virtual override returns (uint256) {... */\n      swap2\n      swap1\n      pop\n      jump\t// out\n        /* \"@openzeppelin/contracts/access/Ownable.sol\":1831:1932  function renounceOwnership() public virtual onlyOwner {... */\n    tag_77:\n        /* \"@openzeppelin/contracts/access/Ownable.sol\":1094:1107  _checkOwner() */\n      tag_178\n        /* \"@openzeppelin/contracts/access/Ownable.sol\":1094:1105  _checkOwner */\n      tag_119\n        /* \"@openzeppelin/contracts/access/Ownable.sol\":1094:1107  _checkOwner() */\n      jump\t// in\n    tag_178:\n        /* \"@openzeppelin/contracts/access/Ownable.sol\":1895:1925  _transferOwnership(address(0)) */\n      tag_180\n        /* \"@openzeppelin/contracts/access/Ownable.sol\":1922:1923  0 */\n      0x00\n        /* \"@openzeppelin/contracts/access/Ownable.sol\":1895:1913  _transferOwnership */\n      tag_181\n        /* \"@openzeppelin/contracts/access/Ownable.sol\":1895:1925  _transferOwnership(address(0)) */\n      jump\t// in\n    tag_180:\n        /* \"@openzeppelin/contracts/access/Ownable.sol\":1831:1932  function renounceOwnership() public virtual onlyOwner {... */\n      jump\t// out\n        /* \"@openzeppelin/contracts/access/Ownable.sol\":1201:1286  function owner() public view virtual returns (address) {... */\n    tag_79:\n        /* \"@openzeppelin/contracts/access/Ownable.sol\":1247:1254  address */\n      0x00\n        /* \"@openzeppelin/contracts/access/Ownable.sol\":1273:1279  _owner */\n      0x05\n      0x00\n      swap1\n      sload\n      swap1\n      0x0100\n      exp\n      swap1\n      div\n      0xffffffffffffffffffffffffffffffffffffffff\n      and\n        /* \"@openzeppelin/contracts/access/Ownable.sol\":1266:1279  return _owner */\n      swap1\n      pop\n        /* \"@openzeppelin/contracts/access/Ownable.sol\":1201:1286  function owner() public view virtual returns (address) {... */\n      swap1\n      jump\t// out\n        /* \"contracts/MoonPay.sol\":310:351  mapping(address => bool) public isAmmPair */\n    tag_84:\n      mstore(0x20, 0x07)\n      dup1\n      0x00\n      mstore\n      keccak256(0x00, 0x40)\n      0x00\n      swap2\n      pop\n      sload\n      swap1\n      0x0100\n      exp\n      swap1\n      div\n      0xff\n      and\n      dup2\n      jump\t// out\n        /* \"@openzeppelin/contracts/token/ERC20/ERC20.sol\":2367:2469  function symbol() public view virtual override returns (string memory) {... */\n    tag_87:\n        /* \"@openzeppelin/contracts/token/ERC20/ERC20.sol\":2423:2436  string memory */\n      0x60\n        /* \"@openzeppelin/contracts/token/ERC20/ERC20.sol\":2455:2462  _symbol */\n      0x04\n        /* \"@openzeppelin/contracts/token/ERC20/ERC20.sol\":2448:2462  return _symbol */\n      dup1\n      sload\n      tag_184\n      swap1\n      tag_107\n      jump\t// in\n    tag_184:\n      dup1\n      0x1f\n      add\n      0x20\n      dup1\n      swap2\n      div\n      mul\n      0x20\n      add\n      mload(0x40)\n      swap1\n      dup2\n      add\n      0x40\n      mstore\n      dup1\n      swap3\n      swap2\n      swap1\n      dup2\n      dup2\n      mstore\n      0x20\n      add\n      dup3\n      dup1\n      sload\n      tag_185\n      swap1\n      tag_107\n      jump\t// in\n    tag_185:\n      dup1\n      iszero\n      tag_186\n      jumpi\n      dup1\n      0x1f\n      lt\n      tag_187\n      jumpi\n      0x0100\n      dup1\n      dup4\n      sload\n      div\n      mul\n      dup4\n      mstore\n      swap2\n      0x20\n      add\n      swap2\n      jump(tag_186)\n    tag_187:\n      dup3\n      add\n      swap2\n      swap1\n      0x00\n      mstore\n      keccak256(0x00, 0x20)\n      swap1\n    tag_188:\n      dup2\n      sload\n      dup2\n      mstore\n      swap1\n      0x01\n      add\n      swap1\n      0x20\n      add\n      dup1\n      dup4\n      gt\n      tag_188\n      jumpi\n      dup3\n      swap1\n      sub\n      0x1f\n      and\n      dup3\n      add\n      swap2\n    tag_186:\n      pop\n      pop\n      pop\n      pop\n      pop\n      swap1\n      pop\n        /* \"@openzeppelin/contracts/token/ERC20/ERC20.sol\":2367:2469  function symbol() public view virtual override returns (string memory) {... */\n      swap1\n      jump\t// out\n        /* \"@openzeppelin/contracts/token/ERC20/ERC20.sol\":6594:7021  function decreaseAllowance(address spender, uint256 subtractedValue) public virtual returns (bool) {... */\n    tag_91:\n        /* \"@openzeppelin/contracts/token/ERC20/ERC20.sol\":6687:6691  bool */\n      0x00\n        /* \"@openzeppelin/contracts/token/ERC20/ERC20.sol\":6703:6716  address owner */\n      dup1\n        /* \"@openzeppelin/contracts/token/ERC20/ERC20.sol\":6719:6731  _msgSender() */\n      tag_190\n        /* \"@openzeppelin/contracts/token/ERC20/ERC20.sol\":6719:6729  _msgSender */\n      tag_114\n        /* \"@openzeppelin/contracts/token/ERC20/ERC20.sol\":6719:6731  _msgSender() */\n      jump\t// in\n    tag_190:\n        /* \"@openzeppelin/contracts/token/ERC20/ERC20.sol\":6703:6731  address owner = _msgSender() */\n      swap1\n      pop\n        /* \"@openzeppelin/contracts/token/ERC20/ERC20.sol\":6741:6765  uint256 currentAllowance */\n      0x00\n        /* \"@openzeppelin/contracts/token/ERC20/ERC20.sol\":6768:6793  allowance(owner, spender) */\n      tag_191\n        /* \"@openzeppelin/contracts/token/ERC20/ERC20.sol\":6778:6783  owner */\n      dup3\n        /* \"@openzeppelin/contracts/token/ERC20/ERC20.sol\":6785:6792  spender */\n      dup7\n        /* \"@openzeppelin/contracts/token/ERC20/ERC20.sol\":6768:6777  allowance */\n      tag_100\n        /* \"@openzeppelin/contracts/token/ERC20/ERC20.sol\":6768:6793  allowance(owner, spender) */\n      jump\t// in\n    tag_191:\n        /* \"@openzeppelin/contracts/token/ERC20/ERC20.sol\":6741:6793  uint256 currentAllowance = allowance(owner, spender) */\n      swap1\n      pop\n        /* \"@openzeppelin/contracts/token/ERC20/ERC20.sol\":6831:6846  subtractedValue */\n      dup4\n        /* \"@openzeppelin/contracts/token/ERC20/ERC20.sol\":6811:6827  currentAllowance */\n      dup2\n        /* \"@openzeppelin/contracts/token/ERC20/ERC20.sol\":6811:6846  currentAllowance >= subtractedValue */\n      lt\n      iszero\n        /* \"@openzeppelin/contracts/token/ERC20/ERC20.sol\":6803:6888  require(currentAllowance >= subtractedValue, \"ERC20: decreased allowance below zero\") */\n      tag_192\n      jumpi\n      mload(0x40)\n      0x08c379a000000000000000000000000000000000000000000000000000000000\n      dup2\n      mstore\n      0x04\n      add\n      tag_193\n      swap1\n      tag_194\n      jump\t// in\n    tag_193:\n      mload(0x40)\n      dup1\n      swap2\n      sub\n      swap1\n      revert\n    tag_192:\n        /* \"@openzeppelin/contracts/token/ERC20/ERC20.sol\":6922:6982  _approve(owner, spender, currentAllowance - subtractedValue) */\n      tag_195\n        /* \"@openzeppelin/contracts/token/ERC20/ERC20.sol\":6931:6936  owner */\n      dup3\n        /* \"@openzeppelin/contracts/token/ERC20/ERC20.sol\":6938:6945  spender */\n      dup7\n        /* \"@openzeppelin/contracts/token/ERC20/ERC20.sol\":6966:6981  subtractedValue */\n      dup7\n        /* \"@openzeppelin/contracts/token/ERC20/ERC20.sol\":6947:6963  currentAllowance */\n      dup5\n        /* \"@openzeppelin/contracts/token/ERC20/ERC20.sol\":6947:6981  currentAllowance - subtractedValue */\n      sub\n        /* \"@openzeppelin/contracts/token/ERC20/ERC20.sol\":6922:6930  _approve */\n      tag_116\n        /* \"@openzeppelin/contracts/token/ERC20/ERC20.sol\":6922:6982  _approve(owner, spender, currentAllowance - subtractedValue) */\n      jump\t// in\n    tag_195:\n        /* \"@openzeppelin/contracts/token/ERC20/ERC20.sol\":7010:7014  true */\n      0x01\n        /* \"@openzeppelin/contracts/token/ERC20/ERC20.sol\":7003:7014  return true */\n      swap3\n      pop\n      pop\n      pop\n        /* \"@openzeppelin/contracts/token/ERC20/ERC20.sol\":6594:7021  function decreaseAllowance(address spender, uint256 subtractedValue) public virtual returns (bool) {... */\n      swap3\n      swap2\n      pop\n      pop\n      jump\t// out\n        /* \"@openzeppelin/contracts/token/ERC20/ERC20.sol\":3729:3918  function transfer(address to, uint256 amount) public virtual override returns (bool) {... */\n    tag_95:\n        /* \"@openzeppelin/contracts/token/ERC20/ERC20.sol\":3808:3812  bool */\n      0x00\n        /* \"@openzeppelin/contracts/token/ERC20/ERC20.sol\":3824:3837  address owner */\n      dup1\n        /* \"@openzeppelin/contracts/token/ERC20/ERC20.sol\":3840:3852  _msgSender() */\n      tag_197\n        /* \"@openzeppelin/contracts/token/ERC20/ERC20.sol\":3840:3850  _msgSender */\n      tag_114\n        /* \"@openzeppelin/contracts/token/ERC20/ERC20.sol\":3840:3852  _msgSender() */\n      jump\t// in\n    tag_197:\n        /* \"@openzeppelin/contracts/token/ERC20/ERC20.sol\":3824:3852  address owner = _msgSender() */\n      swap1\n      pop\n        /* \"@openzeppelin/contracts/token/ERC20/ERC20.sol\":3862:3890  _transfer(owner, to, amount) */\n      tag_198\n        /* \"@openzeppelin/contracts/token/ERC20/ERC20.sol\":3872:3877  owner */\n      dup2\n        /* \"@openzeppelin/contracts/token/ERC20/ERC20.sol\":3879:3881  to */\n      dup6\n        /* \"@openzeppelin/contracts/token/ERC20/ERC20.sol\":3883:3889  amount */\n      dup6\n        /* \"@openzeppelin/contracts/token/ERC20/ERC20.sol\":3862:3871  _transfer */\n      tag_130\n        /* \"@openzeppelin/contracts/token/ERC20/ERC20.sol\":3862:3890  _transfer(owner, to, amount) */\n      jump\t// in\n    tag_198:\n        /* \"@openzeppelin/contracts/token/ERC20/ERC20.sol\":3907:3911  true */\n      0x01\n        /* \"@openzeppelin/contracts/token/ERC20/ERC20.sol\":3900:3911  return true */\n      swap2\n      pop\n      pop\n        /* \"@openzeppelin/contracts/token/ERC20/ERC20.sol\":3729:3918  function transfer(address to, uint256 amount) public virtual override returns (bool) {... */\n      swap3\n      swap2\n      pop\n      pop\n      jump\t// out\n        /* \"@openzeppelin/contracts/token/ERC20/ERC20.sol\":3976:4125  function allowance(address owner, address spender) public view virtual override returns (uint256) {... */\n    tag_100:\n        /* \"@openzeppelin/contracts/token/ERC20/ERC20.sol\":4065:4072  uint256 */\n      0x00\n        /* \"@openzeppelin/contracts/token/ERC20/ERC20.sol\":4091:4102  _allowances */\n      0x01\n        /* \"@openzeppelin/contracts/token/ERC20/ERC20.sol\":4091:4109  _allowances[owner] */\n      0x00\n        /* \"@openzeppelin/contracts/token/ERC20/ERC20.sol\":4103:4108  owner */\n      dup5\n        /* \"@openzeppelin/contracts/token/ERC20/ERC20.sol\":4091:4109  _allowances[owner] */\n      0xffffffffffffffffffffffffffffffffffffffff\n      and\n      0xffffffffffffffffffffffffffffffffffffffff\n      and\n      dup2\n      mstore\n      0x20\n      add\n      swap1\n      dup2\n      mstore\n      0x20\n      add\n      0x00\n      keccak256\n        /* \"@openzeppelin/contracts/token/ERC20/ERC20.sol\":4091:4118  _allowances[owner][spender] */\n      0x00\n        /* \"@openzeppelin/contracts/token/ERC20/ERC20.sol\":4110:4117  spender */\n      dup4\n        /* \"@openzeppelin/contracts/token/ERC20/ERC20.sol\":4091:4118  _allowances[owner][spender] */\n      0xffffffffffffffffffffffffffffffffffffffff\n      and\n      0xffffffffffffffffffffffffffffffffffffffff\n      and\n      dup2\n      mstore\n      0x20\n      add\n      swap1\n      dup2\n      mstore\n      0x20\n      add\n      0x00\n      keccak256\n      sload\n        /* \"@openzeppelin/contracts/token/ERC20/ERC20.sol\":4084:4118  return _allowances[owner][spender] */\n      swap1\n      pop\n        /* \"@openzeppelin/contracts/token/ERC20/ERC20.sol\":3976:4125  function allowance(address owner, address spender) public view virtual override returns (uint256) {... */\n      swap3\n      swap2\n      pop\n      pop\n      jump\t// out\n        /* \"@openzeppelin/contracts/access/Ownable.sol\":2081:2279  function transferOwnership(address newOwner) public virtual onlyOwner {... */\n    tag_104:\n        /* \"@openzeppelin/contracts/access/Ownable.sol\":1094:1107  _checkOwner() */\n      tag_201\n        /* \"@openzeppelin/contracts/access/Ownable.sol\":1094:1105  _checkOwner */\n      tag_119\n        /* \"@openzeppelin/contracts/access/Ownable.sol\":1094:1107  _checkOwner() */\n      jump\t// in\n    tag_201:\n        /* \"@openzeppelin/contracts/access/Ownable.sol\":2189:2190  0 */\n      0x00\n        /* \"@openzeppelin/contracts/access/Ownable.sol\":2169:2191  newOwner != address(0) */\n      0xffffffffffffffffffffffffffffffffffffffff\n      and\n        /* \"@openzeppelin/contracts/access/Ownable.sol\":2169:2177  newOwner */\n      dup2\n        /* \"@openzeppelin/contracts/access/Ownable.sol\":2169:2191  newOwner != address(0) */\n      0xffffffffffffffffffffffffffffffffffffffff\n      and\n      sub\n        /* \"@openzeppelin/contracts/access/Ownable.sol\":2161:2234  require(newOwner != address(0), \"Ownable: new owner is the zero address\") */\n      tag_203\n      jumpi\n      mload(0x40)\n      0x08c379a000000000000000000000000000000000000000000000000000000000\n      dup2\n      mstore\n      0x04\n      add\n      tag_204\n      swap1\n      tag_205\n      jump\t// in\n    tag_204:\n      mload(0x40)\n      dup1\n      swap2\n      sub\n      swap1\n      revert\n    tag_203:\n        /* \"@openzeppelin/contracts/access/Ownable.sol\":2244:2272  _transferOwnership(newOwner) */\n      tag_206\n        /* \"@openzeppelin/contracts/access/Ownable.sol\":2263:2271  newOwner */\n      dup2\n        /* \"@openzeppelin/contracts/access/Ownable.sol\":2244:2262  _transferOwnership */\n      tag_181\n        /* \"@openzeppelin/contracts/access/Ownable.sol\":2244:2272  _transferOwnership(newOwner) */\n      jump\t// in\n    tag_206:\n        /* \"@openzeppelin/contracts/access/Ownable.sol\":2081:2279  function transferOwnership(address newOwner) public virtual onlyOwner {... */\n      pop\n      jump\t// out\n        /* \"@openzeppelin/contracts/utils/Context.sol\":640:736  function _msgSender() internal view virtual returns (address) {... */\n    tag_114:\n        /* \"@openzeppelin/contracts/utils/Context.sol\":693:700  address */\n      0x00\n        /* \"@openzeppelin/contracts/utils/Context.sol\":719:729  msg.sender */\n      caller\n        /* \"@openzeppelin/contracts/utils/Context.sol\":712:729  return msg.sender */\n      swap1\n      pop\n        /* \"@openzeppelin/contracts/utils/Context.sol\":640:736  function _msgSender() internal view virtual returns (address) {... */\n      swap1\n      jump\t// out\n        /* \"@openzeppelin/contracts/token/ERC20/ERC20.sol\":10110:10480  function _approve(... */\n    tag_116:\n        /* \"@openzeppelin/contracts/token/ERC20/ERC20.sol\":10258:10259  0 */\n      0x00\n        /* \"@openzeppelin/contracts/token/ERC20/ERC20.sol\":10241:10260  owner != address(0) */\n      0xffffffffffffffffffffffffffffffffffffffff\n      and\n        /* \"@openzeppelin/contracts/token/ERC20/ERC20.sol\":10241:10246  owner */\n      dup4\n        /* \"@openzeppelin/contracts/token/ERC20/ERC20.sol\":10241:10260  owner != address(0) */\n      0xffffffffffffffffffffffffffffffffffffffff\n      and\n      sub\n        /* \"@openzeppelin/contracts/token/ERC20/ERC20.sol\":10233:10301  require(owner != address(0), \"ERC20: approve from the zero address\") */\n      tag_209\n      jumpi\n      mload(0x40)\n      0x08c379a000000000000000000000000000000000000000000000000000000000\n      dup2\n      mstore\n      0x04\n      add\n      tag_210\n      swap1\n      tag_211\n      jump\t// in\n    tag_210:\n      mload(0x40)\n      dup1\n      swap2\n      sub\n      swap1\n      revert\n    tag_209:\n        /* \"@openzeppelin/contracts/token/ERC20/ERC20.sol\":10338:10339  0 */\n      0x00\n        /* \"@openzeppelin/contracts/token/ERC20/ERC20.sol\":10319:10340  spender != address(0) */\n      0xffffffffffffffffffffffffffffffffffffffff\n      and\n        /* \"@openzeppelin/contracts/token/ERC20/ERC20.sol\":10319:10326  spender */\n      dup3\n        /* \"@openzeppelin/contracts/token/ERC20/ERC20.sol\":10319:10340  spender != address(0) */\n      0xffffffffffffffffffffffffffffffffffffffff\n      and\n      sub\n        /* \"@openzeppelin/contracts/token/ERC20/ERC20.sol\":10311:10379  require(spender != address(0), \"ERC20: approve to the zero address\") */\n      tag_212\n      jumpi\n      mload(0x40)\n      0x08c379a000000000000000000000000000000000000000000000000000000000\n      dup2\n      mstore\n      0x04\n      add\n      tag_213\n      swap1\n      tag_214\n      jump\t// in\n    tag_213:\n      mload(0x40)\n      dup1\n      swap2\n      sub\n      swap1\n      revert\n    tag_212:\n        /* \"@openzeppelin/contracts/token/ERC20/ERC20.sol\":10420:10426  amount */\n      dup1\n        /* \"@openzeppelin/contracts/token/ERC20/ERC20.sol\":10390:10401  _allowances */\n      0x01\n        /* \"@openzeppelin/contracts/token/ERC20/ERC20.sol\":10390:10408  _allowances[owner] */\n      0x00\n        /* \"@openzeppelin/contracts/token/ERC20/ERC20.sol\":10402:10407  owner */\n      dup6\n        /* \"@openzeppelin/contracts/token/ERC20/ERC20.sol\":10390:10408  _allowances[owner] */\n      0xffffffffffffffffffffffffffffffffffffffff\n      and\n      0xffffffffffffffffffffffffffffffffffffffff\n      and\n      dup2\n      mstore\n      0x20\n      add\n      swap1\n      dup2\n      mstore\n      0x20\n      add\n      0x00\n      keccak256\n        /* \"@openzeppelin/contracts/token/ERC20/ERC20.sol\":10390:10417  _allowances[owner][spender] */\n      0x00\n        /* \"@openzeppelin/contracts/token/ERC20/ERC20.sol\":10409:10416  spender */\n      dup5\n        /* \"@openzeppelin/contracts/token/ERC20/ERC20.sol\":10390:10417  _allowances[owner][spender] */\n      0xffffffffffffffffffffffffffffffffffffffff\n      and\n      0xffffffffffffffffffffffffffffffffffffffff\n      and\n      dup2\n      mstore\n      0x20\n      add\n      swap1\n      dup2\n      mstore\n      0x20\n      add\n      0x00\n      keccak256\n        /* \"@openzeppelin/contracts/token/ERC20/ERC20.sol\":10390:10426  _allowances[owner][spender] = amount */\n      dup2\n      swap1\n      sstore\n      pop\n        /* \"@openzeppelin/contracts/token/ERC20/ERC20.sol\":10457:10464  spender */\n      dup2\n        /* \"@openzeppelin/contracts/token/ERC20/ERC20.sol\":10441:10473  Approval(owner, spender, amount) */\n      0xffffffffffffffffffffffffffffffffffffffff\n      and\n        /* \"@openzeppelin/contracts/token/ERC20/ERC20.sol\":10450:10455  owner */\n      dup4\n        /* \"@openzeppelin/contracts/token/ERC20/ERC20.sol\":10441:10473  Approval(owner, spender, amount) */\n      0xffffffffffffffffffffffffffffffffffffffff\n      and\n      0x8c5be1e5ebec7d5bd14f71427d1e84f3dd0314c0f7b2291e5b200ac8c7c3b925\n        /* \"@openzeppelin/contracts/token/ERC20/ERC20.sol\":10466:10472  amount */\n      dup4\n        /* \"@openzeppelin/contracts/token/ERC20/ERC20.sol\":10441:10473  Approval(owner, spender, amount) */\n      mload(0x40)\n      tag_215\n      swap2\n      swap1\n      tag_43\n      jump\t// in\n    tag_215:\n      mload(0x40)\n      dup1\n      swap2\n      sub\n      swap1\n      log3\n        /* \"@openzeppelin/contracts/token/ERC20/ERC20.sol\":10110:10480  function _approve(... */\n      pop\n      pop\n      pop\n      jump\t// out\n        /* \"@openzeppelin/contracts/access/Ownable.sol\":1359:1489  function _checkOwner() internal view virtual {... */\n    tag_119:\n        /* \"@openzeppelin/contracts/access/Ownable.sol\":1433:1445  _msgSender() */\n      tag_217\n        /* \"@openzeppelin/contracts/access/Ownable.sol\":1433:1443  _msgSender */\n      tag_114\n        /* \"@openzeppelin/contracts/access/Ownable.sol\":1433:1445  _msgSender() */\n      jump\t// in\n    tag_217:\n        /* \"@openzeppelin/contracts/access/Ownable.sol\":1422:1445  owner() == _msgSender() */\n      0xffffffffffffffffffffffffffffffffffffffff\n      and\n        /* \"@openzeppelin/contracts/access/Ownable.sol\":1422:1429  owner() */\n      tag_218\n        /* \"@openzeppelin/contracts/access/Ownable.sol\":1422:1427  owner */\n      tag_79\n        /* \"@openzeppelin/contracts/access/Ownable.sol\":1422:1429  owner() */\n      jump\t// in\n    tag_218:\n        /* \"@openzeppelin/contracts/access/Ownable.sol\":1422:1445  owner() == _msgSender() */\n      0xffffffffffffffffffffffffffffffffffffffff\n      and\n      eq\n        /* \"@openzeppelin/contracts/access/Ownable.sol\":1414:1482  require(owner() == _msgSender(), \"Ownable: caller is not the owner\") */\n      tag_219\n      jumpi\n      mload(0x40)\n      0x08c379a000000000000000000000000000000000000000000000000000000000\n      dup2\n      mstore\n      0x04\n      add\n      tag_220\n      swap1\n      tag_221\n      jump\t// in\n    tag_220:\n      mload(0x40)\n      dup1\n      swap2\n      sub\n      swap1\n      revert\n    tag_219:\n        /* \"@openzeppelin/contracts/access/Ownable.sol\":1359:1489  function _checkOwner() internal view virtual {... */\n      jump\t// out\n        /* \"@openzeppelin/contracts/token/ERC20/ERC20.sol\":10761:11202  function _spendAllowance(... */\n    tag_128:\n        /* \"@openzeppelin/contracts/token/ERC20/ERC20.sol\":10891:10915  uint256 currentAllowance */\n      0x00\n        /* \"@openzeppelin/contracts/token/ERC20/ERC20.sol\":10918:10943  allowance(owner, spender) */\n      tag_223\n        /* \"@openzeppelin/contracts/token/ERC20/ERC20.sol\":10928:10933  owner */\n      dup5\n        /* \"@openzeppelin/contracts/token/ERC20/ERC20.sol\":10935:10942  spender */\n      dup5\n        /* \"@openzeppelin/contracts/token/ERC20/ERC20.sol\":10918:10927  allowance */\n      tag_100\n        /* \"@openzeppelin/contracts/token/ERC20/ERC20.sol\":10918:10943  allowance(owner, spender) */\n      jump\t// in\n    tag_223:\n        /* \"@openzeppelin/contracts/token/ERC20/ERC20.sol\":10891:10943  uint256 currentAllowance = allowance(owner, spender) */\n      swap1\n      pop\n        /* \"@openzeppelin/contracts/token/ERC20/ERC20.sol\":10977:10994  type(uint256).max */\n      0xffffffffffffffffffffffffffffffffffffffffffffffffffffffffffffffff\n        /* \"@openzeppelin/contracts/token/ERC20/ERC20.sol\":10957:10973  currentAllowance */\n      dup2\n        /* \"@openzeppelin/contracts/token/ERC20/ERC20.sol\":10957:10994  currentAllowance != type(uint256).max */\n      eq\n        /* \"@openzeppelin/contracts/token/ERC20/ERC20.sol\":10953:11196  if (currentAllowance != type(uint256).max) {... */\n      tag_224\n      jumpi\n        /* \"@openzeppelin/contracts/token/ERC20/ERC20.sol\":11038:11044  amount */\n      dup2\n        /* \"@openzeppelin/contracts/token/ERC20/ERC20.sol\":11018:11034  currentAllowance */\n      dup2\n        /* \"@openzeppelin/contracts/token/ERC20/ERC20.sol\":11018:11044  currentAllowance >= amount */\n      lt\n      iszero\n        /* \"@openzeppelin/contracts/token/ERC20/ERC20.sol\":11010:11078  require(currentAllowance >= amount, \"ERC20: insufficient allowance\") */\n      tag_225\n      jumpi\n      mload(0x40)\n      0x08c379a000000000000000000000000000000000000000000000000000000000\n      dup2\n      mstore\n      0x04\n      add\n      tag_226\n      swap1\n      tag_227\n      jump\t// in\n    tag_226:\n      mload(0x40)\n      dup1\n      swap2\n      sub\n      swap1\n      revert\n    tag_225:\n        /* \"@openzeppelin/contracts/token/ERC20/ERC20.sol\":11120:11171  _approve(owner, spender, currentAllowance - amount) */\n      tag_228\n        /* \"@openzeppelin/contracts/token/ERC20/ERC20.sol\":11129:11134  owner */\n      dup5\n        /* \"@openzeppelin/contracts/token/ERC20/ERC20.sol\":11136:11143  spender */\n      dup5\n        /* \"@openzeppelin/contracts/token/ERC20/ERC20.sol\":11164:11170  amount */\n      dup5\n        /* \"@openzeppelin/contracts/token/ERC20/ERC20.sol\":11145:11161  currentAllowance */\n      dup5\n        /* \"@openzeppelin/contracts/token/ERC20/ERC20.sol\":11145:11170  currentAllowance - amount */\n      sub\n        /* \"@openzeppelin/contracts/token/ERC20/ERC20.sol\":11120:11128  _approve */\n      tag_116\n        /* \"@openzeppelin/contracts/token/ERC20/ERC20.sol\":11120:11171  _approve(owner, spender, currentAllowance - amount) */\n      jump\t// in\n    tag_228:\n        /* \"@openzeppelin/contracts/token/ERC20/ERC20.sol\":10953:11196  if (currentAllowance != type(uint256).max) {... */\n    tag_224:\n        /* \"@openzeppelin/contracts/token/ERC20/ERC20.sol\":10881:11202  {... */\n      pop\n        /* \"@openzeppelin/contracts/token/ERC20/ERC20.sol\":10761:11202  function _spendAllowance(... */\n      pop\n      pop\n      pop\n      jump\t// out\n        /* \"contracts/MoonPay.sol\":2306:2687  function _transfer(... */\n    tag_130:\n        /* \"contracts/MoonPay.sol\":2433:2450  isTransferLimited */\n      0x06\n        /* \"contracts/MoonPay.sol\":2433:2456  isTransferLimited[from] */\n      0x00\n        /* \"contracts/MoonPay.sol\":2451:2455  from */\n      dup5\n        /* \"contracts/MoonPay.sol\":2433:2456  isTransferLimited[from] */\n      0xffffffffffffffffffffffffffffffffffffffff\n      and\n      0xffffffffffffffffffffffffffffffffffffffff\n      and\n      dup2\n      mstore\n      0x20\n      add\n      swap1\n      dup2\n      mstore\n      0x20\n      add\n      0x00\n      keccak256\n      0x00\n      swap1\n      sload\n      swap1\n      0x0100\n      exp\n      swap1\n      div\n      0xff\n      and\n        /* \"contracts/MoonPay.sol\":2432:2456  !isTransferLimited[from] */\n      iszero\n        /* \"contracts/MoonPay.sol\":2424:2487  require(!isTransferLimited[from], \"Sender is transfer limited\") */\n      tag_230\n      jumpi\n      mload(0x40)\n      0x08c379a000000000000000000000000000000000000000000000000000000000\n      dup2\n      mstore\n      0x04\n      add\n      tag_231\n      swap1\n      tag_232\n      jump\t// in\n    tag_231:\n      mload(0x40)\n      dup1\n      swap2\n      sub\n      swap1\n      revert\n    tag_230:\n        /* \"contracts/MoonPay.sol\":2506:2523  isTransferLimited */\n      0x06\n        /* \"contracts/MoonPay.sol\":2506:2527  isTransferLimited[to] */\n      0x00\n        /* \"contracts/MoonPay.sol\":2524:2526  to */\n      dup4\n        /* \"contracts/MoonPay.sol\":2506:2527  isTransferLimited[to] */\n      0xffffffffffffffffffffffffffffffffffffffff\n      and\n      0xffffffffffffffffffffffffffffffffffffffff\n      and\n      dup2\n      mstore\n      0x20\n      add\n      swap1\n      dup2\n      mstore\n      0x20\n      add\n      0x00\n      keccak256\n      0x00\n      swap1\n      sload\n      swap1\n      0x0100\n      exp\n      swap1\n      div\n      0xff\n      and\n        /* \"contracts/MoonPay.sol\":2505:2527  !isTransferLimited[to] */\n      iszero\n        /* \"contracts/MoonPay.sol\":2497:2561  require(!isTransferLimited[to], \"Recipient is transfer limited\") */\n      tag_233\n      jumpi\n      mload(0x40)\n      0x08c379a000000000000000000000000000000000000000000000000000000000\n      dup2\n      mstore\n      0x04\n      add\n      tag_234\n      swap1\n      tag_235\n      jump\t// in\n    tag_234:\n      mload(0x40)\n      dup1\n      swap2\n      sub\n      swap1\n      revert\n    tag_233:\n        /* \"contracts/MoonPay.sol\":2587:2594  owner() */\n      tag_236\n        /* \"contracts/MoonPay.sol\":2587:2592  owner */\n      tag_79\n        /* \"contracts/MoonPay.sol\":2587:2594  owner() */\n      jump\t// in\n    tag_236:\n        /* \"contracts/MoonPay.sol\":2579:2594  from == owner() */\n      0xffffffffffffffffffffffffffffffffffffffff\n      and\n        /* \"contracts/MoonPay.sol\":2579:2583  from */\n      dup4\n        /* \"contracts/MoonPay.sol\":2579:2594  from == owner() */\n      0xffffffffffffffffffffffffffffffffffffffff\n      and\n      eq\n        /* \"contracts/MoonPay.sol\":2579:2612  from == owner() || !isAmmPair[to] */\n      dup1\n      tag_237\n      jumpi\n      pop\n        /* \"contracts/MoonPay.sol\":2599:2608  isAmmPair */\n      0x07\n        /* \"contracts/MoonPay.sol\":2599:2612  isAmmPair[to] */\n      0x00\n        /* \"contracts/MoonPay.sol\":2609:2611  to */\n      dup4\n        /* \"contracts/MoonPay.sol\":2599:2612  isAmmPair[to] */\n      0xffffffffffffffffffffffffffffffffffffffff\n      and\n      0xffffffffffffffffffffffffffffffffffffffff\n      and\n      dup2\n      mstore\n      0x20\n      add\n      swap1\n      dup2\n      mstore\n      0x20\n      add\n      0x00\n      keccak256\n      0x00\n      swap1\n      sload\n      swap1\n      0x0100\n      exp\n      swap1\n      div\n      0xff\n      and\n        /* \"contracts/MoonPay.sol\":2598:2612  !isAmmPair[to] */\n      iszero\n        /* \"contracts/MoonPay.sol\":2579:2612  from == owner() || !isAmmPair[to] */\n    tag_237:\n        /* \"contracts/MoonPay.sol\":2571:2638  require(from == owner() || !isAmmPair[to], \"Recipient is AMM pair\") */\n      tag_238\n      jumpi\n      mload(0x40)\n      0x08c379a000000000000000000000000000000000000000000000000000000000\n      dup2\n      mstore\n      0x04\n      add\n      tag_239\n      swap1\n      tag_240\n      jump\t// in\n    tag_239:\n      mload(0x40)\n      dup1\n      swap2\n      sub\n      swap1\n      revert\n    tag_238:\n        /* \"contracts/MoonPay.sol\":2648:2680  super._transfer(from, to, value) */\n      tag_241\n        /* \"contracts/MoonPay.sol\":2664:2668  from */\n      dup4\n        /* \"contracts/MoonPay.sol\":2670:2672  to */\n      dup4\n        /* \"contracts/MoonPay.sol\":2674:2679  value */\n      dup4\n        /* \"contracts/MoonPay.sol\":2648:2663  super._transfer */\n      tag_242\n        /* \"contracts/MoonPay.sol\":2648:2680  super._transfer(from, to, value) */\n      jump\t// in\n    tag_241:\n        /* \"contracts/MoonPay.sol\":2306:2687  function _transfer(... */\n      pop\n      pop\n      pop\n      jump\t// out\n        /* \"@openzeppelin/contracts/token/ERC20/ERC20.sol\":8402:8791  function _mint(address account, uint256 amount) internal virtual {... */\n    tag_142:\n        /* \"@openzeppelin/contracts/token/ERC20/ERC20.sol\":8504:8505  0 */\n      0x00\n        /* \"@openzeppelin/contracts/token/ERC20/ERC20.sol\":8485:8506  account != address(0) */\n      0xffffffffffffffffffffffffffffffffffffffff\n      and\n        /* \"@openzeppelin/contracts/token/ERC20/ERC20.sol\":8485:8492  account */\n      dup3\n        /* \"@openzeppelin/contracts/token/ERC20/ERC20.sol\":8485:8506  account != address(0) */\n      0xffffffffffffffffffffffffffffffffffffffff\n      and\n      sub\n        /* \"@openzeppelin/contracts/token/ERC20/ERC20.sol\":8477:8542  require(account != address(0), \"ERC20: mint to the zero address\") */\n      tag_244\n      jumpi\n      mload(0x40)\n      0x08c379a000000000000000000000000000000000000000000000000000000000\n      dup2\n      mstore\n      0x04\n      add\n      tag_245\n      swap1\n      tag_246\n      jump\t// in\n    tag_245:\n      mload(0x40)\n      dup1\n      swap2\n      sub\n      swap1\n      revert\n    tag_244:\n        /* \"@openzeppelin/contracts/token/ERC20/ERC20.sol\":8553:8602  _beforeTokenTransfer(address(0), account, amount) */\n      tag_247\n        /* \"@openzeppelin/contracts/token/ERC20/ERC20.sol\":8582:8583  0 */\n      0x00\n        /* \"@openzeppelin/contracts/token/ERC20/ERC20.sol\":8586:8593  account */\n      dup4\n        /* \"@openzeppelin/contracts/token/ERC20/ERC20.sol\":8595:8601  amount */\n      dup4\n        /* \"@openzeppelin/contracts/token/ERC20/ERC20.sol\":8553:8573  _beforeTokenTransfer */\n      tag_248\n        /* \"@openzeppelin/contracts/token/ERC20/ERC20.sol\":8553:8602  _beforeTokenTransfer(address(0), account, amount) */\n      jump\t// in\n    tag_247:\n        /* \"@openzeppelin/contracts/token/ERC20/ERC20.sol\":8629:8635  amount */\n      dup1\n        /* \"@openzeppelin/contracts/token/ERC20/ERC20.sol\":8613:8625  _totalSupply */\n      0x02\n      0x00\n        /* \"@openzeppelin/contracts/token/ERC20/ERC20.sol\":8613:8635  _totalSupply += amount */\n      dup3\n      dup3\n      sload\n      tag_249\n      swap2\n      swap1\n      tag_137\n      jump\t// in\n    tag_249:\n      swap3\n      pop\n      pop\n      dup2\n      swap1\n      sstore\n      pop\n        /* \"@openzeppelin/contracts/token/ERC20/ERC20.sol\":8667:8673  amount */\n      dup1\n        /* \"@openzeppelin/contracts/token/ERC20/ERC20.sol\":8645:8654  _balances */\n      0x00\n        /* \"@openzeppelin/contracts/token/ERC20/ERC20.sol\":8645:8663  _balances[account] */\n      dup1\n        /* \"@openzeppelin/contracts/token/ERC20/ERC20.sol\":8655:8662  account */\n      dup5\n        /* \"@openzeppelin/contracts/token/ERC20/ERC20.sol\":8645:8663  _balances[account] */\n      0xffffffffffffffffffffffffffffffffffffffff\n      and\n      0xffffffffffffffffffffffffffffffffffffffff\n      and\n      dup2\n      mstore\n      0x20\n      add\n      swap1\n      dup2\n      mstore\n      0x20\n      add\n      0x00\n      keccak256\n      0x00\n        /* \"@openzeppelin/contracts/token/ERC20/ERC20.sol\":8645:8673  _balances[account] += amount */\n      dup3\n      dup3\n      sload\n      tag_250\n      swap2\n      swap1\n      tag_137\n      jump\t// in\n    tag_250:\n      swap3\n      pop\n      pop\n      dup2\n      swap1\n      sstore\n      pop\n        /* \"@openzeppelin/contracts/token/ERC20/ERC20.sol\":8709:8716  account */\n      dup2\n        /* \"@openzeppelin/contracts/token/ERC20/ERC20.sol\":8688:8725  Transfer(address(0), account, amount) */\n      0xffffffffffffffffffffffffffffffffffffffff\n      and\n        /* \"@openzeppelin/contracts/token/ERC20/ERC20.sol\":8705:8706  0 */\n      0x00\n        /* \"@openzeppelin/contracts/token/ERC20/ERC20.sol\":8688:8725  Transfer(address(0), account, amount) */\n      0xffffffffffffffffffffffffffffffffffffffff\n      and\n      0xddf252ad1be2c89b69c2b068fc378daa952ba7f163c4a11628f55a4df523b3ef\n        /* \"@openzeppelin/contracts/token/ERC20/ERC20.sol\":8718:8724  amount */\n      dup4\n        /* \"@openzeppelin/contracts/token/ERC20/ERC20.sol\":8688:8725  Transfer(address(0), account, amount) */\n      mload(0x40)\n      tag_251\n      swap2\n      swap1\n      tag_43\n      jump\t// in\n    tag_251:\n      mload(0x40)\n      dup1\n      swap2\n      sub\n      swap1\n      log3\n        /* \"@openzeppelin/contracts/token/ERC20/ERC20.sol\":8736:8784  _afterTokenTransfer(address(0), account, amount) */\n      tag_252\n        /* \"@openzeppelin/contracts/token/ERC20/ERC20.sol\":8764:8765  0 */\n      0x00\n        /* \"@openzeppelin/contracts/token/ERC20/ERC20.sol\":8768:8775  account */\n      dup4\n        /* \"@openzeppelin/contracts/token/ERC20/ERC20.sol\":8777:8783  amount */\n      dup4\n        /* \"@openzeppelin/contracts/token/ERC20/ERC20.sol\":8736:8755  _afterTokenTransfer */\n      tag_253\n        /* \"@openzeppelin/contracts/token/ERC20/ERC20.sol\":8736:8784  _afterTokenTransfer(address(0), account, amount) */\n      jump\t// in\n    tag_252:\n        /* \"@openzeppelin/contracts/token/ERC20/ERC20.sol\":8402:8791  function _mint(address account, uint256 amount) internal virtual {... */\n      pop\n      pop\n      jump\t// out\n        /* \"@openzeppelin/contracts/access/Ownable.sol\":2433:2620  function _transferOwnership(address newOwner) internal virtual {... */\n    tag_181:\n        /* \"@openzeppelin/contracts/access/Ownable.sol\":2506:2522  address oldOwner */\n      0x00\n        /* \"@openzeppelin/contracts/access/Ownable.sol\":2525:2531  _owner */\n      0x05\n      0x00\n      swap1\n      sload\n      swap1\n      0x0100\n      exp\n      swap1\n      div\n      0xffffffffffffffffffffffffffffffffffffffff\n      and\n        /* \"@openzeppelin/contracts/access/Ownable.sol\":2506:2531  address oldOwner = _owner */\n      swap1\n      pop\n        /* \"@openzeppelin/contracts/access/Ownable.sol\":2550:2558  newOwner */\n      dup2\n        /* \"@openzeppelin/contracts/access/Ownable.sol\":2541:2547  _owner */\n      0x05\n      0x00\n        /* \"@openzeppelin/contracts/access/Ownable.sol\":2541:2558  _owner = newOwner */\n      0x0100\n      exp\n      dup2\n      sload\n      dup2\n      0xffffffffffffffffffffffffffffffffffffffff\n      mul\n      not\n      and\n      swap1\n      dup4\n      0xffffffffffffffffffffffffffffffffffffffff\n      and\n      mul\n      or\n      swap1\n      sstore\n      pop\n        /* \"@openzeppelin/contracts/access/Ownable.sol\":2604:2612  newOwner */\n      dup2\n        /* \"@openzeppelin/contracts/access/Ownable.sol\":2573:2613  OwnershipTransferred(oldOwner, newOwner) */\n      0xffffffffffffffffffffffffffffffffffffffff\n      and\n        /* \"@openzeppelin/contracts/access/Ownable.sol\":2594:2602  oldOwner */\n      dup2\n        /* \"@openzeppelin/contracts/access/Ownable.sol\":2573:2613  OwnershipTransferred(oldOwner, newOwner) */\n      0xffffffffffffffffffffffffffffffffffffffff\n      and\n      0x8be0079c531659141344cd1fd0a4f28419497f9722a3daafe3b4186f6b6457e0\n      mload(0x40)\n      mload(0x40)\n      dup1\n      swap2\n      sub\n      swap1\n      log3\n        /* \"@openzeppelin/contracts/access/Ownable.sol\":2496:2620  {... */\n      pop\n        /* \"@openzeppelin/contracts/access/Ownable.sol\":2433:2620  function _transferOwnership(address newOwner) internal virtual {... */\n      pop\n      jump\t// out\n        /* \"@openzeppelin/contracts/token/ERC20/ERC20.sol\":7475:8126  function _transfer(... */\n    tag_242:\n        /* \"@openzeppelin/contracts/token/ERC20/ERC20.sol\":7617:7618  0 */\n      0x00\n        /* \"@openzeppelin/contracts/token/ERC20/ERC20.sol\":7601:7619  from != address(0) */\n      0xffffffffffffffffffffffffffffffffffffffff\n      and\n        /* \"@openzeppelin/contracts/token/ERC20/ERC20.sol\":7601:7605  from */\n      dup4\n        /* \"@openzeppelin/contracts/token/ERC20/ERC20.sol\":7601:7619  from != address(0) */\n      0xffffffffffffffffffffffffffffffffffffffff\n      and\n      sub\n        /* \"@openzeppelin/contracts/token/ERC20/ERC20.sol\":7593:7661  require(from != address(0), \"ERC20: transfer from the zero address\") */\n      tag_256\n      jumpi\n      mload(0x40)\n      0x08c379a000000000000000000000000000000000000000000000000000000000\n      dup2\n      mstore\n      0x04\n      add\n      tag_257\n      swap1\n      tag_258\n      jump\t// in\n    tag_257:\n      mload(0x40)\n      dup1\n      swap2\n      sub\n      swap1\n      revert\n    tag_256:\n        /* \"@openzeppelin/contracts/token/ERC20/ERC20.sol\":7693:7694  0 */\n      0x00\n        /* \"@openzeppelin/contracts/token/ERC20/ERC20.sol\":7679:7695  to != address(0) */\n      0xffffffffffffffffffffffffffffffffffffffff\n      and\n        /* \"@openzeppelin/contracts/token/ERC20/ERC20.sol\":7679:7681  to */\n      dup3\n        /* \"@openzeppelin/contracts/token/ERC20/ERC20.sol\":7679:7695  to != address(0) */\n      0xffffffffffffffffffffffffffffffffffffffff\n      and\n      sub\n        /* \"@openzeppelin/contracts/token/ERC20/ERC20.sol\":7671:7735  require(to != address(0), \"ERC20: transfer to the zero address\") */\n      tag_259\n      jumpi\n      mload(0x40)\n      0x08c379a000000000000000000000000000000000000000000000000000000000\n      dup2\n      mstore\n      0x04\n      add\n      tag_260\n      swap1\n      tag_261\n      jump\t// in\n    tag_260:\n      mload(0x40)\n      dup1\n      swap2\n      sub\n      swap1\n      revert\n    tag_259:\n        /* \"@openzeppelin/contracts/token/ERC20/ERC20.sol\":7746:7784  _beforeTokenTransfer(from, to, amount) */\n      tag_262\n        /* \"@openzeppelin/contracts/token/ERC20/ERC20.sol\":7767:7771  from */\n      dup4\n        /* \"@openzeppelin/contracts/token/ERC20/ERC20.sol\":7773:7775  to */\n      dup4\n        /* \"@openzeppelin/contracts/token/ERC20/ERC20.sol\":7777:7783  amount */\n      dup4\n        /* \"@openzeppelin/contracts/token/ERC20/ERC20.sol\":7746:7766  _beforeTokenTransfer */\n      tag_248\n        /* \"@openzeppelin/contracts/token/ERC20/ERC20.sol\":7746:7784  _beforeTokenTransfer(from, to, amount) */\n      jump\t// in\n    tag_262:\n        /* \"@openzeppelin/contracts/token/ERC20/ERC20.sol\":7795:7814  uint256 fromBalance */\n      0x00\n        /* \"@openzeppelin/contracts/token/ERC20/ERC20.sol\":7817:7826  _balances */\n      dup1\n        /* \"@openzeppelin/contracts/token/ERC20/ERC20.sol\":7817:7832  _balances[from] */\n      0x00\n        /* \"@openzeppelin/contracts/token/ERC20/ERC20.sol\":7827:7831  from */\n      dup6\n        /* \"@openzeppelin/contracts/token/ERC20/ERC20.sol\":7817:7832  _balances[from] */\n      0xffffffffffffffffffffffffffffffffffffffff\n      and\n      0xffffffffffffffffffffffffffffffffffffffff\n      and\n      dup2\n      mstore\n      0x20\n      add\n      swap1\n      dup2\n      mstore\n      0x20\n      add\n      0x00\n      keccak256\n      sload\n        /* \"@openzeppelin/contracts/token/ERC20/ERC20.sol\":7795:7832  uint256 fromBalance = _balances[from] */\n      swap1\n      pop\n        /* \"@openzeppelin/contracts/token/ERC20/ERC20.sol\":7865:7871  amount */\n      dup2\n        /* \"@openzeppelin/contracts/token/ERC20/ERC20.sol\":7850:7861  fromBalance */\n      dup2\n        /* \"@openzeppelin/contracts/token/ERC20/ERC20.sol\":7850:7871  fromBalance >= amount */\n      lt\n      iszero\n        /* \"@openzeppelin/contracts/token/ERC20/ERC20.sol\":7842:7914  require(fromBalance >= amount, \"ERC20: transfer amount exceeds balance\") */\n      tag_263\n      jumpi\n      mload(0x40)\n      0x08c379a000000000000000000000000000000000000000000000000000000000\n      dup2\n      mstore\n      0x04\n      add\n      tag_264\n      swap1\n      tag_265\n      jump\t// in\n    tag_264:\n      mload(0x40)\n      dup1\n      swap2\n      sub\n      swap1\n      revert\n    tag_263:\n        /* \"@openzeppelin/contracts/token/ERC20/ERC20.sol\":7980:7986  amount */\n      dup2\n        /* \"@openzeppelin/contracts/token/ERC20/ERC20.sol\":7966:7977  fromBalance */\n      dup2\n        /* \"@openzeppelin/contracts/token/ERC20/ERC20.sol\":7966:7986  fromBalance - amount */\n      sub\n        /* \"@openzeppelin/contracts/token/ERC20/ERC20.sol\":7948:7957  _balances */\n      0x00\n        /* \"@openzeppelin/contracts/token/ERC20/ERC20.sol\":7948:7963  _balances[from] */\n      dup1\n        /* \"@openzeppelin/contracts/token/ERC20/ERC20.sol\":7958:7962  from */\n      dup7\n        /* \"@openzeppelin/contracts/token/ERC20/ERC20.sol\":7948:7963  _balances[from] */\n      0xffffffffffffffffffffffffffffffffffffffff\n      and\n      0xffffffffffffffffffffffffffffffffffffffff\n      and\n      dup2\n      mstore\n      0x20\n      add\n      swap1\n      dup2\n      mstore\n      0x20\n      add\n      0x00\n      keccak256\n        /* \"@openzeppelin/contracts/token/ERC20/ERC20.sol\":7948:7986  _balances[from] = fromBalance - amount */\n      dup2\n      swap1\n      sstore\n      pop\n        /* \"@openzeppelin/contracts/token/ERC20/ERC20.sol\":8023:8029  amount */\n      dup2\n        /* \"@openzeppelin/contracts/token/ERC20/ERC20.sol\":8006:8015  _balances */\n      0x00\n        /* \"@openzeppelin/contracts/token/ERC20/ERC20.sol\":8006:8019  _balances[to] */\n      dup1\n        /* \"@openzeppelin/contracts/token/ERC20/ERC20.sol\":8016:8018  to */\n      dup6\n        /* \"@openzeppelin/contracts/token/ERC20/ERC20.sol\":8006:8019  _balances[to] */\n      0xffffffffffffffffffffffffffffffffffffffff\n      and\n      0xffffffffffffffffffffffffffffffffffffffff\n      and\n      dup2\n      mstore\n      0x20\n      add\n      swap1\n      dup2\n      mstore\n      0x20\n      add\n      0x00\n      keccak256\n      0x00\n        /* \"@openzeppelin/contracts/token/ERC20/ERC20.sol\":8006:8029  _balances[to] += amount */\n      dup3\n      dup3\n      sload\n      tag_266\n      swap2\n      swap1\n      tag_137\n      jump\t// in\n    tag_266:\n      swap3\n      pop\n      pop\n      dup2\n      swap1\n      sstore\n      pop\n        /* \"@openzeppelin/contracts/token/ERC20/ERC20.sol\":8060:8062  to */\n      dup3\n        /* \"@openzeppelin/contracts/token/ERC20/ERC20.sol\":8045:8071  Transfer(from, to, amount) */\n      0xffffffffffffffffffffffffffffffffffffffff\n      and\n        /* \"@openzeppelin/contracts/token/ERC20/ERC20.sol\":8054:8058  from */\n      dup5\n        /* \"@openzeppelin/contracts/token/ERC20/ERC20.sol\":8045:8071  Transfer(from, to, amount) */\n      0xffffffffffffffffffffffffffffffffffffffff\n      and\n      0xddf252ad1be2c89b69c2b068fc378daa952ba7f163c4a11628f55a4df523b3ef\n        /* \"@openzeppelin/contracts/token/ERC20/ERC20.sol\":8064:8070  amount */\n      dup5\n        /* \"@openzeppelin/contracts/token/ERC20/ERC20.sol\":8045:8071  Transfer(from, to, amount) */\n      mload(0x40)\n      tag_267\n      swap2\n      swap1\n      tag_43\n      jump\t// in\n    tag_267:\n      mload(0x40)\n      dup1\n      swap2\n      sub\n      swap1\n      log3\n        /* \"@openzeppelin/contracts/token/ERC20/ERC20.sol\":8082:8119  _afterTokenTransfer(from, to, amount) */\n      tag_268\n        /* \"@openzeppelin/contracts/token/ERC20/ERC20.sol\":8102:8106  from */\n      dup5\n        /* \"@openzeppelin/contracts/token/ERC20/ERC20.sol\":8108:8110  to */\n      dup5\n        /* \"@openzeppelin/contracts/token/ERC20/ERC20.sol\":8112:8118  amount */\n      dup5\n        /* \"@openzeppelin/contracts/token/ERC20/ERC20.sol\":8082:8101  _afterTokenTransfer */\n      tag_253\n        /* \"@openzeppelin/contracts/token/ERC20/ERC20.sol\":8082:8119  _afterTokenTransfer(from, to, amount) */\n      jump\t// in\n    tag_268:\n        /* \"@openzeppelin/contracts/token/ERC20/ERC20.sol\":7583:8126  {... */\n      pop\n        /* \"@openzeppelin/contracts/token/ERC20/ERC20.sol\":7475:8126  function _transfer(... */\n      pop\n      pop\n      pop\n      jump\t// out\n        /* \"@openzeppelin/contracts/token/ERC20/ERC20.sol\":11786:11907  function _beforeTokenTransfer(... */\n    tag_248:\n      pop\n      pop\n      pop\n      jump\t// out\n        /* \"@openzeppelin/contracts/token/ERC20/ERC20.sol\":12495:12615  function _afterTokenTransfer(... */\n    tag_253:\n      pop\n      pop\n      pop\n      jump\t// out\n        /* \"#utility.yul\":7:106   */\n    tag_271:\n        /* \"#utility.yul\":59:65   */\n      0x00\n        /* \"#utility.yul\":93:98   */\n      dup2\n        /* \"#utility.yul\":87:99   */\n      mload\n        /* \"#utility.yul\":77:99   */\n      swap1\n      pop\n        /* \"#utility.yul\":7:106   */\n      swap2\n      swap1\n      pop\n      jump\t// out\n        /* \"#utility.yul\":112:281   */\n    tag_272:\n        /* \"#utility.yul\":196:207   */\n      0x00\n        /* \"#utility.yul\":230:236   */\n      dup3\n        /* \"#utility.yul\":225:228   */\n      dup3\n        /* \"#utility.yul\":218:237   */\n      mstore\n        /* \"#utility.yul\":270:274   */\n      0x20\n        /* \"#utility.yul\":265:268   */\n      dup3\n        /* \"#utility.yul\":261:275   */\n      add\n        /* \"#utility.yul\":246:275   */\n      swap1\n      pop\n        /* \"#utility.yul\":112:281   */\n      swap3\n      swap2\n      pop\n      pop\n      jump\t// out\n        /* \"#utility.yul\":287:594   */\n    tag_273:\n        /* \"#utility.yul\":355:356   */\n      0x00\n        /* \"#utility.yul\":365:478   */\n    tag_335:\n        /* \"#utility.yul\":379:385   */\n      dup4\n        /* \"#utility.yul\":376:377   */\n      dup2\n        /* \"#utility.yul\":373:386   */\n      lt\n        /* \"#utility.yul\":365:478   */\n      iszero\n      tag_337\n      jumpi\n        /* \"#utility.yul\":464:465   */\n      dup1\n        /* \"#utility.yul\":459:462   */\n      dup3\n        /* \"#utility.yul\":455:466   */\n      add\n        /* \"#utility.yul\":449:467   */\n      mload\n        /* \"#utility.yul\":445:446   */\n      dup2\n        /* \"#utility.yul\":440:443   */\n      dup5\n        /* \"#utility.yul\":436:447   */\n      add\n        /* \"#utility.yul\":429:468   */\n      mstore\n        /* \"#utility.yul\":401:403   */\n      0x20\n        /* \"#utility.yul\":398:399   */\n      dup2\n        /* \"#utility.yul\":394:404   */\n      add\n        /* \"#utility.yul\":389:404   */\n      swap1\n      pop\n        /* \"#utility.yul\":365:478   */\n      jump(tag_335)\n    tag_337:\n        /* \"#utility.yul\":496:502   */\n      dup4\n        /* \"#utility.yul\":493:494   */\n      dup2\n        /* \"#utility.yul\":490:503   */\n      gt\n        /* \"#utility.yul\":487:588   */\n      iszero\n      tag_338\n      jumpi\n        /* \"#utility.yul\":576:577   */\n      0x00\n        /* \"#utility.yul\":567:573   */\n      dup5\n        /* \"#utility.yul\":562:565   */\n      dup5\n        /* \"#utility.yul\":558:574   */\n      add\n        /* \"#utility.yul\":551:578   */\n      mstore\n        /* \"#utility.yul\":487:588   */\n    tag_338:\n        /* \"#utility.yul\":336:594   */\n      pop\n        /* \"#utility.yul\":287:594   */\n      pop\n      pop\n      pop\n      jump\t// out\n        /* \"#utility.yul\":600:702   */\n    tag_274:\n        /* \"#utility.yul\":641:647   */\n      0x00\n        /* \"#utility.yul\":692:694   */\n      0x1f\n        /* \"#utility.yul\":688:695   */\n      not\n        /* \"#utility.yul\":683:685   */\n      0x1f\n        /* \"#utility.yul\":676:681   */\n      dup4\n        /* \"#utility.yul\":672:686   */\n      add\n        /* \"#utility.yul\":668:696   */\n      and\n        /* \"#utility.yul\":658:696   */\n      swap1\n      pop\n        /* \"#utility.yul\":600:702   */\n      swap2\n      swap1\n      pop\n      jump\t// out\n        /* \"#utility.yul\":708:1072   */\n    tag_275:\n        /* \"#utility.yul\":796:799   */\n      0x00\n        /* \"#utility.yul\":824:863   */\n      tag_341\n        /* \"#utility.yul\":857:862   */\n      dup3\n        /* \"#utility.yul\":824:863   */\n      tag_271\n      jump\t// in\n    tag_341:\n        /* \"#utility.yul\":879:950   */\n      tag_342\n        /* \"#utility.yul\":943:949   */\n      dup2\n        /* \"#utility.yul\":938:941   */\n      dup6\n        /* \"#utility.yul\":879:950   */\n      tag_272\n      jump\t// in\n    tag_342:\n        /* \"#utility.yul\":872:950   */\n      swap4\n      pop\n        /* \"#utility.yul\":959:1011   */\n      tag_343\n        /* \"#utility.yul\":1004:1010   */\n      dup2\n        /* \"#utility.yul\":999:1002   */\n      dup6\n        /* \"#utility.yul\":992:996   */\n      0x20\n        /* \"#utility.yul\":985:990   */\n      dup7\n        /* \"#utility.yul\":981:997   */\n      add\n        /* \"#utility.yul\":959:1011   */\n      tag_273\n      jump\t// in\n    tag_343:\n        /* \"#utility.yul\":1036:1065   */\n      tag_344\n        /* \"#utility.yul\":1058:1064   */\n      dup2\n        /* \"#utility.yul\":1036:1065   */\n      tag_274\n      jump\t// in\n    tag_344:\n        /* \"#utility.yul\":1031:1034   */\n      dup5\n        /* \"#utility.yul\":1027:1066   */\n      add\n        /* \"#utility.yul\":1020:1066   */\n      swap2\n      pop\n        /* \"#utility.yul\":800:1072   */\n      pop\n        /* \"#utility.yul\":708:1072   */\n      swap3\n      swap2\n      pop\n      pop\n      jump\t// out\n        /* \"#utility.yul\":1078:1391   */\n    tag_29:\n        /* \"#utility.yul\":1191:1195   */\n      0x00\n        /* \"#utility.yul\":1229:1231   */\n      0x20\n        /* \"#utility.yul\":1218:1227   */\n      dup3\n        /* \"#utility.yul\":1214:1232   */\n      add\n        /* \"#utility.yul\":1206:1232   */\n      swap1\n      pop\n        /* \"#utility.yul\":1278:1287   */\n      dup2\n        /* \"#utility.yul\":1272:1276   */\n      dup2\n        /* \"#utility.yul\":1268:1288   */\n      sub\n        /* \"#utility.yul\":1264:1265   */\n      0x00\n        /* \"#utility.yul\":1253:1262   */\n      dup4\n        /* \"#utility.yul\":1249:1266   */\n      add\n        /* \"#utility.yul\":1242:1289   */\n      mstore\n        /* \"#utility.yul\":1306:1384   */\n      tag_346\n        /* \"#utility.yul\":1379:1383   */\n      dup2\n        /* \"#utility.yul\":1370:1376   */\n      dup5\n        /* \"#utility.yul\":1306:1384   */\n      tag_275\n      jump\t// in\n    tag_346:\n        /* \"#utility.yul\":1298:1384   */\n      swap1\n      pop\n        /* \"#utility.yul\":1078:1391   */\n      swap3\n      swap2\n      pop\n      pop\n      jump\t// out\n        /* \"#utility.yul\":1478:1595   */\n    tag_277:\n        /* \"#utility.yul\":1587:1588   */\n      0x00\n        /* \"#utility.yul\":1584:1585   */\n      dup1\n        /* \"#utility.yul\":1577:1589   */\n      revert\n        /* \"#utility.yul\":1724:1850   */\n    tag_279:\n        /* \"#utility.yul\":1761:1768   */\n      0x00\n        /* \"#utility.yul\":1801:1843   */\n      0xffffffffffffffffffffffffffffffffffffffff\n        /* \"#utility.yul\":1794:1799   */\n      dup3\n        /* \"#utility.yul\":1790:1844   */\n      and\n        /* \"#utility.yul\":1779:1844   */\n      swap1\n      pop\n        /* \"#utility.yul\":1724:1850   */\n      swap2\n      swap1\n      pop\n      jump\t// out\n        /* \"#utility.yul\":1856:1952   */\n    tag_280:\n        /* \"#utility.yul\":1893:1900   */\n      0x00\n        /* \"#utility.yul\":1922:1946   */\n      tag_352\n        /* \"#utility.yul\":1940:1945   */\n      dup3\n        /* \"#utility.yul\":1922:1946   */\n      tag_279\n      jump\t// in\n    tag_352:\n        /* \"#utility.yul\":1911:1946   */\n      swap1\n      pop\n        /* \"#utility.yul\":1856:1952   */\n      swap2\n      swap1\n      pop\n      jump\t// out\n        /* \"#utility.yul\":1958:2080   */\n    tag_281:\n        /* \"#utility.yul\":2031:2055   */\n      tag_354\n        /* \"#utility.yul\":2049:2054   */\n      dup2\n        /* \"#utility.yul\":2031:2055   */\n      tag_280\n      jump\t// in\n    tag_354:\n        /* \"#utility.yul\":2024:2029   */\n      dup2\n        /* \"#utility.yul\":2021:2056   */\n      eq\n        /* \"#utility.yul\":2011:2074   */\n      tag_355\n      jumpi\n        /* \"#utility.yul\":2070:2071   */\n      0x00\n        /* \"#utility.yul\":2067:2068   */\n      dup1\n        /* \"#utility.yul\":2060:2072   */\n      revert\n        /* \"#utility.yul\":2011:2074   */\n    tag_355:\n        /* \"#utility.yul\":1958:2080   */\n      pop\n      jump\t// out\n        /* \"#utility.yul\":2086:2225   */\n    tag_282:\n        /* \"#utility.yul\":2132:2137   */\n      0x00\n        /* \"#utility.yul\":2170:2176   */\n      dup2\n        /* \"#utility.yul\":2157:2177   */\n      calldataload\n        /* \"#utility.yul\":2148:2177   */\n      swap1\n      pop\n        /* \"#utility.yul\":2186:2219   */\n      tag_357\n        /* \"#utility.yul\":2213:2218   */\n      dup2\n        /* \"#utility.yul\":2186:2219   */\n      tag_281\n      jump\t// in\n    tag_357:\n        /* \"#utility.yul\":2086:2225   */\n      swap3\n      swap2\n      pop\n      pop\n      jump\t// out\n        /* \"#utility.yul\":2231:2308   */\n    tag_283:\n        /* \"#utility.yul\":2268:2275   */\n      0x00\n        /* \"#utility.yul\":2297:2302   */\n      dup2\n        /* \"#utility.yul\":2286:2302   */\n      swap1\n      pop\n        /* \"#utility.yul\":2231:2308   */\n      swap2\n      swap1\n      pop\n      jump\t// out\n        /* \"#utility.yul\":2314:2436   */\n    tag_284:\n        /* \"#utility.yul\":2387:2411   */\n      tag_360\n        /* \"#utility.yul\":2405:2410   */\n      dup2\n        /* \"#utility.yul\":2387:2411   */\n      tag_283\n      jump\t// in\n    tag_360:\n        /* \"#utility.yul\":2380:2385   */\n      dup2\n        /* \"#utility.yul\":2377:2412   */\n      eq\n        /* \"#utility.yul\":2367:2430   */\n      tag_361\n      jumpi\n        /* \"#utility.yul\":2426:2427   */\n      0x00\n        /* \"#utility.yul\":2423:2424   */\n      dup1\n        /* \"#utility.yul\":2416:2428   */\n      revert\n        /* \"#utility.yul\":2367:2430   */\n    tag_361:\n        /* \"#utility.yul\":2314:2436   */\n      pop\n      jump\t// out\n        /* \"#utility.yul\":2442:2581   */\n    tag_285:\n        /* \"#utility.yul\":2488:2493   */\n      0x00\n        /* \"#utility.yul\":2526:2532   */\n      dup2\n        /* \"#utility.yul\":2513:2533   */\n      calldataload\n        /* \"#utility.yul\":2504:2533   */\n      swap1\n      pop\n        /* \"#utility.yul\":2542:2575   */\n      tag_363\n        /* \"#utility.yul\":2569:2574   */\n      dup2\n        /* \"#utility.yul\":2542:2575   */\n      tag_284\n      jump\t// in\n    tag_363:\n        /* \"#utility.yul\":2442:2581   */\n      swap3\n      swap2\n      pop\n      pop\n      jump\t// out\n        /* \"#utility.yul\":2587:3061   */\n    tag_32:\n        /* \"#utility.yul\":2655:2661   */\n      0x00\n        /* \"#utility.yul\":2663:2669   */\n      dup1\n        /* \"#utility.yul\":2712:2714   */\n      0x40\n        /* \"#utility.yul\":2700:2709   */\n      dup4\n        /* \"#utility.yul\":2691:2698   */\n      dup6\n        /* \"#utility.yul\":2687:2710   */\n      sub\n        /* \"#utility.yul\":2683:2715   */\n      slt\n        /* \"#utility.yul\":2680:2799   */\n      iszero\n      tag_365\n      jumpi\n        /* \"#utility.yul\":2718:2797   */\n      tag_366\n      tag_277\n      jump\t// in\n    tag_366:\n        /* \"#utility.yul\":2680:2799   */\n    tag_365:\n        /* \"#utility.yul\":2838:2839   */\n      0x00\n        /* \"#utility.yul\":2863:2916   */\n      tag_367\n        /* \"#utility.yul\":2908:2915   */\n      dup6\n        /* \"#utility.yul\":2899:2905   */\n      dup3\n        /* \"#utility.yul\":2888:2897   */\n      dup7\n        /* \"#utility.yul\":2884:2906   */\n      add\n        /* \"#utility.yul\":2863:2916   */\n      tag_282\n      jump\t// in\n    tag_367:\n        /* \"#utility.yul\":2853:2916   */\n      swap3\n      pop\n        /* \"#utility.yul\":2809:2926   */\n      pop\n        /* \"#utility.yul\":2965:2967   */\n      0x20\n        /* \"#utility.yul\":2991:3044   */\n      tag_368\n        /* \"#utility.yul\":3036:3043   */\n      dup6\n        /* \"#utility.yul\":3027:3033   */\n      dup3\n        /* \"#utility.yul\":3016:3025   */\n      dup7\n        /* \"#utility.yul\":3012:3034   */\n      add\n        /* \"#utility.yul\":2991:3044   */\n      tag_285\n      jump\t// in\n    tag_368:\n        /* \"#utility.yul\":2981:3044   */\n      swap2\n      pop\n        /* \"#utility.yul\":2936:3054   */\n      pop\n        /* \"#utility.yul\":2587:3061   */\n      swap3\n      pop\n      swap3\n      swap1\n      pop\n      jump\t// out\n        /* \"#utility.yul\":3067:3157   */\n    tag_286:\n        /* \"#utility.yul\":3101:3108   */\n      0x00\n        /* \"#utility.yul\":3144:3149   */\n      dup2\n        /* \"#utility.yul\":3137:3150   */\n      iszero\n        /* \"#utility.yul\":3130:3151   */\n      iszero\n        /* \"#utility.yul\":3119:3151   */\n      swap1\n      pop\n        /* \"#utility.yul\":3067:3157   */\n      swap2\n      swap1\n      pop\n      jump\t// out\n        /* \"#utility.yul\":3163:3272   */\n    tag_287:\n        /* \"#utility.yul\":3244:3265   */\n      tag_371\n        /* \"#utility.yul\":3259:3264   */\n      dup2\n        /* \"#utility.yul\":3244:3265   */\n      tag_286\n      jump\t// in\n    tag_371:\n        /* \"#utility.yul\":3239:3242   */\n      dup3\n        /* \"#utility.yul\":3232:3266   */\n      mstore\n        /* \"#utility.yul\":3163:3272   */\n      pop\n      pop\n      jump\t// out\n        /* \"#utility.yul\":3278:3488   */\n    tag_35:\n        /* \"#utility.yul\":3365:3369   */\n      0x00\n        /* \"#utility.yul\":3403:3405   */\n      0x20\n        /* \"#utility.yul\":3392:3401   */\n      dup3\n        /* \"#utility.yul\":3388:3406   */\n      add\n        /* \"#utility.yul\":3380:3406   */\n      swap1\n      pop\n        /* \"#utility.yul\":3416:3481   */\n      tag_373\n        /* \"#utility.yul\":3478:3479   */\n      0x00\n        /* \"#utility.yul\":3467:3476   */\n      dup4\n        /* \"#utility.yul\":3463:3480   */\n      add\n        /* \"#utility.yul\":3454:3460   */\n      dup5\n        /* \"#utility.yul\":3416:3481   */\n      tag_287\n      jump\t// in\n    tag_373:\n        /* \"#utility.yul\":3278:3488   */\n      swap3\n      swap2\n      pop\n      pop\n      jump\t// out\n        /* \"#utility.yul\":3494:3610   */\n    tag_288:\n        /* \"#utility.yul\":3564:3585   */\n      tag_375\n        /* \"#utility.yul\":3579:3584   */\n      dup2\n        /* \"#utility.yul\":3564:3585   */\n      tag_286\n      jump\t// in\n    tag_375:\n        /* \"#utility.yul\":3557:3562   */\n      dup2\n        /* \"#utility.yul\":3554:3586   */\n      eq\n        /* \"#utility.yul\":3544:3604   */\n      tag_376\n      jumpi\n        /* \"#utility.yul\":3600:3601   */\n      0x00\n        /* \"#utility.yul\":3597:3598   */\n      dup1\n        /* \"#utility.yul\":3590:3602   */\n      revert\n        /* \"#utility.yul\":3544:3604   */\n    tag_376:\n        /* \"#utility.yul\":3494:3610   */\n      pop\n      jump\t// out\n        /* \"#utility.yul\":3616:3749   */\n    tag_289:\n        /* \"#utility.yul\":3659:3664   */\n      0x00\n        /* \"#utility.yul\":3697:3703   */\n      dup2\n        /* \"#utility.yul\":3684:3704   */\n      calldataload\n        /* \"#utility.yul\":3675:3704   */\n      swap1\n      pop\n        /* \"#utility.yul\":3713:3743   */\n      tag_378\n        /* \"#utility.yul\":3737:3742   */\n      dup2\n        /* \"#utility.yul\":3713:3743   */\n      tag_288\n      jump\t// in\n    tag_378:\n        /* \"#utility.yul\":3616:3749   */\n      swap3\n      swap2\n      pop\n      pop\n      jump\t// out\n        /* \"#utility.yul\":3755:4223   */\n    tag_38:\n        /* \"#utility.yul\":3820:3826   */\n      0x00\n        /* \"#utility.yul\":3828:3834   */\n      dup1\n        /* \"#utility.yul\":3877:3879   */\n      0x40\n        /* \"#utility.yul\":3865:3874   */\n      dup4\n        /* \"#utility.yul\":3856:3863   */\n      dup6\n        /* \"#utility.yul\":3852:3875   */\n      sub\n        /* \"#utility.yul\":3848:3880   */\n      slt\n        /* \"#utility.yul\":3845:3964   */\n      iszero\n      tag_380\n      jumpi\n        /* \"#utility.yul\":3883:3962   */\n      tag_381\n      tag_277\n      jump\t// in\n    tag_381:\n        /* \"#utility.yul\":3845:3964   */\n    tag_380:\n        /* \"#utility.yul\":4003:4004   */\n      0x00\n        /* \"#utility.yul\":4028:4081   */\n      tag_382\n        /* \"#utility.yul\":4073:4080   */\n      dup6\n        /* \"#utility.yul\":4064:4070   */\n      dup3\n        /* \"#utility.yul\":4053:4062   */\n      dup7\n        /* \"#utility.yul\":4049:4071   */\n      add\n        /* \"#utility.yul\":4028:4081   */\n      tag_282\n      jump\t// in\n    tag_382:\n        /* \"#utility.yul\":4018:4081   */\n      swap3\n      pop\n        /* \"#utility.yul\":3974:4091   */\n      pop\n        /* \"#utility.yul\":4130:4132   */\n      0x20\n        /* \"#utility.yul\":4156:4206   */\n      tag_383\n        /* \"#utility.yul\":4198:4205   */\n      dup6\n        /* \"#utility.yul\":4189:4195   */\n      dup3\n        /* \"#utility.yul\":4178:4187   */\n      dup7\n        /* \"#utility.yul\":4174:4196   */\n      add\n        /* \"#utility.yul\":4156:4206   */\n      tag_289\n      jump\t// in\n    tag_383:\n        /* \"#utility.yul\":4146:4206   */\n      swap2\n      pop\n        /* \"#utility.yul\":4101:4216   */\n      pop\n        /* \"#utility.yul\":3755:4223   */\n      swap3\n      pop\n      swap3\n      swap1\n      pop\n      jump\t// out\n        /* \"#utility.yul\":4229:4347   */\n    tag_290:\n        /* \"#utility.yul\":4316:4340   */\n      tag_385\n        /* \"#utility.yul\":4334:4339   */\n      dup2\n        /* \"#utility.yul\":4316:4340   */\n      tag_283\n      jump\t// in\n    tag_385:\n        /* \"#utility.yul\":4311:4314   */\n      dup3\n        /* \"#utility.yul\":4304:4341   */\n      mstore\n        /* \"#utility.yul\":4229:4347   */\n      pop\n      pop\n      jump\t// out\n        /* \"#utility.yul\":4353:4575   */\n    tag_43:\n        /* \"#utility.yul\":4446:4450   */\n      0x00\n        /* \"#utility.yul\":4484:4486   */\n      0x20\n        /* \"#utility.yul\":4473:4482   */\n      dup3\n        /* \"#utility.yul\":4469:4487   */\n      add\n        /* \"#utility.yul\":4461:4487   */\n      swap1\n      pop\n        /* \"#utility.yul\":4497:4568   */\n      tag_387\n        /* \"#utility.yul\":4565:4566   */\n      0x00\n        /* \"#utility.yul\":4554:4563   */\n      dup4\n        /* \"#utility.yul\":4550:4567   */\n      add\n        /* \"#utility.yul\":4541:4547   */\n      dup5\n        /* \"#utility.yul\":4497:4568   */\n      tag_290\n      jump\t// in\n    tag_387:\n        /* \"#utility.yul\":4353:4575   */\n      swap3\n      swap2\n      pop\n      pop\n      jump\t// out\n        /* \"#utility.yul\":4581:4695   */\n    tag_291:\n        /* \"#utility.yul\":4648:4654   */\n      0x00\n        /* \"#utility.yul\":4682:4687   */\n      dup2\n        /* \"#utility.yul\":4676:4688   */\n      mload\n        /* \"#utility.yul\":4666:4688   */\n      swap1\n      pop\n        /* \"#utility.yul\":4581:4695   */\n      swap2\n      swap1\n      pop\n      jump\t// out\n        /* \"#utility.yul\":4701:4885   */\n    tag_292:\n        /* \"#utility.yul\":4800:4811   */\n      0x00\n        /* \"#utility.yul\":4834:4840   */\n      dup3\n        /* \"#utility.yul\":4829:4832   */\n      dup3\n        /* \"#utility.yul\":4822:4841   */\n      mstore\n        /* \"#utility.yul\":4874:4878   */\n      0x20\n        /* \"#utility.yul\":4869:4872   */\n      dup3\n        /* \"#utility.yul\":4865:4879   */\n      add\n        /* \"#utility.yul\":4850:4879   */\n      swap1\n      pop\n        /* \"#utility.yul\":4701:4885   */\n      swap3\n      swap2\n      pop\n      pop\n      jump\t// out\n        /* \"#utility.yul\":4891:5023   */\n    tag_293:\n        /* \"#utility.yul\":4958:4962   */\n      0x00\n        /* \"#utility.yul\":4981:4984   */\n      dup2\n        /* \"#utility.yul\":4973:4984   */\n      swap1\n      pop\n        /* \"#utility.yul\":5011:5015   */\n      0x20\n        /* \"#utility.yul\":5006:5009   */\n      dup3\n        /* \"#utility.yul\":5002:5016   */\n      add\n        /* \"#utility.yul\":4994:5016   */\n      swap1\n      pop\n        /* \"#utility.yul\":4891:5023   */\n      swap2\n      swap1\n      pop\n      jump\t// out\n        /* \"#utility.yul\":5029:5137   */\n    tag_294:\n        /* \"#utility.yul\":5106:5130   */\n      tag_392\n        /* \"#utility.yul\":5124:5129   */\n      dup2\n        /* \"#utility.yul\":5106:5130   */\n      tag_280\n      jump\t// in\n    tag_392:\n        /* \"#utility.yul\":5101:5104   */\n      dup3\n        /* \"#utility.yul\":5094:5131   */\n      mstore\n        /* \"#utility.yul\":5029:5137   */\n      pop\n      pop\n      jump\t// out\n        /* \"#utility.yul\":5143:5322   */\n    tag_295:\n        /* \"#utility.yul\":5212:5222   */\n      0x00\n        /* \"#utility.yul\":5233:5279   */\n      tag_394\n        /* \"#utility.yul\":5275:5278   */\n      dup4\n        /* \"#utility.yul\":5267:5273   */\n      dup4\n        /* \"#utility.yul\":5233:5279   */\n      tag_294\n      jump\t// in\n    tag_394:\n        /* \"#utility.yul\":5311:5315   */\n      0x20\n        /* \"#utility.yul\":5306:5309   */\n      dup4\n        /* \"#utility.yul\":5302:5316   */\n      add\n        /* \"#utility.yul\":5288:5316   */\n      swap1\n      pop\n        /* \"#utility.yul\":5143:5322   */\n      swap3\n      swap2\n      pop\n      pop\n      jump\t// out\n        /* \"#utility.yul\":5328:5441   */\n    tag_296:\n        /* \"#utility.yul\":5398:5402   */\n      0x00\n        /* \"#utility.yul\":5430:5434   */\n      0x20\n        /* \"#utility.yul\":5425:5428   */\n      dup3\n        /* \"#utility.yul\":5421:5435   */\n      add\n        /* \"#utility.yul\":5413:5435   */\n      swap1\n      pop\n        /* \"#utility.yul\":5328:5441   */\n      swap2\n      swap1\n      pop\n      jump\t// out\n        /* \"#utility.yul\":5477:6209   */\n    tag_297:\n        /* \"#utility.yul\":5596:5599   */\n      0x00\n        /* \"#utility.yul\":5625:5679   */\n      tag_397\n        /* \"#utility.yul\":5673:5678   */\n      dup3\n        /* \"#utility.yul\":5625:5679   */\n      tag_291\n      jump\t// in\n    tag_397:\n        /* \"#utility.yul\":5695:5781   */\n      tag_398\n        /* \"#utility.yul\":5774:5780   */\n      dup2\n        /* \"#utility.yul\":5769:5772   */\n      dup6\n        /* \"#utility.yul\":5695:5781   */\n      tag_292\n      jump\t// in\n    tag_398:\n        /* \"#utility.yul\":5688:5781   */\n      swap4\n      pop\n        /* \"#utility.yul\":5805:5861   */\n      tag_399\n        /* \"#utility.yul\":5855:5860   */\n      dup4\n        /* \"#utility.yul\":5805:5861   */\n      tag_293\n      jump\t// in\n    tag_399:\n        /* \"#utility.yul\":5884:5891   */\n      dup1\n        /* \"#utility.yul\":5915:5916   */\n      0x00\n        /* \"#utility.yul\":5900:6184   */\n    tag_400:\n        /* \"#utility.yul\":5925:5931   */\n      dup4\n        /* \"#utility.yul\":5922:5923   */\n      dup2\n        /* \"#utility.yul\":5919:5932   */\n      lt\n        /* \"#utility.yul\":5900:6184   */\n      iszero\n      tag_402\n      jumpi\n        /* \"#utility.yul\":6001:6007   */\n      dup2\n        /* \"#utility.yul\":5995:6008   */\n      mload\n        /* \"#utility.yul\":6028:6091   */\n      tag_403\n        /* \"#utility.yul\":6087:6090   */\n      dup9\n        /* \"#utility.yul\":6072:6085   */\n      dup3\n        /* \"#utility.yul\":6028:6091   */\n      tag_295\n      jump\t// in\n    tag_403:\n        /* \"#utility.yul\":6021:6091   */\n      swap8\n      pop\n        /* \"#utility.yul\":6114:6174   */\n      tag_404\n        /* \"#utility.yul\":6167:6173   */\n      dup4\n        /* \"#utility.yul\":6114:6174   */\n      tag_296\n      jump\t// in\n    tag_404:\n        /* \"#utility.yul\":6104:6174   */\n      swap3\n      pop\n        /* \"#utility.yul\":5960:6184   */\n      pop\n        /* \"#utility.yul\":5947:5948   */\n      0x01\n        /* \"#utility.yul\":5944:5945   */\n      dup2\n        /* \"#utility.yul\":5940:5949   */\n      add\n        /* \"#utility.yul\":5935:5949   */\n      swap1\n      pop\n        /* \"#utility.yul\":5900:6184   */\n      jump(tag_400)\n    tag_402:\n        /* \"#utility.yul\":5904:5918   */\n      pop\n        /* \"#utility.yul\":6200:6203   */\n      dup6\n        /* \"#utility.yul\":6193:6203   */\n      swap4\n      pop\n        /* \"#utility.yul\":5601:6209   */\n      pop\n      pop\n      pop\n        /* \"#utility.yul\":5477:6209   */\n      swap3\n      swap2\n      pop\n      pop\n      jump\t// out\n        /* \"#utility.yul\":6215:6588   */\n    tag_47:\n        /* \"#utility.yul\":6358:6362   */\n      0x00\n        /* \"#utility.yul\":6396:6398   */\n      0x20\n        /* \"#utility.yul\":6385:6394   */\n      dup3\n        /* \"#utility.yul\":6381:6399   */\n      add\n        /* \"#utility.yul\":6373:6399   */\n      swap1\n      pop\n        /* \"#utility.yul\":6445:6454   */\n      dup2\n        /* \"#utility.yul\":6439:6443   */\n      dup2\n        /* \"#utility.yul\":6435:6455   */\n      sub\n        /* \"#utility.yul\":6431:6432   */\n      0x00\n        /* \"#utility.yul\":6420:6429   */\n      dup4\n        /* \"#utility.yul\":6416:6433   */\n      add\n        /* \"#utility.yul\":6409:6456   */\n      mstore\n        /* \"#utility.yul\":6473:6581   */\n      tag_406\n        /* \"#utility.yul\":6576:6580   */\n      dup2\n        /* \"#utility.yul\":6567:6573   */\n      dup5\n        /* \"#utility.yul\":6473:6581   */\n      tag_297\n      jump\t// in\n    tag_406:\n        /* \"#utility.yul\":6465:6581   */\n      swap1\n      pop\n        /* \"#utility.yul\":6215:6588   */\n      swap3\n      swap2\n      pop\n      pop\n      jump\t// out\n        /* \"#utility.yul\":6594:7213   */\n    tag_50:\n        /* \"#utility.yul\":6671:6677   */\n      0x00\n        /* \"#utility.yul\":6679:6685   */\n      dup1\n        /* \"#utility.yul\":6687:6693   */\n      0x00\n        /* \"#utility.yul\":6736:6738   */\n      0x60\n        /* \"#utility.yul\":6724:6733   */\n      dup5\n        /* \"#utility.yul\":6715:6722   */\n      dup7\n        /* \"#utility.yul\":6711:6734   */\n      sub\n        /* \"#utility.yul\":6707:6739   */\n      slt\n        /* \"#utility.yul\":6704:6823   */\n      iszero\n      tag_408\n      jumpi\n        /* \"#utility.yul\":6742:6821   */\n      tag_409\n      tag_277\n      jump\t// in\n    tag_409:\n        /* \"#utility.yul\":6704:6823   */\n    tag_408:\n        /* \"#utility.yul\":6862:6863   */\n      0x00\n        /* \"#utility.yul\":6887:6940   */\n      tag_410\n        /* \"#utility.yul\":6932:6939   */\n      dup7\n        /* \"#utility.yul\":6923:6929   */\n      dup3\n        /* \"#utility.yul\":6912:6921   */\n      dup8\n        /* \"#utility.yul\":6908:6930   */\n      add\n        /* \"#utility.yul\":6887:6940   */\n      tag_282\n      jump\t// in\n    tag_410:\n        /* \"#utility.yul\":6877:6940   */\n      swap4\n      pop\n        /* \"#utility.yul\":6833:6950   */\n      pop\n        /* \"#utility.yul\":6989:6991   */\n      0x20\n        /* \"#utility.yul\":7015:7068   */\n      tag_411\n        /* \"#utility.yul\":7060:7067   */\n      dup7\n        /* \"#utility.yul\":7051:7057   */\n      dup3\n        /* \"#utility.yul\":7040:7049   */\n      dup8\n        /* \"#utility.yul\":7036:7058   */\n      add\n        /* \"#utility.yul\":7015:7068   */\n      tag_282\n      jump\t// in\n    tag_411:\n        /* \"#utility.yul\":7005:7068   */\n      swap3\n      pop\n        /* \"#utility.yul\":6960:7078   */\n      pop\n        /* \"#utility.yul\":7117:7119   */\n      0x40\n        /* \"#utility.yul\":7143:7196   */\n      tag_412\n        /* \"#utility.yul\":7188:7195   */\n      dup7\n        /* \"#utility.yul\":7179:7185   */\n      dup3\n        /* \"#utility.yul\":7168:7177   */\n      dup8\n        /* \"#utility.yul\":7164:7186   */\n      add\n        /* \"#utility.yul\":7143:7196   */\n      tag_285\n      jump\t// in\n    tag_412:\n        /* \"#utility.yul\":7133:7196   */\n      swap2\n      pop\n        /* \"#utility.yul\":7088:7206   */\n      pop\n        /* \"#utility.yul\":6594:7213   */\n      swap3\n      pop\n      swap3\n      pop\n      swap3\n      jump\t// out\n        /* \"#utility.yul\":7219:7305   */\n    tag_298:\n        /* \"#utility.yul\":7254:7261   */\n      0x00\n        /* \"#utility.yul\":7294:7298   */\n      0xff\n        /* \"#utility.yul\":7287:7292   */\n      dup3\n        /* \"#utility.yul\":7283:7299   */\n      and\n        /* \"#utility.yul\":7272:7299   */\n      swap1\n      pop\n        /* \"#utility.yul\":7219:7305   */\n      swap2\n      swap1\n      pop\n      jump\t// out\n        /* \"#utility.yul\":7311:7423   */\n    tag_299:\n        /* \"#utility.yul\":7394:7416   */\n      tag_415\n        /* \"#utility.yul\":7410:7415   */\n      dup2\n        /* \"#utility.yul\":7394:7416   */\n      tag_298\n      jump\t// in\n    tag_415:\n        /* \"#utility.yul\":7389:7392   */\n      dup3\n        /* \"#utility.yul\":7382:7417   */\n      mstore\n        /* \"#utility.yul\":7311:7423   */\n      pop\n      pop\n      jump\t// out\n        /* \"#utility.yul\":7429:7643   */\n    tag_56:\n        /* \"#utility.yul\":7518:7522   */\n      0x00\n        /* \"#utility.yul\":7556:7558   */\n      0x20\n        /* \"#utility.yul\":7545:7554   */\n      dup3\n        /* \"#utility.yul\":7541:7559   */\n      add\n        /* \"#utility.yul\":7533:7559   */\n      swap1\n      pop\n        /* \"#utility.yul\":7569:7636   */\n      tag_417\n        /* \"#utility.yul\":7633:7634   */\n      0x00\n        /* \"#utility.yul\":7622:7631   */\n      dup4\n        /* \"#utility.yul\":7618:7635   */\n      add\n        /* \"#utility.yul\":7609:7615   */\n      dup5\n        /* \"#utility.yul\":7569:7636   */\n      tag_299\n      jump\t// in\n    tag_417:\n        /* \"#utility.yul\":7429:7643   */\n      swap3\n      swap2\n      pop\n      pop\n      jump\t// out\n        /* \"#utility.yul\":7649:7978   */\n    tag_69:\n        /* \"#utility.yul\":7708:7714   */\n      0x00\n        /* \"#utility.yul\":7757:7759   */\n      0x20\n        /* \"#utility.yul\":7745:7754   */\n      dup3\n        /* \"#utility.yul\":7736:7743   */\n      dup5\n        /* \"#utility.yul\":7732:7755   */\n      sub\n        /* \"#utility.yul\":7728:7760   */\n      slt\n        /* \"#utility.yul\":7725:7844   */\n      iszero\n      tag_419\n      jumpi\n        /* \"#utility.yul\":7763:7842   */\n      tag_420\n      tag_277\n      jump\t// in\n    tag_420:\n        /* \"#utility.yul\":7725:7844   */\n    tag_419:\n        /* \"#utility.yul\":7883:7884   */\n      0x00\n        /* \"#utility.yul\":7908:7961   */\n      tag_421\n        /* \"#utility.yul\":7953:7960   */\n      dup5\n        /* \"#utility.yul\":7944:7950   */\n      dup3\n        /* \"#utility.yul\":7933:7942   */\n      dup6\n        /* \"#utility.yul\":7929:7951   */\n      add\n        /* \"#utility.yul\":7908:7961   */\n      tag_282\n      jump\t// in\n    tag_421:\n        /* \"#utility.yul\":7898:7961   */\n      swap2\n      pop\n        /* \"#utility.yul\":7854:7971   */\n      pop\n        /* \"#utility.yul\":7649:7978   */\n      swap3\n      swap2\n      pop\n      pop\n      jump\t// out\n        /* \"#utility.yul\":7984:8102   */\n    tag_300:\n        /* \"#utility.yul\":8071:8095   */\n      tag_423\n        /* \"#utility.yul\":8089:8094   */\n      dup2\n        /* \"#utility.yul\":8071:8095   */\n      tag_280\n      jump\t// in\n    tag_423:\n        /* \"#utility.yul\":8066:8069   */\n      dup3\n        /* \"#utility.yul\":8059:8096   */\n      mstore\n        /* \"#utility.yul\":7984:8102   */\n      pop\n      pop\n      jump\t// out\n        /* \"#utility.yul\":8108:8330   */\n    tag_81:\n        /* \"#utility.yul\":8201:8205   */\n      0x00\n        /* \"#utility.yul\":8239:8241   */\n      0x20\n        /* \"#utility.yul\":8228:8237   */\n      dup3\n        /* \"#utility.yul\":8224:8242   */\n      add\n        /* \"#utility.yul\":8216:8242   */\n      swap1\n      pop\n        /* \"#utility.yul\":8252:8323   */\n      tag_425\n        /* \"#utility.yul\":8320:8321   */\n      0x00\n        /* \"#utility.yul\":8309:8318   */\n      dup4\n        /* \"#utility.yul\":8305:8322   */\n      add\n        /* \"#utility.yul\":8296:8302   */\n      dup5\n        /* \"#utility.yul\":8252:8323   */\n      tag_300\n      jump\t// in\n    tag_425:\n        /* \"#utility.yul\":8108:8330   */\n      swap3\n      swap2\n      pop\n      pop\n      jump\t// out\n        /* \"#utility.yul\":8336:8810   */\n    tag_99:\n        /* \"#utility.yul\":8404:8410   */\n      0x00\n        /* \"#utility.yul\":8412:8418   */\n      dup1\n        /* \"#utility.yul\":8461:8463   */\n      0x40\n        /* \"#utility.yul\":8449:8458   */\n      dup4\n        /* \"#utility.yul\":8440:8447   */\n      dup6\n        /* \"#utility.yul\":8436:8459   */\n      sub\n        /* \"#utility.yul\":8432:8464   */\n      slt\n        /* \"#utility.yul\":8429:8548   */\n      iszero\n      tag_427\n      jumpi\n        /* \"#utility.yul\":8467:8546   */\n      tag_428\n      tag_277\n      jump\t// in\n    tag_428:\n        /* \"#utility.yul\":8429:8548   */\n    tag_427:\n        /* \"#utility.yul\":8587:8588   */\n      0x00\n        /* \"#utility.yul\":8612:8665   */\n      tag_429\n        /* \"#utility.yul\":8657:8664   */\n      dup6\n        /* \"#utility.yul\":8648:8654   */\n      dup3\n        /* \"#utility.yul\":8637:8646   */\n      dup7\n        /* \"#utility.yul\":8633:8655   */\n      add\n        /* \"#utility.yul\":8612:8665   */\n      tag_282\n      jump\t// in\n    tag_429:\n        /* \"#utility.yul\":8602:8665   */\n      swap3\n      pop\n        /* \"#utility.yul\":8558:8675   */\n      pop\n        /* \"#utility.yul\":8714:8716   */\n      0x20\n        /* \"#utility.yul\":8740:8793   */\n      tag_430\n        /* \"#utility.yul\":8785:8792   */\n      dup6\n        /* \"#utility.yul\":8776:8782   */\n      dup3\n        /* \"#utility.yul\":8765:8774   */\n      dup7\n        /* \"#utility.yul\":8761:8783   */\n      add\n        /* \"#utility.yul\":8740:8793   */\n      tag_282\n      jump\t// in\n    tag_430:\n        /* \"#utility.yul\":8730:8793   */\n      swap2\n      pop\n        /* \"#utility.yul\":8685:8803   */\n      pop\n        /* \"#utility.yul\":8336:8810   */\n      swap3\n      pop\n      swap3\n      swap1\n      pop\n      jump\t// out\n        /* \"#utility.yul\":8816:8996   */\n    tag_301:\n        /* \"#utility.yul\":8864:8941   */\n      0x4e487b7100000000000000000000000000000000000000000000000000000000\n        /* \"#utility.yul\":8861:8862   */\n      0x00\n        /* \"#utility.yul\":8854:8942   */\n      mstore\n        /* \"#utility.yul\":8961:8965   */\n      0x22\n        /* \"#utility.yul\":8958:8959   */\n      0x04\n        /* \"#utility.yul\":8951:8966   */\n      mstore\n        /* \"#utility.yul\":8985:8989   */\n      0x24\n        /* \"#utility.yul\":8982:8983   */\n      0x00\n        /* \"#utility.yul\":8975:8990   */\n      revert\n        /* \"#utility.yul\":9002:9322   */\n    tag_107:\n        /* \"#utility.yul\":9046:9052   */\n      0x00\n        /* \"#utility.yul\":9083:9084   */\n      0x02\n        /* \"#utility.yul\":9077:9081   */\n      dup3\n        /* \"#utility.yul\":9073:9085   */\n      div\n        /* \"#utility.yul\":9063:9085   */\n      swap1\n      pop\n        /* \"#utility.yul\":9130:9131   */\n      0x01\n        /* \"#utility.yul\":9124:9128   */\n      dup3\n        /* \"#utility.yul\":9120:9132   */\n      and\n        /* \"#utility.yul\":9151:9169   */\n      dup1\n        /* \"#utility.yul\":9141:9222   */\n      tag_433\n      jumpi\n        /* \"#utility.yul\":9207:9211   */\n      0x7f\n        /* \"#utility.yul\":9199:9205   */\n      dup3\n        /* \"#utility.yul\":9195:9212   */\n      and\n        /* \"#utility.yul\":9185:9212   */\n      swap2\n      pop\n        /* \"#utility.yul\":9141:9222   */\n    tag_433:\n        /* \"#utility.yul\":9269:9271   */\n      0x20\n        /* \"#utility.yul\":9261:9267   */\n      dup3\n        /* \"#utility.yul\":9258:9272   */\n      lt\n        /* \"#utility.yul\":9238:9256   */\n      dup2\n        /* \"#utility.yul\":9235:9273   */\n      sub\n        /* \"#utility.yul\":9232:9316   */\n      tag_434\n      jumpi\n        /* \"#utility.yul\":9288:9306   */\n      tag_435\n      tag_301\n      jump\t// in\n    tag_435:\n        /* \"#utility.yul\":9232:9316   */\n    tag_434:\n        /* \"#utility.yul\":9053:9322   */\n      pop\n        /* \"#utility.yul\":9002:9322   */\n      swap2\n      swap1\n      pop\n      jump\t// out\n        /* \"#utility.yul\":9328:9508   */\n    tag_302:\n        /* \"#utility.yul\":9376:9453   */\n      0x4e487b7100000000000000000000000000000000000000000000000000000000\n        /* \"#utility.yul\":9373:9374   */\n      0x00\n        /* \"#utility.yul\":9366:9454   */\n      mstore\n        /* \"#utility.yul\":9473:9477   */\n      0x11\n        /* \"#utility.yul\":9470:9471   */\n      0x04\n        /* \"#utility.yul\":9463:9478   */\n      mstore\n        /* \"#utility.yul\":9497:9501   */\n      0x24\n        /* \"#utility.yul\":9494:9495   */\n      0x00\n        /* \"#utility.yul\":9487:9502   */\n      revert\n        /* \"#utility.yul\":9514:9819   */\n    tag_137:\n        /* \"#utility.yul\":9554:9557   */\n      0x00\n        /* \"#utility.yul\":9573:9593   */\n      tag_438\n        /* \"#utility.yul\":9591:9592   */\n      dup3\n        /* \"#utility.yul\":9573:9593   */\n      tag_283\n      jump\t// in\n    tag_438:\n        /* \"#utility.yul\":9568:9593   */\n      swap2\n      pop\n        /* \"#utility.yul\":9607:9627   */\n      tag_439\n        /* \"#utility.yul\":9625:9626   */\n      dup4\n        /* \"#utility.yul\":9607:9627   */\n      tag_283\n      jump\t// in\n    tag_439:\n        /* \"#utility.yul\":9602:9627   */\n      swap3\n      pop\n        /* \"#utility.yul\":9761:9762   */\n      dup3\n        /* \"#utility.yul\":9693:9759   */\n      0xffffffffffffffffffffffffffffffffffffffffffffffffffffffffffffffff\n        /* \"#utility.yul\":9689:9763   */\n      sub\n        /* \"#utility.yul\":9686:9687   */\n      dup3\n        /* \"#utility.yul\":9683:9764   */\n      gt\n        /* \"#utility.yul\":9680:9787   */\n      iszero\n      tag_440\n      jumpi\n        /* \"#utility.yul\":9767:9785   */\n      tag_441\n      tag_302\n      jump\t// in\n    tag_441:\n        /* \"#utility.yul\":9680:9787   */\n    tag_440:\n        /* \"#utility.yul\":9811:9812   */\n      dup3\n        /* \"#utility.yul\":9808:9809   */\n      dup3\n        /* \"#utility.yul\":9804:9813   */\n      add\n        /* \"#utility.yul\":9797:9813   */\n      swap1\n      pop\n        /* \"#utility.yul\":9514:9819   */\n      swap3\n      swap2\n      pop\n      pop\n      jump\t// out\n        /* \"#utility.yul\":9825:9996   */\n    tag_303:\n        /* \"#utility.yul\":9965:9988   */\n      0x416c726561647920696e20746869732073746174650000000000000000000000\n        /* \"#utility.yul\":9961:9962   */\n      0x00\n        /* \"#utility.yul\":9953:9959   */\n      dup3\n        /* \"#utility.yul\":9949:9963   */\n      add\n        /* \"#utility.yul\":9942:9989   */\n      mstore\n        /* \"#utility.yul\":9825:9996   */\n      pop\n      jump\t// out\n        /* \"#utility.yul\":10002:10368   */\n    tag_304:\n        /* \"#utility.yul\":10144:10147   */\n      0x00\n        /* \"#utility.yul\":10165:10232   */\n      tag_444\n        /* \"#utility.yul\":10229:10231   */\n      0x15\n        /* \"#utility.yul\":10224:10227   */\n      dup4\n        /* \"#utility.yul\":10165:10232   */\n      tag_272\n      jump\t// in\n    tag_444:\n        /* \"#utility.yul\":10158:10232   */\n      swap2\n      pop\n        /* \"#utility.yul\":10241:10334   */\n      tag_445\n        /* \"#utility.yul\":10330:10333   */\n      dup3\n        /* \"#utility.yul\":10241:10334   */\n      tag_303\n      jump\t// in\n    tag_445:\n        /* \"#utility.yul\":10359:10361   */\n      0x20\n        /* \"#utility.yul\":10354:10357   */\n      dup3\n        /* \"#utility.yul\":10350:10362   */\n      add\n        /* \"#utility.yul\":10343:10362   */\n      swap1\n      pop\n        /* \"#utility.yul\":10002:10368   */\n      swap2\n      swap1\n      pop\n      jump\t// out\n        /* \"#utility.yul\":10374:10793   */\n    tag_148:\n        /* \"#utility.yul\":10540:10544   */\n      0x00\n        /* \"#utility.yul\":10578:10580   */\n      0x20\n        /* \"#utility.yul\":10567:10576   */\n      dup3\n        /* \"#utility.yul\":10563:10581   */\n      add\n        /* \"#utility.yul\":10555:10581   */\n      swap1\n      pop\n        /* \"#utility.yul\":10627:10636   */\n      dup2\n        /* \"#utility.yul\":10621:10625   */\n      dup2\n        /* \"#utility.yul\":10617:10637   */\n      sub\n        /* \"#utility.yul\":10613:10614   */\n      0x00\n        /* \"#utility.yul\":10602:10611   */\n      dup4\n        /* \"#utility.yul\":10598:10615   */\n      add\n        /* \"#utility.yul\":10591:10638   */\n      mstore\n        /* \"#utility.yul\":10655:10786   */\n      tag_447\n        /* \"#utility.yul\":10781:10785   */\n      dup2\n        /* \"#utility.yul\":10655:10786   */\n      tag_304\n      jump\t// in\n    tag_447:\n        /* \"#utility.yul\":10647:10786   */\n      swap1\n      pop\n        /* \"#utility.yul\":10374:10793   */\n      swap2\n      swap1\n      pop\n      jump\t// out\n        /* \"#utility.yul\":10799:11119   */\n    tag_150:\n        /* \"#utility.yul\":10914:10918   */\n      0x00\n        /* \"#utility.yul\":10952:10954   */\n      0x40\n        /* \"#utility.yul\":10941:10950   */\n      dup3\n        /* \"#utility.yul\":10937:10955   */\n      add\n        /* \"#utility.yul\":10929:10955   */\n      swap1\n      pop\n        /* \"#utility.yul\":10965:11036   */\n      tag_449\n        /* \"#utility.yul\":11033:11034   */\n      0x00\n        /* \"#utility.yul\":11022:11031   */\n      dup4\n        /* \"#utility.yul\":11018:11035   */\n      add\n        /* \"#utility.yul\":11009:11015   */\n      dup6\n        /* \"#utility.yul\":10965:11036   */\n      tag_300\n      jump\t// in\n    tag_449:\n        /* \"#utility.yul\":11046:11112   */\n      tag_450\n        /* \"#utility.yul\":11108:11110   */\n      0x20\n        /* \"#utility.yul\":11097:11106   */\n      dup4\n        /* \"#utility.yul\":11093:11111   */\n      add\n        /* \"#utility.yul\":11084:11090   */\n      dup5\n        /* \"#utility.yul\":11046:11112   */\n      tag_287\n      jump\t// in\n    tag_450:\n        /* \"#utility.yul\":10799:11119   */\n      swap4\n      swap3\n      pop\n      pop\n      pop\n      jump\t// out\n        /* \"#utility.yul\":11125:11305   */\n    tag_159:\n        /* \"#utility.yul\":11173:11250   */\n      0x4e487b7100000000000000000000000000000000000000000000000000000000\n        /* \"#utility.yul\":11170:11171   */\n      0x00\n        /* \"#utility.yul\":11163:11251   */\n      mstore\n        /* \"#utility.yul\":11270:11274   */\n      0x32\n        /* \"#utility.yul\":11267:11268   */\n      0x04\n        /* \"#utility.yul\":11260:11275   */\n      mstore\n        /* \"#utility.yul\":11294:11298   */\n      0x24\n        /* \"#utility.yul\":11291:11292   */\n      0x00\n        /* \"#utility.yul\":11284:11299   */\n      revert\n        /* \"#utility.yul\":11311:11502   */\n    tag_163:\n        /* \"#utility.yul\":11351:11355   */\n      0x00\n        /* \"#utility.yul\":11371:11391   */\n      tag_453\n        /* \"#utility.yul\":11389:11390   */\n      dup3\n        /* \"#utility.yul\":11371:11391   */\n      tag_283\n      jump\t// in\n    tag_453:\n        /* \"#utility.yul\":11366:11391   */\n      swap2\n      pop\n        /* \"#utility.yul\":11405:11425   */\n      tag_454\n        /* \"#utility.yul\":11423:11424   */\n      dup4\n        /* \"#utility.yul\":11405:11425   */\n      tag_283\n      jump\t// in\n    tag_454:\n        /* \"#utility.yul\":11400:11425   */\n      swap3\n      pop\n        /* \"#utility.yul\":11444:11445   */\n      dup3\n        /* \"#utility.yul\":11441:11442   */\n      dup3\n        /* \"#utility.yul\":11438:11446   */\n      lt\n        /* \"#utility.yul\":11435:11469   */\n      iszero\n      tag_455\n      jumpi\n        /* \"#utility.yul\":11449:11467   */\n      tag_456\n      tag_302\n      jump\t// in\n    tag_456:\n        /* \"#utility.yul\":11435:11469   */\n    tag_455:\n        /* \"#utility.yul\":11494:11495   */\n      dup3\n        /* \"#utility.yul\":11491:11492   */\n      dup3\n        /* \"#utility.yul\":11487:11496   */\n      sub\n        /* \"#utility.yul\":11479:11496   */\n      swap1\n      pop\n        /* \"#utility.yul\":11311:11502   */\n      swap3\n      swap2\n      pop\n      pop\n      jump\t// out\n        /* \"#utility.yul\":11508:11688   */\n    tag_172:\n        /* \"#utility.yul\":11556:11633   */\n      0x4e487b7100000000000000000000000000000000000000000000000000000000\n        /* \"#utility.yul\":11553:11554   */\n      0x00\n        /* \"#utility.yul\":11546:11634   */\n      mstore\n        /* \"#utility.yul\":11653:11657   */\n      0x31\n        /* \"#utility.yul\":11650:11651   */\n      0x04\n        /* \"#utility.yul\":11643:11658   */\n      mstore\n        /* \"#utility.yul\":11677:11681   */\n      0x24\n        /* \"#utility.yul\":11674:11675   */\n      0x00\n        /* \"#utility.yul\":11667:11682   */\n      revert\n        /* \"#utility.yul\":11694:11927   */\n    tag_175:\n        /* \"#utility.yul\":11733:11736   */\n      0x00\n        /* \"#utility.yul\":11756:11780   */\n      tag_459\n        /* \"#utility.yul\":11774:11779   */\n      dup3\n        /* \"#utility.yul\":11756:11780   */\n      tag_283\n      jump\t// in\n    tag_459:\n        /* \"#utility.yul\":11747:11780   */\n      swap2\n      pop\n        /* \"#utility.yul\":11802:11868   */\n      0xffffffffffffffffffffffffffffffffffffffffffffffffffffffffffffffff\n        /* \"#utility.yul\":11795:11800   */\n      dup3\n        /* \"#utility.yul\":11792:11869   */\n      sub\n        /* \"#utility.yul\":11789:11892   */\n      tag_460\n      jumpi\n        /* \"#utility.yul\":11872:11890   */\n      tag_461\n      tag_302\n      jump\t// in\n    tag_461:\n        /* \"#utility.yul\":11789:11892   */\n    tag_460:\n        /* \"#utility.yul\":11919:11920   */\n      0x01\n        /* \"#utility.yul\":11912:11917   */\n      dup3\n        /* \"#utility.yul\":11908:11921   */\n      add\n        /* \"#utility.yul\":11901:11921   */\n      swap1\n      pop\n        /* \"#utility.yul\":11694:11927   */\n      swap2\n      swap1\n      pop\n      jump\t// out\n        /* \"#utility.yul\":11933:12157   */\n    tag_305:\n        /* \"#utility.yul\":12073:12107   */\n      0x45524332303a2064656372656173656420616c6c6f77616e63652062656c6f77\n        /* \"#utility.yul\":12069:12070   */\n      0x00\n        /* \"#utility.yul\":12061:12067   */\n      dup3\n        /* \"#utility.yul\":12057:12071   */\n      add\n        /* \"#utility.yul\":12050:12108   */\n      mstore\n        /* \"#utility.yul\":12142:12149   */\n      0x207a65726f000000000000000000000000000000000000000000000000000000\n        /* \"#utility.yul\":12137:12139   */\n      0x20\n        /* \"#utility.yul\":12129:12135   */\n      dup3\n        /* \"#utility.yul\":12125:12140   */\n      add\n        /* \"#utility.yul\":12118:12150   */\n      mstore\n        /* \"#utility.yul\":11933:12157   */\n      pop\n      jump\t// out\n        /* \"#utility.yul\":12163:12529   */\n    tag_306:\n        /* \"#utility.yul\":12305:12308   */\n      0x00\n        /* \"#utility.yul\":12326:12393   */\n      tag_464\n        /* \"#utility.yul\":12390:12392   */\n      0x25\n        /* \"#utility.yul\":12385:12388   */\n      dup4\n        /* \"#utility.yul\":12326:12393   */\n      tag_272\n      jump\t// in\n    tag_464:\n        /* \"#utility.yul\":12319:12393   */\n      swap2\n      pop\n        /* \"#utility.yul\":12402:12495   */\n      tag_465\n        /* \"#utility.yul\":12491:12494   */\n      dup3\n        /* \"#utility.yul\":12402:12495   */\n      tag_305\n      jump\t// in\n    tag_465:\n        /* \"#utility.yul\":12520:12522   */\n      0x40\n        /* \"#utility.yul\":12515:12518   */\n      dup3\n        /* \"#utility.yul\":12511:12523   */\n      add\n        /* \"#utility.yul\":12504:12523   */\n      swap1\n      pop\n        /* \"#utility.yul\":12163:12529   */\n      swap2\n      swap1\n      pop\n      jump\t// out\n        /* \"#utility.yul\":12535:12954   */\n    tag_194:\n        /* \"#utility.yul\":12701:12705   */\n      0x00\n        /* \"#utility.yul\":12739:12741   */\n      0x20\n        /* \"#utility.yul\":12728:12737   */\n      dup3\n        /* \"#utility.yul\":12724:12742   */\n      add\n        /* \"#utility.yul\":12716:12742   */\n      swap1\n      pop\n        /* \"#utility.yul\":12788:12797   */\n      dup2\n        /* \"#utility.yul\":12782:12786   */\n      dup2\n        /* \"#utility.yul\":12778:12798   */\n      sub\n        /* \"#utility.yul\":12774:12775   */\n      0x00\n        /* \"#utility.yul\":12763:12772   */\n      dup4\n        /* \"#utility.yul\":12759:12776   */\n      add\n        /* \"#utility.yul\":12752:12799   */\n      mstore\n        /* \"#utility.yul\":12816:12947   */\n      tag_467\n        /* \"#utility.yul\":12942:12946   */\n      dup2\n        /* \"#utility.yul\":12816:12947   */\n      tag_306\n      jump\t// in\n    tag_467:\n        /* \"#utility.yul\":12808:12947   */\n      swap1\n      pop\n        /* \"#utility.yul\":12535:12954   */\n      swap2\n      swap1\n      pop\n      jump\t// out\n        /* \"#utility.yul\":12960:13185   */\n    tag_307:\n        /* \"#utility.yul\":13100:13134   */\n      0x4f776e61626c653a206e6577206f776e657220697320746865207a65726f2061\n        /* \"#utility.yul\":13096:13097   */\n      0x00\n        /* \"#utility.yul\":13088:13094   */\n      dup3\n        /* \"#utility.yul\":13084:13098   */\n      add\n        /* \"#utility.yul\":13077:13135   */\n      mstore\n        /* \"#utility.yul\":13169:13177   */\n      0x6464726573730000000000000000000000000000000000000000000000000000\n        /* \"#utility.yul\":13164:13166   */\n      0x20\n        /* \"#utility.yul\":13156:13162   */\n      dup3\n        /* \"#utility.yul\":13152:13167   */\n      add\n        /* \"#utility.yul\":13145:13178   */\n      mstore\n        /* \"#utility.yul\":12960:13185   */\n      pop\n      jump\t// out\n        /* \"#utility.yul\":13191:13557   */\n    tag_308:\n        /* \"#utility.yul\":13333:13336   */\n      0x00\n        /* \"#utility.yul\":13354:13421   */\n      tag_470\n        /* \"#utility.yul\":13418:13420   */\n      0x26\n        /* \"#utility.yul\":13413:13416   */\n      dup4\n        /* \"#utility.yul\":13354:13421   */\n      tag_272\n      jump\t// in\n    tag_470:\n        /* \"#utility.yul\":13347:13421   */\n      swap2\n      pop\n        /* \"#utility.yul\":13430:13523   */\n      tag_471\n        /* \"#utility.yul\":13519:13522   */\n      dup3\n        /* \"#utility.yul\":13430:13523   */\n      tag_307\n      jump\t// in\n    tag_471:\n        /* \"#utility.yul\":13548:13550   */\n      0x40\n        /* \"#utility.yul\":13543:13546   */\n      dup3\n        /* \"#utility.yul\":13539:13551   */\n      add\n        /* \"#utility.yul\":13532:13551   */\n      swap1\n      pop\n        /* \"#utility.yul\":13191:13557   */\n      swap2\n      swap1\n      pop\n      jump\t// out\n        /* \"#utility.yul\":13563:13982   */\n    tag_205:\n        /* \"#utility.yul\":13729:13733   */\n      0x00\n        /* \"#utility.yul\":13767:13769   */\n      0x20\n        /* \"#utility.yul\":13756:13765   */\n      dup3\n        /* \"#utility.yul\":13752:13770   */\n      add\n        /* \"#utility.yul\":13744:13770   */\n      swap1\n      pop\n        /* \"#utility.yul\":13816:13825   */\n      dup2\n        /* \"#utility.yul\":13810:13814   */\n      dup2\n        /* \"#utility.yul\":13806:13826   */\n      sub\n        /* \"#utility.yul\":13802:13803   */\n      0x00\n        /* \"#utility.yul\":13791:13800   */\n      dup4\n        /* \"#utility.yul\":13787:13804   */\n      add\n        /* \"#utility.yul\":13780:13827   */\n      mstore\n        /* \"#utility.yul\":13844:13975   */\n      tag_473\n        /* \"#utility.yul\":13970:13974   */\n      dup2\n        /* \"#utility.yul\":13844:13975   */\n      tag_308\n      jump\t// in\n    tag_473:\n        /* \"#utility.yul\":13836:13975   */\n      swap1\n      pop\n        /* \"#utility.yul\":13563:13982   */\n      swap2\n      swap1\n      pop\n      jump\t// out\n        /* \"#utility.yul\":13988:14211   */\n    tag_309:\n        /* \"#utility.yul\":14128:14162   */\n      0x45524332303a20617070726f76652066726f6d20746865207a65726f20616464\n        /* \"#utility.yul\":14124:14125   */\n      0x00\n        /* \"#utility.yul\":14116:14122   */\n      dup3\n        /* \"#utility.yul\":14112:14126   */\n      add\n        /* \"#utility.yul\":14105:14163   */\n      mstore\n        /* \"#utility.yul\":14197:14203   */\n      0x7265737300000000000000000000000000000000000000000000000000000000\n        /* \"#utility.yul\":14192:14194   */\n      0x20\n        /* \"#utility.yul\":14184:14190   */\n      dup3\n        /* \"#utility.yul\":14180:14195   */\n      add\n        /* \"#utility.yul\":14173:14204   */\n      mstore\n        /* \"#utility.yul\":13988:14211   */\n      pop\n      jump\t// out\n        /* \"#utility.yul\":14217:14583   */\n    tag_310:\n        /* \"#utility.yul\":14359:14362   */\n      0x00\n        /* \"#utility.yul\":14380:14447   */\n      tag_476\n        /* \"#utility.yul\":14444:14446   */\n      0x24\n        /* \"#utility.yul\":14439:14442   */\n      dup4\n        /* \"#utility.yul\":14380:14447   */\n      tag_272\n      jump\t// in\n    tag_476:\n        /* \"#utility.yul\":14373:14447   */\n      swap2\n      pop\n        /* \"#utility.yul\":14456:14549   */\n      tag_477\n        /* \"#utility.yul\":14545:14548   */\n      dup3\n        /* \"#utility.yul\":14456:14549   */\n      tag_309\n      jump\t// in\n    tag_477:\n        /* \"#utility.yul\":14574:14576   */\n      0x40\n        /* \"#utility.yul\":14569:14572   */\n      dup3\n        /* \"#utility.yul\":14565:14577   */\n      add\n        /* \"#utility.yul\":14558:14577   */\n      swap1\n      pop\n        /* \"#utility.yul\":14217:14583   */\n      swap2\n      swap1\n      pop\n      jump\t// out\n        /* \"#utility.yul\":14589:15008   */\n    tag_211:\n        /* \"#utility.yul\":14755:14759   */\n      0x00\n        /* \"#utility.yul\":14793:14795   */\n      0x20\n        /* \"#utility.yul\":14782:14791   */\n      dup3\n        /* \"#utility.yul\":14778:14796   */\n      add\n        /* \"#utility.yul\":14770:14796   */\n      swap1\n      pop\n        /* \"#utility.yul\":14842:14851   */\n      dup2\n        /* \"#utility.yul\":14836:14840   */\n      dup2\n        /* \"#utility.yul\":14832:14852   */\n      sub\n        /* \"#utility.yul\":14828:14829   */\n      0x00\n        /* \"#utility.yul\":14817:14826   */\n      dup4\n        /* \"#utility.yul\":14813:14830   */\n      add\n        /* \"#utility.yul\":14806:14853   */\n      mstore\n        /* \"#utility.yul\":14870:15001   */\n      tag_479\n        /* \"#utility.yul\":14996:15000   */\n      dup2\n        /* \"#utility.yul\":14870:15001   */\n      tag_310\n      jump\t// in\n    tag_479:\n        /* \"#utility.yul\":14862:15001   */\n      swap1\n      pop\n        /* \"#utility.yul\":14589:15008   */\n      swap2\n      swap1\n      pop\n      jump\t// out\n        /* \"#utility.yul\":15014:15235   */\n    tag_311:\n        /* \"#utility.yul\":15154:15188   */\n      0x45524332303a20617070726f766520746f20746865207a65726f206164647265\n        /* \"#utility.yul\":15150:15151   */\n      0x00\n        /* \"#utility.yul\":15142:15148   */\n      dup3\n        /* \"#utility.yul\":15138:15152   */\n      add\n        /* \"#utility.yul\":15131:15189   */\n      mstore\n        /* \"#utility.yul\":15223:15227   */\n      0x7373000000000000000000000000000000000000000000000000000000000000\n        /* \"#utility.yul\":15218:15220   */\n      0x20\n        /* \"#utility.yul\":15210:15216   */\n      dup3\n        /* \"#utility.yul\":15206:15221   */\n      add\n        /* \"#utility.yul\":15199:15228   */\n      mstore\n        /* \"#utility.yul\":15014:15235   */\n      pop\n      jump\t// out\n        /* \"#utility.yul\":15241:15607   */\n    tag_312:\n        /* \"#utility.yul\":15383:15386   */\n      0x00\n        /* \"#utility.yul\":15404:15471   */\n      tag_482\n        /* \"#utility.yul\":15468:15470   */\n      0x22\n        /* \"#utility.yul\":15463:15466   */\n      dup4\n        /* \"#utility.yul\":15404:15471   */\n      tag_272\n      jump\t// in\n    tag_482:\n        /* \"#utility.yul\":15397:15471   */\n      swap2\n      pop\n        /* \"#utility.yul\":15480:15573   */\n      tag_483\n        /* \"#utility.yul\":15569:15572   */\n      dup3\n        /* \"#utility.yul\":15480:15573   */\n      tag_311\n      jump\t// in\n    tag_483:\n        /* \"#utility.yul\":15598:15600   */\n      0x40\n        /* \"#utility.yul\":15593:15596   */\n      dup3\n        /* \"#utility.yul\":15589:15601   */\n      add\n        /* \"#utility.yul\":15582:15601   */\n      swap1\n      pop\n        /* \"#utility.yul\":15241:15607   */\n      swap2\n      swap1\n      pop\n      jump\t// out\n        /* \"#utility.yul\":15613:16032   */\n    tag_214:\n        /* \"#utility.yul\":15779:15783   */\n      0x00\n        /* \"#utility.yul\":15817:15819   */\n      0x20\n        /* \"#utility.yul\":15806:15815   */\n      dup3\n        /* \"#utility.yul\":15802:15820   */\n      add\n        /* \"#utility.yul\":15794:15820   */\n      swap1\n      pop\n        /* \"#utility.yul\":15866:15875   */\n      dup2\n        /* \"#utility.yul\":15860:15864   */\n      dup2\n        /* \"#utility.yul\":15856:15876   */\n      sub\n        /* \"#utility.yul\":15852:15853   */\n      0x00\n        /* \"#utility.yul\":15841:15850   */\n      dup4\n        /* \"#utility.yul\":15837:15854   */\n      add\n        /* \"#utility.yul\":15830:15877   */\n      mstore\n        /* \"#utility.yul\":15894:16025   */\n      tag_485\n        /* \"#utility.yul\":16020:16024   */\n      dup2\n        /* \"#utility.yul\":15894:16025   */\n      tag_312\n      jump\t// in\n    tag_485:\n        /* \"#utility.yul\":15886:16025   */\n      swap1\n      pop\n        /* \"#utility.yul\":15613:16032   */\n      swap2\n      swap1\n      pop\n      jump\t// out\n        /* \"#utility.yul\":16038:16220   */\n    tag_313:\n        /* \"#utility.yul\":16178:16212   */\n      0x4f776e61626c653a2063616c6c6572206973206e6f7420746865206f776e6572\n        /* \"#utility.yul\":16174:16175   */\n      0x00\n        /* \"#utility.yul\":16166:16172   */\n      dup3\n        /* \"#utility.yul\":16162:16176   */\n      add\n        /* \"#utility.yul\":16155:16213   */\n      mstore\n        /* \"#utility.yul\":16038:16220   */\n      pop\n      jump\t// out\n        /* \"#utility.yul\":16226:16592   */\n    tag_314:\n        /* \"#utility.yul\":16368:16371   */\n      0x00\n        /* \"#utility.yul\":16389:16456   */\n      tag_488\n        /* \"#utility.yul\":16453:16455   */\n      0x20\n        /* \"#utility.yul\":16448:16451   */\n      dup4\n        /* \"#utility.yul\":16389:16456   */\n      tag_272\n      jump\t// in\n    tag_488:\n        /* \"#utility.yul\":16382:16456   */\n      swap2\n      pop\n        /* \"#utility.yul\":16465:16558   */\n      tag_489\n        /* \"#utility.yul\":16554:16557   */\n      dup3\n        /* \"#utility.yul\":16465:16558   */\n      tag_313\n      jump\t// in\n    tag_489:\n        /* \"#utility.yul\":16583:16585   */\n      0x20\n        /* \"#utility.yul\":16578:16581   */\n      dup3\n        /* \"#utility.yul\":16574:16586   */\n      add\n        /* \"#utility.yul\":16567:16586   */\n      swap1\n      pop\n        /* \"#utility.yul\":16226:16592   */\n      swap2\n      swap1\n      pop\n      jump\t// out\n        /* \"#utility.yul\":16598:17017   */\n    tag_221:\n        /* \"#utility.yul\":16764:16768   */\n      0x00\n        /* \"#utility.yul\":16802:16804   */\n      0x20\n        /* \"#utility.yul\":16791:16800   */\n      dup3\n        /* \"#utility.yul\":16787:16805   */\n      add\n        /* \"#utility.yul\":16779:16805   */\n      swap1\n      pop\n        /* \"#utility.yul\":16851:16860   */\n      dup2\n        /* \"#utility.yul\":16845:16849   */\n      dup2\n        /* \"#utility.yul\":16841:16861   */\n      sub\n        /* \"#utility.yul\":16837:16838   */\n      0x00\n        /* \"#utility.yul\":16826:16835   */\n      dup4\n        /* \"#utility.yul\":16822:16839   */\n      add\n        /* \"#utility.yul\":16815:16862   */\n      mstore\n        /* \"#utility.yul\":16879:17010   */\n      tag_491\n        /* \"#utility.yul\":17005:17009   */\n      dup2\n        /* \"#utility.yul\":16879:17010   */\n      tag_314\n      jump\t// in\n    tag_491:\n        /* \"#utility.yul\":16871:17010   */\n      swap1\n      pop\n        /* \"#utility.yul\":16598:17017   */\n      swap2\n      swap1\n      pop\n      jump\t// out\n        /* \"#utility.yul\":17023:17202   */\n    tag_315:\n        /* \"#utility.yul\":17163:17194   */\n      0x45524332303a20696e73756666696369656e7420616c6c6f77616e6365000000\n        /* \"#utility.yul\":17159:17160   */\n      0x00\n        /* \"#utility.yul\":17151:17157   */\n      dup3\n        /* \"#utility.yul\":17147:17161   */\n      add\n        /* \"#utility.yul\":17140:17195   */\n      mstore\n        /* \"#utility.yul\":17023:17202   */\n      pop\n      jump\t// out\n        /* \"#utility.yul\":17208:17574   */\n    tag_316:\n        /* \"#utility.yul\":17350:17353   */\n      0x00\n        /* \"#utility.yul\":17371:17438   */\n      tag_494\n        /* \"#utility.yul\":17435:17437   */\n      0x1d\n        /* \"#utility.yul\":17430:17433   */\n      dup4\n        /* \"#utility.yul\":17371:17438   */\n      tag_272\n      jump\t// in\n    tag_494:\n        /* \"#utility.yul\":17364:17438   */\n      swap2\n      pop\n        /* \"#utility.yul\":17447:17540   */\n      tag_495\n        /* \"#utility.yul\":17536:17539   */\n      dup3\n        /* \"#utility.yul\":17447:17540   */\n      tag_315\n      jump\t// in\n    tag_495:\n        /* \"#utility.yul\":17565:17567   */\n      0x20\n        /* \"#utility.yul\":17560:17563   */\n      dup3\n        /* \"#utility.yul\":17556:17568   */\n      add\n        /* \"#utility.yul\":17549:17568   */\n      swap1\n      pop\n        /* \"#utility.yul\":17208:17574   */\n      swap2\n      swap1\n      pop\n      jump\t// out\n        /* \"#utility.yul\":17580:17999   */\n    tag_227:\n        /* \"#utility.yul\":17746:17750   */\n      0x00\n        /* \"#utility.yul\":17784:17786   */\n      0x20\n        /* \"#utility.yul\":17773:17782   */\n      dup3\n        /* \"#utility.yul\":17769:17787   */\n      add\n        /* \"#utility.yul\":17761:17787   */\n      swap1\n      pop\n        /* \"#utility.yul\":17833:17842   */\n      dup2\n        /* \"#utility.yul\":17827:17831   */\n      dup2\n        /* \"#utility.yul\":17823:17843   */\n      sub\n        /* \"#utility.yul\":17819:17820   */\n      0x00\n        /* \"#utility.yul\":17808:17817   */\n      dup4\n        /* \"#utility.yul\":17804:17821   */\n      add\n        /* \"#utility.yul\":17797:17844   */\n      mstore\n        /* \"#utility.yul\":17861:17992   */\n      tag_497\n        /* \"#utility.yul\":17987:17991   */\n      dup2\n        /* \"#utility.yul\":17861:17992   */\n      tag_316\n      jump\t// in\n    tag_497:\n        /* \"#utility.yul\":17853:17992   */\n      swap1\n      pop\n        /* \"#utility.yul\":17580:17999   */\n      swap2\n      swap1\n      pop\n      jump\t// out\n        /* \"#utility.yul\":18005:18181   */\n    tag_317:\n        /* \"#utility.yul\":18145:18173   */\n      0x53656e646572206973207472616e73666572206c696d69746564000000000000\n        /* \"#utility.yul\":18141:18142   */\n      0x00\n        /* \"#utility.yul\":18133:18139   */\n      dup3\n        /* \"#utility.yul\":18129:18143   */\n      add\n        /* \"#utility.yul\":18122:18174   */\n      mstore\n        /* \"#utility.yul\":18005:18181   */\n      pop\n      jump\t// out\n        /* \"#utility.yul\":18187:18553   */\n    tag_318:\n        /* \"#utility.yul\":18329:18332   */\n      0x00\n        /* \"#utility.yul\":18350:18417   */\n      tag_500\n        /* \"#utility.yul\":18414:18416   */\n      0x1a\n        /* \"#utility.yul\":18409:18412   */\n      dup4\n        /* \"#utility.yul\":18350:18417   */\n      tag_272\n      jump\t// in\n    tag_500:\n        /* \"#utility.yul\":18343:18417   */\n      swap2\n      pop\n        /* \"#utility.yul\":18426:18519   */\n      tag_501\n        /* \"#utility.yul\":18515:18518   */\n      dup3\n        /* \"#utility.yul\":18426:18519   */\n      tag_317\n      jump\t// in\n    tag_501:\n        /* \"#utility.yul\":18544:18546   */\n      0x20\n        /* \"#utility.yul\":18539:18542   */\n      dup3\n        /* \"#utility.yul\":18535:18547   */\n      add\n        /* \"#utility.yul\":18528:18547   */\n      swap1\n      pop\n        /* \"#utility.yul\":18187:18553   */\n      swap2\n      swap1\n      pop\n      jump\t// out\n        /* \"#utility.yul\":18559:18978   */\n    tag_232:\n        /* \"#utility.yul\":18725:18729   */\n      0x00\n        /* \"#utility.yul\":18763:18765   */\n      0x20\n        /* \"#utility.yul\":18752:18761   */\n      dup3\n        /* \"#utility.yul\":18748:18766   */\n      add\n        /* \"#utility.yul\":18740:18766   */\n      swap1\n      pop\n        /* \"#utility.yul\":18812:18821   */\n      dup2\n        /* \"#utility.yul\":18806:18810   */\n      dup2\n        /* \"#utility.yul\":18802:18822   */\n      sub\n        /* \"#utility.yul\":18798:18799   */\n      0x00\n        /* \"#utility.yul\":18787:18796   */\n      dup4\n        /* \"#utility.yul\":18783:18800   */\n      add\n        /* \"#utility.yul\":18776:18823   */\n      mstore\n        /* \"#utility.yul\":18840:18971   */\n      tag_503\n        /* \"#utility.yul\":18966:18970   */\n      dup2\n        /* \"#utility.yul\":18840:18971   */\n      tag_318\n      jump\t// in\n    tag_503:\n        /* \"#utility.yul\":18832:18971   */\n      swap1\n      pop\n        /* \"#utility.yul\":18559:18978   */\n      swap2\n      swap1\n      pop\n      jump\t// out\n        /* \"#utility.yul\":18984:19163   */\n    tag_319:\n        /* \"#utility.yul\":19124:19155   */\n      0x526563697069656e74206973207472616e73666572206c696d69746564000000\n        /* \"#utility.yul\":19120:19121   */\n      0x00\n        /* \"#utility.yul\":19112:19118   */\n      dup3\n        /* \"#utility.yul\":19108:19122   */\n      add\n        /* \"#utility.yul\":19101:19156   */\n      mstore\n        /* \"#utility.yul\":18984:19163   */\n      pop\n      jump\t// out\n        /* \"#utility.yul\":19169:19535   */\n    tag_320:\n        /* \"#utility.yul\":19311:19314   */\n      0x00\n        /* \"#utility.yul\":19332:19399   */\n      tag_506\n        /* \"#utility.yul\":19396:19398   */\n      0x1d\n        /* \"#utility.yul\":19391:19394   */\n      dup4\n        /* \"#utility.yul\":19332:19399   */\n      tag_272\n      jump\t// in\n    tag_506:\n        /* \"#utility.yul\":19325:19399   */\n      swap2\n      pop\n        /* \"#utility.yul\":19408:19501   */\n      tag_507\n        /* \"#utility.yul\":19497:19500   */\n      dup3\n        /* \"#utility.yul\":19408:19501   */\n      tag_319\n      jump\t// in\n    tag_507:\n        /* \"#utility.yul\":19526:19528   */\n      0x20\n        /* \"#utility.yul\":19521:19524   */\n      dup3\n        /* \"#utility.yul\":19517:19529   */\n      add\n        /* \"#utility.yul\":19510:19529   */\n      swap1\n      pop\n        /* \"#utility.yul\":19169:19535   */\n      swap2\n      swap1\n      pop\n      jump\t// out\n        /* \"#utility.yul\":19541:19960   */\n    tag_235:\n        /* \"#utility.yul\":19707:19711   */\n      0x00\n        /* \"#utility.yul\":19745:19747   */\n      0x20\n        /* \"#utility.yul\":19734:19743   */\n      dup3\n        /* \"#utility.yul\":19730:19748   */\n      add\n        /* \"#utility.yul\":19722:19748   */\n      swap1\n      pop\n        /* \"#utility.yul\":19794:19803   */\n      dup2\n        /* \"#utility.yul\":19788:19792   */\n      dup2\n        /* \"#utility.yul\":19784:19804   */\n      sub\n        /* \"#utility.yul\":19780:19781   */\n      0x00\n        /* \"#utility.yul\":19769:19778   */\n      dup4\n        /* \"#utility.yul\":19765:19782   */\n      add\n        /* \"#utility.yul\":19758:19805   */\n      mstore\n        /* \"#utility.yul\":19822:19953   */\n      tag_509\n        /* \"#utility.yul\":19948:19952   */\n      dup2\n        /* \"#utility.yul\":19822:19953   */\n      tag_320\n      jump\t// in\n    tag_509:\n        /* \"#utility.yul\":19814:19953   */\n      swap1\n      pop\n        /* \"#utility.yul\":19541:19960   */\n      swap2\n      swap1\n      pop\n      jump\t// out\n        /* \"#utility.yul\":19966:20137   */\n    tag_321:\n        /* \"#utility.yul\":20106:20129   */\n      0x526563697069656e7420697320414d4d20706169720000000000000000000000\n        /* \"#utility.yul\":20102:20103   */\n      0x00\n        /* \"#utility.yul\":20094:20100   */\n      dup3\n        /* \"#utility.yul\":20090:20104   */\n      add\n        /* \"#utility.yul\":20083:20130   */\n      mstore\n        /* \"#utility.yul\":19966:20137   */\n      pop\n      jump\t// out\n        /* \"#utility.yul\":20143:20509   */\n    tag_322:\n        /* \"#utility.yul\":20285:20288   */\n      0x00\n        /* \"#utility.yul\":20306:20373   */\n      tag_512\n        /* \"#utility.yul\":20370:20372   */\n      0x15\n        /* \"#utility.yul\":20365:20368   */\n      dup4\n        /* \"#utility.yul\":20306:20373   */\n      tag_272\n      jump\t// in\n    tag_512:\n        /* \"#utility.yul\":20299:20373   */\n      swap2\n      pop\n        /* \"#utility.yul\":20382:20475   */\n      tag_513\n        /* \"#utility.yul\":20471:20474   */\n      dup3\n        /* \"#utility.yul\":20382:20475   */\n      tag_321\n      jump\t// in\n    tag_513:\n        /* \"#utility.yul\":20500:20502   */\n      0x20\n        /* \"#utility.yul\":20495:20498   */\n      dup3\n        /* \"#utility.yul\":20491:20503   */\n      add\n        /* \"#utility.yul\":20484:20503   */\n      swap1\n      pop\n        /* \"#utility.yul\":20143:20509   */\n      swap2\n      swap1\n      pop\n      jump\t// out\n        /* \"#utility.yul\":20515:20934   */\n    tag_240:\n        /* \"#utility.yul\":20681:20685   */\n      0x00\n        /* \"#utility.yul\":20719:20721   */\n      0x20\n        /* \"#utility.yul\":20708:20717   */\n      dup3\n        /* \"#utility.yul\":20704:20722   */\n      add\n        /* \"#utility.yul\":20696:20722   */\n      swap1\n      pop\n        /* \"#utility.yul\":20768:20777   */\n      dup2\n        /* \"#utility.yul\":20762:20766   */\n      dup2\n        /* \"#utility.yul\":20758:20778   */\n      sub\n        /* \"#utility.yul\":20754:20755   */\n      0x00\n        /* \"#utility.yul\":20743:20752   */\n      dup4\n        /* \"#utility.yul\":20739:20756   */\n      add\n        /* \"#utility.yul\":20732:20779   */\n      mstore\n        /* \"#utility.yul\":20796:20927   */\n      tag_515\n        /* \"#utility.yul\":20922:20926   */\n      dup2\n        /* \"#utility.yul\":20796:20927   */\n      tag_322\n      jump\t// in\n    tag_515:\n        /* \"#utility.yul\":20788:20927   */\n      swap1\n      pop\n        /* \"#utility.yul\":20515:20934   */\n      swap2\n      swap1\n      pop\n      jump\t// out\n        /* \"#utility.yul\":20940:21121   */\n    tag_323:\n        /* \"#utility.yul\":21080:21113   */\n      0x45524332303a206d696e7420746f20746865207a65726f206164647265737300\n        /* \"#utility.yul\":21076:21077   */\n      0x00\n        /* \"#utility.yul\":21068:21074   */\n      dup3\n        /* \"#utility.yul\":21064:21078   */\n      add\n        /* \"#utility.yul\":21057:21114   */\n      mstore\n        /* \"#utility.yul\":20940:21121   */\n      pop\n      jump\t// out\n        /* \"#utility.yul\":21127:21493   */\n    tag_324:\n        /* \"#utility.yul\":21269:21272   */\n      0x00\n        /* \"#utility.yul\":21290:21357   */\n      tag_518\n        /* \"#utility.yul\":21354:21356   */\n      0x1f\n        /* \"#utility.yul\":21349:21352   */\n      dup4\n        /* \"#utility.yul\":21290:21357   */\n      tag_272\n      jump\t// in\n    tag_518:\n        /* \"#utility.yul\":21283:21357   */\n      swap2\n      pop\n        /* \"#utility.yul\":21366:21459   */\n      tag_519\n        /* \"#utility.yul\":21455:21458   */\n      dup3\n        /* \"#utility.yul\":21366:21459   */\n      tag_323\n      jump\t// in\n    tag_519:\n        /* \"#utility.yul\":21484:21486   */\n      0x20\n        /* \"#utility.yul\":21479:21482   */\n      dup3\n        /* \"#utility.yul\":21475:21487   */\n      add\n        /* \"#utility.yul\":21468:21487   */\n      swap1\n      pop\n        /* \"#utility.yul\":21127:21493   */\n      swap2\n      swap1\n      pop\n      jump\t// out\n        /* \"#utility.yul\":21499:21918   */\n    tag_246:\n        /* \"#utility.yul\":21665:21669   */\n      0x00\n        /* \"#utility.yul\":21703:21705   */\n      0x20\n        /* \"#utility.yul\":21692:21701   */\n      dup3\n        /* \"#utility.yul\":21688:21706   */\n      add\n        /* \"#utility.yul\":21680:21706   */\n      swap1\n      pop\n        /* \"#utility.yul\":21752:21761   */\n      dup2\n        /* \"#utility.yul\":21746:21750   */\n      dup2\n        /* \"#utility.yul\":21742:21762   */\n      sub\n        /* \"#utility.yul\":21738:21739   */\n      0x00\n        /* \"#utility.yul\":21727:21736   */\n      dup4\n        /* \"#utility.yul\":21723:21740   */\n      add\n        /* \"#utility.yul\":21716:21763   */\n      mstore\n        /* \"#utility.yul\":21780:21911   */\n      tag_521\n        /* \"#utility.yul\":21906:21910   */\n      dup2\n        /* \"#utility.yul\":21780:21911   */\n      tag_324\n      jump\t// in\n    tag_521:\n        /* \"#utility.yul\":21772:21911   */\n      swap1\n      pop\n        /* \"#utility.yul\":21499:21918   */\n      swap2\n      swap1\n      pop\n      jump\t// out\n        /* \"#utility.yul\":21924:22148   */\n    tag_325:\n        /* \"#utility.yul\":22064:22098   */\n      0x45524332303a207472616e736665722066726f6d20746865207a65726f206164\n        /* \"#utility.yul\":22060:22061   */\n      0x00\n        /* \"#utility.yul\":22052:22058   */\n      dup3\n        /* \"#utility.yul\":22048:22062   */\n      add\n        /* \"#utility.yul\":22041:22099   */\n      mstore\n        /* \"#utility.yul\":22133:22140   */\n      0x6472657373000000000000000000000000000000000000000000000000000000\n        /* \"#utility.yul\":22128:22130   */\n      0x20\n        /* \"#utility.yul\":22120:22126   */\n      dup3\n        /* \"#utility.yul\":22116:22131   */\n      add\n        /* \"#utility.yul\":22109:22141   */\n      mstore\n        /* \"#utility.yul\":21924:22148   */\n      pop\n      jump\t// out\n        /* \"#utility.yul\":22154:22520   */\n    tag_326:\n        /* \"#utility.yul\":22296:22299   */\n      0x00\n        /* \"#utility.yul\":22317:22384   */\n      tag_524\n        /* \"#utility.yul\":22381:22383   */\n      0x25\n        /* \"#utility.yul\":22376:22379   */\n      dup4\n        /* \"#utility.yul\":22317:22384   */\n      tag_272\n      jump\t// in\n    tag_524:\n        /* \"#utility.yul\":22310:22384   */\n      swap2\n      pop\n        /* \"#utility.yul\":22393:22486   */\n      tag_525\n        /* \"#utility.yul\":22482:22485   */\n      dup3\n        /* \"#utility.yul\":22393:22486   */\n      tag_325\n      jump\t// in\n    tag_525:\n        /* \"#utility.yul\":22511:22513   */\n      0x40\n        /* \"#utility.yul\":22506:22509   */\n      dup3\n        /* \"#utility.yul\":22502:22514   */\n      add\n        /* \"#utility.yul\":22495:22514   */\n      swap1\n      pop\n        /* \"#utility.yul\":22154:22520   */\n      swap2\n      swap1\n      pop\n      jump\t// out\n        /* \"#utility.yul\":22526:22945   */\n    tag_258:\n        /* \"#utility.yul\":22692:22696   */\n      0x00\n        /* \"#utility.yul\":22730:22732   */\n      0x20\n        /* \"#utility.yul\":22719:22728   */\n      dup3\n        /* \"#utility.yul\":22715:22733   */\n      add\n        /* \"#utility.yul\":22707:22733   */\n      swap1\n      pop\n        /* \"#utility.yul\":22779:22788   */\n      dup2\n        /* \"#utility.yul\":22773:22777   */\n      dup2\n        /* \"#utility.yul\":22769:22789   */\n      sub\n        /* \"#utility.yul\":22765:22766   */\n      0x00\n        /* \"#utility.yul\":22754:22763   */\n      dup4\n        /* \"#utility.yul\":22750:22767   */\n      add\n        /* \"#utility.yul\":22743:22790   */\n      mstore\n        /* \"#utility.yul\":22807:22938   */\n      tag_527\n        /* \"#utility.yul\":22933:22937   */\n      dup2\n        /* \"#utility.yul\":22807:22938   */\n      tag_326\n      jump\t// in\n    tag_527:\n        /* \"#utility.yul\":22799:22938   */\n      swap1\n      pop\n        /* \"#utility.yul\":22526:22945   */\n      swap2\n      swap1\n      pop\n      jump\t// out\n        /* \"#utility.yul\":22951:23173   */\n    tag_327:\n        /* \"#utility.yul\":23091:23125   */\n      0x45524332303a207472616e7366657220746f20746865207a65726f2061646472\n        /* \"#utility.yul\":23087:23088   */\n      0x00\n        /* \"#utility.yul\":23079:23085   */\n      dup3\n        /* \"#utility.yul\":23075:23089   */\n      add\n        /* \"#utility.yul\":23068:23126   */\n      mstore\n        /* \"#utility.yul\":23160:23165   */\n      0x6573730000000000000000000000000000000000000000000000000000000000\n        /* \"#utility.yul\":23155:23157   */\n      0x20\n        /* \"#utility.yul\":23147:23153   */\n      dup3\n        /* \"#utility.yul\":23143:23158   */\n      add\n        /* \"#utility.yul\":23136:23166   */\n      mstore\n        /* \"#utility.yul\":22951:23173   */\n      pop\n      jump\t// out\n        /* \"#utility.yul\":23179:23545   */\n    tag_328:\n        /* \"#utility.yul\":23321:23324   */\n      0x00\n        /* \"#utility.yul\":23342:23409   */\n      tag_530\n        /* \"#utility.yul\":23406:23408   */\n      0x23\n        /* \"#utility.yul\":23401:23404   */\n      dup4\n        /* \"#utility.yul\":23342:23409   */\n      tag_272\n      jump\t// in\n    tag_530:\n        /* \"#utility.yul\":23335:23409   */\n      swap2\n      pop\n        /* \"#utility.yul\":23418:23511   */\n      tag_531\n        /* \"#utility.yul\":23507:23510   */\n      dup3\n        /* \"#utility.yul\":23418:23511   */\n      tag_327\n      jump\t// in\n    tag_531:\n        /* \"#utility.yul\":23536:23538   */\n      0x40\n        /* \"#utility.yul\":23531:23534   */\n      dup3\n        /* \"#utility.yul\":23527:23539   */\n      add\n        /* \"#utility.yul\":23520:23539   */\n      swap1\n      pop\n        /* \"#utility.yul\":23179:23545   */\n      swap2\n      swap1\n      pop\n      jump\t// out\n        /* \"#utility.yul\":23551:23970   */\n    tag_261:\n        /* \"#utility.yul\":23717:23721   */\n      0x00\n        /* \"#utility.yul\":23755:23757   */\n      0x20\n        /* \"#utility.yul\":23744:23753   */\n      dup3\n        /* \"#utility.yul\":23740:23758   */\n      add\n        /* \"#utility.yul\":23732:23758   */\n      swap1\n      pop\n        /* \"#utility.yul\":23804:23813   */\n      dup2\n        /* \"#utility.yul\":23798:23802   */\n      dup2\n        /* \"#utility.yul\":23794:23814   */\n      sub\n        /* \"#utility.yul\":23790:23791   */\n      0x00\n        /* \"#utility.yul\":23779:23788   */\n      dup4\n        /* \"#utility.yul\":23775:23792   */\n      add\n        /* \"#utility.yul\":23768:23815   */\n      mstore\n        /* \"#utility.yul\":23832:23963   */\n      tag_533\n        /* \"#utility.yul\":23958:23962   */\n      dup2\n        /* \"#utility.yul\":23832:23963   */\n      tag_328\n      jump\t// in\n    tag_533:\n        /* \"#utility.yul\":23824:23963   */\n      swap1\n      pop\n        /* \"#utility.yul\":23551:23970   */\n      swap2\n      swap1\n      pop\n      jump\t// out\n        /* \"#utility.yul\":23976:24201   */\n    tag_329:\n        /* \"#utility.yul\":24116:24150   */\n      0x45524332303a207472616e7366657220616d6f756e7420657863656564732062\n        /* \"#utility.yul\":24112:24113   */\n      0x00\n        /* \"#utility.yul\":24104:24110   */\n      dup3\n        /* \"#utility.yul\":24100:24114   */\n      add\n        /* \"#utility.yul\":24093:24151   */\n      mstore\n        /* \"#utility.yul\":24185:24193   */\n      0x616c616e63650000000000000000000000000000000000000000000000000000\n        /* \"#utility.yul\":24180:24182   */\n      0x20\n        /* \"#utility.yul\":24172:24178   */\n      dup3\n        /* \"#utility.yul\":24168:24183   */\n      add\n        /* \"#utility.yul\":24161:24194   */\n      mstore\n        /* \"#utility.yul\":23976:24201   */\n      pop\n      jump\t// out\n        /* \"#utility.yul\":24207:24573   */\n    tag_330:\n        /* \"#utility.yul\":24349:24352   */\n      0x00\n        /* \"#utility.yul\":24370:24437   */\n      tag_536\n        /* \"#utility.yul\":24434:24436   */\n      0x26\n        /* \"#utility.yul\":24429:24432   */\n      dup4\n        /* \"#utility.yul\":24370:24437   */\n      tag_272\n      jump\t// in\n    tag_536:\n        /* \"#utility.yul\":24363:24437   */\n      swap2\n      pop\n        /* \"#utility.yul\":24446:24539   */\n      tag_537\n        /* \"#utility.yul\":24535:24538   */\n      dup3\n        /* \"#utility.yul\":24446:24539   */\n      tag_329\n      jump\t// in\n    tag_537:\n        /* \"#utility.yul\":24564:24566   */\n      0x40\n        /* \"#utility.yul\":24559:24562   */\n      dup3\n        /* \"#utility.yul\":24555:24567   */\n      add\n        /* \"#utility.yul\":24548:24567   */\n      swap1\n      pop\n        /* \"#utility.yul\":24207:24573   */\n      swap2\n      swap1\n      pop\n      jump\t// out\n        /* \"#utility.yul\":24579:24998   */\n    tag_265:\n        /* \"#utility.yul\":24745:24749   */\n      0x00\n        /* \"#utility.yul\":24783:24785   */\n      0x20\n        /* \"#utility.yul\":24772:24781   */\n      dup3\n        /* \"#utility.yul\":24768:24786   */\n      add\n        /* \"#utility.yul\":24760:24786   */\n      swap1\n      pop\n        /* \"#utility.yul\":24832:24841   */\n      dup2\n        /* \"#utility.yul\":24826:24830   */\n      dup2\n        /* \"#utility.yul\":24822:24842   */\n      sub\n        /* \"#utility.yul\":24818:24819   */\n      0x00\n        /* \"#utility.yul\":24807:24816   */\n      dup4\n        /* \"#utility.yul\":24803:24820   */\n      add\n        /* \"#utility.yul\":24796:24843   */\n      mstore\n        /* \"#utility.yul\":24860:24991   */\n      tag_539\n        /* \"#utility.yul\":24986:24990   */\n      dup2\n        /* \"#utility.yul\":24860:24991   */\n      tag_330\n      jump\t// in\n    tag_539:\n        /* \"#utility.yul\":24852:24991   */\n      swap1\n      pop\n        /* \"#utility.yul\":24579:24998   */\n      swap2\n      swap1\n      pop\n      jump\t// out\n\n    auxdata: 0xa2646970667358221220218d57c1f8bb037d27921a1bf63b7ef484affc2862bb2b16a130e546e9f94e9664736f6c634300080f0033\n}\n",
				"bytecode": {
					"linkReferences": {},
					"object": "60806040523480156200001157600080fd5b50604051620035f7380380620035f7833981810160405281019062000037919062000926565b858581600390816200004a919062000c60565b5080600490816200005c919062000c60565b5050506200007f62000073620001b460201b60201c565b620001bc60201b60201c565b620000bb83620000946200028260201b60201c565b600a620000a2919062000ed7565b86620000af919062000f28565b6200028b60201b60201c565b60005b8151811015620001965760008373ffffffffffffffffffffffffffffffffffffffff1663c9c6539630858581518110620000fd57620000fc62000f89565b5b60200260200101516040518363ffffffff1660e01b81526004016200012492919062000fc9565b6020604051808303816000875af115801562000144573d6000803e3d6000fd5b505050506040513d601f19601f820116820180604052508101906200016a919062000ff6565b90506200017f8160016200040360201b60201c565b5080806200018d9062001028565b915050620000be565b50620001a8836200046e60201b60201c565b5050505050506200128d565b600033905090565b6000600560009054906101000a900473ffffffffffffffffffffffffffffffffffffffff16905081600560006101000a81548173ffffffffffffffffffffffffffffffffffffffff021916908373ffffffffffffffffffffffffffffffffffffffff1602179055508173ffffffffffffffffffffffffffffffffffffffff168173ffffffffffffffffffffffffffffffffffffffff167f8be0079c531659141344cd1fd0a4f28419497f9722a3daafe3b4186f6b6457e060405160405180910390a35050565b60006009905090565b600073ffffffffffffffffffffffffffffffffffffffff168273ffffffffffffffffffffffffffffffffffffffff1603620002fd576040517f08c379a0000000000000000000000000000000000000000000000000000000008152600401620002f490620010d6565b60405180910390fd5b62000311600083836200050460201b60201c565b8060026000828254620003259190620010f8565b92505081905550806000808473ffffffffffffffffffffffffffffffffffffffff1673ffffffffffffffffffffffffffffffffffffffff16815260200190815260200160002060008282546200037c9190620010f8565b925050819055508173ffffffffffffffffffffffffffffffffffffffff16600073ffffffffffffffffffffffffffffffffffffffff167fddf252ad1be2c89b69c2b068fc378daa952ba7f163c4a11628f55a4df523b3ef83604051620003e3919062001166565b60405180910390a3620003ff600083836200050960201b60201c565b5050565b620004136200050e60201b60201c565b80600760008473ffffffffffffffffffffffffffffffffffffffff1673ffffffffffffffffffffffffffffffffffffffff16815260200190815260200160002060006101000a81548160ff0219169083151502179055505050565b6200047e6200050e60201b60201c565b600073ffffffffffffffffffffffffffffffffffffffff168173ffffffffffffffffffffffffffffffffffffffff1603620004f0576040517f08c379a0000000000000000000000000000000000000000000000000000000008152600401620004e790620011f9565b60405180910390fd5b6200050181620001bc60201b60201c565b50565b505050565b505050565b6200051e620001b460201b60201c565b73ffffffffffffffffffffffffffffffffffffffff16620005446200059f60201b60201c565b73ffffffffffffffffffffffffffffffffffffffff16146200059d576040517f08c379a000000000000000000000000000000000000000000000000000000000815260040162000594906200126b565b60405180910390fd5b565b6000600560009054906101000a900473ffffffffffffffffffffffffffffffffffffffff16905090565b6000604051905090565b600080fd5b600080fd5b600080fd5b600080fd5b6000601f19601f8301169050919050565b7f4e487b7100000000000000000000000000000000000000000000000000000000600052604160045260246000fd5b6200063282620005e7565b810181811067ffffffffffffffff82111715620006545762000653620005f8565b5b80604052505050565b600062000669620005c9565b905062000677828262000627565b919050565b600067ffffffffffffffff8211156200069a5762000699620005f8565b5b620006a582620005e7565b9050602081019050919050565b60005b83811015620006d2578082015181840152602081019050620006b5565b83811115620006e2576000848401525b50505050565b6000620006ff620006f9846200067c565b6200065d565b9050828152602081018484840111156200071e576200071d620005e2565b5b6200072b848285620006b2565b509392505050565b600082601f8301126200074b576200074a620005dd565b5b81516200075d848260208601620006e8565b91505092915050565b6000819050919050565b6200077b8162000766565b81146200078757600080fd5b50565b6000815190506200079b8162000770565b92915050565b600073ffffffffffffffffffffffffffffffffffffffff82169050919050565b6000620007ce82620007a1565b9050919050565b620007e081620007c1565b8114620007ec57600080fd5b50565b6000815190506200080081620007d5565b92915050565b60006200081382620007c1565b9050919050565b620008258162000806565b81146200083157600080fd5b50565b60008151905062000845816200081a565b92915050565b600067ffffffffffffffff821115620008695762000868620005f8565b5b602082029050602081019050919050565b600080fd5b60006200089662000890846200084b565b6200065d565b90508083825260208201905060208402830185811115620008bc57620008bb6200087a565b5b835b81811015620008e95780620008d48882620007ef565b845260208401935050602081019050620008be565b5050509392505050565b600082601f8301126200090b576200090a620005dd565b5b81516200091d8482602086016200087f565b91505092915050565b60008060008060008060c08789031215620009465762000945620005d3565b5b600087015167ffffffffffffffff811115620009675762000966620005d8565b5b6200097589828a0162000733565b965050602087015167ffffffffffffffff811115620009995762000998620005d8565b5b620009a789828a0162000733565b9550506040620009ba89828a016200078a565b9450506060620009cd89828a01620007ef565b9350506080620009e089828a0162000834565b92505060a087015167ffffffffffffffff81111562000a045762000a03620005d8565b5b62000a1289828a01620008f3565b9150509295509295509295565b600081519050919050565b7f4e487b7100000000000000000000000000000000000000000000000000000000600052602260045260246000fd5b6000600282049050600182168062000a7257607f821691505b60208210810362000a885762000a8762000a2a565b5b50919050565b60008190508160005260206000209050919050565b60006020601f8301049050919050565b600082821b905092915050565b60006008830262000af27fffffffffffffffffffffffffffffffffffffffffffffffffffffffffffffffff8262000ab3565b62000afe868362000ab3565b95508019841693508086168417925050509392505050565b6000819050919050565b600062000b4162000b3b62000b358462000766565b62000b16565b62000766565b9050919050565b6000819050919050565b62000b5d8362000b20565b62000b7562000b6c8262000b48565b84845462000ac0565b825550505050565b600090565b62000b8c62000b7d565b62000b9981848462000b52565b505050565b5b8181101562000bc15762000bb560008262000b82565b60018101905062000b9f565b5050565b601f82111562000c105762000bda8162000a8e565b62000be58462000aa3565b8101602085101562000bf5578190505b62000c0d62000c048562000aa3565b83018262000b9e565b50505b505050565b600082821c905092915050565b600062000c356000198460080262000c15565b1980831691505092915050565b600062000c50838362000c22565b9150826002028217905092915050565b62000c6b8262000a1f565b67ffffffffffffffff81111562000c875762000c86620005f8565b5b62000c93825462000a59565b62000ca082828562000bc5565b600060209050601f83116001811462000cd8576000841562000cc3578287015190505b62000ccf858262000c42565b86555062000d3f565b601f19841662000ce88662000a8e565b60005b8281101562000d125784890151825560018201915060208501945060208101905062000ceb565b8683101562000d32578489015162000d2e601f89168262000c22565b8355505b6001600288020188555050505b505050505050565b7f4e487b7100000000000000000000000000000000000000000000000000000000600052601160045260246000fd5b60008160011c9050919050565b6000808291508390505b600185111562000dd55780860481111562000dad5762000dac62000d47565b5b600185161562000dbd5780820291505b808102905062000dcd8562000d76565b945062000d8d565b94509492505050565b60008262000df0576001905062000ec3565b8162000e00576000905062000ec3565b816001811462000e19576002811462000e245762000e5a565b600191505062000ec3565b60ff84111562000e395762000e3862000d47565b5b8360020a91508482111562000e535762000e5262000d47565b5b5062000ec3565b5060208310610133831016604e8410600b841016171562000e945782820a90508381111562000e8e5762000e8d62000d47565b5b62000ec3565b62000ea3848484600162000d83565b9250905081840481111562000ebd5762000ebc62000d47565b5b81810290505b9392505050565b600060ff82169050919050565b600062000ee48262000766565b915062000ef18362000eca565b925062000f207fffffffffffffffffffffffffffffffffffffffffffffffffffffffffffffffff848462000dde565b905092915050565b600062000f358262000766565b915062000f428362000766565b9250817fffffffffffffffffffffffffffffffffffffffffffffffffffffffffffffffff048311821515161562000f7e5762000f7d62000d47565b5b828202905092915050565b7f4e487b7100000000000000000000000000000000000000000000000000000000600052603260045260246000fd5b62000fc381620007c1565b82525050565b600060408201905062000fe0600083018562000fb8565b62000fef602083018462000fb8565b9392505050565b6000602082840312156200100f576200100e620005d3565b5b60006200101f84828501620007ef565b91505092915050565b6000620010358262000766565b91507fffffffffffffffffffffffffffffffffffffffffffffffffffffffffffffffff82036200106a576200106962000d47565b5b600182019050919050565b600082825260208201905092915050565b7f45524332303a206d696e7420746f20746865207a65726f206164647265737300600082015250565b6000620010be601f8362001075565b9150620010cb8262001086565b602082019050919050565b60006020820190508181036000830152620010f181620010af565b9050919050565b6000620011058262000766565b9150620011128362000766565b9250827fffffffffffffffffffffffffffffffffffffffffffffffffffffffffffffffff038211156200114a576200114962000d47565b5b828201905092915050565b620011608162000766565b82525050565b60006020820190506200117d600083018462001155565b92915050565b7f4f776e61626c653a206e6577206f776e657220697320746865207a65726f206160008201527f6464726573730000000000000000000000000000000000000000000000000000602082015250565b6000620011e160268362001075565b9150620011ee8262001183565b604082019050919050565b600060208201905081810360008301526200121481620011d2565b9050919050565b7f4f776e61626c653a2063616c6c6572206973206e6f7420746865206f776e6572600082015250565b60006200125360208362001075565b915062001260826200121b565b602082019050919050565b60006020820190508181036000830152620012868162001244565b9050919050565b61235a806200129d6000396000f3fe608060405234801561001057600080fd5b506004361061012c5760003560e01c806360019de8116100ad57806395d89b411161007157806395d89b4114610345578063a457c2d714610363578063a9059cbb14610393578063dd62ed3e146103c3578063f2fde38b146103f35761012c565b806360019de81461028d57806370a08231146102bd578063715018a6146102ed5780638da5cb5b146102f75780639191a9c7146103155761012c565b806323b872dd116100f457806323b872dd146101d7578063313ce56714610207578063395093511461022557806340c10f19146102555780634b457327146102715761012c565b806306fdde0314610131578063095ea7b31461014f5780630a6569231461017f57806318160ddd1461019b57806319a5e426146101b9575b600080fd5b61013961040f565b6040516101469190611682565b60405180910390f35b6101696004803603810190610164919061173d565b6104a1565b6040516101769190611798565b60405180910390f35b610199600480360381019061019491906117df565b6104c4565b005b6101a3610527565b6040516101b0919061182e565b60405180910390f35b6101c1610531565b6040516101ce9190611907565b60405180910390f35b6101f160048036038101906101ec9190611929565b6105bf565b6040516101fe9190611798565b60405180910390f35b61020f6105ee565b60405161021c9190611998565b60405180910390f35b61023f600480360381019061023a919061173d565b6105f7565b60405161024c9190611798565b60405180910390f35b61026f600480360381019061026a919061173d565b61062e565b005b61028b600480360381019061028691906117df565b610644565b005b6102a760048036038101906102a291906119b3565b610970565b6040516102b49190611798565b60405180910390f35b6102d760048036038101906102d291906119b3565b610990565b6040516102e4919061182e565b60405180910390f35b6102f56109d8565b005b6102ff6109ec565b60405161030c91906119ef565b60405180910390f35b61032f600480360381019061032a91906119b3565b610a16565b60405161033c9190611798565b60405180910390f35b61034d610a36565b60405161035a9190611682565b60405180910390f35b61037d6004803603810190610378919061173d565b610ac8565b60405161038a9190611798565b60405180910390f35b6103ad60048036038101906103a8919061173d565b610b3f565b6040516103ba9190611798565b60405180910390f35b6103dd60048036038101906103d89190611a0a565b610b62565b6040516103ea919061182e565b60405180910390f35b61040d600480360381019061040891906119b3565b610be9565b005b60606003805461041e90611a79565b80601f016020809104026020016040519081016040528092919081815260200182805461044a90611a79565b80156104975780601f1061046c57610100808354040283529160200191610497565b820191906000526020600020905b81548152906001019060200180831161047a57829003601f168201915b5050505050905090565b6000806104ac610c6c565b90506104b9818585610c74565b600191505092915050565b6104cc610e3d565b80600760008473ffffffffffffffffffffffffffffffffffffffff1673ffffffffffffffffffffffffffffffffffffffff16815260200190815260200160002060006101000a81548160ff0219169083151502179055505050565b6000600254905090565b606060088054806020026020016040519081016040528092919081815260200182805480156105b557602002820191906000526020600020905b8160009054906101000a900473ffffffffffffffffffffffffffffffffffffffff1673ffffffffffffffffffffffffffffffffffffffff168152602001906001019080831161056b575b5050505050905090565b6000806105ca610c6c565b90506105d7858285610ebb565b6105e2858585610f47565b60019150509392505050565b60006009905090565b600080610602610c6c565b90506106238185856106148589610b62565b61061e9190611ad9565b610c74565b600191505092915050565b610636610e3d565b610640828261113b565b5050565b61064c610e3d565b600660008373ffffffffffffffffffffffffffffffffffffffff1673ffffffffffffffffffffffffffffffffffffffff16815260200190815260200160002060009054906101000a900460ff161515811515036106de576040517f08c379a00000000000000000000000000000000000000000000000000000000081526004016106d590611b7b565b60405180910390fd5b80600660008473ffffffffffffffffffffffffffffffffffffffff1673ffffffffffffffffffffffffffffffffffffffff16815260200190815260200160002060006101000a81548160ff0219169083151502179055507f3f271ef70917891187a24965dfc33e941e3961c77b6bb27f3846239975c32b7c8282604051610766929190611b9b565b60405180910390a180156107dc576008829080600181540180825580915050600190039060005260206000200160009091909190916101000a81548173ffffffffffffffffffffffffffffffffffffffff021916908373ffffffffffffffffffffffffffffffffffffffff16021790555061096b565b60005b600880549050811015610969578273ffffffffffffffffffffffffffffffffffffffff166008828154811061081757610816611bc4565b5b9060005260206000200160009054906101000a900473ffffffffffffffffffffffffffffffffffffffff1673ffffffffffffffffffffffffffffffffffffffff160361095657600860016008805490506108719190611bf3565b8154811061088257610881611bc4565b5b9060005260206000200160009054906101000a900473ffffffffffffffffffffffffffffffffffffffff16600882815481106108c1576108c0611bc4565b5b9060005260206000200160006101000a81548173ffffffffffffffffffffffffffffffffffffffff021916908373ffffffffffffffffffffffffffffffffffffffff160217905550600880548061091b5761091a611c27565b5b6001900381819060005260206000200160006101000a81549073ffffffffffffffffffffffffffffffffffffffff021916905590555061096c565b808061096190611c56565b9150506107df565b505b5b5050565b60066020528060005260406000206000915054906101000a900460ff1681565b60008060008373ffffffffffffffffffffffffffffffffffffffff1673ffffffffffffffffffffffffffffffffffffffff168152602001908152602001600020549050919050565b6109e0610e3d565b6109ea600061129a565b565b6000600560009054906101000a900473ffffffffffffffffffffffffffffffffffffffff16905090565b60076020528060005260406000206000915054906101000a900460ff1681565b606060048054610a4590611a79565b80601f0160208091040260200160405190810160405280929190818152602001828054610a7190611a79565b8015610abe5780601f10610a9357610100808354040283529160200191610abe565b820191906000526020600020905b815481529060010190602001808311610aa157829003601f168201915b5050505050905090565b600080610ad3610c6c565b90506000610ae18286610b62565b905083811015610b26576040517f08c379a0000000000000000000000000000000000000000000000000000000008152600401610b1d90611d10565b60405180910390fd5b610b338286868403610c74565b60019250505092915050565b600080610b4a610c6c565b9050610b57818585610f47565b600191505092915050565b6000600160008473ffffffffffffffffffffffffffffffffffffffff1673ffffffffffffffffffffffffffffffffffffffff16815260200190815260200160002060008373ffffffffffffffffffffffffffffffffffffffff1673ffffffffffffffffffffffffffffffffffffffff16815260200190815260200160002054905092915050565b610bf1610e3d565b600073ffffffffffffffffffffffffffffffffffffffff168173ffffffffffffffffffffffffffffffffffffffff1603610c60576040517f08c379a0000000000000000000000000000000000000000000000000000000008152600401610c5790611da2565b60405180910390fd5b610c698161129a565b50565b600033905090565b600073ffffffffffffffffffffffffffffffffffffffff168373ffffffffffffffffffffffffffffffffffffffff1603610ce3576040517f08c379a0000000000000000000000000000000000000000000000000000000008152600401610cda90611e34565b60405180910390fd5b600073ffffffffffffffffffffffffffffffffffffffff168273ffffffffffffffffffffffffffffffffffffffff1603610d52576040517f08c379a0000000000000000000000000000000000000000000000000000000008152600401610d4990611ec6565b60405180910390fd5b80600160008573ffffffffffffffffffffffffffffffffffffffff1673ffffffffffffffffffffffffffffffffffffffff16815260200190815260200160002060008473ffffffffffffffffffffffffffffffffffffffff1673ffffffffffffffffffffffffffffffffffffffff168152602001908152602001600020819055508173ffffffffffffffffffffffffffffffffffffffff168373ffffffffffffffffffffffffffffffffffffffff167f8c5be1e5ebec7d5bd14f71427d1e84f3dd0314c0f7b2291e5b200ac8c7c3b92583604051610e30919061182e565b60405180910390a3505050565b610e45610c6c565b73ffffffffffffffffffffffffffffffffffffffff16610e636109ec565b73ffffffffffffffffffffffffffffffffffffffff1614610eb9576040517f08c379a0000000000000000000000000000000000000000000000000000000008152600401610eb090611f32565b60405180910390fd5b565b6000610ec78484610b62565b90507fffffffffffffffffffffffffffffffffffffffffffffffffffffffffffffffff8114610f415781811015610f33576040517f08c379a0000000000000000000000000000000000000000000000000000000008152600401610f2a90611f9e565b60405180910390fd5b610f408484848403610c74565b5b50505050565b600660008473ffffffffffffffffffffffffffffffffffffffff1673ffffffffffffffffffffffffffffffffffffffff16815260200190815260200160002060009054906101000a900460ff1615610fd4576040517f08c379a0000000000000000000000000000000000000000000000000000000008152600401610fcb9061200a565b60405180910390fd5b600660008373ffffffffffffffffffffffffffffffffffffffff1673ffffffffffffffffffffffffffffffffffffffff16815260200190815260200160002060009054906101000a900460ff1615611061576040517f08c379a000000000000000000000000000000000000000000000000000000000815260040161105890612076565b60405180910390fd5b6110696109ec565b73ffffffffffffffffffffffffffffffffffffffff168373ffffffffffffffffffffffffffffffffffffffff1614806110ec5750600760008373ffffffffffffffffffffffffffffffffffffffff1673ffffffffffffffffffffffffffffffffffffffff16815260200190815260200160002060009054906101000a900460ff16155b61112b576040517f08c379a0000000000000000000000000000000000000000000000000000000008152600401611122906120e2565b60405180910390fd5b611136838383611360565b505050565b600073ffffffffffffffffffffffffffffffffffffffff168273ffffffffffffffffffffffffffffffffffffffff16036111aa576040517f08c379a00000000000000000000000000000000000000000000000000000000081526004016111a19061214e565b60405180910390fd5b6111b6600083836115df565b80600260008282546111c89190611ad9565b92505081905550806000808473ffffffffffffffffffffffffffffffffffffffff1673ffffffffffffffffffffffffffffffffffffffff168152602001908152602001600020600082825461121d9190611ad9565b925050819055508173ffffffffffffffffffffffffffffffffffffffff16600073ffffffffffffffffffffffffffffffffffffffff167fddf252ad1be2c89b69c2b068fc378daa952ba7f163c4a11628f55a4df523b3ef83604051611282919061182e565b60405180910390a3611296600083836115e4565b5050565b6000600560009054906101000a900473ffffffffffffffffffffffffffffffffffffffff16905081600560006101000a81548173ffffffffffffffffffffffffffffffffffffffff021916908373ffffffffffffffffffffffffffffffffffffffff1602179055508173ffffffffffffffffffffffffffffffffffffffff168173ffffffffffffffffffffffffffffffffffffffff167f8be0079c531659141344cd1fd0a4f28419497f9722a3daafe3b4186f6b6457e060405160405180910390a35050565b600073ffffffffffffffffffffffffffffffffffffffff168373ffffffffffffffffffffffffffffffffffffffff16036113cf576040517f08c379a00000000000000000000000000000000000000000000000000000000081526004016113c6906121e0565b60405180910390fd5b600073ffffffffffffffffffffffffffffffffffffffff168273ffffffffffffffffffffffffffffffffffffffff160361143e576040517f08c379a000000000000000000000000000000000000000000000000000000000815260040161143590612272565b60405180910390fd5b6114498383836115df565b60008060008573ffffffffffffffffffffffffffffffffffffffff1673ffffffffffffffffffffffffffffffffffffffff168152602001908152602001600020549050818110156114cf576040517f08c379a00000000000000000000000000000000000000000000000000000000081526004016114c690612304565b60405180910390fd5b8181036000808673ffffffffffffffffffffffffffffffffffffffff1673ffffffffffffffffffffffffffffffffffffffff16815260200190815260200160002081905550816000808573ffffffffffffffffffffffffffffffffffffffff1673ffffffffffffffffffffffffffffffffffffffff16815260200190815260200160002060008282546115629190611ad9565b925050819055508273ffffffffffffffffffffffffffffffffffffffff168473ffffffffffffffffffffffffffffffffffffffff167fddf252ad1be2c89b69c2b068fc378daa952ba7f163c4a11628f55a4df523b3ef846040516115c6919061182e565b60405180910390a36115d98484846115e4565b50505050565b505050565b505050565b600081519050919050565b600082825260208201905092915050565b60005b83811015611623578082015181840152602081019050611608565b83811115611632576000848401525b50505050565b6000601f19601f8301169050919050565b6000611654826115e9565b61165e81856115f4565b935061166e818560208601611605565b61167781611638565b840191505092915050565b6000602082019050818103600083015261169c8184611649565b905092915050565b600080fd5b600073ffffffffffffffffffffffffffffffffffffffff82169050919050565b60006116d4826116a9565b9050919050565b6116e4816116c9565b81146116ef57600080fd5b50565b600081359050611701816116db565b92915050565b6000819050919050565b61171a81611707565b811461172557600080fd5b50565b60008135905061173781611711565b92915050565b60008060408385031215611754576117536116a4565b5b6000611762858286016116f2565b925050602061177385828601611728565b9150509250929050565b60008115159050919050565b6117928161177d565b82525050565b60006020820190506117ad6000830184611789565b92915050565b6117bc8161177d565b81146117c757600080fd5b50565b6000813590506117d9816117b3565b92915050565b600080604083850312156117f6576117f56116a4565b5b6000611804858286016116f2565b9250506020611815858286016117ca565b9150509250929050565b61182881611707565b82525050565b6000602082019050611843600083018461181f565b92915050565b600081519050919050565b600082825260208201905092915050565b6000819050602082019050919050565b61187e816116c9565b82525050565b60006118908383611875565b60208301905092915050565b6000602082019050919050565b60006118b482611849565b6118be8185611854565b93506118c983611865565b8060005b838110156118fa5781516118e18882611884565b97506118ec8361189c565b9250506001810190506118cd565b5085935050505092915050565b6000602082019050818103600083015261192181846118a9565b905092915050565b600080600060608486031215611942576119416116a4565b5b6000611950868287016116f2565b9350506020611961868287016116f2565b925050604061197286828701611728565b9150509250925092565b600060ff82169050919050565b6119928161197c565b82525050565b60006020820190506119ad6000830184611989565b92915050565b6000602082840312156119c9576119c86116a4565b5b60006119d7848285016116f2565b91505092915050565b6119e9816116c9565b82525050565b6000602082019050611a0460008301846119e0565b92915050565b60008060408385031215611a2157611a206116a4565b5b6000611a2f858286016116f2565b9250506020611a40858286016116f2565b9150509250929050565b7f4e487b7100000000000000000000000000000000000000000000000000000000600052602260045260246000fd5b60006002820490506001821680611a9157607f821691505b602082108103611aa457611aa3611a4a565b5b50919050565b7f4e487b7100000000000000000000000000000000000000000000000000000000600052601160045260246000fd5b6000611ae482611707565b9150611aef83611707565b9250827fffffffffffffffffffffffffffffffffffffffffffffffffffffffffffffffff03821115611b2457611b23611aaa565b5b828201905092915050565b7f416c726561647920696e20746869732073746174650000000000000000000000600082015250565b6000611b656015836115f4565b9150611b7082611b2f565b602082019050919050565b60006020820190508181036000830152611b9481611b58565b9050919050565b6000604082019050611bb060008301856119e0565b611bbd6020830184611789565b9392505050565b7f4e487b7100000000000000000000000000000000000000000000000000000000600052603260045260246000fd5b6000611bfe82611707565b9150611c0983611707565b925082821015611c1c57611c1b611aaa565b5b828203905092915050565b7f4e487b7100000000000000000000000000000000000000000000000000000000600052603160045260246000fd5b6000611c6182611707565b91507fffffffffffffffffffffffffffffffffffffffffffffffffffffffffffffffff8203611c9357611c92611aaa565b5b600182019050919050565b7f45524332303a2064656372656173656420616c6c6f77616e63652062656c6f7760008201527f207a65726f000000000000000000000000000000000000000000000000000000602082015250565b6000611cfa6025836115f4565b9150611d0582611c9e565b604082019050919050565b60006020820190508181036000830152611d2981611ced565b9050919050565b7f4f776e61626c653a206e6577206f776e657220697320746865207a65726f206160008201527f6464726573730000000000000000000000000000000000000000000000000000602082015250565b6000611d8c6026836115f4565b9150611d9782611d30565b604082019050919050565b60006020820190508181036000830152611dbb81611d7f565b9050919050565b7f45524332303a20617070726f76652066726f6d20746865207a65726f2061646460008201527f7265737300000000000000000000000000000000000000000000000000000000602082015250565b6000611e1e6024836115f4565b9150611e2982611dc2565b604082019050919050565b60006020820190508181036000830152611e4d81611e11565b9050919050565b7f45524332303a20617070726f766520746f20746865207a65726f20616464726560008201527f7373000000000000000000000000000000000000000000000000000000000000602082015250565b6000611eb06022836115f4565b9150611ebb82611e54565b604082019050919050565b60006020820190508181036000830152611edf81611ea3565b9050919050565b7f4f776e61626c653a2063616c6c6572206973206e6f7420746865206f776e6572600082015250565b6000611f1c6020836115f4565b9150611f2782611ee6565b602082019050919050565b60006020820190508181036000830152611f4b81611f0f565b9050919050565b7f45524332303a20696e73756666696369656e7420616c6c6f77616e6365000000600082015250565b6000611f88601d836115f4565b9150611f9382611f52565b602082019050919050565b60006020820190508181036000830152611fb781611f7b565b9050919050565b7f53656e646572206973207472616e73666572206c696d69746564000000000000600082015250565b6000611ff4601a836115f4565b9150611fff82611fbe565b602082019050919050565b6000602082019050818103600083015261202381611fe7565b9050919050565b7f526563697069656e74206973207472616e73666572206c696d69746564000000600082015250565b6000612060601d836115f4565b915061206b8261202a565b602082019050919050565b6000602082019050818103600083015261208f81612053565b9050919050565b7f526563697069656e7420697320414d4d20706169720000000000000000000000600082015250565b60006120cc6015836115f4565b91506120d782612096565b602082019050919050565b600060208201905081810360008301526120fb816120bf565b9050919050565b7f45524332303a206d696e7420746f20746865207a65726f206164647265737300600082015250565b6000612138601f836115f4565b915061214382612102565b602082019050919050565b600060208201905081810360008301526121678161212b565b9050919050565b7f45524332303a207472616e736665722066726f6d20746865207a65726f20616460008201527f6472657373000000000000000000000000000000000000000000000000000000602082015250565b60006121ca6025836115f4565b91506121d58261216e565b604082019050919050565b600060208201905081810360008301526121f9816121bd565b9050919050565b7f45524332303a207472616e7366657220746f20746865207a65726f206164647260008201527f6573730000000000000000000000000000000000000000000000000000000000602082015250565b600061225c6023836115f4565b915061226782612200565b604082019050919050565b6000602082019050818103600083015261228b8161224f565b9050919050565b7f45524332303a207472616e7366657220616d6f756e742065786365656473206260008201527f616c616e63650000000000000000000000000000000000000000000000000000602082015250565b60006122ee6026836115f4565b91506122f982612292565b604082019050919050565b6000602082019050818103600083015261231d816122e1565b905091905056fea2646970667358221220218d57c1f8bb037d27921a1bf63b7ef484affc2862bb2b16a130e546e9f94e9664736f6c634300080f0033",
					"opcodes": "PUSH1 0x80 PUSH1 0x40 MSTORE CALLVALUE DUP1 ISZERO PUSH3 0x11 JUMPI PUSH1 0x0 DUP1 REVERT JUMPDEST POP PUSH1 0x40 MLOAD PUSH3 0x35F7 CODESIZE SUB DUP1 PUSH3 0x35F7 DUP4 CODECOPY DUP2 DUP2 ADD PUSH1 0x40 MSTORE DUP2 ADD SWAP1 PUSH3 0x37 SWAP2 SWAP1 PUSH3 0x926 JUMP JUMPDEST DUP6 DUP6 DUP2 PUSH1 0x3 SWAP1 DUP2 PUSH3 0x4A SWAP2 SWAP1 PUSH3 0xC60 JUMP JUMPDEST POP DUP1 PUSH1 0x4 SWAP1 DUP2 PUSH3 0x5C SWAP2 SWAP1 PUSH3 0xC60 JUMP JUMPDEST POP POP POP PUSH3 0x7F PUSH3 0x73 PUSH3 0x1B4 PUSH1 0x20 SHL PUSH1 0x20 SHR JUMP JUMPDEST PUSH3 0x1BC PUSH1 0x20 SHL PUSH1 0x20 SHR JUMP JUMPDEST PUSH3 0xBB DUP4 PUSH3 0x94 PUSH3 0x282 PUSH1 0x20 SHL PUSH1 0x20 SHR JUMP JUMPDEST PUSH1 0xA PUSH3 0xA2 SWAP2 SWAP1 PUSH3 0xED7 JUMP JUMPDEST DUP7 PUSH3 0xAF SWAP2 SWAP1 PUSH3 0xF28 JUMP JUMPDEST PUSH3 0x28B PUSH1 0x20 SHL PUSH1 0x20 SHR JUMP JUMPDEST PUSH1 0x0 JUMPDEST DUP2 MLOAD DUP2 LT ISZERO PUSH3 0x196 JUMPI PUSH1 0x0 DUP4 PUSH20 0xFFFFFFFFFFFFFFFFFFFFFFFFFFFFFFFFFFFFFFFF AND PUSH4 0xC9C65396 ADDRESS DUP6 DUP6 DUP2 MLOAD DUP2 LT PUSH3 0xFD JUMPI PUSH3 0xFC PUSH3 0xF89 JUMP JUMPDEST JUMPDEST PUSH1 0x20 MUL PUSH1 0x20 ADD ADD MLOAD PUSH1 0x40 MLOAD DUP4 PUSH4 0xFFFFFFFF AND PUSH1 0xE0 SHL DUP2 MSTORE PUSH1 0x4 ADD PUSH3 0x124 SWAP3 SWAP2 SWAP1 PUSH3 0xFC9 JUMP JUMPDEST PUSH1 0x20 PUSH1 0x40 MLOAD DUP1 DUP4 SUB DUP2 PUSH1 0x0 DUP8 GAS CALL ISZERO DUP1 ISZERO PUSH3 0x144 JUMPI RETURNDATASIZE PUSH1 0x0 DUP1 RETURNDATACOPY RETURNDATASIZE PUSH1 0x0 REVERT JUMPDEST POP POP POP POP PUSH1 0x40 MLOAD RETURNDATASIZE PUSH1 0x1F NOT PUSH1 0x1F DUP3 ADD AND DUP3 ADD DUP1 PUSH1 0x40 MSTORE POP DUP2 ADD SWAP1 PUSH3 0x16A SWAP2 SWAP1 PUSH3 0xFF6 JUMP JUMPDEST SWAP1 POP PUSH3 0x17F DUP2 PUSH1 0x1 PUSH3 0x403 PUSH1 0x20 SHL PUSH1 0x20 SHR JUMP JUMPDEST POP DUP1 DUP1 PUSH3 0x18D SWAP1 PUSH3 0x1028 JUMP JUMPDEST SWAP2 POP POP PUSH3 0xBE JUMP JUMPDEST POP PUSH3 0x1A8 DUP4 PUSH3 0x46E PUSH1 0x20 SHL PUSH1 0x20 SHR JUMP JUMPDEST POP POP POP POP POP POP PUSH3 0x128D JUMP JUMPDEST PUSH1 0x0 CALLER SWAP1 POP SWAP1 JUMP JUMPDEST PUSH1 0x0 PUSH1 0x5 PUSH1 0x0 SWAP1 SLOAD SWAP1 PUSH2 0x100 EXP SWAP1 DIV PUSH20 0xFFFFFFFFFFFFFFFFFFFFFFFFFFFFFFFFFFFFFFFF AND SWAP1 POP DUP2 PUSH1 0x5 PUSH1 0x0 PUSH2 0x100 EXP DUP2 SLOAD DUP2 PUSH20 0xFFFFFFFFFFFFFFFFFFFFFFFFFFFFFFFFFFFFFFFF MUL NOT AND SWAP1 DUP4 PUSH20 0xFFFFFFFFFFFFFFFFFFFFFFFFFFFFFFFFFFFFFFFF AND MUL OR SWAP1 SSTORE POP DUP2 PUSH20 0xFFFFFFFFFFFFFFFFFFFFFFFFFFFFFFFFFFFFFFFF AND DUP2 PUSH20 0xFFFFFFFFFFFFFFFFFFFFFFFFFFFFFFFFFFFFFFFF AND PUSH32 0x8BE0079C531659141344CD1FD0A4F28419497F9722A3DAAFE3B4186F6B6457E0 PUSH1 0x40 MLOAD PUSH1 0x40 MLOAD DUP1 SWAP2 SUB SWAP1 LOG3 POP POP JUMP JUMPDEST PUSH1 0x0 PUSH1 0x9 SWAP1 POP SWAP1 JUMP JUMPDEST PUSH1 0x0 PUSH20 0xFFFFFFFFFFFFFFFFFFFFFFFFFFFFFFFFFFFFFFFF AND DUP3 PUSH20 0xFFFFFFFFFFFFFFFFFFFFFFFFFFFFFFFFFFFFFFFF AND SUB PUSH3 0x2FD JUMPI PUSH1 0x40 MLOAD PUSH32 0x8C379A000000000000000000000000000000000000000000000000000000000 DUP2 MSTORE PUSH1 0x4 ADD PUSH3 0x2F4 SWAP1 PUSH3 0x10D6 JUMP JUMPDEST PUSH1 0x40 MLOAD DUP1 SWAP2 SUB SWAP1 REVERT JUMPDEST PUSH3 0x311 PUSH1 0x0 DUP4 DUP4 PUSH3 0x504 PUSH1 0x20 SHL PUSH1 0x20 SHR JUMP JUMPDEST DUP1 PUSH1 0x2 PUSH1 0x0 DUP3 DUP3 SLOAD PUSH3 0x325 SWAP2 SWAP1 PUSH3 0x10F8 JUMP JUMPDEST SWAP3 POP POP DUP2 SWAP1 SSTORE POP DUP1 PUSH1 0x0 DUP1 DUP5 PUSH20 0xFFFFFFFFFFFFFFFFFFFFFFFFFFFFFFFFFFFFFFFF AND PUSH20 0xFFFFFFFFFFFFFFFFFFFFFFFFFFFFFFFFFFFFFFFF AND DUP2 MSTORE PUSH1 0x20 ADD SWAP1 DUP2 MSTORE PUSH1 0x20 ADD PUSH1 0x0 KECCAK256 PUSH1 0x0 DUP3 DUP3 SLOAD PUSH3 0x37C SWAP2 SWAP1 PUSH3 0x10F8 JUMP JUMPDEST SWAP3 POP POP DUP2 SWAP1 SSTORE POP DUP2 PUSH20 0xFFFFFFFFFFFFFFFFFFFFFFFFFFFFFFFFFFFFFFFF AND PUSH1 0x0 PUSH20 0xFFFFFFFFFFFFFFFFFFFFFFFFFFFFFFFFFFFFFFFF AND PUSH32 0xDDF252AD1BE2C89B69C2B068FC378DAA952BA7F163C4A11628F55A4DF523B3EF DUP4 PUSH1 0x40 MLOAD PUSH3 0x3E3 SWAP2 SWAP1 PUSH3 0x1166 JUMP JUMPDEST PUSH1 0x40 MLOAD DUP1 SWAP2 SUB SWAP1 LOG3 PUSH3 0x3FF PUSH1 0x0 DUP4 DUP4 PUSH3 0x509 PUSH1 0x20 SHL PUSH1 0x20 SHR JUMP JUMPDEST POP POP JUMP JUMPDEST PUSH3 0x413 PUSH3 0x50E PUSH1 0x20 SHL PUSH1 0x20 SHR JUMP JUMPDEST DUP1 PUSH1 0x7 PUSH1 0x0 DUP5 PUSH20 0xFFFFFFFFFFFFFFFFFFFFFFFFFFFFFFFFFFFFFFFF AND PUSH20 0xFFFFFFFFFFFFFFFFFFFFFFFFFFFFFFFFFFFFFFFF AND DUP2 MSTORE PUSH1 0x20 ADD SWAP1 DUP2 MSTORE PUSH1 0x20 ADD PUSH1 0x0 KECCAK256 PUSH1 0x0 PUSH2 0x100 EXP DUP2 SLOAD DUP2 PUSH1 0xFF MUL NOT AND SWAP1 DUP4 ISZERO ISZERO MUL OR SWAP1 SSTORE POP POP POP JUMP JUMPDEST PUSH3 0x47E PUSH3 0x50E PUSH1 0x20 SHL PUSH1 0x20 SHR JUMP JUMPDEST PUSH1 0x0 PUSH20 0xFFFFFFFFFFFFFFFFFFFFFFFFFFFFFFFFFFFFFFFF AND DUP2 PUSH20 0xFFFFFFFFFFFFFFFFFFFFFFFFFFFFFFFFFFFFFFFF AND SUB PUSH3 0x4F0 JUMPI PUSH1 0x40 MLOAD PUSH32 0x8C379A000000000000000000000000000000000000000000000000000000000 DUP2 MSTORE PUSH1 0x4 ADD PUSH3 0x4E7 SWAP1 PUSH3 0x11F9 JUMP JUMPDEST PUSH1 0x40 MLOAD DUP1 SWAP2 SUB SWAP1 REVERT JUMPDEST PUSH3 0x501 DUP2 PUSH3 0x1BC PUSH1 0x20 SHL PUSH1 0x20 SHR JUMP JUMPDEST POP JUMP JUMPDEST POP POP POP JUMP JUMPDEST POP POP POP JUMP JUMPDEST PUSH3 0x51E PUSH3 0x1B4 PUSH1 0x20 SHL PUSH1 0x20 SHR JUMP JUMPDEST PUSH20 0xFFFFFFFFFFFFFFFFFFFFFFFFFFFFFFFFFFFFFFFF AND PUSH3 0x544 PUSH3 0x59F PUSH1 0x20 SHL PUSH1 0x20 SHR JUMP JUMPDEST PUSH20 0xFFFFFFFFFFFFFFFFFFFFFFFFFFFFFFFFFFFFFFFF AND EQ PUSH3 0x59D JUMPI PUSH1 0x40 MLOAD PUSH32 0x8C379A000000000000000000000000000000000000000000000000000000000 DUP2 MSTORE PUSH1 0x4 ADD PUSH3 0x594 SWAP1 PUSH3 0x126B JUMP JUMPDEST PUSH1 0x40 MLOAD DUP1 SWAP2 SUB SWAP1 REVERT JUMPDEST JUMP JUMPDEST PUSH1 0x0 PUSH1 0x5 PUSH1 0x0 SWAP1 SLOAD SWAP1 PUSH2 0x100 EXP SWAP1 DIV PUSH20 0xFFFFFFFFFFFFFFFFFFFFFFFFFFFFFFFFFFFFFFFF AND SWAP1 POP SWAP1 JUMP JUMPDEST PUSH1 0x0 PUSH1 0x40 MLOAD SWAP1 POP SWAP1 JUMP JUMPDEST PUSH1 0x0 DUP1 REVERT JUMPDEST PUSH1 0x0 DUP1 REVERT JUMPDEST PUSH1 0x0 DUP1 REVERT JUMPDEST PUSH1 0x0 DUP1 REVERT JUMPDEST PUSH1 0x0 PUSH1 0x1F NOT PUSH1 0x1F DUP4 ADD AND SWAP1 POP SWAP2 SWAP1 POP JUMP JUMPDEST PUSH32 0x4E487B7100000000000000000000000000000000000000000000000000000000 PUSH1 0x0 MSTORE PUSH1 0x41 PUSH1 0x4 MSTORE PUSH1 0x24 PUSH1 0x0 REVERT JUMPDEST PUSH3 0x632 DUP3 PUSH3 0x5E7 JUMP JUMPDEST DUP2 ADD DUP2 DUP2 LT PUSH8 0xFFFFFFFFFFFFFFFF DUP3 GT OR ISZERO PUSH3 0x654 JUMPI PUSH3 0x653 PUSH3 0x5F8 JUMP JUMPDEST JUMPDEST DUP1 PUSH1 0x40 MSTORE POP POP POP JUMP JUMPDEST PUSH1 0x0 PUSH3 0x669 PUSH3 0x5C9 JUMP JUMPDEST SWAP1 POP PUSH3 0x677 DUP3 DUP3 PUSH3 0x627 JUMP JUMPDEST SWAP2 SWAP1 POP JUMP JUMPDEST PUSH1 0x0 PUSH8 0xFFFFFFFFFFFFFFFF DUP3 GT ISZERO PUSH3 0x69A JUMPI PUSH3 0x699 PUSH3 0x5F8 JUMP JUMPDEST JUMPDEST PUSH3 0x6A5 DUP3 PUSH3 0x5E7 JUMP JUMPDEST SWAP1 POP PUSH1 0x20 DUP2 ADD SWAP1 POP SWAP2 SWAP1 POP JUMP JUMPDEST PUSH1 0x0 JUMPDEST DUP4 DUP2 LT ISZERO PUSH3 0x6D2 JUMPI DUP1 DUP3 ADD MLOAD DUP2 DUP5 ADD MSTORE PUSH1 0x20 DUP2 ADD SWAP1 POP PUSH3 0x6B5 JUMP JUMPDEST DUP4 DUP2 GT ISZERO PUSH3 0x6E2 JUMPI PUSH1 0x0 DUP5 DUP5 ADD MSTORE JUMPDEST POP POP POP POP JUMP JUMPDEST PUSH1 0x0 PUSH3 0x6FF PUSH3 0x6F9 DUP5 PUSH3 0x67C JUMP JUMPDEST PUSH3 0x65D JUMP JUMPDEST SWAP1 POP DUP3 DUP2 MSTORE PUSH1 0x20 DUP2 ADD DUP5 DUP5 DUP5 ADD GT ISZERO PUSH3 0x71E JUMPI PUSH3 0x71D PUSH3 0x5E2 JUMP JUMPDEST JUMPDEST PUSH3 0x72B DUP5 DUP3 DUP6 PUSH3 0x6B2 JUMP JUMPDEST POP SWAP4 SWAP3 POP POP POP JUMP JUMPDEST PUSH1 0x0 DUP3 PUSH1 0x1F DUP4 ADD SLT PUSH3 0x74B JUMPI PUSH3 0x74A PUSH3 0x5DD JUMP JUMPDEST JUMPDEST DUP2 MLOAD PUSH3 0x75D DUP5 DUP3 PUSH1 0x20 DUP7 ADD PUSH3 0x6E8 JUMP JUMPDEST SWAP2 POP POP SWAP3 SWAP2 POP POP JUMP JUMPDEST PUSH1 0x0 DUP2 SWAP1 POP SWAP2 SWAP1 POP JUMP JUMPDEST PUSH3 0x77B DUP2 PUSH3 0x766 JUMP JUMPDEST DUP2 EQ PUSH3 0x787 JUMPI PUSH1 0x0 DUP1 REVERT JUMPDEST POP JUMP JUMPDEST PUSH1 0x0 DUP2 MLOAD SWAP1 POP PUSH3 0x79B DUP2 PUSH3 0x770 JUMP JUMPDEST SWAP3 SWAP2 POP POP JUMP JUMPDEST PUSH1 0x0 PUSH20 0xFFFFFFFFFFFFFFFFFFFFFFFFFFFFFFFFFFFFFFFF DUP3 AND SWAP1 POP SWAP2 SWAP1 POP JUMP JUMPDEST PUSH1 0x0 PUSH3 0x7CE DUP3 PUSH3 0x7A1 JUMP JUMPDEST SWAP1 POP SWAP2 SWAP1 POP JUMP JUMPDEST PUSH3 0x7E0 DUP2 PUSH3 0x7C1 JUMP JUMPDEST DUP2 EQ PUSH3 0x7EC JUMPI PUSH1 0x0 DUP1 REVERT JUMPDEST POP JUMP JUMPDEST PUSH1 0x0 DUP2 MLOAD SWAP1 POP PUSH3 0x800 DUP2 PUSH3 0x7D5 JUMP JUMPDEST SWAP3 SWAP2 POP POP JUMP JUMPDEST PUSH1 0x0 PUSH3 0x813 DUP3 PUSH3 0x7C1 JUMP JUMPDEST SWAP1 POP SWAP2 SWAP1 POP JUMP JUMPDEST PUSH3 0x825 DUP2 PUSH3 0x806 JUMP JUMPDEST DUP2 EQ PUSH3 0x831 JUMPI PUSH1 0x0 DUP1 REVERT JUMPDEST POP JUMP JUMPDEST PUSH1 0x0 DUP2 MLOAD SWAP1 POP PUSH3 0x845 DUP2 PUSH3 0x81A JUMP JUMPDEST SWAP3 SWAP2 POP POP JUMP JUMPDEST PUSH1 0x0 PUSH8 0xFFFFFFFFFFFFFFFF DUP3 GT ISZERO PUSH3 0x869 JUMPI PUSH3 0x868 PUSH3 0x5F8 JUMP JUMPDEST JUMPDEST PUSH1 0x20 DUP3 MUL SWAP1 POP PUSH1 0x20 DUP2 ADD SWAP1 POP SWAP2 SWAP1 POP JUMP JUMPDEST PUSH1 0x0 DUP1 REVERT JUMPDEST PUSH1 0x0 PUSH3 0x896 PUSH3 0x890 DUP5 PUSH3 0x84B JUMP JUMPDEST PUSH3 0x65D JUMP JUMPDEST SWAP1 POP DUP1 DUP4 DUP3 MSTORE PUSH1 0x20 DUP3 ADD SWAP1 POP PUSH1 0x20 DUP5 MUL DUP4 ADD DUP6 DUP2 GT ISZERO PUSH3 0x8BC JUMPI PUSH3 0x8BB PUSH3 0x87A JUMP JUMPDEST JUMPDEST DUP4 JUMPDEST DUP2 DUP2 LT ISZERO PUSH3 0x8E9 JUMPI DUP1 PUSH3 0x8D4 DUP9 DUP3 PUSH3 0x7EF JUMP JUMPDEST DUP5 MSTORE PUSH1 0x20 DUP5 ADD SWAP4 POP POP PUSH1 0x20 DUP2 ADD SWAP1 POP PUSH3 0x8BE JUMP JUMPDEST POP POP POP SWAP4 SWAP3 POP POP POP JUMP JUMPDEST PUSH1 0x0 DUP3 PUSH1 0x1F DUP4 ADD SLT PUSH3 0x90B JUMPI PUSH3 0x90A PUSH3 0x5DD JUMP JUMPDEST JUMPDEST DUP2 MLOAD PUSH3 0x91D DUP5 DUP3 PUSH1 0x20 DUP7 ADD PUSH3 0x87F JUMP JUMPDEST SWAP2 POP POP SWAP3 SWAP2 POP POP JUMP JUMPDEST PUSH1 0x0 DUP1 PUSH1 0x0 DUP1 PUSH1 0x0 DUP1 PUSH1 0xC0 DUP8 DUP10 SUB SLT ISZERO PUSH3 0x946 JUMPI PUSH3 0x945 PUSH3 0x5D3 JUMP JUMPDEST JUMPDEST PUSH1 0x0 DUP8 ADD MLOAD PUSH8 0xFFFFFFFFFFFFFFFF DUP2 GT ISZERO PUSH3 0x967 JUMPI PUSH3 0x966 PUSH3 0x5D8 JUMP JUMPDEST JUMPDEST PUSH3 0x975 DUP10 DUP3 DUP11 ADD PUSH3 0x733 JUMP JUMPDEST SWAP7 POP POP PUSH1 0x20 DUP8 ADD MLOAD PUSH8 0xFFFFFFFFFFFFFFFF DUP2 GT ISZERO PUSH3 0x999 JUMPI PUSH3 0x998 PUSH3 0x5D8 JUMP JUMPDEST JUMPDEST PUSH3 0x9A7 DUP10 DUP3 DUP11 ADD PUSH3 0x733 JUMP JUMPDEST SWAP6 POP POP PUSH1 0x40 PUSH3 0x9BA DUP10 DUP3 DUP11 ADD PUSH3 0x78A JUMP JUMPDEST SWAP5 POP POP PUSH1 0x60 PUSH3 0x9CD DUP10 DUP3 DUP11 ADD PUSH3 0x7EF JUMP JUMPDEST SWAP4 POP POP PUSH1 0x80 PUSH3 0x9E0 DUP10 DUP3 DUP11 ADD PUSH3 0x834 JUMP JUMPDEST SWAP3 POP POP PUSH1 0xA0 DUP8 ADD MLOAD PUSH8 0xFFFFFFFFFFFFFFFF DUP2 GT ISZERO PUSH3 0xA04 JUMPI PUSH3 0xA03 PUSH3 0x5D8 JUMP JUMPDEST JUMPDEST PUSH3 0xA12 DUP10 DUP3 DUP11 ADD PUSH3 0x8F3 JUMP JUMPDEST SWAP2 POP POP SWAP3 SWAP6 POP SWAP3 SWAP6 POP SWAP3 SWAP6 JUMP JUMPDEST PUSH1 0x0 DUP2 MLOAD SWAP1 POP SWAP2 SWAP1 POP JUMP JUMPDEST PUSH32 0x4E487B7100000000000000000000000000000000000000000000000000000000 PUSH1 0x0 MSTORE PUSH1 0x22 PUSH1 0x4 MSTORE PUSH1 0x24 PUSH1 0x0 REVERT JUMPDEST PUSH1 0x0 PUSH1 0x2 DUP3 DIV SWAP1 POP PUSH1 0x1 DUP3 AND DUP1 PUSH3 0xA72 JUMPI PUSH1 0x7F DUP3 AND SWAP2 POP JUMPDEST PUSH1 0x20 DUP3 LT DUP2 SUB PUSH3 0xA88 JUMPI PUSH3 0xA87 PUSH3 0xA2A JUMP JUMPDEST JUMPDEST POP SWAP2 SWAP1 POP JUMP JUMPDEST PUSH1 0x0 DUP2 SWAP1 POP DUP2 PUSH1 0x0 MSTORE PUSH1 0x20 PUSH1 0x0 KECCAK256 SWAP1 POP SWAP2 SWAP1 POP JUMP JUMPDEST PUSH1 0x0 PUSH1 0x20 PUSH1 0x1F DUP4 ADD DIV SWAP1 POP SWAP2 SWAP1 POP JUMP JUMPDEST PUSH1 0x0 DUP3 DUP3 SHL SWAP1 POP SWAP3 SWAP2 POP POP JUMP JUMPDEST PUSH1 0x0 PUSH1 0x8 DUP4 MUL PUSH3 0xAF2 PUSH32 0xFFFFFFFFFFFFFFFFFFFFFFFFFFFFFFFFFFFFFFFFFFFFFFFFFFFFFFFFFFFFFFFF DUP3 PUSH3 0xAB3 JUMP JUMPDEST PUSH3 0xAFE DUP7 DUP4 PUSH3 0xAB3 JUMP JUMPDEST SWAP6 POP DUP1 NOT DUP5 AND SWAP4 POP DUP1 DUP7 AND DUP5 OR SWAP3 POP POP POP SWAP4 SWAP3 POP POP POP JUMP JUMPDEST PUSH1 0x0 DUP2 SWAP1 POP SWAP2 SWAP1 POP JUMP JUMPDEST PUSH1 0x0 PUSH3 0xB41 PUSH3 0xB3B PUSH3 0xB35 DUP5 PUSH3 0x766 JUMP JUMPDEST PUSH3 0xB16 JUMP JUMPDEST PUSH3 0x766 JUMP JUMPDEST SWAP1 POP SWAP2 SWAP1 POP JUMP JUMPDEST PUSH1 0x0 DUP2 SWAP1 POP SWAP2 SWAP1 POP JUMP JUMPDEST PUSH3 0xB5D DUP4 PUSH3 0xB20 JUMP JUMPDEST PUSH3 0xB75 PUSH3 0xB6C DUP3 PUSH3 0xB48 JUMP JUMPDEST DUP5 DUP5 SLOAD PUSH3 0xAC0 JUMP JUMPDEST DUP3 SSTORE POP POP POP POP JUMP JUMPDEST PUSH1 0x0 SWAP1 JUMP JUMPDEST PUSH3 0xB8C PUSH3 0xB7D JUMP JUMPDEST PUSH3 0xB99 DUP2 DUP5 DUP5 PUSH3 0xB52 JUMP JUMPDEST POP POP POP JUMP JUMPDEST JUMPDEST DUP2 DUP2 LT ISZERO PUSH3 0xBC1 JUMPI PUSH3 0xBB5 PUSH1 0x0 DUP3 PUSH3 0xB82 JUMP JUMPDEST PUSH1 0x1 DUP2 ADD SWAP1 POP PUSH3 0xB9F JUMP JUMPDEST POP POP JUMP JUMPDEST PUSH1 0x1F DUP3 GT ISZERO PUSH3 0xC10 JUMPI PUSH3 0xBDA DUP2 PUSH3 0xA8E JUMP JUMPDEST PUSH3 0xBE5 DUP5 PUSH3 0xAA3 JUMP JUMPDEST DUP2 ADD PUSH1 0x20 DUP6 LT ISZERO PUSH3 0xBF5 JUMPI DUP2 SWAP1 POP JUMPDEST PUSH3 0xC0D PUSH3 0xC04 DUP6 PUSH3 0xAA3 JUMP JUMPDEST DUP4 ADD DUP3 PUSH3 0xB9E JUMP JUMPDEST POP POP JUMPDEST POP POP POP JUMP JUMPDEST PUSH1 0x0 DUP3 DUP3 SHR SWAP1 POP SWAP3 SWAP2 POP POP JUMP JUMPDEST PUSH1 0x0 PUSH3 0xC35 PUSH1 0x0 NOT DUP5 PUSH1 0x8 MUL PUSH3 0xC15 JUMP JUMPDEST NOT DUP1 DUP4 AND SWAP2 POP POP SWAP3 SWAP2 POP POP JUMP JUMPDEST PUSH1 0x0 PUSH3 0xC50 DUP4 DUP4 PUSH3 0xC22 JUMP JUMPDEST SWAP2 POP DUP3 PUSH1 0x2 MUL DUP3 OR SWAP1 POP SWAP3 SWAP2 POP POP JUMP JUMPDEST PUSH3 0xC6B DUP3 PUSH3 0xA1F JUMP JUMPDEST PUSH8 0xFFFFFFFFFFFFFFFF DUP2 GT ISZERO PUSH3 0xC87 JUMPI PUSH3 0xC86 PUSH3 0x5F8 JUMP JUMPDEST JUMPDEST PUSH3 0xC93 DUP3 SLOAD PUSH3 0xA59 JUMP JUMPDEST PUSH3 0xCA0 DUP3 DUP3 DUP6 PUSH3 0xBC5 JUMP JUMPDEST PUSH1 0x0 PUSH1 0x20 SWAP1 POP PUSH1 0x1F DUP4 GT PUSH1 0x1 DUP2 EQ PUSH3 0xCD8 JUMPI PUSH1 0x0 DUP5 ISZERO PUSH3 0xCC3 JUMPI DUP3 DUP8 ADD MLOAD SWAP1 POP JUMPDEST PUSH3 0xCCF DUP6 DUP3 PUSH3 0xC42 JUMP JUMPDEST DUP7 SSTORE POP PUSH3 0xD3F JUMP JUMPDEST PUSH1 0x1F NOT DUP5 AND PUSH3 0xCE8 DUP7 PUSH3 0xA8E JUMP JUMPDEST PUSH1 0x0 JUMPDEST DUP3 DUP2 LT ISZERO PUSH3 0xD12 JUMPI DUP5 DUP10 ADD MLOAD DUP3 SSTORE PUSH1 0x1 DUP3 ADD SWAP2 POP PUSH1 0x20 DUP6 ADD SWAP5 POP PUSH1 0x20 DUP2 ADD SWAP1 POP PUSH3 0xCEB JUMP JUMPDEST DUP7 DUP4 LT ISZERO PUSH3 0xD32 JUMPI DUP5 DUP10 ADD MLOAD PUSH3 0xD2E PUSH1 0x1F DUP10 AND DUP3 PUSH3 0xC22 JUMP JUMPDEST DUP4 SSTORE POP JUMPDEST PUSH1 0x1 PUSH1 0x2 DUP9 MUL ADD DUP9 SSTORE POP POP POP JUMPDEST POP POP POP POP POP POP JUMP JUMPDEST PUSH32 0x4E487B7100000000000000000000000000000000000000000000000000000000 PUSH1 0x0 MSTORE PUSH1 0x11 PUSH1 0x4 MSTORE PUSH1 0x24 PUSH1 0x0 REVERT JUMPDEST PUSH1 0x0 DUP2 PUSH1 0x1 SHR SWAP1 POP SWAP2 SWAP1 POP JUMP JUMPDEST PUSH1 0x0 DUP1 DUP3 SWAP2 POP DUP4 SWAP1 POP JUMPDEST PUSH1 0x1 DUP6 GT ISZERO PUSH3 0xDD5 JUMPI DUP1 DUP7 DIV DUP2 GT ISZERO PUSH3 0xDAD JUMPI PUSH3 0xDAC PUSH3 0xD47 JUMP JUMPDEST JUMPDEST PUSH1 0x1 DUP6 AND ISZERO PUSH3 0xDBD JUMPI DUP1 DUP3 MUL SWAP2 POP JUMPDEST DUP1 DUP2 MUL SWAP1 POP PUSH3 0xDCD DUP6 PUSH3 0xD76 JUMP JUMPDEST SWAP5 POP PUSH3 0xD8D JUMP JUMPDEST SWAP5 POP SWAP5 SWAP3 POP POP POP JUMP JUMPDEST PUSH1 0x0 DUP3 PUSH3 0xDF0 JUMPI PUSH1 0x1 SWAP1 POP PUSH3 0xEC3 JUMP JUMPDEST DUP2 PUSH3 0xE00 JUMPI PUSH1 0x0 SWAP1 POP PUSH3 0xEC3 JUMP JUMPDEST DUP2 PUSH1 0x1 DUP2 EQ PUSH3 0xE19 JUMPI PUSH1 0x2 DUP2 EQ PUSH3 0xE24 JUMPI PUSH3 0xE5A JUMP JUMPDEST PUSH1 0x1 SWAP2 POP POP PUSH3 0xEC3 JUMP JUMPDEST PUSH1 0xFF DUP5 GT ISZERO PUSH3 0xE39 JUMPI PUSH3 0xE38 PUSH3 0xD47 JUMP JUMPDEST JUMPDEST DUP4 PUSH1 0x2 EXP SWAP2 POP DUP5 DUP3 GT ISZERO PUSH3 0xE53 JUMPI PUSH3 0xE52 PUSH3 0xD47 JUMP JUMPDEST JUMPDEST POP PUSH3 0xEC3 JUMP JUMPDEST POP PUSH1 0x20 DUP4 LT PUSH2 0x133 DUP4 LT AND PUSH1 0x4E DUP5 LT PUSH1 0xB DUP5 LT AND OR ISZERO PUSH3 0xE94 JUMPI DUP3 DUP3 EXP SWAP1 POP DUP4 DUP2 GT ISZERO PUSH3 0xE8E JUMPI PUSH3 0xE8D PUSH3 0xD47 JUMP JUMPDEST JUMPDEST PUSH3 0xEC3 JUMP JUMPDEST PUSH3 0xEA3 DUP5 DUP5 DUP5 PUSH1 0x1 PUSH3 0xD83 JUMP JUMPDEST SWAP3 POP SWAP1 POP DUP2 DUP5 DIV DUP2 GT ISZERO PUSH3 0xEBD JUMPI PUSH3 0xEBC PUSH3 0xD47 JUMP JUMPDEST JUMPDEST DUP2 DUP2 MUL SWAP1 POP JUMPDEST SWAP4 SWAP3 POP POP POP JUMP JUMPDEST PUSH1 0x0 PUSH1 0xFF DUP3 AND SWAP1 POP SWAP2 SWAP1 POP JUMP JUMPDEST PUSH1 0x0 PUSH3 0xEE4 DUP3 PUSH3 0x766 JUMP JUMPDEST SWAP2 POP PUSH3 0xEF1 DUP4 PUSH3 0xECA JUMP JUMPDEST SWAP3 POP PUSH3 0xF20 PUSH32 0xFFFFFFFFFFFFFFFFFFFFFFFFFFFFFFFFFFFFFFFFFFFFFFFFFFFFFFFFFFFFFFFF DUP5 DUP5 PUSH3 0xDDE JUMP JUMPDEST SWAP1 POP SWAP3 SWAP2 POP POP JUMP JUMPDEST PUSH1 0x0 PUSH3 0xF35 DUP3 PUSH3 0x766 JUMP JUMPDEST SWAP2 POP PUSH3 0xF42 DUP4 PUSH3 0x766 JUMP JUMPDEST SWAP3 POP DUP2 PUSH32 0xFFFFFFFFFFFFFFFFFFFFFFFFFFFFFFFFFFFFFFFFFFFFFFFFFFFFFFFFFFFFFFFF DIV DUP4 GT DUP3 ISZERO ISZERO AND ISZERO PUSH3 0xF7E JUMPI PUSH3 0xF7D PUSH3 0xD47 JUMP JUMPDEST JUMPDEST DUP3 DUP3 MUL SWAP1 POP SWAP3 SWAP2 POP POP JUMP JUMPDEST PUSH32 0x4E487B7100000000000000000000000000000000000000000000000000000000 PUSH1 0x0 MSTORE PUSH1 0x32 PUSH1 0x4 MSTORE PUSH1 0x24 PUSH1 0x0 REVERT JUMPDEST PUSH3 0xFC3 DUP2 PUSH3 0x7C1 JUMP JUMPDEST DUP3 MSTORE POP POP JUMP JUMPDEST PUSH1 0x0 PUSH1 0x40 DUP3 ADD SWAP1 POP PUSH3 0xFE0 PUSH1 0x0 DUP4 ADD DUP6 PUSH3 0xFB8 JUMP JUMPDEST PUSH3 0xFEF PUSH1 0x20 DUP4 ADD DUP5 PUSH3 0xFB8 JUMP JUMPDEST SWAP4 SWAP3 POP POP POP JUMP JUMPDEST PUSH1 0x0 PUSH1 0x20 DUP3 DUP5 SUB SLT ISZERO PUSH3 0x100F JUMPI PUSH3 0x100E PUSH3 0x5D3 JUMP JUMPDEST JUMPDEST PUSH1 0x0 PUSH3 0x101F DUP5 DUP3 DUP6 ADD PUSH3 0x7EF JUMP JUMPDEST SWAP2 POP POP SWAP3 SWAP2 POP POP JUMP JUMPDEST PUSH1 0x0 PUSH3 0x1035 DUP3 PUSH3 0x766 JUMP JUMPDEST SWAP2 POP PUSH32 0xFFFFFFFFFFFFFFFFFFFFFFFFFFFFFFFFFFFFFFFFFFFFFFFFFFFFFFFFFFFFFFFF DUP3 SUB PUSH3 0x106A JUMPI PUSH3 0x1069 PUSH3 0xD47 JUMP JUMPDEST JUMPDEST PUSH1 0x1 DUP3 ADD SWAP1 POP SWAP2 SWAP1 POP JUMP JUMPDEST PUSH1 0x0 DUP3 DUP3 MSTORE PUSH1 0x20 DUP3 ADD SWAP1 POP SWAP3 SWAP2 POP POP JUMP JUMPDEST PUSH32 0x45524332303A206D696E7420746F20746865207A65726F206164647265737300 PUSH1 0x0 DUP3 ADD MSTORE POP JUMP JUMPDEST PUSH1 0x0 PUSH3 0x10BE PUSH1 0x1F DUP4 PUSH3 0x1075 JUMP JUMPDEST SWAP2 POP PUSH3 0x10CB DUP3 PUSH3 0x1086 JUMP JUMPDEST PUSH1 0x20 DUP3 ADD SWAP1 POP SWAP2 SWAP1 POP JUMP JUMPDEST PUSH1 0x0 PUSH1 0x20 DUP3 ADD SWAP1 POP DUP2 DUP2 SUB PUSH1 0x0 DUP4 ADD MSTORE PUSH3 0x10F1 DUP2 PUSH3 0x10AF JUMP JUMPDEST SWAP1 POP SWAP2 SWAP1 POP JUMP JUMPDEST PUSH1 0x0 PUSH3 0x1105 DUP3 PUSH3 0x766 JUMP JUMPDEST SWAP2 POP PUSH3 0x1112 DUP4 PUSH3 0x766 JUMP JUMPDEST SWAP3 POP DUP3 PUSH32 0xFFFFFFFFFFFFFFFFFFFFFFFFFFFFFFFFFFFFFFFFFFFFFFFFFFFFFFFFFFFFFFFF SUB DUP3 GT ISZERO PUSH3 0x114A JUMPI PUSH3 0x1149 PUSH3 0xD47 JUMP JUMPDEST JUMPDEST DUP3 DUP3 ADD SWAP1 POP SWAP3 SWAP2 POP POP JUMP JUMPDEST PUSH3 0x1160 DUP2 PUSH3 0x766 JUMP JUMPDEST DUP3 MSTORE POP POP JUMP JUMPDEST PUSH1 0x0 PUSH1 0x20 DUP3 ADD SWAP1 POP PUSH3 0x117D PUSH1 0x0 DUP4 ADD DUP5 PUSH3 0x1155 JUMP JUMPDEST SWAP3 SWAP2 POP POP JUMP JUMPDEST PUSH32 0x4F776E61626C653A206E6577206F776E657220697320746865207A65726F2061 PUSH1 0x0 DUP3 ADD MSTORE PUSH32 0x6464726573730000000000000000000000000000000000000000000000000000 PUSH1 0x20 DUP3 ADD MSTORE POP JUMP JUMPDEST PUSH1 0x0 PUSH3 0x11E1 PUSH1 0x26 DUP4 PUSH3 0x1075 JUMP JUMPDEST SWAP2 POP PUSH3 0x11EE DUP3 PUSH3 0x1183 JUMP JUMPDEST PUSH1 0x40 DUP3 ADD SWAP1 POP SWAP2 SWAP1 POP JUMP JUMPDEST PUSH1 0x0 PUSH1 0x20 DUP3 ADD SWAP1 POP DUP2 DUP2 SUB PUSH1 0x0 DUP4 ADD MSTORE PUSH3 0x1214 DUP2 PUSH3 0x11D2 JUMP JUMPDEST SWAP1 POP SWAP2 SWAP1 POP JUMP JUMPDEST PUSH32 0x4F776E61626C653A2063616C6C6572206973206E6F7420746865206F776E6572 PUSH1 0x0 DUP3 ADD MSTORE POP JUMP JUMPDEST PUSH1 0x0 PUSH3 0x1253 PUSH1 0x20 DUP4 PUSH3 0x1075 JUMP JUMPDEST SWAP2 POP PUSH3 0x1260 DUP3 PUSH3 0x121B JUMP JUMPDEST PUSH1 0x20 DUP3 ADD SWAP1 POP SWAP2 SWAP1 POP JUMP JUMPDEST PUSH1 0x0 PUSH1 0x20 DUP3 ADD SWAP1 POP DUP2 DUP2 SUB PUSH1 0x0 DUP4 ADD MSTORE PUSH3 0x1286 DUP2 PUSH3 0x1244 JUMP JUMPDEST SWAP1 POP SWAP2 SWAP1 POP JUMP JUMPDEST PUSH2 0x235A DUP1 PUSH3 0x129D PUSH1 0x0 CODECOPY PUSH1 0x0 RETURN INVALID PUSH1 0x80 PUSH1 0x40 MSTORE CALLVALUE DUP1 ISZERO PUSH2 0x10 JUMPI PUSH1 0x0 DUP1 REVERT JUMPDEST POP PUSH1 0x4 CALLDATASIZE LT PUSH2 0x12C JUMPI PUSH1 0x0 CALLDATALOAD PUSH1 0xE0 SHR DUP1 PUSH4 0x60019DE8 GT PUSH2 0xAD JUMPI DUP1 PUSH4 0x95D89B41 GT PUSH2 0x71 JUMPI DUP1 PUSH4 0x95D89B41 EQ PUSH2 0x345 JUMPI DUP1 PUSH4 0xA457C2D7 EQ PUSH2 0x363 JUMPI DUP1 PUSH4 0xA9059CBB EQ PUSH2 0x393 JUMPI DUP1 PUSH4 0xDD62ED3E EQ PUSH2 0x3C3 JUMPI DUP1 PUSH4 0xF2FDE38B EQ PUSH2 0x3F3 JUMPI PUSH2 0x12C JUMP JUMPDEST DUP1 PUSH4 0x60019DE8 EQ PUSH2 0x28D JUMPI DUP1 PUSH4 0x70A08231 EQ PUSH2 0x2BD JUMPI DUP1 PUSH4 0x715018A6 EQ PUSH2 0x2ED JUMPI DUP1 PUSH4 0x8DA5CB5B EQ PUSH2 0x2F7 JUMPI DUP1 PUSH4 0x9191A9C7 EQ PUSH2 0x315 JUMPI PUSH2 0x12C JUMP JUMPDEST DUP1 PUSH4 0x23B872DD GT PUSH2 0xF4 JUMPI DUP1 PUSH4 0x23B872DD EQ PUSH2 0x1D7 JUMPI DUP1 PUSH4 0x313CE567 EQ PUSH2 0x207 JUMPI DUP1 PUSH4 0x39509351 EQ PUSH2 0x225 JUMPI DUP1 PUSH4 0x40C10F19 EQ PUSH2 0x255 JUMPI DUP1 PUSH4 0x4B457327 EQ PUSH2 0x271 JUMPI PUSH2 0x12C JUMP JUMPDEST DUP1 PUSH4 0x6FDDE03 EQ PUSH2 0x131 JUMPI DUP1 PUSH4 0x95EA7B3 EQ PUSH2 0x14F JUMPI DUP1 PUSH4 0xA656923 EQ PUSH2 0x17F JUMPI DUP1 PUSH4 0x18160DDD EQ PUSH2 0x19B JUMPI DUP1 PUSH4 0x19A5E426 EQ PUSH2 0x1B9 JUMPI JUMPDEST PUSH1 0x0 DUP1 REVERT JUMPDEST PUSH2 0x139 PUSH2 0x40F JUMP JUMPDEST PUSH1 0x40 MLOAD PUSH2 0x146 SWAP2 SWAP1 PUSH2 0x1682 JUMP JUMPDEST PUSH1 0x40 MLOAD DUP1 SWAP2 SUB SWAP1 RETURN JUMPDEST PUSH2 0x169 PUSH1 0x4 DUP1 CALLDATASIZE SUB DUP2 ADD SWAP1 PUSH2 0x164 SWAP2 SWAP1 PUSH2 0x173D JUMP JUMPDEST PUSH2 0x4A1 JUMP JUMPDEST PUSH1 0x40 MLOAD PUSH2 0x176 SWAP2 SWAP1 PUSH2 0x1798 JUMP JUMPDEST PUSH1 0x40 MLOAD DUP1 SWAP2 SUB SWAP1 RETURN JUMPDEST PUSH2 0x199 PUSH1 0x4 DUP1 CALLDATASIZE SUB DUP2 ADD SWAP1 PUSH2 0x194 SWAP2 SWAP1 PUSH2 0x17DF JUMP JUMPDEST PUSH2 0x4C4 JUMP JUMPDEST STOP JUMPDEST PUSH2 0x1A3 PUSH2 0x527 JUMP JUMPDEST PUSH1 0x40 MLOAD PUSH2 0x1B0 SWAP2 SWAP1 PUSH2 0x182E JUMP JUMPDEST PUSH1 0x40 MLOAD DUP1 SWAP2 SUB SWAP1 RETURN JUMPDEST PUSH2 0x1C1 PUSH2 0x531 JUMP JUMPDEST PUSH1 0x40 MLOAD PUSH2 0x1CE SWAP2 SWAP1 PUSH2 0x1907 JUMP JUMPDEST PUSH1 0x40 MLOAD DUP1 SWAP2 SUB SWAP1 RETURN JUMPDEST PUSH2 0x1F1 PUSH1 0x4 DUP1 CALLDATASIZE SUB DUP2 ADD SWAP1 PUSH2 0x1EC SWAP2 SWAP1 PUSH2 0x1929 JUMP JUMPDEST PUSH2 0x5BF JUMP JUMPDEST PUSH1 0x40 MLOAD PUSH2 0x1FE SWAP2 SWAP1 PUSH2 0x1798 JUMP JUMPDEST PUSH1 0x40 MLOAD DUP1 SWAP2 SUB SWAP1 RETURN JUMPDEST PUSH2 0x20F PUSH2 0x5EE JUMP JUMPDEST PUSH1 0x40 MLOAD PUSH2 0x21C SWAP2 SWAP1 PUSH2 0x1998 JUMP JUMPDEST PUSH1 0x40 MLOAD DUP1 SWAP2 SUB SWAP1 RETURN JUMPDEST PUSH2 0x23F PUSH1 0x4 DUP1 CALLDATASIZE SUB DUP2 ADD SWAP1 PUSH2 0x23A SWAP2 SWAP1 PUSH2 0x173D JUMP JUMPDEST PUSH2 0x5F7 JUMP JUMPDEST PUSH1 0x40 MLOAD PUSH2 0x24C SWAP2 SWAP1 PUSH2 0x1798 JUMP JUMPDEST PUSH1 0x40 MLOAD DUP1 SWAP2 SUB SWAP1 RETURN JUMPDEST PUSH2 0x26F PUSH1 0x4 DUP1 CALLDATASIZE SUB DUP2 ADD SWAP1 PUSH2 0x26A SWAP2 SWAP1 PUSH2 0x173D JUMP JUMPDEST PUSH2 0x62E JUMP JUMPDEST STOP JUMPDEST PUSH2 0x28B PUSH1 0x4 DUP1 CALLDATASIZE SUB DUP2 ADD SWAP1 PUSH2 0x286 SWAP2 SWAP1 PUSH2 0x17DF JUMP JUMPDEST PUSH2 0x644 JUMP JUMPDEST STOP JUMPDEST PUSH2 0x2A7 PUSH1 0x4 DUP1 CALLDATASIZE SUB DUP2 ADD SWAP1 PUSH2 0x2A2 SWAP2 SWAP1 PUSH2 0x19B3 JUMP JUMPDEST PUSH2 0x970 JUMP JUMPDEST PUSH1 0x40 MLOAD PUSH2 0x2B4 SWAP2 SWAP1 PUSH2 0x1798 JUMP JUMPDEST PUSH1 0x40 MLOAD DUP1 SWAP2 SUB SWAP1 RETURN JUMPDEST PUSH2 0x2D7 PUSH1 0x4 DUP1 CALLDATASIZE SUB DUP2 ADD SWAP1 PUSH2 0x2D2 SWAP2 SWAP1 PUSH2 0x19B3 JUMP JUMPDEST PUSH2 0x990 JUMP JUMPDEST PUSH1 0x40 MLOAD PUSH2 0x2E4 SWAP2 SWAP1 PUSH2 0x182E JUMP JUMPDEST PUSH1 0x40 MLOAD DUP1 SWAP2 SUB SWAP1 RETURN JUMPDEST PUSH2 0x2F5 PUSH2 0x9D8 JUMP JUMPDEST STOP JUMPDEST PUSH2 0x2FF PUSH2 0x9EC JUMP JUMPDEST PUSH1 0x40 MLOAD PUSH2 0x30C SWAP2 SWAP1 PUSH2 0x19EF JUMP JUMPDEST PUSH1 0x40 MLOAD DUP1 SWAP2 SUB SWAP1 RETURN JUMPDEST PUSH2 0x32F PUSH1 0x4 DUP1 CALLDATASIZE SUB DUP2 ADD SWAP1 PUSH2 0x32A SWAP2 SWAP1 PUSH2 0x19B3 JUMP JUMPDEST PUSH2 0xA16 JUMP JUMPDEST PUSH1 0x40 MLOAD PUSH2 0x33C SWAP2 SWAP1 PUSH2 0x1798 JUMP JUMPDEST PUSH1 0x40 MLOAD DUP1 SWAP2 SUB SWAP1 RETURN JUMPDEST PUSH2 0x34D PUSH2 0xA36 JUMP JUMPDEST PUSH1 0x40 MLOAD PUSH2 0x35A SWAP2 SWAP1 PUSH2 0x1682 JUMP JUMPDEST PUSH1 0x40 MLOAD DUP1 SWAP2 SUB SWAP1 RETURN JUMPDEST PUSH2 0x37D PUSH1 0x4 DUP1 CALLDATASIZE SUB DUP2 ADD SWAP1 PUSH2 0x378 SWAP2 SWAP1 PUSH2 0x173D JUMP JUMPDEST PUSH2 0xAC8 JUMP JUMPDEST PUSH1 0x40 MLOAD PUSH2 0x38A SWAP2 SWAP1 PUSH2 0x1798 JUMP JUMPDEST PUSH1 0x40 MLOAD DUP1 SWAP2 SUB SWAP1 RETURN JUMPDEST PUSH2 0x3AD PUSH1 0x4 DUP1 CALLDATASIZE SUB DUP2 ADD SWAP1 PUSH2 0x3A8 SWAP2 SWAP1 PUSH2 0x173D JUMP JUMPDEST PUSH2 0xB3F JUMP JUMPDEST PUSH1 0x40 MLOAD PUSH2 0x3BA SWAP2 SWAP1 PUSH2 0x1798 JUMP JUMPDEST PUSH1 0x40 MLOAD DUP1 SWAP2 SUB SWAP1 RETURN JUMPDEST PUSH2 0x3DD PUSH1 0x4 DUP1 CALLDATASIZE SUB DUP2 ADD SWAP1 PUSH2 0x3D8 SWAP2 SWAP1 PUSH2 0x1A0A JUMP JUMPDEST PUSH2 0xB62 JUMP JUMPDEST PUSH1 0x40 MLOAD PUSH2 0x3EA SWAP2 SWAP1 PUSH2 0x182E JUMP JUMPDEST PUSH1 0x40 MLOAD DUP1 SWAP2 SUB SWAP1 RETURN JUMPDEST PUSH2 0x40D PUSH1 0x4 DUP1 CALLDATASIZE SUB DUP2 ADD SWAP1 PUSH2 0x408 SWAP2 SWAP1 PUSH2 0x19B3 JUMP JUMPDEST PUSH2 0xBE9 JUMP JUMPDEST STOP JUMPDEST PUSH1 0x60 PUSH1 0x3 DUP1 SLOAD PUSH2 0x41E SWAP1 PUSH2 0x1A79 JUMP JUMPDEST DUP1 PUSH1 0x1F ADD PUSH1 0x20 DUP1 SWAP2 DIV MUL PUSH1 0x20 ADD PUSH1 0x40 MLOAD SWAP1 DUP2 ADD PUSH1 0x40 MSTORE DUP1 SWAP3 SWAP2 SWAP1 DUP2 DUP2 MSTORE PUSH1 0x20 ADD DUP3 DUP1 SLOAD PUSH2 0x44A SWAP1 PUSH2 0x1A79 JUMP JUMPDEST DUP1 ISZERO PUSH2 0x497 JUMPI DUP1 PUSH1 0x1F LT PUSH2 0x46C JUMPI PUSH2 0x100 DUP1 DUP4 SLOAD DIV MUL DUP4 MSTORE SWAP2 PUSH1 0x20 ADD SWAP2 PUSH2 0x497 JUMP JUMPDEST DUP3 ADD SWAP2 SWAP1 PUSH1 0x0 MSTORE PUSH1 0x20 PUSH1 0x0 KECCAK256 SWAP1 JUMPDEST DUP2 SLOAD DUP2 MSTORE SWAP1 PUSH1 0x1 ADD SWAP1 PUSH1 0x20 ADD DUP1 DUP4 GT PUSH2 0x47A JUMPI DUP3 SWAP1 SUB PUSH1 0x1F AND DUP3 ADD SWAP2 JUMPDEST POP POP POP POP POP SWAP1 POP SWAP1 JUMP JUMPDEST PUSH1 0x0 DUP1 PUSH2 0x4AC PUSH2 0xC6C JUMP JUMPDEST SWAP1 POP PUSH2 0x4B9 DUP2 DUP6 DUP6 PUSH2 0xC74 JUMP JUMPDEST PUSH1 0x1 SWAP2 POP POP SWAP3 SWAP2 POP POP JUMP JUMPDEST PUSH2 0x4CC PUSH2 0xE3D JUMP JUMPDEST DUP1 PUSH1 0x7 PUSH1 0x0 DUP5 PUSH20 0xFFFFFFFFFFFFFFFFFFFFFFFFFFFFFFFFFFFFFFFF AND PUSH20 0xFFFFFFFFFFFFFFFFFFFFFFFFFFFFFFFFFFFFFFFF AND DUP2 MSTORE PUSH1 0x20 ADD SWAP1 DUP2 MSTORE PUSH1 0x20 ADD PUSH1 0x0 KECCAK256 PUSH1 0x0 PUSH2 0x100 EXP DUP2 SLOAD DUP2 PUSH1 0xFF MUL NOT AND SWAP1 DUP4 ISZERO ISZERO MUL OR SWAP1 SSTORE POP POP POP JUMP JUMPDEST PUSH1 0x0 PUSH1 0x2 SLOAD SWAP1 POP SWAP1 JUMP JUMPDEST PUSH1 0x60 PUSH1 0x8 DUP1 SLOAD DUP1 PUSH1 0x20 MUL PUSH1 0x20 ADD PUSH1 0x40 MLOAD SWAP1 DUP2 ADD PUSH1 0x40 MSTORE DUP1 SWAP3 SWAP2 SWAP1 DUP2 DUP2 MSTORE PUSH1 0x20 ADD DUP3 DUP1 SLOAD DUP1 ISZERO PUSH2 0x5B5 JUMPI PUSH1 0x20 MUL DUP3 ADD SWAP2 SWAP1 PUSH1 0x0 MSTORE PUSH1 0x20 PUSH1 0x0 KECCAK256 SWAP1 JUMPDEST DUP2 PUSH1 0x0 SWAP1 SLOAD SWAP1 PUSH2 0x100 EXP SWAP1 DIV PUSH20 0xFFFFFFFFFFFFFFFFFFFFFFFFFFFFFFFFFFFFFFFF AND PUSH20 0xFFFFFFFFFFFFFFFFFFFFFFFFFFFFFFFFFFFFFFFF AND DUP2 MSTORE PUSH1 0x20 ADD SWAP1 PUSH1 0x1 ADD SWAP1 DUP1 DUP4 GT PUSH2 0x56B JUMPI JUMPDEST POP POP POP POP POP SWAP1 POP SWAP1 JUMP JUMPDEST PUSH1 0x0 DUP1 PUSH2 0x5CA PUSH2 0xC6C JUMP JUMPDEST SWAP1 POP PUSH2 0x5D7 DUP6 DUP3 DUP6 PUSH2 0xEBB JUMP JUMPDEST PUSH2 0x5E2 DUP6 DUP6 DUP6 PUSH2 0xF47 JUMP JUMPDEST PUSH1 0x1 SWAP2 POP POP SWAP4 SWAP3 POP POP POP JUMP JUMPDEST PUSH1 0x0 PUSH1 0x9 SWAP1 POP SWAP1 JUMP JUMPDEST PUSH1 0x0 DUP1 PUSH2 0x602 PUSH2 0xC6C JUMP JUMPDEST SWAP1 POP PUSH2 0x623 DUP2 DUP6 DUP6 PUSH2 0x614 DUP6 DUP10 PUSH2 0xB62 JUMP JUMPDEST PUSH2 0x61E SWAP2 SWAP1 PUSH2 0x1AD9 JUMP JUMPDEST PUSH2 0xC74 JUMP JUMPDEST PUSH1 0x1 SWAP2 POP POP SWAP3 SWAP2 POP POP JUMP JUMPDEST PUSH2 0x636 PUSH2 0xE3D JUMP JUMPDEST PUSH2 0x640 DUP3 DUP3 PUSH2 0x113B JUMP JUMPDEST POP POP JUMP JUMPDEST PUSH2 0x64C PUSH2 0xE3D JUMP JUMPDEST PUSH1 0x6 PUSH1 0x0 DUP4 PUSH20 0xFFFFFFFFFFFFFFFFFFFFFFFFFFFFFFFFFFFFFFFF AND PUSH20 0xFFFFFFFFFFFFFFFFFFFFFFFFFFFFFFFFFFFFFFFF AND DUP2 MSTORE PUSH1 0x20 ADD SWAP1 DUP2 MSTORE PUSH1 0x20 ADD PUSH1 0x0 KECCAK256 PUSH1 0x0 SWAP1 SLOAD SWAP1 PUSH2 0x100 EXP SWAP1 DIV PUSH1 0xFF AND ISZERO ISZERO DUP2 ISZERO ISZERO SUB PUSH2 0x6DE JUMPI PUSH1 0x40 MLOAD PUSH32 0x8C379A000000000000000000000000000000000000000000000000000000000 DUP2 MSTORE PUSH1 0x4 ADD PUSH2 0x6D5 SWAP1 PUSH2 0x1B7B JUMP JUMPDEST PUSH1 0x40 MLOAD DUP1 SWAP2 SUB SWAP1 REVERT JUMPDEST DUP1 PUSH1 0x6 PUSH1 0x0 DUP5 PUSH20 0xFFFFFFFFFFFFFFFFFFFFFFFFFFFFFFFFFFFFFFFF AND PUSH20 0xFFFFFFFFFFFFFFFFFFFFFFFFFFFFFFFFFFFFFFFF AND DUP2 MSTORE PUSH1 0x20 ADD SWAP1 DUP2 MSTORE PUSH1 0x20 ADD PUSH1 0x0 KECCAK256 PUSH1 0x0 PUSH2 0x100 EXP DUP2 SLOAD DUP2 PUSH1 0xFF MUL NOT AND SWAP1 DUP4 ISZERO ISZERO MUL OR SWAP1 SSTORE POP PUSH32 0x3F271EF70917891187A24965DFC33E941E3961C77B6BB27F3846239975C32B7C DUP3 DUP3 PUSH1 0x40 MLOAD PUSH2 0x766 SWAP3 SWAP2 SWAP1 PUSH2 0x1B9B JUMP JUMPDEST PUSH1 0x40 MLOAD DUP1 SWAP2 SUB SWAP1 LOG1 DUP1 ISZERO PUSH2 0x7DC JUMPI PUSH1 0x8 DUP3 SWAP1 DUP1 PUSH1 0x1 DUP2 SLOAD ADD DUP1 DUP3 SSTORE DUP1 SWAP2 POP POP PUSH1 0x1 SWAP1 SUB SWAP1 PUSH1 0x0 MSTORE PUSH1 0x20 PUSH1 0x0 KECCAK256 ADD PUSH1 0x0 SWAP1 SWAP2 SWAP1 SWAP2 SWAP1 SWAP2 PUSH2 0x100 EXP DUP2 SLOAD DUP2 PUSH20 0xFFFFFFFFFFFFFFFFFFFFFFFFFFFFFFFFFFFFFFFF MUL NOT AND SWAP1 DUP4 PUSH20 0xFFFFFFFFFFFFFFFFFFFFFFFFFFFFFFFFFFFFFFFF AND MUL OR SWAP1 SSTORE POP PUSH2 0x96B JUMP JUMPDEST PUSH1 0x0 JUMPDEST PUSH1 0x8 DUP1 SLOAD SWAP1 POP DUP2 LT ISZERO PUSH2 0x969 JUMPI DUP3 PUSH20 0xFFFFFFFFFFFFFFFFFFFFFFFFFFFFFFFFFFFFFFFF AND PUSH1 0x8 DUP3 DUP2 SLOAD DUP2 LT PUSH2 0x817 JUMPI PUSH2 0x816 PUSH2 0x1BC4 JUMP JUMPDEST JUMPDEST SWAP1 PUSH1 0x0 MSTORE PUSH1 0x20 PUSH1 0x0 KECCAK256 ADD PUSH1 0x0 SWAP1 SLOAD SWAP1 PUSH2 0x100 EXP SWAP1 DIV PUSH20 0xFFFFFFFFFFFFFFFFFFFFFFFFFFFFFFFFFFFFFFFF AND PUSH20 0xFFFFFFFFFFFFFFFFFFFFFFFFFFFFFFFFFFFFFFFF AND SUB PUSH2 0x956 JUMPI PUSH1 0x8 PUSH1 0x1 PUSH1 0x8 DUP1 SLOAD SWAP1 POP PUSH2 0x871 SWAP2 SWAP1 PUSH2 0x1BF3 JUMP JUMPDEST DUP2 SLOAD DUP2 LT PUSH2 0x882 JUMPI PUSH2 0x881 PUSH2 0x1BC4 JUMP JUMPDEST JUMPDEST SWAP1 PUSH1 0x0 MSTORE PUSH1 0x20 PUSH1 0x0 KECCAK256 ADD PUSH1 0x0 SWAP1 SLOAD SWAP1 PUSH2 0x100 EXP SWAP1 DIV PUSH20 0xFFFFFFFFFFFFFFFFFFFFFFFFFFFFFFFFFFFFFFFF AND PUSH1 0x8 DUP3 DUP2 SLOAD DUP2 LT PUSH2 0x8C1 JUMPI PUSH2 0x8C0 PUSH2 0x1BC4 JUMP JUMPDEST JUMPDEST SWAP1 PUSH1 0x0 MSTORE PUSH1 0x20 PUSH1 0x0 KECCAK256 ADD PUSH1 0x0 PUSH2 0x100 EXP DUP2 SLOAD DUP2 PUSH20 0xFFFFFFFFFFFFFFFFFFFFFFFFFFFFFFFFFFFFFFFF MUL NOT AND SWAP1 DUP4 PUSH20 0xFFFFFFFFFFFFFFFFFFFFFFFFFFFFFFFFFFFFFFFF AND MUL OR SWAP1 SSTORE POP PUSH1 0x8 DUP1 SLOAD DUP1 PUSH2 0x91B JUMPI PUSH2 0x91A PUSH2 0x1C27 JUMP JUMPDEST JUMPDEST PUSH1 0x1 SWAP1 SUB DUP2 DUP2 SWAP1 PUSH1 0x0 MSTORE PUSH1 0x20 PUSH1 0x0 KECCAK256 ADD PUSH1 0x0 PUSH2 0x100 EXP DUP2 SLOAD SWAP1 PUSH20 0xFFFFFFFFFFFFFFFFFFFFFFFFFFFFFFFFFFFFFFFF MUL NOT AND SWAP1 SSTORE SWAP1 SSTORE POP PUSH2 0x96C JUMP JUMPDEST DUP1 DUP1 PUSH2 0x961 SWAP1 PUSH2 0x1C56 JUMP JUMPDEST SWAP2 POP POP PUSH2 0x7DF JUMP JUMPDEST POP JUMPDEST JUMPDEST POP POP JUMP JUMPDEST PUSH1 0x6 PUSH1 0x20 MSTORE DUP1 PUSH1 0x0 MSTORE PUSH1 0x40 PUSH1 0x0 KECCAK256 PUSH1 0x0 SWAP2 POP SLOAD SWAP1 PUSH2 0x100 EXP SWAP1 DIV PUSH1 0xFF AND DUP2 JUMP JUMPDEST PUSH1 0x0 DUP1 PUSH1 0x0 DUP4 PUSH20 0xFFFFFFFFFFFFFFFFFFFFFFFFFFFFFFFFFFFFFFFF AND PUSH20 0xFFFFFFFFFFFFFFFFFFFFFFFFFFFFFFFFFFFFFFFF AND DUP2 MSTORE PUSH1 0x20 ADD SWAP1 DUP2 MSTORE PUSH1 0x20 ADD PUSH1 0x0 KECCAK256 SLOAD SWAP1 POP SWAP2 SWAP1 POP JUMP JUMPDEST PUSH2 0x9E0 PUSH2 0xE3D JUMP JUMPDEST PUSH2 0x9EA PUSH1 0x0 PUSH2 0x129A JUMP JUMPDEST JUMP JUMPDEST PUSH1 0x0 PUSH1 0x5 PUSH1 0x0 SWAP1 SLOAD SWAP1 PUSH2 0x100 EXP SWAP1 DIV PUSH20 0xFFFFFFFFFFFFFFFFFFFFFFFFFFFFFFFFFFFFFFFF AND SWAP1 POP SWAP1 JUMP JUMPDEST PUSH1 0x7 PUSH1 0x20 MSTORE DUP1 PUSH1 0x0 MSTORE PUSH1 0x40 PUSH1 0x0 KECCAK256 PUSH1 0x0 SWAP2 POP SLOAD SWAP1 PUSH2 0x100 EXP SWAP1 DIV PUSH1 0xFF AND DUP2 JUMP JUMPDEST PUSH1 0x60 PUSH1 0x4 DUP1 SLOAD PUSH2 0xA45 SWAP1 PUSH2 0x1A79 JUMP JUMPDEST DUP1 PUSH1 0x1F ADD PUSH1 0x20 DUP1 SWAP2 DIV MUL PUSH1 0x20 ADD PUSH1 0x40 MLOAD SWAP1 DUP2 ADD PUSH1 0x40 MSTORE DUP1 SWAP3 SWAP2 SWAP1 DUP2 DUP2 MSTORE PUSH1 0x20 ADD DUP3 DUP1 SLOAD PUSH2 0xA71 SWAP1 PUSH2 0x1A79 JUMP JUMPDEST DUP1 ISZERO PUSH2 0xABE JUMPI DUP1 PUSH1 0x1F LT PUSH2 0xA93 JUMPI PUSH2 0x100 DUP1 DUP4 SLOAD DIV MUL DUP4 MSTORE SWAP2 PUSH1 0x20 ADD SWAP2 PUSH2 0xABE JUMP JUMPDEST DUP3 ADD SWAP2 SWAP1 PUSH1 0x0 MSTORE PUSH1 0x20 PUSH1 0x0 KECCAK256 SWAP1 JUMPDEST DUP2 SLOAD DUP2 MSTORE SWAP1 PUSH1 0x1 ADD SWAP1 PUSH1 0x20 ADD DUP1 DUP4 GT PUSH2 0xAA1 JUMPI DUP3 SWAP1 SUB PUSH1 0x1F AND DUP3 ADD SWAP2 JUMPDEST POP POP POP POP POP SWAP1 POP SWAP1 JUMP JUMPDEST PUSH1 0x0 DUP1 PUSH2 0xAD3 PUSH2 0xC6C JUMP JUMPDEST SWAP1 POP PUSH1 0x0 PUSH2 0xAE1 DUP3 DUP7 PUSH2 0xB62 JUMP JUMPDEST SWAP1 POP DUP4 DUP2 LT ISZERO PUSH2 0xB26 JUMPI PUSH1 0x40 MLOAD PUSH32 0x8C379A000000000000000000000000000000000000000000000000000000000 DUP2 MSTORE PUSH1 0x4 ADD PUSH2 0xB1D SWAP1 PUSH2 0x1D10 JUMP JUMPDEST PUSH1 0x40 MLOAD DUP1 SWAP2 SUB SWAP1 REVERT JUMPDEST PUSH2 0xB33 DUP3 DUP7 DUP7 DUP5 SUB PUSH2 0xC74 JUMP JUMPDEST PUSH1 0x1 SWAP3 POP POP POP SWAP3 SWAP2 POP POP JUMP JUMPDEST PUSH1 0x0 DUP1 PUSH2 0xB4A PUSH2 0xC6C JUMP JUMPDEST SWAP1 POP PUSH2 0xB57 DUP2 DUP6 DUP6 PUSH2 0xF47 JUMP JUMPDEST PUSH1 0x1 SWAP2 POP POP SWAP3 SWAP2 POP POP JUMP JUMPDEST PUSH1 0x0 PUSH1 0x1 PUSH1 0x0 DUP5 PUSH20 0xFFFFFFFFFFFFFFFFFFFFFFFFFFFFFFFFFFFFFFFF AND PUSH20 0xFFFFFFFFFFFFFFFFFFFFFFFFFFFFFFFFFFFFFFFF AND DUP2 MSTORE PUSH1 0x20 ADD SWAP1 DUP2 MSTORE PUSH1 0x20 ADD PUSH1 0x0 KECCAK256 PUSH1 0x0 DUP4 PUSH20 0xFFFFFFFFFFFFFFFFFFFFFFFFFFFFFFFFFFFFFFFF AND PUSH20 0xFFFFFFFFFFFFFFFFFFFFFFFFFFFFFFFFFFFFFFFF AND DUP2 MSTORE PUSH1 0x20 ADD SWAP1 DUP2 MSTORE PUSH1 0x20 ADD PUSH1 0x0 KECCAK256 SLOAD SWAP1 POP SWAP3 SWAP2 POP POP JUMP JUMPDEST PUSH2 0xBF1 PUSH2 0xE3D JUMP JUMPDEST PUSH1 0x0 PUSH20 0xFFFFFFFFFFFFFFFFFFFFFFFFFFFFFFFFFFFFFFFF AND DUP2 PUSH20 0xFFFFFFFFFFFFFFFFFFFFFFFFFFFFFFFFFFFFFFFF AND SUB PUSH2 0xC60 JUMPI PUSH1 0x40 MLOAD PUSH32 0x8C379A000000000000000000000000000000000000000000000000000000000 DUP2 MSTORE PUSH1 0x4 ADD PUSH2 0xC57 SWAP1 PUSH2 0x1DA2 JUMP JUMPDEST PUSH1 0x40 MLOAD DUP1 SWAP2 SUB SWAP1 REVERT JUMPDEST PUSH2 0xC69 DUP2 PUSH2 0x129A JUMP JUMPDEST POP JUMP JUMPDEST PUSH1 0x0 CALLER SWAP1 POP SWAP1 JUMP JUMPDEST PUSH1 0x0 PUSH20 0xFFFFFFFFFFFFFFFFFFFFFFFFFFFFFFFFFFFFFFFF AND DUP4 PUSH20 0xFFFFFFFFFFFFFFFFFFFFFFFFFFFFFFFFFFFFFFFF AND SUB PUSH2 0xCE3 JUMPI PUSH1 0x40 MLOAD PUSH32 0x8C379A000000000000000000000000000000000000000000000000000000000 DUP2 MSTORE PUSH1 0x4 ADD PUSH2 0xCDA SWAP1 PUSH2 0x1E34 JUMP JUMPDEST PUSH1 0x40 MLOAD DUP1 SWAP2 SUB SWAP1 REVERT JUMPDEST PUSH1 0x0 PUSH20 0xFFFFFFFFFFFFFFFFFFFFFFFFFFFFFFFFFFFFFFFF AND DUP3 PUSH20 0xFFFFFFFFFFFFFFFFFFFFFFFFFFFFFFFFFFFFFFFF AND SUB PUSH2 0xD52 JUMPI PUSH1 0x40 MLOAD PUSH32 0x8C379A000000000000000000000000000000000000000000000000000000000 DUP2 MSTORE PUSH1 0x4 ADD PUSH2 0xD49 SWAP1 PUSH2 0x1EC6 JUMP JUMPDEST PUSH1 0x40 MLOAD DUP1 SWAP2 SUB SWAP1 REVERT JUMPDEST DUP1 PUSH1 0x1 PUSH1 0x0 DUP6 PUSH20 0xFFFFFFFFFFFFFFFFFFFFFFFFFFFFFFFFFFFFFFFF AND PUSH20 0xFFFFFFFFFFFFFFFFFFFFFFFFFFFFFFFFFFFFFFFF AND DUP2 MSTORE PUSH1 0x20 ADD SWAP1 DUP2 MSTORE PUSH1 0x20 ADD PUSH1 0x0 KECCAK256 PUSH1 0x0 DUP5 PUSH20 0xFFFFFFFFFFFFFFFFFFFFFFFFFFFFFFFFFFFFFFFF AND PUSH20 0xFFFFFFFFFFFFFFFFFFFFFFFFFFFFFFFFFFFFFFFF AND DUP2 MSTORE PUSH1 0x20 ADD SWAP1 DUP2 MSTORE PUSH1 0x20 ADD PUSH1 0x0 KECCAK256 DUP2 SWAP1 SSTORE POP DUP2 PUSH20 0xFFFFFFFFFFFFFFFFFFFFFFFFFFFFFFFFFFFFFFFF AND DUP4 PUSH20 0xFFFFFFFFFFFFFFFFFFFFFFFFFFFFFFFFFFFFFFFF AND PUSH32 0x8C5BE1E5EBEC7D5BD14F71427D1E84F3DD0314C0F7B2291E5B200AC8C7C3B925 DUP4 PUSH1 0x40 MLOAD PUSH2 0xE30 SWAP2 SWAP1 PUSH2 0x182E JUMP JUMPDEST PUSH1 0x40 MLOAD DUP1 SWAP2 SUB SWAP1 LOG3 POP POP POP JUMP JUMPDEST PUSH2 0xE45 PUSH2 0xC6C JUMP JUMPDEST PUSH20 0xFFFFFFFFFFFFFFFFFFFFFFFFFFFFFFFFFFFFFFFF AND PUSH2 0xE63 PUSH2 0x9EC JUMP JUMPDEST PUSH20 0xFFFFFFFFFFFFFFFFFFFFFFFFFFFFFFFFFFFFFFFF AND EQ PUSH2 0xEB9 JUMPI PUSH1 0x40 MLOAD PUSH32 0x8C379A000000000000000000000000000000000000000000000000000000000 DUP2 MSTORE PUSH1 0x4 ADD PUSH2 0xEB0 SWAP1 PUSH2 0x1F32 JUMP JUMPDEST PUSH1 0x40 MLOAD DUP1 SWAP2 SUB SWAP1 REVERT JUMPDEST JUMP JUMPDEST PUSH1 0x0 PUSH2 0xEC7 DUP5 DUP5 PUSH2 0xB62 JUMP JUMPDEST SWAP1 POP PUSH32 0xFFFFFFFFFFFFFFFFFFFFFFFFFFFFFFFFFFFFFFFFFFFFFFFFFFFFFFFFFFFFFFFF DUP2 EQ PUSH2 0xF41 JUMPI DUP2 DUP2 LT ISZERO PUSH2 0xF33 JUMPI PUSH1 0x40 MLOAD PUSH32 0x8C379A000000000000000000000000000000000000000000000000000000000 DUP2 MSTORE PUSH1 0x4 ADD PUSH2 0xF2A SWAP1 PUSH2 0x1F9E JUMP JUMPDEST PUSH1 0x40 MLOAD DUP1 SWAP2 SUB SWAP1 REVERT JUMPDEST PUSH2 0xF40 DUP5 DUP5 DUP5 DUP5 SUB PUSH2 0xC74 JUMP JUMPDEST JUMPDEST POP POP POP POP JUMP JUMPDEST PUSH1 0x6 PUSH1 0x0 DUP5 PUSH20 0xFFFFFFFFFFFFFFFFFFFFFFFFFFFFFFFFFFFFFFFF AND PUSH20 0xFFFFFFFFFFFFFFFFFFFFFFFFFFFFFFFFFFFFFFFF AND DUP2 MSTORE PUSH1 0x20 ADD SWAP1 DUP2 MSTORE PUSH1 0x20 ADD PUSH1 0x0 KECCAK256 PUSH1 0x0 SWAP1 SLOAD SWAP1 PUSH2 0x100 EXP SWAP1 DIV PUSH1 0xFF AND ISZERO PUSH2 0xFD4 JUMPI PUSH1 0x40 MLOAD PUSH32 0x8C379A000000000000000000000000000000000000000000000000000000000 DUP2 MSTORE PUSH1 0x4 ADD PUSH2 0xFCB SWAP1 PUSH2 0x200A JUMP JUMPDEST PUSH1 0x40 MLOAD DUP1 SWAP2 SUB SWAP1 REVERT JUMPDEST PUSH1 0x6 PUSH1 0x0 DUP4 PUSH20 0xFFFFFFFFFFFFFFFFFFFFFFFFFFFFFFFFFFFFFFFF AND PUSH20 0xFFFFFFFFFFFFFFFFFFFFFFFFFFFFFFFFFFFFFFFF AND DUP2 MSTORE PUSH1 0x20 ADD SWAP1 DUP2 MSTORE PUSH1 0x20 ADD PUSH1 0x0 KECCAK256 PUSH1 0x0 SWAP1 SLOAD SWAP1 PUSH2 0x100 EXP SWAP1 DIV PUSH1 0xFF AND ISZERO PUSH2 0x1061 JUMPI PUSH1 0x40 MLOAD PUSH32 0x8C379A000000000000000000000000000000000000000000000000000000000 DUP2 MSTORE PUSH1 0x4 ADD PUSH2 0x1058 SWAP1 PUSH2 0x2076 JUMP JUMPDEST PUSH1 0x40 MLOAD DUP1 SWAP2 SUB SWAP1 REVERT JUMPDEST PUSH2 0x1069 PUSH2 0x9EC JUMP JUMPDEST PUSH20 0xFFFFFFFFFFFFFFFFFFFFFFFFFFFFFFFFFFFFFFFF AND DUP4 PUSH20 0xFFFFFFFFFFFFFFFFFFFFFFFFFFFFFFFFFFFFFFFF AND EQ DUP1 PUSH2 0x10EC JUMPI POP PUSH1 0x7 PUSH1 0x0 DUP4 PUSH20 0xFFFFFFFFFFFFFFFFFFFFFFFFFFFFFFFFFFFFFFFF AND PUSH20 0xFFFFFFFFFFFFFFFFFFFFFFFFFFFFFFFFFFFFFFFF AND DUP2 MSTORE PUSH1 0x20 ADD SWAP1 DUP2 MSTORE PUSH1 0x20 ADD PUSH1 0x0 KECCAK256 PUSH1 0x0 SWAP1 SLOAD SWAP1 PUSH2 0x100 EXP SWAP1 DIV PUSH1 0xFF AND ISZERO JUMPDEST PUSH2 0x112B JUMPI PUSH1 0x40 MLOAD PUSH32 0x8C379A000000000000000000000000000000000000000000000000000000000 DUP2 MSTORE PUSH1 0x4 ADD PUSH2 0x1122 SWAP1 PUSH2 0x20E2 JUMP JUMPDEST PUSH1 0x40 MLOAD DUP1 SWAP2 SUB SWAP1 REVERT JUMPDEST PUSH2 0x1136 DUP4 DUP4 DUP4 PUSH2 0x1360 JUMP JUMPDEST POP POP POP JUMP JUMPDEST PUSH1 0x0 PUSH20 0xFFFFFFFFFFFFFFFFFFFFFFFFFFFFFFFFFFFFFFFF AND DUP3 PUSH20 0xFFFFFFFFFFFFFFFFFFFFFFFFFFFFFFFFFFFFFFFF AND SUB PUSH2 0x11AA JUMPI PUSH1 0x40 MLOAD PUSH32 0x8C379A000000000000000000000000000000000000000000000000000000000 DUP2 MSTORE PUSH1 0x4 ADD PUSH2 0x11A1 SWAP1 PUSH2 0x214E JUMP JUMPDEST PUSH1 0x40 MLOAD DUP1 SWAP2 SUB SWAP1 REVERT JUMPDEST PUSH2 0x11B6 PUSH1 0x0 DUP4 DUP4 PUSH2 0x15DF JUMP JUMPDEST DUP1 PUSH1 0x2 PUSH1 0x0 DUP3 DUP3 SLOAD PUSH2 0x11C8 SWAP2 SWAP1 PUSH2 0x1AD9 JUMP JUMPDEST SWAP3 POP POP DUP2 SWAP1 SSTORE POP DUP1 PUSH1 0x0 DUP1 DUP5 PUSH20 0xFFFFFFFFFFFFFFFFFFFFFFFFFFFFFFFFFFFFFFFF AND PUSH20 0xFFFFFFFFFFFFFFFFFFFFFFFFFFFFFFFFFFFFFFFF AND DUP2 MSTORE PUSH1 0x20 ADD SWAP1 DUP2 MSTORE PUSH1 0x20 ADD PUSH1 0x0 KECCAK256 PUSH1 0x0 DUP3 DUP3 SLOAD PUSH2 0x121D SWAP2 SWAP1 PUSH2 0x1AD9 JUMP JUMPDEST SWAP3 POP POP DUP2 SWAP1 SSTORE POP DUP2 PUSH20 0xFFFFFFFFFFFFFFFFFFFFFFFFFFFFFFFFFFFFFFFF AND PUSH1 0x0 PUSH20 0xFFFFFFFFFFFFFFFFFFFFFFFFFFFFFFFFFFFFFFFF AND PUSH32 0xDDF252AD1BE2C89B69C2B068FC378DAA952BA7F163C4A11628F55A4DF523B3EF DUP4 PUSH1 0x40 MLOAD PUSH2 0x1282 SWAP2 SWAP1 PUSH2 0x182E JUMP JUMPDEST PUSH1 0x40 MLOAD DUP1 SWAP2 SUB SWAP1 LOG3 PUSH2 0x1296 PUSH1 0x0 DUP4 DUP4 PUSH2 0x15E4 JUMP JUMPDEST POP POP JUMP JUMPDEST PUSH1 0x0 PUSH1 0x5 PUSH1 0x0 SWAP1 SLOAD SWAP1 PUSH2 0x100 EXP SWAP1 DIV PUSH20 0xFFFFFFFFFFFFFFFFFFFFFFFFFFFFFFFFFFFFFFFF AND SWAP1 POP DUP2 PUSH1 0x5 PUSH1 0x0 PUSH2 0x100 EXP DUP2 SLOAD DUP2 PUSH20 0xFFFFFFFFFFFFFFFFFFFFFFFFFFFFFFFFFFFFFFFF MUL NOT AND SWAP1 DUP4 PUSH20 0xFFFFFFFFFFFFFFFFFFFFFFFFFFFFFFFFFFFFFFFF AND MUL OR SWAP1 SSTORE POP DUP2 PUSH20 0xFFFFFFFFFFFFFFFFFFFFFFFFFFFFFFFFFFFFFFFF AND DUP2 PUSH20 0xFFFFFFFFFFFFFFFFFFFFFFFFFFFFFFFFFFFFFFFF AND PUSH32 0x8BE0079C531659141344CD1FD0A4F28419497F9722A3DAAFE3B4186F6B6457E0 PUSH1 0x40 MLOAD PUSH1 0x40 MLOAD DUP1 SWAP2 SUB SWAP1 LOG3 POP POP JUMP JUMPDEST PUSH1 0x0 PUSH20 0xFFFFFFFFFFFFFFFFFFFFFFFFFFFFFFFFFFFFFFFF AND DUP4 PUSH20 0xFFFFFFFFFFFFFFFFFFFFFFFFFFFFFFFFFFFFFFFF AND SUB PUSH2 0x13CF JUMPI PUSH1 0x40 MLOAD PUSH32 0x8C379A000000000000000000000000000000000000000000000000000000000 DUP2 MSTORE PUSH1 0x4 ADD PUSH2 0x13C6 SWAP1 PUSH2 0x21E0 JUMP JUMPDEST PUSH1 0x40 MLOAD DUP1 SWAP2 SUB SWAP1 REVERT JUMPDEST PUSH1 0x0 PUSH20 0xFFFFFFFFFFFFFFFFFFFFFFFFFFFFFFFFFFFFFFFF AND DUP3 PUSH20 0xFFFFFFFFFFFFFFFFFFFFFFFFFFFFFFFFFFFFFFFF AND SUB PUSH2 0x143E JUMPI PUSH1 0x40 MLOAD PUSH32 0x8C379A000000000000000000000000000000000000000000000000000000000 DUP2 MSTORE PUSH1 0x4 ADD PUSH2 0x1435 SWAP1 PUSH2 0x2272 JUMP JUMPDEST PUSH1 0x40 MLOAD DUP1 SWAP2 SUB SWAP1 REVERT JUMPDEST PUSH2 0x1449 DUP4 DUP4 DUP4 PUSH2 0x15DF JUMP JUMPDEST PUSH1 0x0 DUP1 PUSH1 0x0 DUP6 PUSH20 0xFFFFFFFFFFFFFFFFFFFFFFFFFFFFFFFFFFFFFFFF AND PUSH20 0xFFFFFFFFFFFFFFFFFFFFFFFFFFFFFFFFFFFFFFFF AND DUP2 MSTORE PUSH1 0x20 ADD SWAP1 DUP2 MSTORE PUSH1 0x20 ADD PUSH1 0x0 KECCAK256 SLOAD SWAP1 POP DUP2 DUP2 LT ISZERO PUSH2 0x14CF JUMPI PUSH1 0x40 MLOAD PUSH32 0x8C379A000000000000000000000000000000000000000000000000000000000 DUP2 MSTORE PUSH1 0x4 ADD PUSH2 0x14C6 SWAP1 PUSH2 0x2304 JUMP JUMPDEST PUSH1 0x40 MLOAD DUP1 SWAP2 SUB SWAP1 REVERT JUMPDEST DUP2 DUP2 SUB PUSH1 0x0 DUP1 DUP7 PUSH20 0xFFFFFFFFFFFFFFFFFFFFFFFFFFFFFFFFFFFFFFFF AND PUSH20 0xFFFFFFFFFFFFFFFFFFFFFFFFFFFFFFFFFFFFFFFF AND DUP2 MSTORE PUSH1 0x20 ADD SWAP1 DUP2 MSTORE PUSH1 0x20 ADD PUSH1 0x0 KECCAK256 DUP2 SWAP1 SSTORE POP DUP2 PUSH1 0x0 DUP1 DUP6 PUSH20 0xFFFFFFFFFFFFFFFFFFFFFFFFFFFFFFFFFFFFFFFF AND PUSH20 0xFFFFFFFFFFFFFFFFFFFFFFFFFFFFFFFFFFFFFFFF AND DUP2 MSTORE PUSH1 0x20 ADD SWAP1 DUP2 MSTORE PUSH1 0x20 ADD PUSH1 0x0 KECCAK256 PUSH1 0x0 DUP3 DUP3 SLOAD PUSH2 0x1562 SWAP2 SWAP1 PUSH2 0x1AD9 JUMP JUMPDEST SWAP3 POP POP DUP2 SWAP1 SSTORE POP DUP3 PUSH20 0xFFFFFFFFFFFFFFFFFFFFFFFFFFFFFFFFFFFFFFFF AND DUP5 PUSH20 0xFFFFFFFFFFFFFFFFFFFFFFFFFFFFFFFFFFFFFFFF AND PUSH32 0xDDF252AD1BE2C89B69C2B068FC378DAA952BA7F163C4A11628F55A4DF523B3EF DUP5 PUSH1 0x40 MLOAD PUSH2 0x15C6 SWAP2 SWAP1 PUSH2 0x182E JUMP JUMPDEST PUSH1 0x40 MLOAD DUP1 SWAP2 SUB SWAP1 LOG3 PUSH2 0x15D9 DUP5 DUP5 DUP5 PUSH2 0x15E4 JUMP JUMPDEST POP POP POP POP JUMP JUMPDEST POP POP POP JUMP JUMPDEST POP POP POP JUMP JUMPDEST PUSH1 0x0 DUP2 MLOAD SWAP1 POP SWAP2 SWAP1 POP JUMP JUMPDEST PUSH1 0x0 DUP3 DUP3 MSTORE PUSH1 0x20 DUP3 ADD SWAP1 POP SWAP3 SWAP2 POP POP JUMP JUMPDEST PUSH1 0x0 JUMPDEST DUP4 DUP2 LT ISZERO PUSH2 0x1623 JUMPI DUP1 DUP3 ADD MLOAD DUP2 DUP5 ADD MSTORE PUSH1 0x20 DUP2 ADD SWAP1 POP PUSH2 0x1608 JUMP JUMPDEST DUP4 DUP2 GT ISZERO PUSH2 0x1632 JUMPI PUSH1 0x0 DUP5 DUP5 ADD MSTORE JUMPDEST POP POP POP POP JUMP JUMPDEST PUSH1 0x0 PUSH1 0x1F NOT PUSH1 0x1F DUP4 ADD AND SWAP1 POP SWAP2 SWAP1 POP JUMP JUMPDEST PUSH1 0x0 PUSH2 0x1654 DUP3 PUSH2 0x15E9 JUMP JUMPDEST PUSH2 0x165E DUP2 DUP6 PUSH2 0x15F4 JUMP JUMPDEST SWAP4 POP PUSH2 0x166E DUP2 DUP6 PUSH1 0x20 DUP7 ADD PUSH2 0x1605 JUMP JUMPDEST PUSH2 0x1677 DUP2 PUSH2 0x1638 JUMP JUMPDEST DUP5 ADD SWAP2 POP POP SWAP3 SWAP2 POP POP JUMP JUMPDEST PUSH1 0x0 PUSH1 0x20 DUP3 ADD SWAP1 POP DUP2 DUP2 SUB PUSH1 0x0 DUP4 ADD MSTORE PUSH2 0x169C DUP2 DUP5 PUSH2 0x1649 JUMP JUMPDEST SWAP1 POP SWAP3 SWAP2 POP POP JUMP JUMPDEST PUSH1 0x0 DUP1 REVERT JUMPDEST PUSH1 0x0 PUSH20 0xFFFFFFFFFFFFFFFFFFFFFFFFFFFFFFFFFFFFFFFF DUP3 AND SWAP1 POP SWAP2 SWAP1 POP JUMP JUMPDEST PUSH1 0x0 PUSH2 0x16D4 DUP3 PUSH2 0x16A9 JUMP JUMPDEST SWAP1 POP SWAP2 SWAP1 POP JUMP JUMPDEST PUSH2 0x16E4 DUP2 PUSH2 0x16C9 JUMP JUMPDEST DUP2 EQ PUSH2 0x16EF JUMPI PUSH1 0x0 DUP1 REVERT JUMPDEST POP JUMP JUMPDEST PUSH1 0x0 DUP2 CALLDATALOAD SWAP1 POP PUSH2 0x1701 DUP2 PUSH2 0x16DB JUMP JUMPDEST SWAP3 SWAP2 POP POP JUMP JUMPDEST PUSH1 0x0 DUP2 SWAP1 POP SWAP2 SWAP1 POP JUMP JUMPDEST PUSH2 0x171A DUP2 PUSH2 0x1707 JUMP JUMPDEST DUP2 EQ PUSH2 0x1725 JUMPI PUSH1 0x0 DUP1 REVERT JUMPDEST POP JUMP JUMPDEST PUSH1 0x0 DUP2 CALLDATALOAD SWAP1 POP PUSH2 0x1737 DUP2 PUSH2 0x1711 JUMP JUMPDEST SWAP3 SWAP2 POP POP JUMP JUMPDEST PUSH1 0x0 DUP1 PUSH1 0x40 DUP4 DUP6 SUB SLT ISZERO PUSH2 0x1754 JUMPI PUSH2 0x1753 PUSH2 0x16A4 JUMP JUMPDEST JUMPDEST PUSH1 0x0 PUSH2 0x1762 DUP6 DUP3 DUP7 ADD PUSH2 0x16F2 JUMP JUMPDEST SWAP3 POP POP PUSH1 0x20 PUSH2 0x1773 DUP6 DUP3 DUP7 ADD PUSH2 0x1728 JUMP JUMPDEST SWAP2 POP POP SWAP3 POP SWAP3 SWAP1 POP JUMP JUMPDEST PUSH1 0x0 DUP2 ISZERO ISZERO SWAP1 POP SWAP2 SWAP1 POP JUMP JUMPDEST PUSH2 0x1792 DUP2 PUSH2 0x177D JUMP JUMPDEST DUP3 MSTORE POP POP JUMP JUMPDEST PUSH1 0x0 PUSH1 0x20 DUP3 ADD SWAP1 POP PUSH2 0x17AD PUSH1 0x0 DUP4 ADD DUP5 PUSH2 0x1789 JUMP JUMPDEST SWAP3 SWAP2 POP POP JUMP JUMPDEST PUSH2 0x17BC DUP2 PUSH2 0x177D JUMP JUMPDEST DUP2 EQ PUSH2 0x17C7 JUMPI PUSH1 0x0 DUP1 REVERT JUMPDEST POP JUMP JUMPDEST PUSH1 0x0 DUP2 CALLDATALOAD SWAP1 POP PUSH2 0x17D9 DUP2 PUSH2 0x17B3 JUMP JUMPDEST SWAP3 SWAP2 POP POP JUMP JUMPDEST PUSH1 0x0 DUP1 PUSH1 0x40 DUP4 DUP6 SUB SLT ISZERO PUSH2 0x17F6 JUMPI PUSH2 0x17F5 PUSH2 0x16A4 JUMP JUMPDEST JUMPDEST PUSH1 0x0 PUSH2 0x1804 DUP6 DUP3 DUP7 ADD PUSH2 0x16F2 JUMP JUMPDEST SWAP3 POP POP PUSH1 0x20 PUSH2 0x1815 DUP6 DUP3 DUP7 ADD PUSH2 0x17CA JUMP JUMPDEST SWAP2 POP POP SWAP3 POP SWAP3 SWAP1 POP JUMP JUMPDEST PUSH2 0x1828 DUP2 PUSH2 0x1707 JUMP JUMPDEST DUP3 MSTORE POP POP JUMP JUMPDEST PUSH1 0x0 PUSH1 0x20 DUP3 ADD SWAP1 POP PUSH2 0x1843 PUSH1 0x0 DUP4 ADD DUP5 PUSH2 0x181F JUMP JUMPDEST SWAP3 SWAP2 POP POP JUMP JUMPDEST PUSH1 0x0 DUP2 MLOAD SWAP1 POP SWAP2 SWAP1 POP JUMP JUMPDEST PUSH1 0x0 DUP3 DUP3 MSTORE PUSH1 0x20 DUP3 ADD SWAP1 POP SWAP3 SWAP2 POP POP JUMP JUMPDEST PUSH1 0x0 DUP2 SWAP1 POP PUSH1 0x20 DUP3 ADD SWAP1 POP SWAP2 SWAP1 POP JUMP JUMPDEST PUSH2 0x187E DUP2 PUSH2 0x16C9 JUMP JUMPDEST DUP3 MSTORE POP POP JUMP JUMPDEST PUSH1 0x0 PUSH2 0x1890 DUP4 DUP4 PUSH2 0x1875 JUMP JUMPDEST PUSH1 0x20 DUP4 ADD SWAP1 POP SWAP3 SWAP2 POP POP JUMP JUMPDEST PUSH1 0x0 PUSH1 0x20 DUP3 ADD SWAP1 POP SWAP2 SWAP1 POP JUMP JUMPDEST PUSH1 0x0 PUSH2 0x18B4 DUP3 PUSH2 0x1849 JUMP JUMPDEST PUSH2 0x18BE DUP2 DUP6 PUSH2 0x1854 JUMP JUMPDEST SWAP4 POP PUSH2 0x18C9 DUP4 PUSH2 0x1865 JUMP JUMPDEST DUP1 PUSH1 0x0 JUMPDEST DUP4 DUP2 LT ISZERO PUSH2 0x18FA JUMPI DUP2 MLOAD PUSH2 0x18E1 DUP9 DUP3 PUSH2 0x1884 JUMP JUMPDEST SWAP8 POP PUSH2 0x18EC DUP4 PUSH2 0x189C JUMP JUMPDEST SWAP3 POP POP PUSH1 0x1 DUP2 ADD SWAP1 POP PUSH2 0x18CD JUMP JUMPDEST POP DUP6 SWAP4 POP POP POP POP SWAP3 SWAP2 POP POP JUMP JUMPDEST PUSH1 0x0 PUSH1 0x20 DUP3 ADD SWAP1 POP DUP2 DUP2 SUB PUSH1 0x0 DUP4 ADD MSTORE PUSH2 0x1921 DUP2 DUP5 PUSH2 0x18A9 JUMP JUMPDEST SWAP1 POP SWAP3 SWAP2 POP POP JUMP JUMPDEST PUSH1 0x0 DUP1 PUSH1 0x0 PUSH1 0x60 DUP5 DUP7 SUB SLT ISZERO PUSH2 0x1942 JUMPI PUSH2 0x1941 PUSH2 0x16A4 JUMP JUMPDEST JUMPDEST PUSH1 0x0 PUSH2 0x1950 DUP7 DUP3 DUP8 ADD PUSH2 0x16F2 JUMP JUMPDEST SWAP4 POP POP PUSH1 0x20 PUSH2 0x1961 DUP7 DUP3 DUP8 ADD PUSH2 0x16F2 JUMP JUMPDEST SWAP3 POP POP PUSH1 0x40 PUSH2 0x1972 DUP7 DUP3 DUP8 ADD PUSH2 0x1728 JUMP JUMPDEST SWAP2 POP POP SWAP3 POP SWAP3 POP SWAP3 JUMP JUMPDEST PUSH1 0x0 PUSH1 0xFF DUP3 AND SWAP1 POP SWAP2 SWAP1 POP JUMP JUMPDEST PUSH2 0x1992 DUP2 PUSH2 0x197C JUMP JUMPDEST DUP3 MSTORE POP POP JUMP JUMPDEST PUSH1 0x0 PUSH1 0x20 DUP3 ADD SWAP1 POP PUSH2 0x19AD PUSH1 0x0 DUP4 ADD DUP5 PUSH2 0x1989 JUMP JUMPDEST SWAP3 SWAP2 POP POP JUMP JUMPDEST PUSH1 0x0 PUSH1 0x20 DUP3 DUP5 SUB SLT ISZERO PUSH2 0x19C9 JUMPI PUSH2 0x19C8 PUSH2 0x16A4 JUMP JUMPDEST JUMPDEST PUSH1 0x0 PUSH2 0x19D7 DUP5 DUP3 DUP6 ADD PUSH2 0x16F2 JUMP JUMPDEST SWAP2 POP POP SWAP3 SWAP2 POP POP JUMP JUMPDEST PUSH2 0x19E9 DUP2 PUSH2 0x16C9 JUMP JUMPDEST DUP3 MSTORE POP POP JUMP JUMPDEST PUSH1 0x0 PUSH1 0x20 DUP3 ADD SWAP1 POP PUSH2 0x1A04 PUSH1 0x0 DUP4 ADD DUP5 PUSH2 0x19E0 JUMP JUMPDEST SWAP3 SWAP2 POP POP JUMP JUMPDEST PUSH1 0x0 DUP1 PUSH1 0x40 DUP4 DUP6 SUB SLT ISZERO PUSH2 0x1A21 JUMPI PUSH2 0x1A20 PUSH2 0x16A4 JUMP JUMPDEST JUMPDEST PUSH1 0x0 PUSH2 0x1A2F DUP6 DUP3 DUP7 ADD PUSH2 0x16F2 JUMP JUMPDEST SWAP3 POP POP PUSH1 0x20 PUSH2 0x1A40 DUP6 DUP3 DUP7 ADD PUSH2 0x16F2 JUMP JUMPDEST SWAP2 POP POP SWAP3 POP SWAP3 SWAP1 POP JUMP JUMPDEST PUSH32 0x4E487B7100000000000000000000000000000000000000000000000000000000 PUSH1 0x0 MSTORE PUSH1 0x22 PUSH1 0x4 MSTORE PUSH1 0x24 PUSH1 0x0 REVERT JUMPDEST PUSH1 0x0 PUSH1 0x2 DUP3 DIV SWAP1 POP PUSH1 0x1 DUP3 AND DUP1 PUSH2 0x1A91 JUMPI PUSH1 0x7F DUP3 AND SWAP2 POP JUMPDEST PUSH1 0x20 DUP3 LT DUP2 SUB PUSH2 0x1AA4 JUMPI PUSH2 0x1AA3 PUSH2 0x1A4A JUMP JUMPDEST JUMPDEST POP SWAP2 SWAP1 POP JUMP JUMPDEST PUSH32 0x4E487B7100000000000000000000000000000000000000000000000000000000 PUSH1 0x0 MSTORE PUSH1 0x11 PUSH1 0x4 MSTORE PUSH1 0x24 PUSH1 0x0 REVERT JUMPDEST PUSH1 0x0 PUSH2 0x1AE4 DUP3 PUSH2 0x1707 JUMP JUMPDEST SWAP2 POP PUSH2 0x1AEF DUP4 PUSH2 0x1707 JUMP JUMPDEST SWAP3 POP DUP3 PUSH32 0xFFFFFFFFFFFFFFFFFFFFFFFFFFFFFFFFFFFFFFFFFFFFFFFFFFFFFFFFFFFFFFFF SUB DUP3 GT ISZERO PUSH2 0x1B24 JUMPI PUSH2 0x1B23 PUSH2 0x1AAA JUMP JUMPDEST JUMPDEST DUP3 DUP3 ADD SWAP1 POP SWAP3 SWAP2 POP POP JUMP JUMPDEST PUSH32 0x416C726561647920696E20746869732073746174650000000000000000000000 PUSH1 0x0 DUP3 ADD MSTORE POP JUMP JUMPDEST PUSH1 0x0 PUSH2 0x1B65 PUSH1 0x15 DUP4 PUSH2 0x15F4 JUMP JUMPDEST SWAP2 POP PUSH2 0x1B70 DUP3 PUSH2 0x1B2F JUMP JUMPDEST PUSH1 0x20 DUP3 ADD SWAP1 POP SWAP2 SWAP1 POP JUMP JUMPDEST PUSH1 0x0 PUSH1 0x20 DUP3 ADD SWAP1 POP DUP2 DUP2 SUB PUSH1 0x0 DUP4 ADD MSTORE PUSH2 0x1B94 DUP2 PUSH2 0x1B58 JUMP JUMPDEST SWAP1 POP SWAP2 SWAP1 POP JUMP JUMPDEST PUSH1 0x0 PUSH1 0x40 DUP3 ADD SWAP1 POP PUSH2 0x1BB0 PUSH1 0x0 DUP4 ADD DUP6 PUSH2 0x19E0 JUMP JUMPDEST PUSH2 0x1BBD PUSH1 0x20 DUP4 ADD DUP5 PUSH2 0x1789 JUMP JUMPDEST SWAP4 SWAP3 POP POP POP JUMP JUMPDEST PUSH32 0x4E487B7100000000000000000000000000000000000000000000000000000000 PUSH1 0x0 MSTORE PUSH1 0x32 PUSH1 0x4 MSTORE PUSH1 0x24 PUSH1 0x0 REVERT JUMPDEST PUSH1 0x0 PUSH2 0x1BFE DUP3 PUSH2 0x1707 JUMP JUMPDEST SWAP2 POP PUSH2 0x1C09 DUP4 PUSH2 0x1707 JUMP JUMPDEST SWAP3 POP DUP3 DUP3 LT ISZERO PUSH2 0x1C1C JUMPI PUSH2 0x1C1B PUSH2 0x1AAA JUMP JUMPDEST JUMPDEST DUP3 DUP3 SUB SWAP1 POP SWAP3 SWAP2 POP POP JUMP JUMPDEST PUSH32 0x4E487B7100000000000000000000000000000000000000000000000000000000 PUSH1 0x0 MSTORE PUSH1 0x31 PUSH1 0x4 MSTORE PUSH1 0x24 PUSH1 0x0 REVERT JUMPDEST PUSH1 0x0 PUSH2 0x1C61 DUP3 PUSH2 0x1707 JUMP JUMPDEST SWAP2 POP PUSH32 0xFFFFFFFFFFFFFFFFFFFFFFFFFFFFFFFFFFFFFFFFFFFFFFFFFFFFFFFFFFFFFFFF DUP3 SUB PUSH2 0x1C93 JUMPI PUSH2 0x1C92 PUSH2 0x1AAA JUMP JUMPDEST JUMPDEST PUSH1 0x1 DUP3 ADD SWAP1 POP SWAP2 SWAP1 POP JUMP JUMPDEST PUSH32 0x45524332303A2064656372656173656420616C6C6F77616E63652062656C6F77 PUSH1 0x0 DUP3 ADD MSTORE PUSH32 0x207A65726F000000000000000000000000000000000000000000000000000000 PUSH1 0x20 DUP3 ADD MSTORE POP JUMP JUMPDEST PUSH1 0x0 PUSH2 0x1CFA PUSH1 0x25 DUP4 PUSH2 0x15F4 JUMP JUMPDEST SWAP2 POP PUSH2 0x1D05 DUP3 PUSH2 0x1C9E JUMP JUMPDEST PUSH1 0x40 DUP3 ADD SWAP1 POP SWAP2 SWAP1 POP JUMP JUMPDEST PUSH1 0x0 PUSH1 0x20 DUP3 ADD SWAP1 POP DUP2 DUP2 SUB PUSH1 0x0 DUP4 ADD MSTORE PUSH2 0x1D29 DUP2 PUSH2 0x1CED JUMP JUMPDEST SWAP1 POP SWAP2 SWAP1 POP JUMP JUMPDEST PUSH32 0x4F776E61626C653A206E6577206F776E657220697320746865207A65726F2061 PUSH1 0x0 DUP3 ADD MSTORE PUSH32 0x6464726573730000000000000000000000000000000000000000000000000000 PUSH1 0x20 DUP3 ADD MSTORE POP JUMP JUMPDEST PUSH1 0x0 PUSH2 0x1D8C PUSH1 0x26 DUP4 PUSH2 0x15F4 JUMP JUMPDEST SWAP2 POP PUSH2 0x1D97 DUP3 PUSH2 0x1D30 JUMP JUMPDEST PUSH1 0x40 DUP3 ADD SWAP1 POP SWAP2 SWAP1 POP JUMP JUMPDEST PUSH1 0x0 PUSH1 0x20 DUP3 ADD SWAP1 POP DUP2 DUP2 SUB PUSH1 0x0 DUP4 ADD MSTORE PUSH2 0x1DBB DUP2 PUSH2 0x1D7F JUMP JUMPDEST SWAP1 POP SWAP2 SWAP1 POP JUMP JUMPDEST PUSH32 0x45524332303A20617070726F76652066726F6D20746865207A65726F20616464 PUSH1 0x0 DUP3 ADD MSTORE PUSH32 0x7265737300000000000000000000000000000000000000000000000000000000 PUSH1 0x20 DUP3 ADD MSTORE POP JUMP JUMPDEST PUSH1 0x0 PUSH2 0x1E1E PUSH1 0x24 DUP4 PUSH2 0x15F4 JUMP JUMPDEST SWAP2 POP PUSH2 0x1E29 DUP3 PUSH2 0x1DC2 JUMP JUMPDEST PUSH1 0x40 DUP3 ADD SWAP1 POP SWAP2 SWAP1 POP JUMP JUMPDEST PUSH1 0x0 PUSH1 0x20 DUP3 ADD SWAP1 POP DUP2 DUP2 SUB PUSH1 0x0 DUP4 ADD MSTORE PUSH2 0x1E4D DUP2 PUSH2 0x1E11 JUMP JUMPDEST SWAP1 POP SWAP2 SWAP1 POP JUMP JUMPDEST PUSH32 0x45524332303A20617070726F766520746F20746865207A65726F206164647265 PUSH1 0x0 DUP3 ADD MSTORE PUSH32 0x7373000000000000000000000000000000000000000000000000000000000000 PUSH1 0x20 DUP3 ADD MSTORE POP JUMP JUMPDEST PUSH1 0x0 PUSH2 0x1EB0 PUSH1 0x22 DUP4 PUSH2 0x15F4 JUMP JUMPDEST SWAP2 POP PUSH2 0x1EBB DUP3 PUSH2 0x1E54 JUMP JUMPDEST PUSH1 0x40 DUP3 ADD SWAP1 POP SWAP2 SWAP1 POP JUMP JUMPDEST PUSH1 0x0 PUSH1 0x20 DUP3 ADD SWAP1 POP DUP2 DUP2 SUB PUSH1 0x0 DUP4 ADD MSTORE PUSH2 0x1EDF DUP2 PUSH2 0x1EA3 JUMP JUMPDEST SWAP1 POP SWAP2 SWAP1 POP JUMP JUMPDEST PUSH32 0x4F776E61626C653A2063616C6C6572206973206E6F7420746865206F776E6572 PUSH1 0x0 DUP3 ADD MSTORE POP JUMP JUMPDEST PUSH1 0x0 PUSH2 0x1F1C PUSH1 0x20 DUP4 PUSH2 0x15F4 JUMP JUMPDEST SWAP2 POP PUSH2 0x1F27 DUP3 PUSH2 0x1EE6 JUMP JUMPDEST PUSH1 0x20 DUP3 ADD SWAP1 POP SWAP2 SWAP1 POP JUMP JUMPDEST PUSH1 0x0 PUSH1 0x20 DUP3 ADD SWAP1 POP DUP2 DUP2 SUB PUSH1 0x0 DUP4 ADD MSTORE PUSH2 0x1F4B DUP2 PUSH2 0x1F0F JUMP JUMPDEST SWAP1 POP SWAP2 SWAP1 POP JUMP JUMPDEST PUSH32 0x45524332303A20696E73756666696369656E7420616C6C6F77616E6365000000 PUSH1 0x0 DUP3 ADD MSTORE POP JUMP JUMPDEST PUSH1 0x0 PUSH2 0x1F88 PUSH1 0x1D DUP4 PUSH2 0x15F4 JUMP JUMPDEST SWAP2 POP PUSH2 0x1F93 DUP3 PUSH2 0x1F52 JUMP JUMPDEST PUSH1 0x20 DUP3 ADD SWAP1 POP SWAP2 SWAP1 POP JUMP JUMPDEST PUSH1 0x0 PUSH1 0x20 DUP3 ADD SWAP1 POP DUP2 DUP2 SUB PUSH1 0x0 DUP4 ADD MSTORE PUSH2 0x1FB7 DUP2 PUSH2 0x1F7B JUMP JUMPDEST SWAP1 POP SWAP2 SWAP1 POP JUMP JUMPDEST PUSH32 0x53656E646572206973207472616E73666572206C696D69746564000000000000 PUSH1 0x0 DUP3 ADD MSTORE POP JUMP JUMPDEST PUSH1 0x0 PUSH2 0x1FF4 PUSH1 0x1A DUP4 PUSH2 0x15F4 JUMP JUMPDEST SWAP2 POP PUSH2 0x1FFF DUP3 PUSH2 0x1FBE JUMP JUMPDEST PUSH1 0x20 DUP3 ADD SWAP1 POP SWAP2 SWAP1 POP JUMP JUMPDEST PUSH1 0x0 PUSH1 0x20 DUP3 ADD SWAP1 POP DUP2 DUP2 SUB PUSH1 0x0 DUP4 ADD MSTORE PUSH2 0x2023 DUP2 PUSH2 0x1FE7 JUMP JUMPDEST SWAP1 POP SWAP2 SWAP1 POP JUMP JUMPDEST PUSH32 0x526563697069656E74206973207472616E73666572206C696D69746564000000 PUSH1 0x0 DUP3 ADD MSTORE POP JUMP JUMPDEST PUSH1 0x0 PUSH2 0x2060 PUSH1 0x1D DUP4 PUSH2 0x15F4 JUMP JUMPDEST SWAP2 POP PUSH2 0x206B DUP3 PUSH2 0x202A JUMP JUMPDEST PUSH1 0x20 DUP3 ADD SWAP1 POP SWAP2 SWAP1 POP JUMP JUMPDEST PUSH1 0x0 PUSH1 0x20 DUP3 ADD SWAP1 POP DUP2 DUP2 SUB PUSH1 0x0 DUP4 ADD MSTORE PUSH2 0x208F DUP2 PUSH2 0x2053 JUMP JUMPDEST SWAP1 POP SWAP2 SWAP1 POP JUMP JUMPDEST PUSH32 0x526563697069656E7420697320414D4D20706169720000000000000000000000 PUSH1 0x0 DUP3 ADD MSTORE POP JUMP JUMPDEST PUSH1 0x0 PUSH2 0x20CC PUSH1 0x15 DUP4 PUSH2 0x15F4 JUMP JUMPDEST SWAP2 POP PUSH2 0x20D7 DUP3 PUSH2 0x2096 JUMP JUMPDEST PUSH1 0x20 DUP3 ADD SWAP1 POP SWAP2 SWAP1 POP JUMP JUMPDEST PUSH1 0x0 PUSH1 0x20 DUP3 ADD SWAP1 POP DUP2 DUP2 SUB PUSH1 0x0 DUP4 ADD MSTORE PUSH2 0x20FB DUP2 PUSH2 0x20BF JUMP JUMPDEST SWAP1 POP SWAP2 SWAP1 POP JUMP JUMPDEST PUSH32 0x45524332303A206D696E7420746F20746865207A65726F206164647265737300 PUSH1 0x0 DUP3 ADD MSTORE POP JUMP JUMPDEST PUSH1 0x0 PUSH2 0x2138 PUSH1 0x1F DUP4 PUSH2 0x15F4 JUMP JUMPDEST SWAP2 POP PUSH2 0x2143 DUP3 PUSH2 0x2102 JUMP JUMPDEST PUSH1 0x20 DUP3 ADD SWAP1 POP SWAP2 SWAP1 POP JUMP JUMPDEST PUSH1 0x0 PUSH1 0x20 DUP3 ADD SWAP1 POP DUP2 DUP2 SUB PUSH1 0x0 DUP4 ADD MSTORE PUSH2 0x2167 DUP2 PUSH2 0x212B JUMP JUMPDEST SWAP1 POP SWAP2 SWAP1 POP JUMP JUMPDEST PUSH32 0x45524332303A207472616E736665722066726F6D20746865207A65726F206164 PUSH1 0x0 DUP3 ADD MSTORE PUSH32 0x6472657373000000000000000000000000000000000000000000000000000000 PUSH1 0x20 DUP3 ADD MSTORE POP JUMP JUMPDEST PUSH1 0x0 PUSH2 0x21CA PUSH1 0x25 DUP4 PUSH2 0x15F4 JUMP JUMPDEST SWAP2 POP PUSH2 0x21D5 DUP3 PUSH2 0x216E JUMP JUMPDEST PUSH1 0x40 DUP3 ADD SWAP1 POP SWAP2 SWAP1 POP JUMP JUMPDEST PUSH1 0x0 PUSH1 0x20 DUP3 ADD SWAP1 POP DUP2 DUP2 SUB PUSH1 0x0 DUP4 ADD MSTORE PUSH2 0x21F9 DUP2 PUSH2 0x21BD JUMP JUMPDEST SWAP1 POP SWAP2 SWAP1 POP JUMP JUMPDEST PUSH32 0x45524332303A207472616E7366657220746F20746865207A65726F2061646472 PUSH1 0x0 DUP3 ADD MSTORE PUSH32 0x6573730000000000000000000000000000000000000000000000000000000000 PUSH1 0x20 DUP3 ADD MSTORE POP JUMP JUMPDEST PUSH1 0x0 PUSH2 0x225C PUSH1 0x23 DUP4 PUSH2 0x15F4 JUMP JUMPDEST SWAP2 POP PUSH2 0x2267 DUP3 PUSH2 0x2200 JUMP JUMPDEST PUSH1 0x40 DUP3 ADD SWAP1 POP SWAP2 SWAP1 POP JUMP JUMPDEST PUSH1 0x0 PUSH1 0x20 DUP3 ADD SWAP1 POP DUP2 DUP2 SUB PUSH1 0x0 DUP4 ADD MSTORE PUSH2 0x228B DUP2 PUSH2 0x224F JUMP JUMPDEST SWAP1 POP SWAP2 SWAP1 POP JUMP JUMPDEST PUSH32 0x45524332303A207472616E7366657220616D6F756E7420657863656564732062 PUSH1 0x0 DUP3 ADD MSTORE PUSH32 0x616C616E63650000000000000000000000000000000000000000000000000000 PUSH1 0x20 DUP3 ADD MSTORE POP JUMP JUMPDEST PUSH1 0x0 PUSH2 0x22EE PUSH1 0x26 DUP4 PUSH2 0x15F4 JUMP JUMPDEST SWAP2 POP PUSH2 0x22F9 DUP3 PUSH2 0x2292 JUMP JUMPDEST PUSH1 0x40 DUP3 ADD SWAP1 POP SWAP2 SWAP1 POP JUMP JUMPDEST PUSH1 0x0 PUSH1 0x20 DUP3 ADD SWAP1 POP DUP2 DUP2 SUB PUSH1 0x0 DUP4 ADD MSTORE PUSH2 0x231D DUP2 PUSH2 0x22E1 JUMP JUMPDEST SWAP1 POP SWAP2 SWAP1 POP JUMP INVALID LOG2 PUSH5 0x6970667358 0x22 SLT KECCAK256 0x21 DUP14 JUMPI 0xC1 0xF8 0xBB SUB PUSH30 0x27921A1BF63B7EF484AFFC2862BB2B16A130E546E9F94E9664736F6C6343 STOP ADDMOD 0xF STOP CALLER "
				},
				"gasEstimates": {
					"creation": {
						"codeDepositCost": "1810000",
						"executionCost": "infinite",
						"totalCost": "infinite"
					},
					"external": {
						"allowance(address,address)": "infinite",
						"approve(address,uint256)": "infinite",
						"balanceOf(address)": "2886",
						"decimals()": "388",
						"decreaseAllowance(address,uint256)": "infinite",
						"increaseAllowance(address,uint256)": "infinite",
						"isAmmPair(address)": "2956",
						"isTransferLimited(address)": "2868",
						"mint(address,uint256)": "infinite",
						"name()": "infinite",
						"owner()": "2611",
						"renounceOwnership()": "30465",
						"setAmmPair(address,bool)": "27323",
						"setTransferLimited(address,bool)": "infinite",
						"symbol()": "infinite",
						"totalSupply()": "2527",
						"transfer(address,uint256)": "infinite",
						"transferFrom(address,address,uint256)": "infinite",
						"transferLimitedAccounts()": "infinite",
						"transferOwnership(address)": "30854"
					},
					"internal": {
						"_transfer(address,address,uint256)": "infinite"
					}
				},
				"methodIdentifiers": {
					"allowance(address,address)": "dd62ed3e",
					"approve(address,uint256)": "095ea7b3",
					"balanceOf(address)": "70a08231",
					"decimals()": "313ce567",
					"decreaseAllowance(address,uint256)": "a457c2d7",
					"increaseAllowance(address,uint256)": "39509351",
					"isAmmPair(address)": "9191a9c7",
					"isTransferLimited(address)": "60019de8",
					"mint(address,uint256)": "40c10f19",
					"name()": "06fdde03",
					"owner()": "8da5cb5b",
					"renounceOwnership()": "715018a6",
					"setAmmPair(address,bool)": "0a656923",
					"setTransferLimited(address,bool)": "4b457327",
					"symbol()": "95d89b41",
					"totalSupply()": "18160ddd",
					"transfer(address,uint256)": "a9059cbb",
					"transferFrom(address,address,uint256)": "23b872dd",
					"transferLimitedAccounts()": "19a5e426",
					"transferOwnership(address)": "f2fde38b"
				}
			},
			"storageLayout": {
				"storage": [
					{
						"astId": 128,
						"contract": "contracts/MoonPay.sol:LimitedToken",
						"label": "_balances",
						"offset": 0,
						"slot": "0",
						"type": "t_mapping(t_address,t_uint256)"
					},
					{
						"astId": 134,
						"contract": "contracts/MoonPay.sol:LimitedToken",
						"label": "_allowances",
						"offset": 0,
						"slot": "1",
						"type": "t_mapping(t_address,t_mapping(t_address,t_uint256))"
					},
					{
						"astId": 136,
						"contract": "contracts/MoonPay.sol:LimitedToken",
						"label": "_totalSupply",
						"offset": 0,
						"slot": "2",
						"type": "t_uint256"
					},
					{
						"astId": 138,
						"contract": "contracts/MoonPay.sol:LimitedToken",
						"label": "_name",
						"offset": 0,
						"slot": "3",
						"type": "t_string_storage"
					},
					{
						"astId": 140,
						"contract": "contracts/MoonPay.sol:LimitedToken",
						"label": "_symbol",
						"offset": 0,
						"slot": "4",
						"type": "t_string_storage"
					},
					{
						"astId": 7,
						"contract": "contracts/MoonPay.sol:LimitedToken",
						"label": "_owner",
						"offset": 0,
						"slot": "5",
						"type": "t_address"
					},
					{
						"astId": 836,
						"contract": "contracts/MoonPay.sol:LimitedToken",
						"label": "isTransferLimited",
						"offset": 0,
						"slot": "6",
						"type": "t_mapping(t_address,t_bool)"
					},
					{
						"astId": 840,
						"contract": "contracts/MoonPay.sol:LimitedToken",
						"label": "isAmmPair",
						"offset": 0,
						"slot": "7",
						"type": "t_mapping(t_address,t_bool)"
					},
					{
						"astId": 843,
						"contract": "contracts/MoonPay.sol:LimitedToken",
						"label": "_transferLimited",
						"offset": 0,
						"slot": "8",
						"type": "t_array(t_address)dyn_storage"
					}
				],
				"types": {
					"t_address": {
						"encoding": "inplace",
						"label": "address",
						"numberOfBytes": "20"
					},
					"t_array(t_address)dyn_storage": {
						"base": "t_address",
						"encoding": "dynamic_array",
						"label": "address[]",
						"numberOfBytes": "32"
					},
					"t_bool": {
						"encoding": "inplace",
						"label": "bool",
						"numberOfBytes": "1"
					},
					"t_mapping(t_address,t_bool)": {
						"encoding": "mapping",
						"key": "t_address",
						"label": "mapping(address => bool)",
						"numberOfBytes": "32",
						"value": "t_bool"
					},
					"t_mapping(t_address,t_mapping(t_address,t_uint256))": {
						"encoding": "mapping",
						"key": "t_address",
						"label": "mapping(address => mapping(address => uint256))",
						"numberOfBytes": "32",
						"value": "t_mapping(t_address,t_uint256)"
					},
					"t_mapping(t_address,t_uint256)": {
						"encoding": "mapping",
						"key": "t_address",
						"label": "mapping(address => uint256)",
						"numberOfBytes": "32",
						"value": "t_uint256"
					},
					"t_string_storage": {
						"encoding": "bytes",
						"label": "string",
						"numberOfBytes": "32"
					},
					"t_uint256": {
						"encoding": "inplace",
						"label": "uint256",
						"numberOfBytes": "32"
					}
				}
			},
			"userdoc": {
				"kind": "user",
				"methods": {},
				"version": 1
			}
		}
	}
}